{
  "_format": "hh-sol-artifact-1",
  "contractName": "RewardPool",
  "sourceName": "contracts/rewards/RewardPool.sol",
  "abi": [
    {
      "anonymous": false,
      "inputs": [
        {
          "indexed": false,
          "internalType": "address",
          "name": "previousAdmin",
          "type": "address"
        },
        {
          "indexed": false,
          "internalType": "address",
          "name": "newAdmin",
          "type": "address"
        }
      ],
      "name": "AdminChanged",
      "type": "event"
    },
    {
      "anonymous": false,
      "inputs": [
        {
          "indexed": true,
          "internalType": "address",
          "name": "beacon",
          "type": "address"
        }
      ],
      "name": "BeaconUpgraded",
      "type": "event"
    },
    {
      "anonymous": false,
      "inputs": [
        {
          "indexed": true,
          "internalType": "address",
          "name": "acount",
          "type": "address"
        },
        {
          "indexed": false,
          "internalType": "uint256",
          "name": "amount",
          "type": "uint256"
        },
        {
          "indexed": false,
          "internalType": "uint256[]",
          "name": "poolIds",
          "type": "uint256[]"
        },
        {
          "indexed": false,
          "internalType": "uint256[]",
          "name": "amounts",
          "type": "uint256[]"
        }
      ],
      "name": "Claim",
      "type": "event"
    },
    {
      "anonymous": false,
      "inputs": [
        {
          "indexed": false,
          "internalType": "uint256",
          "name": "id",
          "type": "uint256"
        },
        {
          "indexed": false,
          "internalType": "enum IRewardPool.AssetType",
          "name": "assetType",
          "type": "uint8"
        },
        {
          "indexed": false,
          "internalType": "address",
          "name": "asset",
          "type": "address"
        },
        {
          "indexed": false,
          "internalType": "uint256",
          "name": "weight",
          "type": "uint256"
        }
      ],
      "name": "CreatePool",
      "type": "event"
    },
    {
      "anonymous": false,
      "inputs": [
        {
          "indexed": false,
          "internalType": "uint256",
          "name": "duration",
          "type": "uint256"
        },
        {
          "indexed": false,
          "internalType": "uint256",
          "name": "rate",
          "type": "uint256"
        },
        {
          "indexed": false,
          "internalType": "uint256",
          "name": "totalAmount",
          "type": "uint256"
        },
        {
          "indexed": false,
          "internalType": "uint256[]",
          "name": "poolIds",
          "type": "uint256[]"
        },
        {
          "indexed": false,
          "internalType": "uint256[]",
          "name": "amounts",
          "type": "uint256[]"
        }
      ],
      "name": "ForexDistributed",
      "type": "event"
    },
    {
      "anonymous": false,
      "inputs": [
        {
          "indexed": false,
          "internalType": "uint256",
          "name": "poolId",
          "type": "uint256"
        },
        {
          "indexed": false,
          "internalType": "bytes32",
          "name": "aliasHash",
          "type": "bytes32"
        }
      ],
      "name": "PoolAliasChanged",
      "type": "event"
    },
    {
      "anonymous": false,
      "inputs": [
        {
          "indexed": true,
          "internalType": "bytes32",
          "name": "role",
          "type": "bytes32"
        },
        {
          "indexed": true,
          "internalType": "bytes32",
          "name": "previousAdminRole",
          "type": "bytes32"
        },
        {
          "indexed": true,
          "internalType": "bytes32",
          "name": "newAdminRole",
          "type": "bytes32"
        }
      ],
      "name": "RoleAdminChanged",
      "type": "event"
    },
    {
      "anonymous": false,
      "inputs": [
        {
          "indexed": true,
          "internalType": "bytes32",
          "name": "role",
          "type": "bytes32"
        },
        {
          "indexed": true,
          "internalType": "address",
          "name": "account",
          "type": "address"
        },
        {
          "indexed": true,
          "internalType": "address",
          "name": "sender",
          "type": "address"
        }
      ],
      "name": "RoleGranted",
      "type": "event"
    },
    {
      "anonymous": false,
      "inputs": [
        {
          "indexed": true,
          "internalType": "bytes32",
          "name": "role",
          "type": "bytes32"
        },
        {
          "indexed": true,
          "internalType": "address",
          "name": "account",
          "type": "address"
        },
        {
          "indexed": true,
          "internalType": "address",
          "name": "sender",
          "type": "address"
        }
      ],
      "name": "RoleRevoked",
      "type": "event"
    },
    {
      "anonymous": false,
      "inputs": [
        {
          "indexed": false,
          "internalType": "uint256",
          "name": "ratePerSecond",
          "type": "uint256"
        }
      ],
      "name": "SetForexDistributionRate",
      "type": "event"
    },
    {
      "anonymous": false,
      "inputs": [
        {
          "indexed": false,
          "internalType": "address[]",
          "name": "fxTokens",
          "type": "address[]"
        },
        {
          "indexed": false,
          "internalType": "uint256[]",
          "name": "weights",
          "type": "uint256[]"
        }
      ],
      "name": "SetFxTokenWeights",
      "type": "event"
    },
    {
      "anonymous": false,
      "inputs": [
        {
          "indexed": false,
          "internalType": "uint256[]",
          "name": "poolIds",
          "type": "uint256[]"
        },
        {
          "indexed": false,
          "internalType": "uint256[]",
          "name": "weights",
          "type": "uint256[]"
        }
      ],
      "name": "SetPoolWeights",
      "type": "event"
    },
    {
      "anonymous": false,
      "inputs": [
        {
          "indexed": true,
          "internalType": "address",
          "name": "account",
          "type": "address"
        },
        {
          "indexed": false,
          "internalType": "uint256",
          "name": "poolId",
          "type": "uint256"
        },
        {
          "indexed": false,
          "internalType": "uint256",
          "name": "amount",
          "type": "uint256"
        }
      ],
      "name": "Stake",
      "type": "event"
    },
    {
      "anonymous": false,
      "inputs": [
        {
          "indexed": true,
          "internalType": "address",
          "name": "account",
          "type": "address"
        },
        {
          "indexed": false,
          "internalType": "uint256",
          "name": "poolId",
          "type": "uint256"
        },
        {
          "indexed": false,
          "internalType": "uint256",
          "name": "amount",
          "type": "uint256"
        }
      ],
      "name": "Unstake",
      "type": "event"
    },
    {
      "anonymous": false,
      "inputs": [
        {
          "indexed": true,
          "internalType": "address",
          "name": "implementation",
          "type": "address"
        }
      ],
      "name": "Upgraded",
      "type": "event"
    },
    {
      "anonymous": false,
      "inputs": [
        {
          "indexed": false,
          "internalType": "address",
          "name": "staker",
          "type": "address"
        },
        {
          "indexed": false,
          "internalType": "uint256",
          "name": "poolId",
          "type": "uint256"
        },
        {
          "indexed": false,
          "internalType": "bool",
          "name": "whitelisted",
          "type": "bool"
        }
      ],
      "name": "WhitelistChanged",
      "type": "event"
    },
    {
      "inputs": [],
      "name": "ADMIN_ROLE",
      "outputs": [
        {
          "internalType": "bytes32",
          "name": "",
          "type": "bytes32"
        }
      ],
      "stateMutability": "view",
      "type": "function"
    },
    {
      "inputs": [],
      "name": "DEFAULT_ADMIN_ROLE",
      "outputs": [
        {
          "internalType": "bytes32",
          "name": "",
          "type": "bytes32"
        }
      ],
      "stateMutability": "view",
      "type": "function"
    },
    {
      "inputs": [],
      "name": "OPERATOR_ROLE",
      "outputs": [
        {
          "internalType": "bytes32",
          "name": "",
          "type": "bytes32"
        }
      ],
      "stateMutability": "view",
      "type": "function"
    },
    {
      "inputs": [
        {
          "internalType": "address",
          "name": "account",
          "type": "address"
        }
      ],
      "name": "balanceOf",
      "outputs": [
        {
          "internalType": "uint256",
          "name": "balance",
          "type": "uint256"
        }
      ],
      "stateMutability": "view",
      "type": "function"
    },
    {
      "inputs": [],
      "name": "claim",
      "outputs": [],
      "stateMutability": "nonpayable",
      "type": "function"
    },
    {
      "inputs": [
        {
          "internalType": "uint256",
          "name": "weight",
          "type": "uint256"
        },
        {
          "internalType": "enum IRewardPool.AssetType",
          "name": "assetType",
          "type": "uint8"
        },
        {
          "internalType": "address",
          "name": "assetAddress",
          "type": "address"
        },
        {
          "internalType": "uint256[]",
          "name": "poolIds",
          "type": "uint256[]"
        },
        {
          "internalType": "uint256[]",
          "name": "weights",
          "type": "uint256[]"
        }
      ],
      "name": "createPool",
      "outputs": [],
      "stateMutability": "nonpayable",
      "type": "function"
    },
    {
      "inputs": [],
      "name": "distribute",
      "outputs": [],
      "stateMutability": "nonpayable",
      "type": "function"
    },
    {
      "inputs": [
        {
          "internalType": "uint256",
          "name": "",
          "type": "uint256"
        }
      ],
      "name": "enabledPools",
      "outputs": [
        {
          "internalType": "uint256",
          "name": "",
          "type": "uint256"
        }
      ],
      "stateMutability": "view",
      "type": "function"
    },
    {
      "inputs": [],
      "name": "enabledPoolsLength",
      "outputs": [
        {
          "internalType": "uint256",
          "name": "",
          "type": "uint256"
        }
      ],
      "stateMutability": "view",
      "type": "function"
    },
    {
      "inputs": [],
      "name": "forex",
      "outputs": [
        {
          "internalType": "contract IERC20",
          "name": "",
          "type": "address"
        }
      ],
      "stateMutability": "view",
      "type": "function"
    },
    {
      "inputs": [],
      "name": "forexDistributionRate",
      "outputs": [
        {
          "internalType": "uint256",
          "name": "",
          "type": "uint256"
        }
      ],
      "stateMutability": "view",
      "type": "function"
    },
    {
      "inputs": [
        {
          "internalType": "address",
          "name": "account",
          "type": "address"
        },
        {
          "internalType": "uint256",
          "name": "poolId",
          "type": "uint256"
        }
      ],
      "name": "getDeposit",
      "outputs": [
        {
          "components": [
            {
              "internalType": "uint256",
              "name": "amount",
              "type": "uint256"
            },
            {
              "internalType": "uint256",
              "name": "S",
              "type": "uint256"
            }
          ],
          "internalType": "struct IRewardPool.Deposit",
          "name": "",
          "type": "tuple"
        }
      ],
      "stateMutability": "view",
      "type": "function"
    },
    {
      "inputs": [
        {
          "internalType": "address",
          "name": "token",
          "type": "address"
        },
        {
          "internalType": "uint256",
          "name": "category",
          "type": "uint256"
        }
      ],
      "name": "getFxTokenPoolAlias",
      "outputs": [
        {
          "internalType": "bytes32",
          "name": "",
          "type": "bytes32"
        }
      ],
      "stateMutability": "view",
      "type": "function"
    },
    {
      "inputs": [
        {
          "internalType": "uint256",
          "name": "poolId",
          "type": "uint256"
        }
      ],
      "name": "getPool",
      "outputs": [
        {
          "internalType": "uint256",
          "name": "weight",
          "type": "uint256"
        },
        {
          "internalType": "enum IRewardPool.AssetType",
          "name": "assetType",
          "type": "uint8"
        },
        {
          "internalType": "address",
          "name": "assetAddress",
          "type": "address"
        },
        {
          "internalType": "uint256",
          "name": "totalDeposits",
          "type": "uint256"
        },
        {
          "internalType": "uint256",
          "name": "S",
          "type": "uint256"
        }
      ],
      "stateMutability": "view",
      "type": "function"
    },
    {
      "inputs": [
        {
          "internalType": "bytes32",
          "name": "hash",
          "type": "bytes32"
        }
      ],
      "name": "getPoolIdByAlias",
      "outputs": [
        {
          "internalType": "bool",
          "name": "found",
          "type": "bool"
        },
        {
          "internalType": "uint256",
          "name": "poolId",
          "type": "uint256"
        }
      ],
      "stateMutability": "view",
      "type": "function"
    },
    {
      "inputs": [],
      "name": "getPoolsData",
      "outputs": [
        {
          "internalType": "uint256[]",
          "name": "poolRatios",
          "type": "uint256[]"
        },
        {
          "internalType": "uint256[]",
          "name": "accruedAmounts",
          "type": "uint256[]"
        },
        {
          "internalType": "uint256[]",
          "name": "deltaS",
          "type": "uint256[]"
        }
      ],
      "stateMutability": "view",
      "type": "function"
    },
    {
      "inputs": [
        {
          "internalType": "bytes32",
          "name": "role",
          "type": "bytes32"
        }
      ],
      "name": "getRoleAdmin",
      "outputs": [
        {
          "internalType": "bytes32",
          "name": "",
          "type": "bytes32"
        }
      ],
      "stateMutability": "view",
      "type": "function"
    },
    {
      "inputs": [
        {
          "internalType": "bytes32",
          "name": "role",
          "type": "bytes32"
        },
        {
          "internalType": "address",
          "name": "account",
          "type": "address"
        }
      ],
      "name": "grantRole",
      "outputs": [],
      "stateMutability": "nonpayable",
      "type": "function"
    },
    {
      "inputs": [],
      "name": "handleAddress",
      "outputs": [
        {
          "internalType": "address",
          "name": "",
          "type": "address"
        }
      ],
      "stateMutability": "view",
      "type": "function"
    },
    {
      "inputs": [
        {
          "internalType": "bytes32",
          "name": "role",
          "type": "bytes32"
        },
        {
          "internalType": "address",
          "name": "account",
          "type": "address"
        }
      ],
      "name": "hasRole",
      "outputs": [
        {
          "internalType": "bool",
          "name": "",
          "type": "bool"
        }
      ],
      "stateMutability": "view",
      "type": "function"
    },
    {
      "inputs": [],
      "name": "initialize",
      "outputs": [],
      "stateMutability": "nonpayable",
      "type": "function"
    },
    {
      "inputs": [],
      "name": "lastDistributionDate",
      "outputs": [
        {
          "internalType": "uint256",
          "name": "",
          "type": "uint256"
        }
      ],
      "stateMutability": "view",
      "type": "function"
    },
    {
      "inputs": [],
      "name": "poolCount",
      "outputs": [
        {
          "internalType": "uint256",
          "name": "",
          "type": "uint256"
        }
      ],
      "stateMutability": "view",
      "type": "function"
    },
    {
      "inputs": [
        {
          "internalType": "bytes32",
          "name": "role",
          "type": "bytes32"
        },
        {
          "internalType": "address",
          "name": "account",
          "type": "address"
        }
      ],
      "name": "renounceRole",
      "outputs": [],
      "stateMutability": "nonpayable",
      "type": "function"
    },
    {
      "inputs": [
        {
          "internalType": "bytes32",
          "name": "role",
          "type": "bytes32"
        },
        {
          "internalType": "address",
          "name": "account",
          "type": "address"
        }
      ],
      "name": "revokeRole",
      "outputs": [],
      "stateMutability": "nonpayable",
      "type": "function"
    },
    {
      "inputs": [
        {
          "internalType": "uint256",
          "name": "rate",
          "type": "uint256"
        }
      ],
      "name": "setForexDistributionRate",
      "outputs": [],
      "stateMutability": "nonpayable",
      "type": "function"
    },
    {
      "inputs": [
        {
          "internalType": "address",
          "name": "_handle",
          "type": "address"
        }
      ],
      "name": "setHandleContract",
      "outputs": [],
      "stateMutability": "nonpayable",
      "type": "function"
    },
    {
      "inputs": [
        {
          "internalType": "bytes32",
          "name": "hash",
          "type": "bytes32"
        },
        {
          "internalType": "uint256",
          "name": "poolId",
          "type": "uint256"
        }
      ],
      "name": "setPoolAlias",
      "outputs": [],
      "stateMutability": "nonpayable",
      "type": "function"
    },
    {
      "inputs": [
        {
          "internalType": "uint256[]",
          "name": "poolIds",
          "type": "uint256[]"
        },
        {
          "internalType": "uint256[]",
          "name": "weights",
          "type": "uint256[]"
        }
      ],
      "name": "setPools",
      "outputs": [],
      "stateMutability": "nonpayable",
      "type": "function"
    },
    {
      "inputs": [
        {
          "internalType": "address",
          "name": "staker",
          "type": "address"
        },
        {
          "internalType": "uint256",
          "name": "poolId",
          "type": "uint256"
        },
        {
          "internalType": "bool",
          "name": "isWhitelisted",
          "type": "bool"
        }
      ],
      "name": "setWhitelistedStaker",
      "outputs": [],
      "stateMutability": "nonpayable",
      "type": "function"
    },
    {
      "inputs": [
        {
          "internalType": "enum IRewardPool.AssetType[]",
          "name": "assetTypes",
          "type": "uint8[]"
        },
        {
          "internalType": "address[]",
          "name": "assetAddresses",
          "type": "address[]"
        },
        {
          "internalType": "uint256[]",
          "name": "weights",
          "type": "uint256[]"
        },
        {
          "internalType": "bytes32[]",
          "name": "aliases",
          "type": "bytes32[]"
        }
      ],
      "name": "setupPools",
      "outputs": [],
      "stateMutability": "nonpayable",
      "type": "function"
    },
    {
      "inputs": [
        {
          "internalType": "address",
          "name": "account",
          "type": "address"
        },
        {
          "internalType": "uint256",
          "name": "value",
          "type": "uint256"
        },
        {
          "internalType": "uint256",
          "name": "poolId",
          "type": "uint256"
        }
      ],
      "name": "stake",
      "outputs": [
        {
          "internalType": "uint256",
          "name": "errorCode",
          "type": "uint256"
        }
      ],
      "stateMutability": "nonpayable",
      "type": "function"
    },
    {
      "inputs": [
        {
          "internalType": "bytes4",
          "name": "interfaceId",
          "type": "bytes4"
        }
      ],
      "name": "supportsInterface",
      "outputs": [
        {
          "internalType": "bool",
          "name": "",
          "type": "bool"
        }
      ],
      "stateMutability": "view",
      "type": "function"
    },
    {
      "inputs": [
        {
          "internalType": "address",
          "name": "account",
          "type": "address"
        },
        {
          "internalType": "uint256",
          "name": "value",
          "type": "uint256"
        },
        {
          "internalType": "uint256",
          "name": "poolId",
          "type": "uint256"
        }
      ],
      "name": "unstake",
      "outputs": [
        {
          "internalType": "uint256",
          "name": "errorCode",
          "type": "uint256"
        }
      ],
      "stateMutability": "nonpayable",
      "type": "function"
    },
    {
      "inputs": [
        {
          "internalType": "address",
          "name": "newImplementation",
          "type": "address"
        }
      ],
      "name": "upgradeTo",
      "outputs": [],
      "stateMutability": "nonpayable",
      "type": "function"
    },
    {
      "inputs": [
        {
          "internalType": "address",
          "name": "newImplementation",
          "type": "address"
        },
        {
          "internalType": "bytes",
          "name": "data",
          "type": "bytes"
        }
      ],
      "name": "upgradeToAndCall",
      "outputs": [],
      "stateMutability": "payable",
      "type": "function"
    }
  ],
  "bytecode": "0x60a06040523060601b60805234801561001757600080fd5b5060805160601c6136e661004b60003960008181610a9c01528181610adc01528181610b700152610bb001526136e66000f3fe60806040526004361061020f5760003560e01c80638a4962cd11610118578063d547741f116100a0578063e61ab44d1161006f578063e61ab44d146106f5578063e9b86a9114610715578063f525cb6814610739578063f5b541a614610750578063ffcd9da6146107725761020f565b8063d547741f14610669578063db86b79914610689578063df483d8d146106c0578063e4fc6b6d146106e05761020f565b80639e9d1d2f116100e75780639e9d1d2f146105e6578063a217fddf14610606578063a2bc66be1461061b578063a709e7481461063b578063b5ec189a146106525761020f565b80638a4962cd1461056657806391d14854146105865780639b1c414f146105a65780639c301c99146105c65761020f565b80633b17c5171161019b57806370a082311161016a57806370a08231146104bc57806374bf578b146104dc57806375b238fc1461050f5780638129fc1c14610531578063889deaad146105465761020f565b80633b17c5171461041c5780634e71d92d146104325780634f1ef286146104475780636de6d5ec1461045a5761020f565b8063248a9ca3116101e2578063248a9ca3146103005780632726b506146103305780632f2ff15d146103bc57806336568abe146103dc5780633659cfe6146103fc5761020f565b806301ffc9a714610214578063068bcd8d146102495780630c51b88f146102b05780631710de07146102de575b600080fd5b34801561022057600080fd5b5061023461022f36600461308d565b610793565b60405190151581526020015b60405180910390f35b34801561025557600080fd5b5061029f610264366004613025565b600090815261012f60205260409020805460018201546004830154600590930154919360ff8216936101009092046001600160a01b03169290565b604051610240959493929190613459565b3480156102bc57600080fd5b506102d06102cb366004612e6c565b6107cc565b604051908152602001610240565b3480156102ea57600080fd5b506102fe6102f9366004612e2b565b61091c565b005b34801561030c57600080fd5b506102d061031b366004613025565b600090815260c9602052604090206001015490565b34801561033c57600080fd5b506103a161034b366004612e00565b604080518082019091526000808252602082015250600081815261012f602090815260408083206001600160a01b0386168452600301825291829020825180840190935280548352600101549082015292915050565b60408051825181526020928301519281019290925201610240565b3480156103c857600080fd5b506102fe6103d736600461303d565b6109e7565b3480156103e857600080fd5b506102fe6103f736600461303d565b610a13565b34801561040857600080fd5b506102fe610417366004612d26565b610a91565b34801561042857600080fd5b50610131546102d0565b34801561043e57600080fd5b506102fe610b5a565b6102fe610455366004612d5e565b610b65565b34801561046657600080fd5b506102d0610475366004612e00565b6040516bffffffffffffffffffffffff19606084901b1660208201526034810182905260009060540160405160208183030381529060405280519060200120905092915050565b3480156104c857600080fd5b506102d06104d7366004612d26565b610c1b565b3480156104e857600080fd5b5061012d546001600160a01b03165b6040516001600160a01b039091168152602001610240565b34801561051b57600080fd5b506102d060008051602061369183398151915281565b34801561053d57600080fd5b506102fe610d66565b34801561055257600080fd5b506102d0610561366004613025565b610e37565b34801561057257600080fd5b506102fe610581366004612fa8565b610e59565b34801561059257600080fd5b506102346105a136600461303d565b610eb5565b3480156105b257600080fd5b506102fe6105c1366004612d26565b610ee0565b3480156105d257600080fd5b506102fe6105e1366004612ea0565b610fdd565b3480156105f257600080fd5b506102fe610601366004613025565b611341565b34801561061257600080fd5b506102d0600081565b34801561062757600080fd5b506102d0610636366004612e6c565b611411565b34801561064757600080fd5b506102d06101335481565b34801561065e57600080fd5b506102d06101325481565b34801561067557600080fd5b506102fe61068436600461303d565b611511565b34801561069557600080fd5b506106a96106a4366004613025565b611537565b604080519215158352602083019190915201610240565b3480156106cc57600080fd5b506102fe6106db3660046130b5565b611572565b3480156106ec57600080fd5b506102fe6116a2565b34801561070157600080fd5b506102fe61071036600461306c565b6118b5565b34801561072157600080fd5b5061072a611963565b60405161024093929190613287565b34801561074557600080fd5b506102d06101345481565b34801561075c57600080fd5b506102d060008051602061364a83398151915281565b34801561077e57600080fd5b5061012e546104f7906001600160a01b031681565b60006001600160e01b03198216637965db0b60e01b14806107c457506301ffc9a760e01b6001600160e01b03198316145b90505b919050565b600081815261012f602052604081206107e481611c96565b6108245760405162461bcd60e51b815260206004820152600c60248201526b155b985d5d1a1bdc9a5e995960a21b60448201526064015b60405180910390fd5b6000600182015460ff16600281111561084d57634e487b7160e01b600052602160045260246000fd5b1461088e5760405162461bcd60e51b8152602060048201526011602482015270139bdd081e595d081cdd5c1c1bdc9d1959607a1b604482015260640161081b565b61089785611cef565b6001600160a01b0385166000908152600382016020526040902080546108ca9087906108c490889061352a565b84611f68565b60408051858152602081018790526001600160a01b038816917f5af417134f72a9d41143ace85b0a26dce6f550f894f2cbc1eeee8810603d91b6910160405180910390a26000925050505b9392505050565b61093460008051602061364a83398151915233610eb5565b80610952575061095260008051602061369183398151915233610eb5565b61096e5760405162461bcd60e51b815260040161081b90613349565b600082815261012f602090815260408083206001600160a01b0387168085526002909101835292819020805460ff191685151590811790915581519384529183018590528201527fa839f18792cf90163c4f23341b425ae8ed1de428169e4006c33f71a023ee6c299060600160405180910390a1505050565b600082815260c96020526040902060010154610a0481335b612034565b610a0e8383612098565b505050565b6001600160a01b0381163314610a835760405162461bcd60e51b815260206004820152602f60248201527f416363657373436f6e74726f6c3a2063616e206f6e6c792072656e6f756e636560448201526e103937b632b9903337b91039b2b63360891b606482015260840161081b565b610a8d828261211e565b5050565b306001600160a01b037f0000000000000000000000000000000000000000000000000000000000000000161415610ada5760405162461bcd60e51b815260040161081b906132fd565b7f00000000000000000000000000000000000000000000000000000000000000006001600160a01b0316610b0c612185565b6001600160a01b031614610b325760405162461bcd60e51b815260040161081b90613365565b610b3b816121b3565b60408051600080825260208201909252610b57918391906121fc565b50565b610b6333611cef565b565b306001600160a01b037f0000000000000000000000000000000000000000000000000000000000000000161415610bae5760405162461bcd60e51b815260040161081b906132fd565b7f00000000000000000000000000000000000000000000000000000000000000006001600160a01b0316610be0612185565b6001600160a01b031614610c065760405162461bcd60e51b815260040161081b90613365565b610c0f826121b3565b610a8d828260016121fc565b600080610c26611963565b610131549093509150600090505b81811015610d5e57600061012f60006101318481548110610c6557634e487b7160e01b600052603260045260246000fd5b9060005260206000200154815260200190815260200160002090506000816003016000886001600160a01b03166001600160a01b0316815260200190815260200160002090506000816001015490506000868581518110610cd657634e487b7160e01b600052603260045260246000fd5b60200260200101518460050154610ced919061352a565b8354909150801580610cff5750818310155b15610d0e575050505050610d4c565b6000610d1a8484613581565b9050670de0b6b3a7640000610d2f8284613562565b610d399190613542565b610d43908b61352a565b99505050505050505b80610d56816135df565b915050610c34565b505050919050565b600054610100900460ff1680610d7f575060005460ff16155b610d9b5760405162461bcd60e51b815260040161081b906133b1565b600054610100900460ff16158015610dbd576000805461ffff19166101011790555b610dc5612347565b610dcd6123b6565b610de560008051602061369183398151915233612415565b610e0b60008051602061364a83398151915260008051602061369183398151915261241f565b610e236000805160206136918339815191528061241f565b8015610b57576000805461ff001916905550565b6101318181548110610e4857600080fd5b600091825260209091200154905081565b610e7160008051602061364a83398151915233610eb5565b80610e8f5750610e8f60008051602061369183398151915233610eb5565b610eab5760405162461bcd60e51b815260040161081b90613349565b610a8d828261246a565b600091825260c9602090815260408084206001600160a01b0393909316845291905290205460ff1690565b610ef860008051602061369183398151915233610eb5565b610f295760405162461bcd60e51b81526020600482015260026024820152614e4160f01b604482015260640161081b565b61012d80546001600160a01b0319166001600160a01b0383169081179091556040805160016219312d60e11b03198152905163ffcd9da691600480820192602092909190829003018186803b158015610f8157600080fd5b505afa158015610f95573d6000803e3d6000fd5b505050506040513d601f19601f82011682018060405250810190610fb99190612d42565b61012e80546001600160a01b0319166001600160a01b039290921691909117905550565b610ff560008051602061364a83398151915233610eb5565b80611013575061101360008051602061369183398151915233610eb5565b61102f5760405162461bcd60e51b815260040161081b90613349565b61013454156110805760405162461bcd60e51b815260206004820152601960248201527f506f6f6c7320616c726561647920696e697469616c6973656400000000000000604482015260640161081b565b83518351811480156110925750825181145b6110ac57634e487b7160e01b600052600160045260246000fd5b60008167ffffffffffffffff8111156110d557634e487b7160e01b600052604160045260246000fd5b6040519080825280602002602001820160405280156110fe578160200160208202803683370190505b50905060005b8281101561132057600081815261012f60205260409020875188908390811061113d57634e487b7160e01b600052603260045260246000fd5b60200260200101518160010160006101000a81548160ff0219169083600281111561117857634e487b7160e01b600052602160045260246000fd5b021790555086828151811061119d57634e487b7160e01b600052603260045260246000fd5b60200260200101518160010160016101000a8154816001600160a01b0302191690836001600160a01b031602179055508582815181106111ed57634e487b7160e01b600052603260045260246000fd5b602002602001015181600001819055508183838151811061121e57634e487b7160e01b600052603260045260246000fd5b60200260200101818152505061125b85838151811061124d57634e487b7160e01b600052603260045260246000fd5b6020026020010151836118b5565b7ff37d8e8567f4d54f174bbf67f5f838918fdd376d4777566b7337eeb88a1ac93c8289848151811061129d57634e487b7160e01b600052603260045260246000fd5b60200260200101518985815181106112c557634e487b7160e01b600052603260045260246000fd5b60200260200101518986815181106112ed57634e487b7160e01b600052603260045260246000fd5b6020026020010151604051611305949392919061342a565b60405180910390a15080611318816135df565b915050611104565b50805161133590610131906020840190612be2565b50506101345550505050565b61135960008051602061364a83398151915233610eb5565b80611377575061137760008051602061369183398151915233610eb5565b6113935760405162461bcd60e51b815260040161081b90613349565b610132548114156113a357610b57565b4261013354146113d5576113b56116a2565b4261013354146113d557634e487b7160e01b600052600160045260246000fd5b6101328190556040518181527fc5763479bd9bf9105881647ea9226f99c26cb53d6df3a140b6a1f3d1128841799060200160405180910390a150565b600081815261012f6020526040812061142981611c96565b6114645760405162461bcd60e51b815260206004820152600c60248201526b155b985d5d1a1bdc9a5e995960a21b604482015260640161081b565b6001600160a01b03851660009081526003820160205260409020805461148f57600192505050610915565b61149886611cef565b8054808611156114a6578095505b60006114b28783613581565b90506114bf888286611f68565b60408051878152602081018990526001600160a01b038a16917ff960dbf9e5d0682f7a298ed974e33a28b4464914b7a2bfac12ae419a9afeb280910160405180910390a2506000979650505050505050565b600082815260c9602052604090206001015461152d81336109ff565b610a0e838361211e565b6000818152610130602052604081205481908061155b57600080925092505061156d565b60016115678183613581565b92509250505b915091565b61158a60008051602061364a83398151915233610eb5565b806115a857506115a860008051602061369183398151915233610eb5565b6115c45760405162461bcd60e51b815260040161081b90613349565b6115ce828261246a565b6101348054600091826115e0836135df565b90915550600081815261012f6020526040902087815560018082018054939450919288929160ff199091169083600281111561162c57634e487b7160e01b600052602160045260246000fd5b0217905550600181018054610100600160a81b0319166101006001600160a01b0388160217905561165c826125cb565b7ff37d8e8567f4d54f174bbf67f5f838918fdd376d4777566b7337eeb88a1ac93c8287878a604051611691949392919061342a565b60405180910390a150505050505050565b610133544214156116b257610b63565b6000806116bd611963565b9250925050600061013354426116d39190613581565b426101335583519091506116e957505050610b63565b815183511461170857634e487b7160e01b600052600160045260246000fd5b6000805b6101345481101561186a57600061012f6000610131848154811061174057634e487b7160e01b600052603260045260246000fd5b90600052602060002001548152602001908152602001600020905085828151811061177b57634e487b7160e01b600052603260045260246000fd5b6020026020010151600014156117915750611858565b80546117df5760405162461bcd60e51b815260206004820152601d60248201527f446973747269627574696e6720746f20706f6f6c207765696768742030000000604482015260640161081b565b8482815181106117ff57634e487b7160e01b600052603260045260246000fd5b602002602001015181600501600082825461181a919061352a565b9250508190555085828151811061184157634e487b7160e01b600052603260045260246000fd5b602002602001015183611854919061352a565b9250505b80611862816135df565b91505061170c565b507f19ce097e53a1fc72f05d4aeb15d0a311003530e7071c94493a22b71e07352e08826101325483610131886040516118a7959493929190613492565b60405180910390a150505050565b6118cd60008051602061364a83398151915233610eb5565b806118eb57506118eb60008051602061369183398151915233610eb5565b6119075760405162461bcd60e51b815260040161081b90613349565b61191281600161352a565b600083815261013060209081526040918290209290925580518381529182018490527f0bd70adcb4a4ff93bb3cfd3a095c56f26903685009797109f8bab78ff9d57f45910160405180910390a15050565b61013154606090819081908067ffffffffffffffff81111561199557634e487b7160e01b600052604160045260246000fd5b6040519080825280602002602001820160405280156119be578160200160208202803683370190505b5093508067ffffffffffffffff8111156119e857634e487b7160e01b600052604160045260246000fd5b604051908082528060200260200182016040528015611a11578160200160208202803683370190505b5092508067ffffffffffffffff811115611a3b57634e487b7160e01b600052604160045260246000fd5b604051908082528060200260200182016040528015611a64578160200160208202803683370190505b50915080611a725750611c91565b61013354421415611a835750611c91565b61013254611a915750611c91565b6000611a9b6126a4565b610132546101335491925090600090611ab49042613581565b90506000611ac28383613562565b905060005b85811015611c8a57600061012f60006101318481548110611af857634e487b7160e01b600052603260045260246000fd5b906000526020600020015481526020019081526020016000209050806004015460001415611b265750611c78565b8054611b4257634e487b7160e01b600052600160045260246000fd5b80548690611b5890670de0b6b3a7640000613562565b611b629190613542565b8a8381518110611b8257634e487b7160e01b600052603260045260246000fd5b602002602001018181525050670de0b6b3a76400008a8381518110611bb757634e487b7160e01b600052603260045260246000fd5b602002602001015184611bca9190613562565b611bd49190613542565b898381518110611bf457634e487b7160e01b600052603260045260246000fd5b6020026020010181815250508060040154898381518110611c2557634e487b7160e01b600052603260045260246000fd5b6020026020010151670de0b6b3a7640000611c409190613562565b611c4a9190613542565b888381518110611c6a57634e487b7160e01b600052603260045260246000fd5b602002602001018181525050505b80611c82816135df565b915050611ac7565b5050505050505b909192565b600080600183015460ff166002811115611cc057634e487b7160e01b600052602160045260246000fd5b14158015611cce5750815415155b806107c4575050336000908152600291909101602052604090205460ff1690565b611cf76116a2565b426101335414611d1757634e487b7160e01b600052600160045260246000fd5b6101315460008167ffffffffffffffff811115611d4457634e487b7160e01b600052604160045260246000fd5b604051908082528060200260200182016040528015611d6d578160200160208202803683370190505b5090506000805b83811015611e8557600061012f60006101318481548110611da557634e487b7160e01b600052603260045260246000fd5b6000918252602080832090910154835282810193909352604091820181206001600160a01b038a1682526003810190935220600181015460058301549293509091808210611df65750505050611e73565b6000611e028383613581565b90506000670de0b6b3a7640000828660000154611e1f9190613562565b611e299190613542565b905082856001018190555080898881518110611e5557634e487b7160e01b600052603260045260246000fd5b6020908102919091010152611e6a818961352a565b97505050505050505b80611e7d816135df565b915050611d74565b5080611e9357505050610b57565b61012e5460405163a9059cbb60e01b81526001600160a01b038681166004830152602482018490529091169063a9059cbb90604401602060405180830381600087803b158015611ee257600080fd5b505af1158015611ef6573d6000803e3d6000fd5b505050506040513d601f19601f82011682018060405250810190611f1a9190613009565b50836001600160a01b03167f274a65b8c8fd25732fc33bc5a16dd4e85d44fedfdf10caa13c268380038ddaf68261013185604051611f5a939291906133ff565b60405180910390a250505050565b81611fc2576001600160a01b03831660009081526003820160205260409020546004820154611f979190613581565b60048201556001600160a01b0383166000908152600382016020526040812081815560010155610a0e565b6001600160a01b0383166000908152600382016020526040902060058201546001820155805483811161200d57611ff98185613581565b8360040154612008919061352a565b612026565b6120178482613581565b83600401546120269190613581565b600484015550829055505050565b61203e8282610eb5565b610a8d57612056816001600160a01b0316601461271d565b61206183602061271d565b6040516020016120729291906131ed565b60408051601f198184030181529082905262461bcd60e51b825261081b916004016132ca565b6120a28282610eb5565b610a8d57600082815260c9602090815260408083206001600160a01b03851684529091529020805460ff191660011790556120da3390565b6001600160a01b0316816001600160a01b0316837f2f8788117e7eff1d82e926ec794901d17c78024a50270940304540a733656f0d60405160405180910390a45050565b6121288282610eb5565b15610a8d57600082815260c9602090815260408083206001600160a01b0385168085529252808320805460ff1916905551339285917ff6391f5c32d9c69d2a47ea670b442974b53935d1edc7fd64eb21e047a839171b9190a45050565b7f360894a13ba1a3210667c828492db98dca3e2076cc3735a920a3ca505d382bbc546001600160a01b031690565b6121cb60008051602061369183398151915233610eb5565b610b575760405162461bcd60e51b81526020600482015260026024820152614e4160f01b604482015260640161081b565b6000612206612185565b9050612211846128ff565b60008351118061221e5750815b1561222f5761222d84846129a4565b505b7f4910fdfa16fed3260ed0e7147f7cc6da11a60208b5b9406d12a635614ffd9143805460ff1661234057805460ff191660011781556040516001600160a01b03831660248201526122ae90869060440160408051601f198184030181529190526020810180516001600160e01b0316631b2ce7f360e11b1790526129a4565b50805460ff191681556122bf612185565b6001600160a01b0316826001600160a01b0316146123375760405162461bcd60e51b815260206004820152602f60248201527f45524331393637557067726164653a207570677261646520627265616b73206660448201526e75727468657220757067726164657360881b606482015260840161081b565b61234085612a8f565b5050505050565b600054610100900460ff1680612360575060005460ff16155b61237c5760405162461bcd60e51b815260040161081b906133b1565b600054610100900460ff1615801561239e576000805461ffff19166101011790555b6123a6612acf565b6123ae612acf565b610e23612acf565b600054610100900460ff16806123cf575060005460ff16155b6123eb5760405162461bcd60e51b815260040161081b906133b1565b600054610100900460ff1615801561240d576000805461ffff19166101011790555b610e23612b39565b610a8d8282612098565b600082815260c96020526040808220600101805490849055905190918391839186917fbd79b86ffe0ab8e8776151514217cd7cacd52c909f66475c3af44e129f0b00ff9190a4505050565b81518151811461248a57634e487b7160e01b600052600160045260246000fd5b6101345460005b8181101561258457600080805b858110156124f7578781815181106124c657634e487b7160e01b600052603260045260246000fd5b602002602001015184146124d9576124e5565b600192508091506124f7565b806124ef816135df565b91505061249e565b50600061012f600089868151811061251f57634e487b7160e01b600052603260045260246000fd5b602002602001015181526020019081526020016000209050821561256a5786828151811061255d57634e487b7160e01b600052603260045260246000fd5b602002602001015161256d565b60005b90555081905061257c816135df565b915050612491565b50835161259990610131906020870190612be2565b507fcabae56731cea70615176c847ec16408fd97d7eb3cc387917aea0d7de26f459784846040516118a7929190613262565b6101315460005b8181101561266c578261013182815481106125fd57634e487b7160e01b600052603260045260246000fd5b9060005260206000200154146126125761265a565b60405162461bcd60e51b815260206004820152601960248201527f50757368696e67206475706c696361746520706f6f6c20494400000000000000604482015260640161081b565b80612664816135df565b9150506125d2565b505061013180546001810182556000919091527fbd987ad6ccdb7c7567f7335ea839f95dc944431abcf935b6924f70215963db730155565b61013154600090815b818110156127185761012f600061013183815481106126dc57634e487b7160e01b600052603260045260246000fd5b906000526020600020015481526020019081526020016000206000015483612704919061352a565b925080612710816135df565b9150506126ad565b505090565b6060600061272c836002613562565b61273790600261352a565b67ffffffffffffffff81111561275d57634e487b7160e01b600052604160045260246000fd5b6040519080825280601f01601f191660200182016040528015612787576020820181803683370190505b509050600360fc1b816000815181106127b057634e487b7160e01b600052603260045260246000fd5b60200101906001600160f81b031916908160001a905350600f60fb1b816001815181106127ed57634e487b7160e01b600052603260045260246000fd5b60200101906001600160f81b031916908160001a9053506000612811846002613562565b61281c90600161352a565b90505b60018111156128b0576f181899199a1a9b1b9c1cb0b131b232b360811b85600f166010811061285e57634e487b7160e01b600052603260045260246000fd5b1a60f81b82828151811061288257634e487b7160e01b600052603260045260246000fd5b60200101906001600160f81b031916908160001a90535060049490941c936128a9816135c8565b905061281f565b5083156109155760405162461bcd60e51b815260206004820181905260248201527f537472696e67733a20686578206c656e67746820696e73756666696369656e74604482015260640161081b565b803b6129635760405162461bcd60e51b815260206004820152602d60248201527f455243313936373a206e657720696d706c656d656e746174696f6e206973206e60448201526c1bdd08184818dbdb9d1c9858dd609a1b606482015260840161081b565b7f360894a13ba1a3210667c828492db98dca3e2076cc3735a920a3ca505d382bbc80546001600160a01b0319166001600160a01b0392909216919091179055565b6060823b612a035760405162461bcd60e51b815260206004820152602660248201527f416464726573733a2064656c65676174652063616c6c20746f206e6f6e2d636f6044820152651b9d1c9858dd60d21b606482015260840161081b565b600080846001600160a01b031684604051612a1e91906131d1565b600060405180830381855af49150503d8060008114612a59576040519150601f19603f3d011682016040523d82523d6000602084013e612a5e565b606091505b5091509150612a86828260405180606001604052806027815260200161366a60279139612ba9565b95945050505050565b612a98816128ff565b6040516001600160a01b038216907fbc7cd75a20ee27fd9adebab32041f755214dbc6bffa90cc0225b39da2e5c2d3b90600090a250565b600054610100900460ff1680612ae8575060005460ff16155b612b045760405162461bcd60e51b815260040161081b906133b1565b600054610100900460ff16158015610e23576000805461ffff19166101011790558015610b57576000805461ff001916905550565b600054610100900460ff1680612b52575060005460ff16155b612b6e5760405162461bcd60e51b815260040161081b906133b1565b600054610100900460ff16158015612b90576000805461ffff19166101011790555b600160fb558015610b57576000805461ff001916905550565b60608315612bb8575081610915565b825115612bc85782518084602001fd5b8160405162461bcd60e51b815260040161081b91906132ca565b828054828255906000526020600020908101928215612c1d579160200282015b82811115612c1d578251825591602001919060010190612c02565b50612c29929150612c2d565b5090565b5b80821115612c295760008155600101612c2e565b600082601f830112612c52578081fd5b81356020612c67612c6283613506565b6134d5565b80838252828201915082860187848660051b8901011115612c86578586fd5b855b85811015612cad578135612c9b81613626565b84529284019290840190600101612c88565b5090979650505050505050565b600082601f830112612cca578081fd5b81356020612cda612c6283613506565b80838252828201915082860187848660051b8901011115612cf9578586fd5b855b85811015612cad57813584529284019290840190600101612cfb565b8035600381106107c757600080fd5b600060208284031215612d37578081fd5b813561091581613626565b600060208284031215612d53578081fd5b815161091581613626565b60008060408385031215612d70578081fd5b8235612d7b81613626565b915060208381013567ffffffffffffffff80821115612d98578384fd5b818601915086601f830112612dab578384fd5b813581811115612dbd57612dbd613610565b612dcf601f8201601f191685016134d5565b91508082528784828501011115612de4578485fd5b8084840185840137810190920192909252919491935090915050565b60008060408385031215612e12578182fd5b8235612e1d81613626565b946020939093013593505050565b600080600060608486031215612e3f578081fd5b8335612e4a81613626565b9250602084013591506040840135612e618161363b565b809150509250925092565b600080600060608486031215612e80578081fd5b8335612e8b81613626565b95602085013595506040909401359392505050565b60008060008060808587031215612eb5578182fd5b843567ffffffffffffffff80821115612ecc578384fd5b818701915087601f830112612edf578384fd5b81356020612eef612c6283613506565b8083825282820191508286018c848660051b8901011115612f0e578889fd5b8896505b84871015612f3757612f2381612d17565b835260019690960195918301918301612f12565b5098505088013592505080821115612f4d578384fd5b612f5988838901612c42565b94506040870135915080821115612f6e578384fd5b612f7a88838901612cba565b93506060870135915080821115612f8f578283fd5b50612f9c87828801612cba565b91505092959194509250565b60008060408385031215612fba578182fd5b823567ffffffffffffffff80821115612fd1578384fd5b612fdd86838701612cba565b93506020850135915080821115612ff2578283fd5b50612fff85828601612cba565b9150509250929050565b60006020828403121561301a578081fd5b81516109158161363b565b600060208284031215613036578081fd5b5035919050565b6000806040838503121561304f578182fd5b82359150602083013561306181613626565b809150509250929050565b6000806040838503121561307e578182fd5b50508035926020909101359150565b60006020828403121561309e578081fd5b81356001600160e01b031981168114610915578182fd5b600080600080600060a086880312156130cc578283fd5b853594506130dc60208701612d17565b935060408601356130ec81613626565b9250606086013567ffffffffffffffff80821115613108578283fd5b61311489838a01612cba565b93506080880135915080821115613129578283fd5b5061313688828901612cba565b9150509295509295909350565b6000815180845260208085019450808401835b8381101561317257815187529582019590820190600101613156565b509495945050505050565b6000815480845260208085019450838352808320835b8381101561317257815487529582019560019182019101613193565b600381106131cd57634e487b7160e01b600052602160045260246000fd5b9052565b600082516131e3818460208701613598565b9190910192915050565b60007f416363657373436f6e74726f6c3a206163636f756e742000000000000000000082528351613225816017850160208801613598565b7001034b99036b4b9b9b4b733903937b6329607d1b6017918401918201528351613256816028840160208801613598565b01602801949350505050565b6000604082526132756040830185613143565b8281036020840152612a868185613143565b60006060825261329a6060830186613143565b82810360208401526132ac8186613143565b905082810360408401526132c08185613143565b9695505050505050565b60006020825282518060208401526132e9816040850160208701613598565b601f01601f19169190910160400192915050565b6020808252602c908201527f46756e6374696f6e206d7573742062652063616c6c6564207468726f7567682060408201526b19195b1959d85d1958d85b1b60a21b606082015260800190565b6020808252600290820152614e5760f01b604082015260600190565b6020808252602c908201527f46756e6374696f6e206d7573742062652063616c6c6564207468726f7567682060408201526b6163746976652070726f787960a01b606082015260800190565b6020808252602e908201527f496e697469616c697a61626c653a20636f6e747261637420697320616c72656160408201526d191e481a5b9a5d1a585b1a5e995960921b606082015260800190565b600084825260606020830152613418606083018561317d565b82810360408401526132c08185613143565b8481526080810161343e60208301866131af565b6001600160a01b039390931660408201526060015292915050565b85815260a0810161346d60208301876131af565b6001600160a01b03949094166040820152606081019290925260809091015292915050565b600086825285602083015284604083015260a060608301526134b760a083018561317d565b82810360808401526134c98185613143565b98975050505050505050565b604051601f8201601f1916810167ffffffffffffffff811182821017156134fe576134fe613610565b604052919050565b600067ffffffffffffffff82111561352057613520613610565b5060051b60200190565b6000821982111561353d5761353d6135fa565b500190565b60008261355d57634e487b7160e01b81526012600452602481fd5b500490565b600081600019048311821515161561357c5761357c6135fa565b500290565b600082821015613593576135936135fa565b500390565b60005b838110156135b357818101518382015260200161359b565b838111156135c2576000848401525b50505050565b6000816135d7576135d76135fa565b506000190190565b60006000198214156135f3576135f36135fa565b5060010190565b634e487b7160e01b600052601160045260246000fd5b634e487b7160e01b600052604160045260246000fd5b6001600160a01b0381168114610b5757600080fd5b8015158114610b5757600080fdfe97667070c54ef182b0f5858b034beac1b6f3089aa2d3188bb1e8929f4fa9b929416464726573733a206c6f772d6c6576656c2064656c65676174652063616c6c206661696c6564a49807205ce4d355092ef5a8a18f56e8913cf4a201fbe287825b095693c21775a26469706673582212200d64fb0c9f3a72b97804c3ca4e0ba4673db8fdf2fb63390c0a7516b87bbafb4a64736f6c63430008030033",
  "linkReferences": {},
  "deployedLinkReferences": {}
}