{
  "_format": "hh-sol-artifact-1",
  "contractName": "Treasury",
  "sourceName": "contracts/Bank/Treasury.sol",
  "abi": [
    {
      "anonymous": false,
      "inputs": [
        {
          "indexed": false,
          "internalType": "address",
          "name": "previousAdmin",
          "type": "address"
        },
        {
          "indexed": false,
          "internalType": "address",
          "name": "newAdmin",
          "type": "address"
        }
      ],
      "name": "AdminChanged",
      "type": "event"
    },
    {
      "anonymous": false,
      "inputs": [
        {
          "indexed": true,
          "internalType": "address",
          "name": "beacon",
          "type": "address"
        }
      ],
      "name": "BeaconUpgraded",
      "type": "event"
    },
    {
      "anonymous": false,
      "inputs": [
        {
          "indexed": true,
          "internalType": "bytes32",
          "name": "role",
          "type": "bytes32"
        },
        {
          "indexed": true,
          "internalType": "bytes32",
          "name": "previousAdminRole",
          "type": "bytes32"
        },
        {
          "indexed": true,
          "internalType": "bytes32",
          "name": "newAdminRole",
          "type": "bytes32"
        }
      ],
      "name": "RoleAdminChanged",
      "type": "event"
    },
    {
      "anonymous": false,
      "inputs": [
        {
          "indexed": true,
          "internalType": "bytes32",
          "name": "role",
          "type": "bytes32"
        },
        {
          "indexed": true,
          "internalType": "address",
          "name": "account",
          "type": "address"
        },
        {
          "indexed": true,
          "internalType": "address",
          "name": "sender",
          "type": "address"
        }
      ],
      "name": "RoleGranted",
      "type": "event"
    },
    {
      "anonymous": false,
      "inputs": [
        {
          "indexed": true,
          "internalType": "bytes32",
          "name": "role",
          "type": "bytes32"
        },
        {
          "indexed": true,
          "internalType": "address",
          "name": "account",
          "type": "address"
        },
        {
          "indexed": true,
          "internalType": "address",
          "name": "sender",
          "type": "address"
        }
      ],
      "name": "RoleRevoked",
      "type": "event"
    },
    {
      "anonymous": false,
      "inputs": [
        {
          "indexed": true,
          "internalType": "address",
          "name": "implementation",
          "type": "address"
        }
      ],
      "name": "Upgraded",
      "type": "event"
    },
    {
      "inputs": [],
      "name": "ADMIN_ROLE",
      "outputs": [
        {
          "internalType": "bytes32",
          "name": "",
          "type": "bytes32"
        }
      ],
      "stateMutability": "view",
      "type": "function"
    },
    {
      "inputs": [],
      "name": "DEFAULT_ADMIN_ROLE",
      "outputs": [
        {
          "internalType": "bytes32",
          "name": "",
          "type": "bytes32"
        }
      ],
      "stateMutability": "view",
      "type": "function"
    },
    {
      "inputs": [],
      "name": "OPERATOR_ROLE",
      "outputs": [
        {
          "internalType": "bytes32",
          "name": "",
          "type": "bytes32"
        }
      ],
      "stateMutability": "view",
      "type": "function"
    },
    {
      "inputs": [
        {
          "internalType": "address",
          "name": "to",
          "type": "address"
        },
        {
          "internalType": "uint256",
          "name": "amount",
          "type": "uint256"
        },
        {
          "internalType": "address",
          "name": "collateralToken",
          "type": "address"
        },
        {
          "internalType": "address",
          "name": "fxToken",
          "type": "address"
        },
        {
          "internalType": "address",
          "name": "referral",
          "type": "address"
        }
      ],
      "name": "depositCollateral",
      "outputs": [],
      "stateMutability": "nonpayable",
      "type": "function"
    },
    {
      "inputs": [
        {
          "internalType": "address",
          "name": "to",
          "type": "address"
        },
        {
          "internalType": "address",
          "name": "fxToken",
          "type": "address"
        },
        {
          "internalType": "address",
          "name": "referral",
          "type": "address"
        }
      ],
      "name": "depositCollateralETH",
      "outputs": [],
      "stateMutability": "payable",
      "type": "function"
    },
    {
      "inputs": [
        {
          "internalType": "address",
          "name": "from",
          "type": "address"
        },
        {
          "internalType": "address",
          "name": "to",
          "type": "address"
        },
        {
          "internalType": "uint256",
          "name": "amount",
          "type": "uint256"
        },
        {
          "internalType": "address",
          "name": "fxToken",
          "type": "address"
        },
        {
          "internalType": "bool",
          "name": "requireFullAmount",
          "type": "bool"
        }
      ],
      "name": "forceWithdrawAnyCollateral",
      "outputs": [
        {
          "internalType": "address[]",
          "name": "collateralTypes",
          "type": "address[]"
        },
        {
          "internalType": "uint256[]",
          "name": "collateralAmounts",
          "type": "uint256[]"
        }
      ],
      "stateMutability": "nonpayable",
      "type": "function"
    },
    {
      "inputs": [
        {
          "internalType": "address",
          "name": "from",
          "type": "address"
        },
        {
          "internalType": "address",
          "name": "collateralToken",
          "type": "address"
        },
        {
          "internalType": "address",
          "name": "to",
          "type": "address"
        },
        {
          "internalType": "uint256",
          "name": "amount",
          "type": "uint256"
        },
        {
          "internalType": "address",
          "name": "fxToken",
          "type": "address"
        }
      ],
      "name": "forceWithdrawCollateral",
      "outputs": [],
      "stateMutability": "nonpayable",
      "type": "function"
    },
    {
      "inputs": [
        {
          "internalType": "bytes32",
          "name": "role",
          "type": "bytes32"
        }
      ],
      "name": "getRoleAdmin",
      "outputs": [
        {
          "internalType": "bytes32",
          "name": "",
          "type": "bytes32"
        }
      ],
      "stateMutability": "view",
      "type": "function"
    },
    {
      "inputs": [
        {
          "internalType": "bytes32",
          "name": "role",
          "type": "bytes32"
        },
        {
          "internalType": "address",
          "name": "account",
          "type": "address"
        }
      ],
      "name": "grantRole",
      "outputs": [],
      "stateMutability": "nonpayable",
      "type": "function"
    },
    {
      "inputs": [],
      "name": "handleAddress",
      "outputs": [
        {
          "internalType": "address",
          "name": "",
          "type": "address"
        }
      ],
      "stateMutability": "view",
      "type": "function"
    },
    {
      "inputs": [
        {
          "internalType": "bytes32",
          "name": "role",
          "type": "bytes32"
        },
        {
          "internalType": "address",
          "name": "account",
          "type": "address"
        }
      ],
      "name": "hasRole",
      "outputs": [
        {
          "internalType": "bool",
          "name": "",
          "type": "bool"
        }
      ],
      "stateMutability": "view",
      "type": "function"
    },
    {
      "inputs": [],
      "name": "initialize",
      "outputs": [],
      "stateMutability": "nonpayable",
      "type": "function"
    },
    {
      "inputs": [],
      "name": "maximumTotalDepositAllowed",
      "outputs": [
        {
          "internalType": "uint256",
          "name": "",
          "type": "uint256"
        }
      ],
      "stateMutability": "view",
      "type": "function"
    },
    {
      "inputs": [
        {
          "internalType": "bytes32",
          "name": "role",
          "type": "bytes32"
        },
        {
          "internalType": "address",
          "name": "account",
          "type": "address"
        }
      ],
      "name": "renounceRole",
      "outputs": [],
      "stateMutability": "nonpayable",
      "type": "function"
    },
    {
      "inputs": [
        {
          "internalType": "address",
          "name": "token",
          "type": "address"
        },
        {
          "internalType": "uint256",
          "name": "amount",
          "type": "uint256"
        }
      ],
      "name": "requestFundsPCT",
      "outputs": [],
      "stateMutability": "nonpayable",
      "type": "function"
    },
    {
      "inputs": [
        {
          "internalType": "bytes32",
          "name": "role",
          "type": "bytes32"
        },
        {
          "internalType": "address",
          "name": "account",
          "type": "address"
        }
      ],
      "name": "revokeRole",
      "outputs": [],
      "stateMutability": "nonpayable",
      "type": "function"
    },
    {
      "inputs": [
        {
          "internalType": "address",
          "name": "_handle",
          "type": "address"
        }
      ],
      "name": "setHandleContract",
      "outputs": [],
      "stateMutability": "nonpayable",
      "type": "function"
    },
    {
      "inputs": [
        {
          "internalType": "uint256",
          "name": "value",
          "type": "uint256"
        }
      ],
      "name": "setMaximumTotalDepositAllowed",
      "outputs": [],
      "stateMutability": "nonpayable",
      "type": "function"
    },
    {
      "inputs": [
        {
          "internalType": "bytes4",
          "name": "interfaceId",
          "type": "bytes4"
        }
      ],
      "name": "supportsInterface",
      "outputs": [
        {
          "internalType": "bool",
          "name": "",
          "type": "bool"
        }
      ],
      "stateMutability": "view",
      "type": "function"
    },
    {
      "inputs": [],
      "name": "totalCollateralDeposited",
      "outputs": [
        {
          "internalType": "uint256",
          "name": "",
          "type": "uint256"
        }
      ],
      "stateMutability": "view",
      "type": "function"
    },
    {
      "inputs": [
        {
          "internalType": "address",
          "name": "newImplementation",
          "type": "address"
        }
      ],
      "name": "upgradeTo",
      "outputs": [],
      "stateMutability": "nonpayable",
      "type": "function"
    },
    {
      "inputs": [
        {
          "internalType": "address",
          "name": "newImplementation",
          "type": "address"
        },
        {
          "internalType": "bytes",
          "name": "data",
          "type": "bytes"
        }
      ],
      "name": "upgradeToAndCall",
      "outputs": [],
      "stateMutability": "payable",
      "type": "function"
    },
    {
      "inputs": [
        {
          "internalType": "address",
          "name": "collateralToken",
          "type": "address"
        },
        {
          "internalType": "address",
          "name": "to",
          "type": "address"
        },
        {
          "internalType": "uint256",
          "name": "amount",
          "type": "uint256"
        },
        {
          "internalType": "address",
          "name": "fxToken",
          "type": "address"
        }
      ],
      "name": "withdrawCollateral",
      "outputs": [],
      "stateMutability": "nonpayable",
      "type": "function"
    },
    {
      "inputs": [
        {
          "internalType": "address",
          "name": "to",
          "type": "address"
        },
        {
          "internalType": "uint256",
          "name": "amount",
          "type": "uint256"
        },
        {
          "internalType": "address",
          "name": "fxToken",
          "type": "address"
        }
      ],
      "name": "withdrawCollateralETH",
      "outputs": [],
      "stateMutability": "nonpayable",
      "type": "function"
    },
    {
      "inputs": [
        {
          "internalType": "address",
          "name": "from",
          "type": "address"
        },
        {
          "internalType": "address",
          "name": "collateralToken",
          "type": "address"
        },
        {
          "internalType": "address",
          "name": "to",
          "type": "address"
        },
        {
          "internalType": "uint256",
          "name": "amount",
          "type": "uint256"
        },
        {
          "internalType": "address",
          "name": "fxToken",
          "type": "address"
        }
      ],
      "name": "withdrawCollateralFrom",
      "outputs": [],
      "stateMutability": "nonpayable",
      "type": "function"
    },
    {
      "stateMutability": "payable",
      "type": "receive"
    }
  ],
  "bytecode": "0x60a06040523060601b60805234801561001757600080fd5b5060805160601c613fb961004b60003960008181610597015281816105d70152818161066001526106a00152613fb96000f3fe60806040526004361061016a5760003560e01c80637d694f15116100d1578063a9de31491161008a578063eb2266fc11610064578063eb2266fc14610414578063f5b541a614610442578063fd58a30114610464578063ffda4da41461048457610171565b8063a9de3149146103ca578063d547741f146103e1578063d811b9bd1461040157610171565b80637d694f15146103205780638129fc1c146103405780638c6d4c471461035557806391d14854146103755780639b1c414f14610395578063a217fddf146103b557610171565b806358166d241161012357806358166d241461025e5780635a6f45de1461027e57806364cfc1ad1461029e5780636c7ca871146102be57806374bf578b146102d557806375b238fc146102fe57610171565b806301ffc9a714610176578063248a9ca3146101ab5780632f2ff15d146101e957806336568abe1461020b5780633659cfe61461022b5780634f1ef2861461024b57610171565b3661017157005b600080fd5b34801561018257600080fd5b50610196610191366004613af5565b6104a4565b60405190151581526020015b60405180910390f35b3480156101b757600080fd5b506101db6101c6366004613a96565b600090815260c9602052604090206001015490565b6040519081526020016101a2565b3480156101f557600080fd5b50610209610204366004613ac6565b6104dd565b005b34801561021757600080fd5b50610209610226366004613ac6565b610509565b34801561023757600080fd5b50610209610246366004613687565b61058c565b61020961025936600461381b565b610655565b34801561026a57600080fd5b50610209610279366004613709565b61070b565b34801561028a57600080fd5b50610209610299366004613770565b610841565b3480156102aa57600080fd5b506102096102b9366004613709565b610951565b3480156102ca57600080fd5b506101db6101315481565b3480156102e157600080fd5b5061012d546040516001600160a01b0390911681526020016101a2565b34801561030a57600080fd5b506101db600080516020613f6483398151915281565b34801561032c57600080fd5b5061020961033b366004613a96565b610ae0565b34801561034c57600080fd5b50610209610b1a565b34801561036157600080fd5b506102096103703660046138bd565b610bfe565b34801561038157600080fd5b50610196610390366004613ac6565b610cba565b3480156103a157600080fd5b506102096103b0366004613687565b610ce5565b3480156103c157600080fd5b506101db600081565b3480156103d657600080fd5b506101db6101305481565b3480156103ed57600080fd5b506102096103fc366004613ac6565b611152565b61020961040f3660046136bf565b611178565b34801561042057600080fd5b5061043461042f3660046137c2565b6112f3565b6040516101a2929190613bae565b34801561044e57600080fd5b506101db600080516020613f1d83398151915281565b34801561047057600080fd5b5061020961047f3660046138e8565b6114eb565b34801561049057600080fd5b5061020961049f36600461391e565b6115f1565b60006001600160e01b03198216637965db0b60e01b14806104d557506301ffc9a760e01b6001600160e01b03198316145b90505b919050565b600082815260c960205260409020600101546104fa81335b611630565b6105048383611694565b505050565b6001600160a01b038116331461057e5760405162461bcd60e51b815260206004820152602f60248201527f416363657373436f6e74726f6c3a2063616e206f6e6c792072656e6f756e636560448201526e103937b632b9903337b91039b2b63360891b60648201526084015b60405180910390fd5b610588828261171a565b5050565b306001600160a01b037f00000000000000000000000000000000000000000000000000000000000000001614156105d55760405162461bcd60e51b815260040161057590613c73565b7f00000000000000000000000000000000000000000000000000000000000000006001600160a01b0316610607611781565b6001600160a01b03161461062d5760405162461bcd60e51b815260040161057590613cbf565b610636816117af565b60408051600080825260208201909252610652918391906117e3565b50565b306001600160a01b037f000000000000000000000000000000000000000000000000000000000000000016141561069e5760405162461bcd60e51b815260040161057590613c73565b7f00000000000000000000000000000000000000000000000000000000000000006001600160a01b03166106d0611781565b6001600160a01b0316146106f65760405162461bcd60e51b815260040161057590613cbf565b6106ff826117af565b610588828260016117e3565b610723600080516020613f1d83398151915233610cba565b61073f5760405162461bcd60e51b815260040161057590613c57565b600260fb5414156107625760405162461bcd60e51b815260040161057590613d75565b600260fb5561012d5460405163062315a960e51b81526001600160a01b038781166004830152868116602483015283811660448301528492169063c462b5209060640160206040518083038186803b1580156107bd57600080fd5b505afa1580156107d1573d6000803e3d6000fd5b505050506040513d601f19601f820116820180604052508101906107f59190613aae565b10156108285760405162461bcd60e51b8152602060048201526002602482015261434160f01b6044820152606401610575565b610835858585858561192e565b5050600160fb55505050565b600260fb5414156108645760405162461bcd60e51b815260040161057590613d75565b600260fb5561012d54604080516361c97bb360e11b815290516001600160a01b039092169163c392f76691600480820192602092909190829003018186803b1580156108af57600080fd5b505afa1580156108c3573d6000803e3d6000fd5b505050506040513d601f19601f820116820180604052508101906108e791906136a3565b6001600160a01b0316634342fef56040518163ffffffff1660e01b8152600401600060405180830381600087803b15801561092157600080fd5b505af1158015610935573d6000803e3d6000fd5b505050506109463385858585611d9b565b5050600160fb555050565b84336001600160a01b038216148061099d575061097c600080516020613f1d83398151915233610cba565b801561099d575061099b600080516020613f6483398151915233610cba565b155b6109ce5760405162461bcd60e51b81526020600482015260026024820152614e5760f01b6044820152606401610575565b600260fb5414156109f15760405162461bcd60e51b815260040161057590613d75565b600260fb5561012d54604080516361c97bb360e11b815290516001600160a01b039092169163c392f76691600480820192602092909190829003018186803b158015610a3c57600080fd5b505afa158015610a50573d6000803e3d6000fd5b505050506040513d601f19601f82011682018060405250810190610a7491906136a3565b6001600160a01b0316634342fef56040518163ffffffff1660e01b8152600401600060405180830381600087803b158015610aae57600080fd5b505af1158015610ac2573d6000803e3d6000fd5b50505050610ad38686868686611d9b565b5050600160fb5550505050565b610af8600080516020613f6483398151915233610cba565b610b145760405162461bcd60e51b815260040161057590613d59565b61013155565b600054610100900460ff1680610b33575060005460ff16155b610b4f5760405162461bcd60e51b815260040161057590613d0b565b600054610100900460ff16158015610b71576000805461ffff19166101011790555b610b7961204e565b610b816120d1565b610b99600080516020613f6483398151915233612130565b610bb1600080516020613f648339815191528061213a565b610bd7600080516020613f1d833981519152600080516020613f6483398151915261213a565b61013280546001600160a01b031916301790558015610652576000805461ff001916905550565b61012d5460408051639cfd966960e01b815290516000926001600160a01b031691639cfd9669916004808301926020929190829003018186803b158015610c4457600080fd5b505afa158015610c58573d6000803e3d6000fd5b505050506040513d601f19601f82011682018060405250810190610c7c91906136a3565b9050336001600160a01b03821614610ca65760405162461bcd60e51b815260040161057590613c57565b6105046001600160a01b0384168284612185565b600091825260c9602090815260408084206001600160a01b0393909316845291905290205460ff1690565b610cfd600080516020613f6483398151915233610cba565b610d195760405162461bcd60e51b815260040161057590613d59565b61012d80546001600160a01b0319166001600160a01b038316908117909155604080516315ab88c960e31b8152905163ad5c464891600480820192602092909190829003018186803b158015610d6e57600080fd5b505afa158015610d82573d6000803e3d6000fd5b505050506040513d601f19601f82011682018060405250810190610da691906136a3565b61012f80546001600160a01b0319166001600160a01b0392909216919091179055604080516003808252608082019092526000908260208201606080368337505061012d5460408051635fe3b56760e01b815290519394506001600160a01b0390911692635fe3b56792506004808301926020929190829003018186803b158015610e3057600080fd5b505afa158015610e44573d6000803e3d6000fd5b505050506040513d601f19601f82011682018060405250810190610e6891906136a3565b81600081518110610e8957634e487b7160e01b600052603260045260246000fd5b6001600160a01b0392831660209182029290920181019190915261012d54604080516327ab02b960e01b8152905191909316926327ab02b9926004808301939192829003018186803b158015610ede57600080fd5b505afa158015610ef2573d6000803e3d6000fd5b505050506040513d601f19601f82011682018060405250810190610f1691906136a3565b81600181518110610f3757634e487b7160e01b600052603260045260246000fd5b6001600160a01b0392831660209182029290920181019190915261012d546040805163202375d760e11b815290519190931692634046ebae926004808301939192829003018186803b158015610f8c57600080fd5b505afa158015610fa0573d6000803e3d6000fd5b505050506040513d601f19601f82011682018060405250810190610fc491906136a3565b81600281518110610fe557634e487b7160e01b600052603260045260246000fd5b60200260200101906001600160a01b031690816001600160a01b03168152505060005b828110156110a45761104f600080516020613f1d83398151915283838151811061104257634e487b7160e01b600052603260045260246000fd5b6020026020010151610cba565b61109257611092600080516020613f1d83398151915283838151811061108557634e487b7160e01b600052603260045260246000fd5b60200260200101516104dd565b8061109c81613eb2565b915050611008565b5061012d60009054906101000a90046001600160a01b03166001600160a01b031663eb0a8b916040518163ffffffff1660e01b815260040160206040518083038186803b1580156110f457600080fd5b505afa158015611108573d6000803e3d6000fd5b505050506040513d601f19601f8201168201806040525081019061112c91906136a3565b61012e80546001600160a01b0319166001600160a01b0392909216919091179055505050565b600082815260c9602052604090206001015461116e81336104f5565b610504838361171a565b600260fb54141561119b5760405162461bcd60e51b815260040161057590613d75565b600260fb5561012d5461012f5460405163803c97b360e01b81526001600160a01b03918216600482015291169063803c97b39060240160206040518083038186803b1580156111e957600080fd5b505afa1580156111fd573d6000803e3d6000fd5b505050506040513d601f19601f820116820180604052508101906112219190613a4d565b6112525760405162461bcd60e51b8152602060048201526002602482015261494360f01b6044820152606401610575565b61125c83826121e8565b61012f60009054906101000a90046001600160a01b03166001600160a01b031663d0e30db0346040518263ffffffff1660e01b81526004016000604051808303818588803b1580156112ad57600080fd5b505af11580156112c1573d6000803e3d6000fd5b50506101325461012f546112e994506001600160a01b039182169350879250349116866122d8565b5050600160fb5550565b60608061130e600080516020613f1d83398151915233610cba565b61132a5760405162461bcd60e51b815260040161057590613c57565b600260fb54141561134d5760405162461bcd60e51b815260040161057590613d75565b600260fb5561012e546040516311a559f160e11b81526001600160a01b038981166004830152868116602483015260448201889052600092169063234ab3e29060640160006040518083038186803b1580156113a857600080fd5b505afa1580156113bc573d6000803e3d6000fd5b505050506040513d6000823e601f3d908101601f191682016040526113e49190810190613977565b919450925090508380156113f6575080155b156114285760405162461bcd60e51b8152602060048201526002602482015261494160f01b6044820152606401610575565b825160005b818110156114d75783818151811061145557634e487b7160e01b600052603260045260246000fd5b60200260200101516000141561146a576114c5565b6114c58a86838151811061148e57634e487b7160e01b600052603260045260246000fd5b60200260200101518b8785815181106114b757634e487b7160e01b600052603260045260246000fd5b60200260200101518b61192e565b806114cf81613eb2565b91505061142d565b5050600160fb555090969095509350505050565b600260fb54141561150e5760405162461bcd60e51b815260040161057590613d75565b600260fb5561012d54604080516361c97bb360e11b815290516001600160a01b039092169163c392f76691600480820192602092909190829003018186803b15801561155957600080fd5b505afa15801561156d573d6000803e3d6000fd5b505050506040513d601f19601f8201168201806040525081019061159191906136a3565b6001600160a01b0316634342fef56040518163ffffffff1660e01b8152600401600060405180830381600087803b1580156115cb57600080fd5b505af11580156115df573d6000803e3d6000fd5b505050506112e9336000858585611d9b565b600260fb5414156116145760405162461bcd60e51b815260040161057590613d75565b600260fb5561162385826121e8565b61083533868686866122d8565b61163a8282610cba565b61058857611652816001600160a01b03166014612856565b61165d836020612856565b60405160200161166e929190613b39565b60408051601f198184030181529082905262461bcd60e51b825261057591600401613c24565b61169e8282610cba565b61058857600082815260c9602090815260408083206001600160a01b03851684529091529020805460ff191660011790556116d63390565b6001600160a01b0316816001600160a01b0316837f2f8788117e7eff1d82e926ec794901d17c78024a50270940304540a733656f0d60405160405180910390a45050565b6117248282610cba565b1561058857600082815260c9602090815260408083206001600160a01b0385168085529252808320805460ff1916905551339285917ff6391f5c32d9c69d2a47ea670b442974b53935d1edc7fd64eb21e047a839171b9190a45050565b7f360894a13ba1a3210667c828492db98dca3e2076cc3735a920a3ca505d382bbc546001600160a01b031690565b6117c7600080516020613f6483398151915233610cba565b6106525760405162461bcd60e51b815260040161057590613d59565b60006117ed611781565b90506117f884612a3f565b6000835111806118055750815b15611816576118148484612ae4565b505b7f4910fdfa16fed3260ed0e7147f7cc6da11a60208b5b9406d12a635614ffd9143805460ff1661192757805460ff191660011781556040516001600160a01b038316602482015261189590869060440160408051601f198184030181529190526020810180516001600160e01b0316631b2ce7f360e11b179052612ae4565b50805460ff191681556118a6611781565b6001600160a01b0316826001600160a01b03161461191e5760405162461bcd60e51b815260206004820152602f60248201527f45524331393637557067726164653a207570677261646520627265616b73206660448201526e75727468657220757067726164657360881b6064820152608401610575565b61192785612bcf565b5050505050565b6001600160a01b03841615801561194f5761012f546001600160a01b031694505b6040516370a0823160e01b81526001600160a01b038581166004830152600091908716906370a082319060240160206040518083038186803b15801561199457600080fd5b505afa1580156119a8573d6000803e3d6000fd5b505050506040513d601f19601f820116820180604052508101906119cc9190613aae565b9050600061012d60009054906101000a90046001600160a01b03166001600160a01b031663ec94578e6040518163ffffffff1660e01b815260040160206040518083038186803b158015611a1f57600080fd5b505afa158015611a33573d6000803e3d6000fd5b505050506040513d601f19601f82011682018060405250810190611a5791906136a3565b90506000816001600160a01b0316876001600160a01b03161415611a7c576000611b19565b611b196103e8611b1361012d60009054906101000a90046001600160a01b03166001600160a01b03166341e3f2816040518163ffffffff1660e01b815260040160206040518083038186803b158015611ad457600080fd5b505afa158015611ae8573d6000803e3d6000fd5b505050506040513d601f19601f82011682018060405250810190611b0c9190613aae565b8990612c0f565b90612c1b565b90508015611b3557611b356001600160a01b0389168383612185565b61012d5460405163181e20a760e01b81526001600160a01b038b811660048301526024820189905287811660448301528a81166064830152600060848301529091169063181e20a79060a401600060405180830381600087803b158015611b9b57600080fd5b505af1158015611baf573d6000803e3d6000fd5b50505050611bc189868a896000612c27565b83611c9257611be587611bd4888461316f565b6001600160a01b038b169190612185565b611bf981611bf3858961317b565b9061316f565b6040516370a0823160e01b81526001600160a01b0389811660048301528a16906370a082319060240160206040518083038186803b158015611c3a57600080fd5b505afa158015611c4e573d6000803e3d6000fd5b505050506040513d601f19601f82011682018060405250810190611c729190613aae565b14611c8d57634e487b7160e01b600052600160045260246000fd5b611d90565b61012f546001600160a01b0316632e1a7d4d611cae888461316f565b6040518263ffffffff1660e01b8152600401611ccc91815260200190565b600060405180830381600087803b158015611ce657600080fd5b505af1158015611cfa573d6000803e3d6000fd5b506000925050506001600160a01b038816611d15888461316f565b604051600081818185875af1925050503d8060008114611d51576040519150601f19603f3d011682016040523d82523d6000602084013e611d56565b606091505b50508091505080611d8e5760405162461bcd60e51b8152602060048201526002602482015261046560f41b6044820152606401610575565b505b505050505050505050565b60006001600160a01b03851615611db25784611dc0565b61012f546001600160a01b03165b61012d54604051630681320d60e51b81526001600160a01b0380841660048301529293506000929091169063d02641a09060240160206040518083038186803b158015611e0c57600080fd5b505afa158015611e20573d6000803e3d6000fd5b505050506040513d601f19601f82011682018060405250810190611e449190613aae565b61012e546040516380ef72a960e01b81526001600160a01b038581166004830152929350600092611f5e928592611b1392909116906380ef72a99060240160206040518083038186803b158015611e9a57600080fd5b505afa158015611eae573d6000803e3d6000fd5b505050506040513d601f19601f82011682018060405250810190611ed29190613aae565b61012e5460405163e76ab23960e01b81526001600160a01b038e811660048301528a811660248301529091169063e76ab2399060440160206040518083038186803b158015611f2057600080fd5b505afa158015611f34573d6000803e3d6000fd5b505050506040513d601f19601f82011682018060405250810190611f589190613aae565b90612c0f565b61012d5460405163062315a960e51b81526001600160a01b038b81166004830152868116602483015287811660448301529293506000929091169063c462b5209060640160206040518083038186803b158015611fba57600080fd5b505afa158015611fce573d6000803e3d6000fd5b505050506040513d601f19601f82011682018060405250810190611ff29190613aae565b905080821115612000578091505b600082116120355760405162461bcd60e51b8152602060048201526002602482015261434160f01b6044820152606401610575565b81861115612041578195505b611d90898989898961192e565b600054610100900460ff1680612067575060005460ff16155b6120835760405162461bcd60e51b815260040161057590613d0b565b600054610100900460ff161580156120a5576000805461ffff19166101011790555b6120ad613187565b6120b5613187565b6120bd613187565b8015610652576000805461ff001916905550565b600054610100900460ff16806120ea575060005460ff16155b6121065760405162461bcd60e51b815260040161057590613d0b565b600054610100900460ff16158015612128576000805461ffff19166101011790555b6120bd6131f1565b6105888282611694565b600082815260c96020526040808220600101805490849055905190918391839186917fbd79b86ffe0ab8e8776151514217cd7cacd52c909f66475c3af44e129f0b00ff9190a4505050565b6040516001600160a01b03831660248201526044810182905261050490849063a9059cbb60e01b906064015b60408051601f198184030181529190526020810180516001600160e01b03166001600160e01b031990931692909217909152613261565b61012d60009054906101000a90046001600160a01b03166001600160a01b0316631441a5a96040518163ffffffff1660e01b815260040160206040518083038186803b15801561223757600080fd5b505afa15801561224b573d6000803e3d6000fd5b505050506040513d601f19601f8201168201806040525081019061226f91906136a3565b6040516307543e3f60e41b81526001600160a01b03848116600483015283811660248301529190911690637543e3f090604401600060405180830381600087803b1580156122bc57600080fd5b505af11580156122d0573d6000803e3d6000fd5b505050505050565b61012d5460405163803c97b360e01b81526001600160a01b0384811660048301529091169063803c97b39060240160206040518083038186803b15801561231e57600080fd5b505afa158015612332573d6000803e3d6000fd5b505050506040513d601f19601f820116820180604052508101906123569190613a4d565b6123875760405162461bcd60e51b8152602060048201526002602482015261494360f01b6044820152606401610575565b610132546001600160a01b038681169116148015612428575061013254604051636eb1769f60e11b81526001600160a01b03918216600482018190526024820152849184169063dd62ed3e9060440160206040518083038186803b1580156123ee57600080fd5b505afa158015612402573d6000803e3d6000fd5b505050506040513d601f19601f820116820180604052508101906124269190613aae565b105b156124665761013254612449906001600160a01b0384811691166000613333565b61013254612466906001600160a01b038481169116600019613333565b61012e546040516380ef72a960e01b81526001600160a01b0384811660048301526000926125809261257692909116906380ef72a99060240160206040518083038186803b1580156124b757600080fd5b505afa1580156124cb573d6000803e3d6000fd5b505050506040513d601f19601f820116820180604052508101906124ef9190613aae565b61012d54604051630681320d60e51b81526001600160a01b038881166004830152611b1392169063d02641a09060240160206040518083038186803b15801561253757600080fd5b505afa15801561254b573d6000803e3d6000fd5b505050506040513d601f19601f8201168201806040525081019061256f9190613aae565b8890612c0f565b610130549061317b565b905061013154600014806125975750610131548111155b6125c85760405162461bcd60e51b8152602060048201526002602482015261494160f01b6044820152606401610575565b61013081905561012d54604080516361c97bb360e11b815290516001600160a01b039092169163c392f76691600480820192602092909190829003018186803b15801561261457600080fd5b505afa158015612628573d6000803e3d6000fd5b505050506040513d601f19601f8201168201806040525081019061264c91906136a3565b6001600160a01b0316634342fef56040518163ffffffff1660e01b8152600401600060405180830381600087803b15801561268657600080fd5b505af115801561269a573d6000803e3d6000fd5b5050505060006126f86103e8611b1361012d60009054906101000a90046001600160a01b03166001600160a01b0316639df5138a6040518163ffffffff1660e01b815260040160206040518083038186803b15801561253757600080fd5b9050612704858261316f565b61013254909550612724906001600160a01b03868116918a911688613457565b61012d5460405163181e20a760e01b81526001600160a01b0388811660048301526024820188905285811660448301528681166064830152600160848301529091169063181e20a79060a401600060405180830381600087803b15801561278a57600080fd5b505af115801561279e573d6000803e3d6000fd5b5050505061283f8761012d60009054906101000a90046001600160a01b03166001600160a01b031663ec94578e6040518163ffffffff1660e01b815260040160206040518083038186803b1580156127f557600080fd5b505afa158015612809573d6000803e3d6000fd5b505050506040513d601f19601f8201168201806040525081019061282d91906136a3565b6001600160a01b038716919084613457565b61284d868486886001612c27565b50505050505050565b60606000612865836002613e39565b612870906002613e01565b67ffffffffffffffff81111561289657634e487b7160e01b600052604160045260246000fd5b6040519080825280601f01601f1916602001820160405280156128c0576020820181803683370190505b509050600360fc1b816000815181106128e957634e487b7160e01b600052603260045260246000fd5b60200101906001600160f81b031916908160001a905350600f60fb1b8160018151811061292657634e487b7160e01b600052603260045260246000fd5b60200101906001600160f81b031916908160001a905350600061294a846002613e39565b612955906001613e01565b90505b60018111156129e9576f181899199a1a9b1b9c1cb0b131b232b360811b85600f166010811061299757634e487b7160e01b600052603260045260246000fd5b1a60f81b8282815181106129bb57634e487b7160e01b600052603260045260246000fd5b60200101906001600160f81b031916908160001a90535060049490941c936129e281613e9b565b9050612958565b508315612a385760405162461bcd60e51b815260206004820181905260248201527f537472696e67733a20686578206c656e67746820696e73756666696369656e746044820152606401610575565b9392505050565b803b612aa35760405162461bcd60e51b815260206004820152602d60248201527f455243313936373a206e657720696d706c656d656e746174696f6e206973206e60448201526c1bdd08184818dbdb9d1c9858dd609a1b6064820152608401610575565b7f360894a13ba1a3210667c828492db98dca3e2076cc3735a920a3ca505d382bbc80546001600160a01b0319166001600160a01b0392909216919091179055565b6060823b612b435760405162461bcd60e51b815260206004820152602660248201527f416464726573733a2064656c65676174652063616c6c20746f206e6f6e2d636f6044820152651b9d1c9858dd60d21b6064820152608401610575565b600080846001600160a01b031684604051612b5e9190613b1d565b600060405180830381855af49150503d8060008114612b99576040519150601f19603f3d011682016040523d82523d6000602084013e612b9e565b606091505b5091509150612bc68282604051806060016040528060278152602001613f3d60279139613495565b95945050505050565b612bd881612a3f565b6040516001600160a01b038216907fbc7cd75a20ee27fd9adebab32041f755214dbc6bffa90cc0225b39da2e5c2d3b90600090a250565b6000612a388284613e39565b6000612a388284613e19565b61012d546040805162cb279b60e11b815290516000926001600160a01b0316916301964f36916004808301926020929190829003018186803b158015612c6c57600080fd5b505afa158015612c80573d6000803e3d6000fd5b505050506040513d601f19601f82011682018060405250810190612ca49190613aae565b9050600061012d60009054906101000a90046001600160a01b03166001600160a01b0316639ec5a8946040518163ffffffff1660e01b815260040160206040518083038186803b158015612cf757600080fd5b505afa158015612d0b573d6000803e3d6000fd5b505050506040513d601f19601f82011682018060405250810190612d2f91906136a3565b90506000806001600160a01b03831663db86b79981636de6d5ec8b60016040516001600160e01b031960e085901b1681526001600160a01b039092166004830152602482015260440160206040518083038186803b158015612d9057600080fd5b505afa158015612da4573d6000803e3d6000fd5b505050506040513d601f19601f82011682018060405250810190612dc89190613aae565b6040518263ffffffff1660e01b8152600401612de691815260200190565b604080518083038186803b158015612dfd57600080fd5b505afa158015612e11573d6000803e3d6000fd5b505050506040513d601f19601f82011682018060405250810190612e359190613a69565b91509150836000148015612e47575081155b15612e555750505050611927565b6000670de0b6b3a7640000612e6a8689613e39565b612e749190613e19565b9050600061012d60009054906101000a90046001600160a01b03166001600160a01b0316639cfd96696040518163ffffffff1660e01b815260040160206040518083038186803b158015612ec757600080fd5b505afa158015612edb573d6000803e3d6000fd5b505050506040513d601f19601f82011682018060405250810190612eff91906136a3565b90508615613037578515612fa1576040516325073c0760e11b81526001600160a01b038c81166004830152602482018490528b811660448301528a81166064830152821690634a0e780e90608401602060405180830381600087803b158015612f6757600080fd5b505af1158015612f7b573d6000803e3d6000fd5b505050506040513d601f19601f82011682018060405250810190612f9f9190613aae565b505b831561303257604051630c51b88f60e01b81526001600160a01b038c81166004830152602482018a905260448201859052861690630c51b88f90606401602060405180830381600087803b158015612ff857600080fd5b505af115801561300c573d6000803e3d6000fd5b505050506040513d601f19601f820116820180604052508101906130309190613aae565b505b613162565b85156130d157604051635aa347c760e01b81526001600160a01b038c81166004830152602482018490528b811660448301528a81166064830152821690635aa347c790608401602060405180830381600087803b15801561309757600080fd5b505af11580156130ab573d6000803e3d6000fd5b505050506040513d601f19601f820116820180604052508101906130cf9190613aae565b505b83156131625760405163515e335f60e11b81526001600160a01b038c81166004830152602482018a90526044820185905286169063a2bc66be90606401602060405180830381600087803b15801561312857600080fd5b505af115801561313c573d6000803e3d6000fd5b505050506040513d601f19601f820116820180604052508101906131609190613aae565b505b5050505050505050505050565b6000612a388284613e58565b6000612a388284613e01565b600054610100900460ff16806131a0575060005460ff16155b6131bc5760405162461bcd60e51b815260040161057590613d0b565b600054610100900460ff161580156120bd576000805461ffff19166101011790558015610652576000805461ff001916905550565b600054610100900460ff168061320a575060005460ff16155b6132265760405162461bcd60e51b815260040161057590613d0b565b600054610100900460ff16158015613248576000805461ffff19166101011790555b600160fb558015610652576000805461ff001916905550565b60006132b6826040518060400160405280602081526020017f5361666545524332303a206c6f772d6c6576656c2063616c6c206661696c6564815250856001600160a01b03166134ce9092919063ffffffff16565b80519091501561050457808060200190518101906132d49190613a4d565b6105045760405162461bcd60e51b815260206004820152602a60248201527f5361666545524332303a204552433230206f7065726174696f6e20646964206e6044820152691bdd081cdd58d8d9595960b21b6064820152608401610575565b8015806133bc5750604051636eb1769f60e11b81523060048201526001600160a01b03838116602483015284169063dd62ed3e9060440160206040518083038186803b15801561338257600080fd5b505afa158015613396573d6000803e3d6000fd5b505050506040513d601f19601f820116820180604052508101906133ba9190613aae565b155b6134275760405162461bcd60e51b815260206004820152603660248201527f5361666545524332303a20617070726f76652066726f6d206e6f6e2d7a65726f60448201527520746f206e6f6e2d7a65726f20616c6c6f77616e636560501b6064820152608401610575565b6040516001600160a01b03831660248201526044810182905261050490849063095ea7b360e01b906064016121b1565b6040516001600160a01b038085166024830152831660448201526064810182905261348f9085906323b872dd60e01b906084016121b1565b50505050565b606083156134a4575081612a38565b8251156134b45782518084602001fd5b8160405162461bcd60e51b81526004016105759190613c24565b60606134dd84846000856134e5565b949350505050565b6060824710156135465760405162461bcd60e51b815260206004820152602660248201527f416464726573733a20696e73756666696369656e742062616c616e636520666f6044820152651c8818d85b1b60d21b6064820152608401610575565b843b6135945760405162461bcd60e51b815260206004820152601d60248201527f416464726573733a2063616c6c20746f206e6f6e2d636f6e74726163740000006044820152606401610575565b600080866001600160a01b031685876040516135b09190613b1d565b60006040518083038185875af1925050503d80600081146135ed576040519150601f19603f3d011682016040523d82523d6000602084013e6135f2565b606091505b5091509150613602828286613495565b979650505050505050565b600082601f83011261361d578081fd5b8151602061363261362d83613ddd565b613dac565b80838252828201915082860187848660051b8901011115613651578586fd5b855b8581101561366f57815184529284019290840190600101613653565b5090979650505050505050565b80516104d881613f0e565b600060208284031215613698578081fd5b8135612a3881613ef9565b6000602082840312156136b4578081fd5b8151612a3881613ef9565b6000806000606084860312156136d3578182fd5b83356136de81613ef9565b925060208401356136ee81613ef9565b915060408401356136fe81613ef9565b809150509250925092565b600080600080600060a08688031215613720578081fd5b853561372b81613ef9565b9450602086013561373b81613ef9565b9350604086013561374b81613ef9565b925060608601359150608086013561376281613ef9565b809150509295509295909350565b60008060008060808587031215613785578384fd5b843561379081613ef9565b935060208501356137a081613ef9565b92506040850135915060608501356137b781613ef9565b939692955090935050565b600080600080600060a086880312156137d9578081fd5b85356137e481613ef9565b945060208601356137f481613ef9565b935060408601359250606086013561380b81613ef9565b9150608086013561376281613f0e565b6000806040838503121561382d578182fd5b823561383881613ef9565b915060208381013567ffffffffffffffff80821115613855578384fd5b818601915086601f830112613868578384fd5b81358181111561387a5761387a613ee3565b61388c601f8201601f19168501613dac565b915080825287848285010111156138a1578485fd5b8084840185840137810190920192909252919491935090915050565b600080604083850312156138cf578182fd5b82356138da81613ef9565b946020939093013593505050565b6000806000606084860312156138fc578081fd5b833561390781613ef9565b92506020840135915060408401356136fe81613ef9565b600080600080600060a08688031215613935578283fd5b853561394081613ef9565b945060208601359350604086013561395781613ef9565b9250606086013561396781613ef9565b9150608086013561376281613ef9565b60008060006060848603121561398b578081fd5b835167ffffffffffffffff808211156139a2578283fd5b818601915086601f8301126139b5578283fd5b815160206139c561362d83613ddd565b8083825282820191508286018b848660051b89010111156139e4578788fd5b8796505b84871015613a0f5780516139fb81613ef9565b8352600196909601959183019183016139e8565b5091890151919750909350505080821115613a28578283fd5b50613a358682870161360d565b925050613a446040850161367c565b90509250925092565b600060208284031215613a5e578081fd5b8151612a3881613f0e565b60008060408385031215613a7b578182fd5b8251613a8681613f0e565b6020939093015192949293505050565b600060208284031215613aa7578081fd5b5035919050565b600060208284031215613abf578081fd5b5051919050565b60008060408385031215613ad8578182fd5b823591506020830135613aea81613ef9565b809150509250929050565b600060208284031215613b06578081fd5b81356001600160e01b031981168114612a38578182fd5b60008251613b2f818460208701613e6f565b9190910192915050565b60007f416363657373436f6e74726f6c3a206163636f756e742000000000000000000082528351613b71816017850160208801613e6f565b7001034b99036b4b9b9b4b733903937b6329607d1b6017918401918201528351613ba2816028840160208801613e6f565b01602801949350505050565b604080825283519082018190526000906020906060840190828701845b82811015613bf05781516001600160a01b031684529284019290840190600101613bcb565b50505083810382850152845180825285830191830190845b8181101561366f57835183529284019291840191600101613c08565b6000602082528251806020840152613c43816040850160208701613e6f565b601f01601f19169190910160400192915050565b6020808252600290820152614e4f60f01b604082015260600190565b6020808252602c908201527f46756e6374696f6e206d7573742062652063616c6c6564207468726f7567682060408201526b19195b1959d85d1958d85b1b60a21b606082015260800190565b6020808252602c908201527f46756e6374696f6e206d7573742062652063616c6c6564207468726f7567682060408201526b6163746976652070726f787960a01b606082015260800190565b6020808252602e908201527f496e697469616c697a61626c653a20636f6e747261637420697320616c72656160408201526d191e481a5b9a5d1a585b1a5e995960921b606082015260800190565b6020808252600290820152614e4160f01b604082015260600190565b6020808252601f908201527f5265656e7472616e637947756172643a207265656e7472616e742063616c6c00604082015260600190565b604051601f8201601f1916810167ffffffffffffffff81118282101715613dd557613dd5613ee3565b604052919050565b600067ffffffffffffffff821115613df757613df7613ee3565b5060051b60200190565b60008219821115613e1457613e14613ecd565b500190565b600082613e3457634e487b7160e01b81526012600452602481fd5b500490565b6000816000190483118215151615613e5357613e53613ecd565b500290565b600082821015613e6a57613e6a613ecd565b500390565b60005b83811015613e8a578181015183820152602001613e72565b8381111561348f5750506000910152565b600081613eaa57613eaa613ecd565b506000190190565b6000600019821415613ec657613ec6613ecd565b5060010190565b634e487b7160e01b600052601160045260246000fd5b634e487b7160e01b600052604160045260246000fd5b6001600160a01b038116811461065257600080fd5b801515811461065257600080fdfe97667070c54ef182b0f5858b034beac1b6f3089aa2d3188bb1e8929f4fa9b929416464726573733a206c6f772d6c6576656c2064656c65676174652063616c6c206661696c6564a49807205ce4d355092ef5a8a18f56e8913cf4a201fbe287825b095693c21775a2646970667358221220138a64a7e76b0533cdf22724479c78658506faef91606d2b5f4b3f6d4e578e7564736f6c63430008030033",
  "linkReferences": {},
  "deployedLinkReferences": {}
}