{
  "_format": "hh-sol-artifact-1",
  "contractName": "Comptroller",
  "sourceName": "contracts/Bank/Comptroller.sol",
  "abi": [
    {
      "anonymous": false,
      "inputs": [
        {
          "indexed": false,
          "internalType": "address",
          "name": "previousAdmin",
          "type": "address"
        },
        {
          "indexed": false,
          "internalType": "address",
          "name": "newAdmin",
          "type": "address"
        }
      ],
      "name": "AdminChanged",
      "type": "event"
    },
    {
      "anonymous": false,
      "inputs": [
        {
          "indexed": true,
          "internalType": "address",
          "name": "beacon",
          "type": "address"
        }
      ],
      "name": "BeaconUpgraded",
      "type": "event"
    },
    {
      "anonymous": false,
      "inputs": [
        {
          "indexed": false,
          "internalType": "uint256",
          "name": "amountBurned",
          "type": "uint256"
        },
        {
          "indexed": true,
          "internalType": "address",
          "name": "token",
          "type": "address"
        }
      ],
      "name": "BurnToken",
      "type": "event"
    },
    {
      "anonymous": false,
      "inputs": [
        {
          "indexed": false,
          "internalType": "uint256",
          "name": "tokenRate",
          "type": "uint256"
        },
        {
          "indexed": false,
          "internalType": "uint256",
          "name": "amountMinted",
          "type": "uint256"
        },
        {
          "indexed": true,
          "internalType": "address",
          "name": "token",
          "type": "address"
        }
      ],
      "name": "MintToken",
      "type": "event"
    },
    {
      "anonymous": false,
      "inputs": [
        {
          "indexed": true,
          "internalType": "address",
          "name": "previousOwner",
          "type": "address"
        },
        {
          "indexed": true,
          "internalType": "address",
          "name": "newOwner",
          "type": "address"
        }
      ],
      "name": "OwnershipTransferred",
      "type": "event"
    },
    {
      "anonymous": false,
      "inputs": [
        {
          "indexed": true,
          "internalType": "address",
          "name": "implementation",
          "type": "address"
        }
      ],
      "name": "Upgraded",
      "type": "event"
    },
    {
      "inputs": [
        {
          "internalType": "uint256",
          "name": "amount",
          "type": "uint256"
        },
        {
          "internalType": "address",
          "name": "token",
          "type": "address"
        },
        {
          "internalType": "uint256",
          "name": "deadline",
          "type": "uint256"
        }
      ],
      "name": "burn",
      "outputs": [],
      "stateMutability": "nonpayable",
      "type": "function"
    },
    {
      "inputs": [],
      "name": "handle",
      "outputs": [
        {
          "internalType": "contract IHandle",
          "name": "",
          "type": "address"
        }
      ],
      "stateMutability": "view",
      "type": "function"
    },
    {
      "inputs": [],
      "name": "handleAddress",
      "outputs": [
        {
          "internalType": "address",
          "name": "",
          "type": "address"
        }
      ],
      "stateMutability": "view",
      "type": "function"
    },
    {
      "inputs": [],
      "name": "initialize",
      "outputs": [],
      "stateMutability": "nonpayable",
      "type": "function"
    },
    {
      "inputs": [],
      "name": "minimumMintingAmount",
      "outputs": [
        {
          "internalType": "uint256",
          "name": "",
          "type": "uint256"
        }
      ],
      "stateMutability": "view",
      "type": "function"
    },
    {
      "inputs": [
        {
          "internalType": "uint256",
          "name": "tokenAmount",
          "type": "uint256"
        },
        {
          "internalType": "address",
          "name": "token",
          "type": "address"
        },
        {
          "internalType": "address",
          "name": "collateralToken",
          "type": "address"
        },
        {
          "internalType": "uint256",
          "name": "collateralAmount",
          "type": "uint256"
        },
        {
          "internalType": "uint256",
          "name": "deadline",
          "type": "uint256"
        },
        {
          "internalType": "address",
          "name": "referral",
          "type": "address"
        }
      ],
      "name": "mint",
      "outputs": [],
      "stateMutability": "nonpayable",
      "type": "function"
    },
    {
      "inputs": [
        {
          "internalType": "uint256",
          "name": "tokenAmount",
          "type": "uint256"
        },
        {
          "internalType": "address",
          "name": "token",
          "type": "address"
        },
        {
          "internalType": "uint256",
          "name": "deadline",
          "type": "uint256"
        },
        {
          "internalType": "address",
          "name": "referral",
          "type": "address"
        }
      ],
      "name": "mintWithEth",
      "outputs": [],
      "stateMutability": "payable",
      "type": "function"
    },
    {
      "inputs": [
        {
          "internalType": "uint256",
          "name": "tokenAmount",
          "type": "uint256"
        },
        {
          "internalType": "address",
          "name": "token",
          "type": "address"
        },
        {
          "internalType": "uint256",
          "name": "deadline",
          "type": "uint256"
        },
        {
          "internalType": "address",
          "name": "referral",
          "type": "address"
        }
      ],
      "name": "mintWithoutCollateral",
      "outputs": [],
      "stateMutability": "nonpayable",
      "type": "function"
    },
    {
      "inputs": [],
      "name": "owner",
      "outputs": [
        {
          "internalType": "address",
          "name": "",
          "type": "address"
        }
      ],
      "stateMutability": "view",
      "type": "function"
    },
    {
      "inputs": [],
      "name": "renounceOwnership",
      "outputs": [],
      "stateMutability": "nonpayable",
      "type": "function"
    },
    {
      "inputs": [
        {
          "internalType": "address",
          "name": "_handle",
          "type": "address"
        }
      ],
      "name": "setHandleContract",
      "outputs": [],
      "stateMutability": "nonpayable",
      "type": "function"
    },
    {
      "inputs": [
        {
          "internalType": "uint256",
          "name": "amount",
          "type": "uint256"
        }
      ],
      "name": "setMinimumMintingAmount",
      "outputs": [],
      "stateMutability": "nonpayable",
      "type": "function"
    },
    {
      "inputs": [
        {
          "internalType": "address",
          "name": "newOwner",
          "type": "address"
        }
      ],
      "name": "transferOwnership",
      "outputs": [],
      "stateMutability": "nonpayable",
      "type": "function"
    },
    {
      "inputs": [
        {
          "internalType": "address",
          "name": "newImplementation",
          "type": "address"
        }
      ],
      "name": "upgradeTo",
      "outputs": [],
      "stateMutability": "nonpayable",
      "type": "function"
    },
    {
      "inputs": [
        {
          "internalType": "address",
          "name": "newImplementation",
          "type": "address"
        },
        {
          "internalType": "bytes",
          "name": "data",
          "type": "bytes"
        }
      ],
      "name": "upgradeToAndCall",
      "outputs": [],
      "stateMutability": "payable",
      "type": "function"
    },
    {
      "stateMutability": "payable",
      "type": "receive"
    }
  ],
  "bytecode": "0x608060405234801561001057600080fd5b506155e780620000216000396000f3fe6080604052600436106100ec5760003560e01c80638129fc1c1161008a5780639eea5f66116100595780639eea5f6614610314578063a1e34fb11461033d578063f2fde38b14610359578063fd0da0991461038257610177565b80638129fc1c14610280578063861a8a5b146102975780638da5cb5b146102c05780639b1c414f146102eb57610177565b8063422ca4b7116100c6578063422ca4b7146101f95780634f1ef28614610222578063715018a61461023e57806374bf578b1461025557610177565b8063282f31cc1461017c5780633659cfe6146101a55780633fad191b146101ce57610177565b366101775760fe60009054906101000a900473ffffffffffffffffffffffffffffffffffffffff1673ffffffffffffffffffffffffffffffffffffffff163373ffffffffffffffffffffffffffffffffffffffff1614610175577f4e487b7100000000000000000000000000000000000000000000000000000000600052600160045260246000fd5b005b600080fd5b34801561018857600080fd5b506101a3600480360381019061019e9190614572565b6103ad565b005b3480156101b157600080fd5b506101cc60048036038101906101c7919061440e565b610433565b005b3480156101da57600080fd5b506101e361045a565b6040516101f09190614de4565b60405180910390f35b34801561020557600080fd5b50610220600480360381019061021b91906145c4565b610460565b005b61023c60048036038101906102379190614489565b610717565b005b34801561024a57600080fd5b50610253610730565b005b34801561026157600080fd5b5061026a61086d565b60405161027791906149c9565b60405180910390f35b34801561028c57600080fd5b50610295610897565b005b3480156102a357600080fd5b506102be60048036038101906102b9919061469c565b610988565b005b3480156102cc57600080fd5b506102d5610ffb565b6040516102e291906149c9565b60405180910390f35b3480156102f757600080fd5b50610312600480360381019061030d919061440e565b611025565b005b34801561032057600080fd5b5061033b6004803603810190610336919061464d565b611385565b005b6103576004803603810190610352919061469c565b612059565b005b34801561036557600080fd5b50610380600480360381019061037b919061440e565b6123f3565b005b34801561038e57600080fd5b5061039761259f565b6040516103a49190614bc7565b60405180910390f35b6103b56125c5565b73ffffffffffffffffffffffffffffffffffffffff166103d3610ffb565b73ffffffffffffffffffffffffffffffffffffffff1614610429576040517f08c379a000000000000000000000000000000000000000000000000000000000815260040161042090614d64565b60405180910390fd5b8060ff8190555050565b61043c816125cd565b6104578160405180602001604052806000815250600061264c565b50565b60ff5481565b81804211156104a4576040517f08c379a000000000000000000000000000000000000000000000000000000000815260040161049b90614ca4565b60405180910390fd5b600260c95414156104ea576040517f08c379a00000000000000000000000000000000000000000000000000000000081526004016104e190614dc4565b60405180910390fd5b600260c98190555060fb60009054906101000a900473ffffffffffffffffffffffffffffffffffffffff1673ffffffffffffffffffffffffffffffffffffffff1663803c97b3866040518263ffffffff1660e01b815260040161054d91906149c9565b60206040518083038186803b15801561056557600080fd5b505afa158015610579573d6000803e3d6000fd5b505050506040513d601f19601f8201168201806040525081019061059d9190614549565b6105dc576040517f08c379a00000000000000000000000000000000000000000000000000000000081526004016105d390614c24565b60405180910390fd5b6000871180156105ec5750600084115b61062b576040517f08c379a000000000000000000000000000000000000000000000000000000000815260040161062290614d24565b60405180910390fd5b8473ffffffffffffffffffffffffffffffffffffffff166323b872dd3330876040518463ffffffff1660e01b815260040161066893929190614a7c565b602060405180830381600087803b15801561068257600080fd5b505af1158015610696573d6000803e3d6000fd5b505050506040513d601f19601f820116820180604052508101906106ba9190614549565b6106f9576040517f08c379a00000000000000000000000000000000000000000000000000000000081526004016106f090614d84565b60405180910390fd5b6107068787878786612860565b600160c98190555050505050505050565b610720826125cd565b61072c8282600161264c565b5050565b6107386125c5565b73ffffffffffffffffffffffffffffffffffffffff16610756610ffb565b73ffffffffffffffffffffffffffffffffffffffff16146107ac576040517f08c379a00000000000000000000000000000000000000000000000000000000081526004016107a390614d64565b60405180910390fd5b600073ffffffffffffffffffffffffffffffffffffffff16609760009054906101000a900473ffffffffffffffffffffffffffffffffffffffff1673ffffffffffffffffffffffffffffffffffffffff167f8be0079c531659141344cd1fd0a4f28419497f9722a3daafe3b4186f6b6457e060405160405180910390a36000609760006101000a81548173ffffffffffffffffffffffffffffffffffffffff021916908373ffffffffffffffffffffffffffffffffffffffff160217905550565b600060fb60009054906101000a900473ffffffffffffffffffffffffffffffffffffffff16905090565b600060019054906101000a900460ff16806108bd575060008054906101000a900460ff16155b6108fc576040517f08c379a00000000000000000000000000000000000000000000000000000000081526004016108f390614d04565b60405180910390fd5b60008060019054906101000a900460ff16159050801561094c576001600060016101000a81548160ff02191690831515021790555060016000806101000a81548160ff0219169083151502179055505b610954612e17565b61095c612f00565b610964612fe9565b80156109855760008060016101000a81548160ff0219169083151502179055505b50565b81804211156109cc576040517f08c379a00000000000000000000000000000000000000000000000000000000081526004016109c390614ca4565b60405180910390fd5b8360fb60009054906101000a900473ffffffffffffffffffffffffffffffffffffffff1673ffffffffffffffffffffffffffffffffffffffff1663a0f026ff826040518263ffffffff1660e01b8152600401610a2891906149c9565b60206040518083038186803b158015610a4057600080fd5b505afa158015610a54573d6000803e3d6000fd5b505050506040513d601f19601f82011682018060405250810190610a789190614549565b610ab7576040517f08c379a0000000000000000000000000000000000000000000000000000000008152600401610aae90614cc4565b60405180910390fd5b60008611610afa576040517f08c379a0000000000000000000000000000000000000000000000000000000008152600401610af190614d24565b60405180910390fd5b600060fb60009054906101000a900473ffffffffffffffffffffffffffffffffffffffff1673ffffffffffffffffffffffffffffffffffffffff1663d02641a0876040518263ffffffff1660e01b8152600401610b5791906149c9565b60206040518083038186803b158015610b6f57600080fd5b505afa158015610b83573d6000803e3d6000fd5b505050506040513d601f19601f82011682018060405250810190610ba7919061459b565b9050610bb73387838a60016130ca565b610bc133856132c2565b60fb60009054906101000a900473ffffffffffffffffffffffffffffffffffffffff1673ffffffffffffffffffffffffffffffffffffffff1663c392f7666040518163ffffffff1660e01b815260040160206040518083038186803b158015610c2957600080fd5b505afa158015610c3d573d6000803e3d6000fd5b505050506040513d601f19601f82011682018060405250810190610c619190614437565b73ffffffffffffffffffffffffffffffffffffffff16634342fef56040518163ffffffff1660e01b8152600401600060405180830381600087803b158015610ca857600080fd5b505af1158015610cbc573d6000803e3d6000fd5b505050506000610d886103e8610d7a60fb60009054906101000a900473ffffffffffffffffffffffffffffffffffffffff1673ffffffffffffffffffffffffffffffffffffffff16639931286d6040518163ffffffff1660e01b815260040160206040518083038186803b158015610d3357600080fd5b505afa158015610d47573d6000803e3d6000fd5b505050506040513d601f19601f82011682018060405250810190610d6b919061459b565b8b6133d290919063ffffffff16565b6133e890919063ffffffff16565b905060fd60009054906101000a900473ffffffffffffffffffffffffffffffffffffffff1673ffffffffffffffffffffffffffffffffffffffff16639e718d07610ddb838b6133fe90919063ffffffff16565b60fd60009054906101000a900473ffffffffffffffffffffffffffffffffffffffff1673ffffffffffffffffffffffffffffffffffffffff1663bcbe3f22338c6040518363ffffffff1660e01b8152600401610e389291906149e4565b60206040518083038186803b158015610e5057600080fd5b505afa158015610e64573d6000803e3d6000fd5b505050506040513d601f19601f82011682018060405250810190610e88919061459b565b856040518463ffffffff1660e01b8152600401610ea793929190614e28565b60206040518083038186803b158015610ebf57600080fd5b505afa158015610ed3573d6000803e3d6000fd5b505050506040513d601f19601f82011682018060405250810190610ef7919061459b565b60fd60009054906101000a900473ffffffffffffffffffffffffffffffffffffffff1673ffffffffffffffffffffffffffffffffffffffff1663e76ab239338a6040518363ffffffff1660e01b8152600401610f549291906149e4565b60206040518083038186803b158015610f6c57600080fd5b505afa158015610f80573d6000803e3d6000fd5b505050506040513d601f19601f82011682018060405250810190610fa4919061459b565b1015610fe5576040517f08c379a0000000000000000000000000000000000000000000000000000000008152600401610fdc90614ce4565b60405180910390fd5b610ff188888484613414565b5050505050505050565b6000609760009054906101000a900473ffffffffffffffffffffffffffffffffffffffff16905090565b61102d6125c5565b73ffffffffffffffffffffffffffffffffffffffff1661104b610ffb565b73ffffffffffffffffffffffffffffffffffffffff16146110a1576040517f08c379a000000000000000000000000000000000000000000000000000000000815260040161109890614d64565b60405180910390fd5b8060fb60006101000a81548173ffffffffffffffffffffffffffffffffffffffff021916908373ffffffffffffffffffffffffffffffffffffffff16021790555060fb60009054906101000a900473ffffffffffffffffffffffffffffffffffffffff1673ffffffffffffffffffffffffffffffffffffffff166361d027b36040518163ffffffff1660e01b815260040160206040518083038186803b15801561114a57600080fd5b505afa15801561115e573d6000803e3d6000fd5b505050506040513d601f19601f820116820180604052508101906111829190614460565b60fc60006101000a81548173ffffffffffffffffffffffffffffffffffffffff021916908373ffffffffffffffffffffffffffffffffffffffff16021790555060fb60009054906101000a900473ffffffffffffffffffffffffffffffffffffffff1673ffffffffffffffffffffffffffffffffffffffff1663eb0a8b916040518163ffffffff1660e01b815260040160206040518083038186803b15801561122a57600080fd5b505afa15801561123e573d6000803e3d6000fd5b505050506040513d601f19601f820116820180604052508101906112629190614437565b60fd60006101000a81548173ffffffffffffffffffffffffffffffffffffffff021916908373ffffffffffffffffffffffffffffffffffffffff16021790555060fb60009054906101000a900473ffffffffffffffffffffffffffffffffffffffff1673ffffffffffffffffffffffffffffffffffffffff1663ad5c46486040518163ffffffff1660e01b815260040160206040518083038186803b15801561130a57600080fd5b505afa15801561131e573d6000803e3d6000fd5b505050506040513d601f19601f820116820180604052508101906113429190614437565b60fe60006101000a81548173ffffffffffffffffffffffffffffffffffffffff021916908373ffffffffffffffffffffffffffffffffffffffff16021790555050565b80804211156113c9576040517f08c379a00000000000000000000000000000000000000000000000000000000081526004016113c090614ca4565b60405180910390fd5b8260fb60009054906101000a900473ffffffffffffffffffffffffffffffffffffffff1673ffffffffffffffffffffffffffffffffffffffff1663a0f026ff826040518263ffffffff1660e01b815260040161142591906149c9565b60206040518083038186803b15801561143d57600080fd5b505afa158015611451573d6000803e3d6000fd5b505050506040513d601f19601f820116820180604052508101906114759190614549565b6114b4576040517f08c379a00000000000000000000000000000000000000000000000000000000081526004016114ab90614cc4565b60405180910390fd5b6114bc61086d565b73ffffffffffffffffffffffffffffffffffffffff1663b187bd266040518163ffffffff1660e01b815260040160206040518083038186803b15801561150157600080fd5b505afa158015611515573d6000803e3d6000fd5b505050506040513d601f19601f820116820180604052508101906115399190614549565b15611579576040517f08c379a000000000000000000000000000000000000000000000000000000000815260040161157090614c04565b60405180910390fd5b600085116115bc576040517f08c379a00000000000000000000000000000000000000000000000000000000081526004016115b390614d24565b60405180910390fd5b848473ffffffffffffffffffffffffffffffffffffffff166370a08231336040518263ffffffff1660e01b81526004016115f691906149c9565b60206040518083038186803b15801561160e57600080fd5b505afa158015611622573d6000803e3d6000fd5b505050506040513d601f19601f82011682018060405250810190611646919061459b565b1015611687576040517f08c379a000000000000000000000000000000000000000000000000000000000815260040161167e90614d24565b60405180910390fd5b600060fb60009054906101000a900473ffffffffffffffffffffffffffffffffffffffff1673ffffffffffffffffffffffffffffffffffffffff1663d02641a0866040518263ffffffff1660e01b81526004016116e491906149c9565b60206040518083038186803b1580156116fc57600080fd5b505afa158015611710573d6000803e3d6000fd5b505050506040513d601f19601f82011682018060405250810190611734919061459b565b9050600060fb60009054906101000a900473ffffffffffffffffffffffffffffffffffffffff1673ffffffffffffffffffffffffffffffffffffffff1663498b5ae833886040518363ffffffff1660e01b81526004016117959291906149e4565b60206040518083038186803b1580156117ad57600080fd5b505afa1580156117c1573d6000803e3d6000fd5b505050506040513d601f19601f820116820180604052508101906117e5919061459b565b9050808711156117f3578096505b808714611809576118083387848a60006130ca565b5b5060fb60009054906101000a900473ffffffffffffffffffffffffffffffffffffffff1673ffffffffffffffffffffffffffffffffffffffff1663c392f7666040518163ffffffff1660e01b815260040160206040518083038186803b15801561187257600080fd5b505afa158015611886573d6000803e3d6000fd5b505050506040513d601f19601f820116820180604052508101906118aa9190614437565b73ffffffffffffffffffffffffffffffffffffffff16634342fef56040518163ffffffff1660e01b8152600401600060405180830381600087803b1580156118f157600080fd5b505af1158015611905573d6000803e3d6000fd5b5050505060008573ffffffffffffffffffffffffffffffffffffffff166370a08231336040518263ffffffff1660e01b815260040161194491906149c9565b60206040518083038186803b15801561195c57600080fd5b505afa158015611970573d6000803e3d6000fd5b505050506040513d601f19601f82011682018060405250810190611994919061459b565b90506000611b2c60fd60009054906101000a900473ffffffffffffffffffffffffffffffffffffffff1673ffffffffffffffffffffffffffffffffffffffff166380ef72a9896040518263ffffffff1660e01b81526004016119f691906149c9565b60206040518083038186803b158015611a0e57600080fd5b505afa158015611a22573d6000803e3d6000fd5b505050506040513d601f19601f82011682018060405250810190611a46919061459b565b611b1e85611b106103e8611b0260fb60009054906101000a900473ffffffffffffffffffffffffffffffffffffffff1673ffffffffffffffffffffffffffffffffffffffff1663e75fd0b56040518163ffffffff1660e01b815260040160206040518083038186803b158015611abb57600080fd5b505afa158015611acf573d6000803e3d6000fd5b505050506040513d601f19601f82011682018060405250810190611af3919061459b565b8f6133d290919063ffffffff16565b6133e890919063ffffffff16565b6133d290919063ffffffff16565b6133e890919063ffffffff16565b905060fc60009054906101000a900473ffffffffffffffffffffffffffffffffffffffff1673ffffffffffffffffffffffffffffffffffffffff1663eb2266fc3360fb60009054906101000a900473ffffffffffffffffffffffffffffffffffffffff1673ffffffffffffffffffffffffffffffffffffffff1663ec94578e6040518163ffffffff1660e01b815260040160206040518083038186803b158015611bd557600080fd5b505afa158015611be9573d6000803e3d6000fd5b505050506040513d601f19601f82011682018060405250810190611c0d9190614437565b848b60016040518663ffffffff1660e01b8152600401611c31959493929190614ab3565b600060405180830381600087803b158015611c4b57600080fd5b505af1158015611c5f573d6000803e3d6000fd5b505050506040513d6000823e3d601f19601f82011682018060405250810190611c8891906144dd565b50508673ffffffffffffffffffffffffffffffffffffffff16639dc29fac338a6040518363ffffffff1660e01b8152600401611cc5929190614b06565b600060405180830381600087803b158015611cdf57600080fd5b505af1158015611cf3573d6000803e3d6000fd5b50505050611d0a8883613a7690919063ffffffff16565b8773ffffffffffffffffffffffffffffffffffffffff166370a08231336040518263ffffffff1660e01b8152600401611d4391906149c9565b60206040518083038186803b158015611d5b57600080fd5b505afa158015611d6f573d6000803e3d6000fd5b505050506040513d601f19601f82011682018060405250810190611d93919061459b565b14611dc7577f4e487b7100000000000000000000000000000000000000000000000000000000600052600160045260246000fd5b600060fb60009054906101000a900473ffffffffffffffffffffffffffffffffffffffff1673ffffffffffffffffffffffffffffffffffffffff1663498b5ae8338a6040518363ffffffff1660e01b8152600401611e269291906149e4565b60206040518083038186803b158015611e3e57600080fd5b505afa158015611e52573d6000803e3d6000fd5b505050506040513d601f19601f82011682018060405250810190611e76919061459b565b905060fb60009054906101000a900473ffffffffffffffffffffffffffffffffffffffff1673ffffffffffffffffffffffffffffffffffffffff1663877034f1338b8b60006040518563ffffffff1660e01b8152600401611eda9493929190614b82565b600060405180830381600087803b158015611ef457600080fd5b505af1158015611f08573d6000803e3d6000fd5b50505050611f1f8982613a7690919063ffffffff16565b60fb60009054906101000a900473ffffffffffffffffffffffffffffffffffffffff1673ffffffffffffffffffffffffffffffffffffffff1663498b5ae8338b6040518363ffffffff1660e01b8152600401611f7c9291906149e4565b60206040518083038186803b158015611f9457600080fd5b505afa158015611fa8573d6000803e3d6000fd5b505050506040513d601f19601f82011682018060405250810190611fcc919061459b565b14612000577f4e487b7100000000000000000000000000000000000000000000000000000000600052600160045260246000fd5b8773ffffffffffffffffffffffffffffffffffffffff167f3dd579c60f3ada65727e8d87353e1499f8784809ec65347e9520ee2ea25d33788a6040516120469190614de4565b60405180910390a2505050505050505050565b818042111561209d576040517f08c379a000000000000000000000000000000000000000000000000000000000815260040161209490614ca4565b60405180910390fd5b8360fb60009054906101000a900473ffffffffffffffffffffffffffffffffffffffff1673ffffffffffffffffffffffffffffffffffffffff1663a0f026ff826040518263ffffffff1660e01b81526004016120f991906149c9565b60206040518083038186803b15801561211157600080fd5b505afa158015612125573d6000803e3d6000fd5b505050506040513d601f19601f820116820180604052508101906121499190614549565b612188576040517f08c379a000000000000000000000000000000000000000000000000000000000815260040161217f90614cc4565b60405180910390fd5b600260c95414156121ce576040517f08c379a00000000000000000000000000000000000000000000000000000000081526004016121c590614dc4565b60405180910390fd5b600260c98190555060fb60009054906101000a900473ffffffffffffffffffffffffffffffffffffffff1673ffffffffffffffffffffffffffffffffffffffff1663803c97b360fe60009054906101000a900473ffffffffffffffffffffffffffffffffffffffff166040518263ffffffff1660e01b815260040161225391906149c9565b60206040518083038186803b15801561226b57600080fd5b505afa15801561227f573d6000803e3d6000fd5b505050506040513d601f19601f820116820180604052508101906122a39190614549565b6122e2576040517f08c379a00000000000000000000000000000000000000000000000000000000081526004016122d990614c84565b60405180910390fd5b6000861180156122f25750600034115b612331576040517f08c379a000000000000000000000000000000000000000000000000000000000815260040161232890614d24565b60405180910390fd5b60fe60009054906101000a900473ffffffffffffffffffffffffffffffffffffffff1673ffffffffffffffffffffffffffffffffffffffff1663d0e30db0346040518263ffffffff1660e01b81526004016000604051808303818588803b15801561239b57600080fd5b505af11580156123af573d6000803e3d6000fd5b50505050506123e3868660fe60009054906101000a900473ffffffffffffffffffffffffffffffffffffffff163487612860565b600160c981905550505050505050565b6123fb6125c5565b73ffffffffffffffffffffffffffffffffffffffff16612419610ffb565b73ffffffffffffffffffffffffffffffffffffffff161461246f576040517f08c379a000000000000000000000000000000000000000000000000000000000815260040161246690614d64565b60405180910390fd5b600073ffffffffffffffffffffffffffffffffffffffff168173ffffffffffffffffffffffffffffffffffffffff1614156124df576040517f08c379a00000000000000000000000000000000000000000000000000000000081526004016124d690614c64565b60405180910390fd5b8073ffffffffffffffffffffffffffffffffffffffff16609760009054906101000a900473ffffffffffffffffffffffffffffffffffffffff1673ffffffffffffffffffffffffffffffffffffffff167f8be0079c531659141344cd1fd0a4f28419497f9722a3daafe3b4186f6b6457e060405160405180910390a380609760006101000a81548173ffffffffffffffffffffffffffffffffffffffff021916908373ffffffffffffffffffffffffffffffffffffffff16021790555050565b60fb60009054906101000a900473ffffffffffffffffffffffffffffffffffffffff1681565b600033905090565b6125d56125c5565b73ffffffffffffffffffffffffffffffffffffffff166125f3610ffb565b73ffffffffffffffffffffffffffffffffffffffff1614612649576040517f08c379a000000000000000000000000000000000000000000000000000000000815260040161264090614d64565b60405180910390fd5b50565b6000612656613a8c565b905061266184613ae3565b60008351118061266e5750815b1561267f5761267d8484613b9c565b505b60006126ad7f4910fdfa16fed3260ed0e7147f7cc6da11a60208b5b9406d12a635614ffd914360001b613c80565b90508060000160009054906101000a900460ff166128595760018160000160006101000a81548160ff02191690831515021790555061277985836040516024016126f791906149c9565b6040516020818303038152906040527f3659cfe6000000000000000000000000000000000000000000000000000000007bffffffffffffffffffffffffffffffffffffffffffffffffffffffff19166020820180517bffffffffffffffffffffffffffffffffffffffffffffffffffffffff8381831617835250505050613b9c565b5060008160000160006101000a81548160ff02191690831515021790555061279f613a8c565b73ffffffffffffffffffffffffffffffffffffffff168273ffffffffffffffffffffffffffffffffffffffff161461280c576040517f08c379a000000000000000000000000000000000000000000000000000000000815260040161280390614c44565b60405180910390fd5b61281585613ae3565b8473ffffffffffffffffffffffffffffffffffffffff167fbc7cd75a20ee27fd9adebab32041f755214dbc6bffa90cc0225b39da2e5c2d3b60405160405180910390a25b5050505050565b8273ffffffffffffffffffffffffffffffffffffffff1663095ea7b360fc60009054906101000a900473ffffffffffffffffffffffffffffffffffffffff16846040518363ffffffff1660e01b81526004016128bd929190614b06565b602060405180830381600087803b1580156128d757600080fd5b505af11580156128eb573d6000803e3d6000fd5b505050506040513d601f19601f8201168201806040525081019061290f9190614549565b612942577f4e487b7100000000000000000000000000000000000000000000000000000000600052600160045260246000fd5b6000612a0a6103e86129fc60fb60009054906101000a900473ffffffffffffffffffffffffffffffffffffffff1673ffffffffffffffffffffffffffffffffffffffff16639931286d6040518163ffffffff1660e01b815260040160206040518083038186803b1580156129b557600080fd5b505afa1580156129c9573d6000803e3d6000fd5b505050506040513d601f19601f820116820180604052508101906129ed919061459b565b896133d290919063ffffffff16565b6133e890919063ffffffff16565b90506000612ad46103e8612ac660fb60009054906101000a900473ffffffffffffffffffffffffffffffffffffffff1673ffffffffffffffffffffffffffffffffffffffff16639df5138a6040518163ffffffff1660e01b815260040160206040518083038186803b158015612a7f57600080fd5b505afa158015612a93573d6000803e3d6000fd5b505050506040513d601f19601f82011682018060405250810190612ab7919061459b565b876133d290919063ffffffff16565b6133e890919063ffffffff16565b9050612ae98185613a7690919063ffffffff16565b9350600060fb60009054906101000a900473ffffffffffffffffffffffffffffffffffffffff1673ffffffffffffffffffffffffffffffffffffffff1663d02641a0886040518263ffffffff1660e01b8152600401612b4891906149c9565b60206040518083038186803b158015612b6057600080fd5b505afa158015612b74573d6000803e3d6000fd5b505050506040513d601f19601f82011682018060405250810190612b98919061459b565b9050612ba83388838b60016130ca565b60fd60009054906101000a900473ffffffffffffffffffffffffffffffffffffffff1673ffffffffffffffffffffffffffffffffffffffff1663e279962333898989612bfd898f6133fe90919063ffffffff16565b8760fb60009054906101000a900473ffffffffffffffffffffffffffffffffffffffff1673ffffffffffffffffffffffffffffffffffffffff1663d02641a08f6040518263ffffffff1660e01b8152600401612c5991906149c9565b60206040518083038186803b158015612c7157600080fd5b505afa158015612c85573d6000803e3d6000fd5b505050506040513d601f19601f82011682018060405250810190612ca9919061459b565b6040518863ffffffff1660e01b8152600401612ccb9796959493929190614a0d565b60206040518083038186803b158015612ce357600080fd5b505afa158015612cf7573d6000803e3d6000fd5b505050506040513d601f19601f82011682018060405250810190612d1b9190614549565b612d5a576040517f08c379a0000000000000000000000000000000000000000000000000000000008152600401612d5190614ce4565b60405180910390fd5b60fc60009054906101000a900473ffffffffffffffffffffffffffffffffffffffff1673ffffffffffffffffffffffffffffffffffffffff1663ffda4da433612dac85896133fe90919063ffffffff16565b898b896040518663ffffffff1660e01b8152600401612dcf959493929190614b2f565b600060405180830381600087803b158015612de957600080fd5b505af1158015612dfd573d6000803e3d6000fd5b50505050612e0d88888386613414565b5050505050505050565b600060019054906101000a900460ff1680612e3d575060008054906101000a900460ff16155b612e7c576040517f08c379a0000000000000000000000000000000000000000000000000000000008152600401612e7390614d04565b60405180910390fd5b60008060019054906101000a900460ff161590508015612ecc576001600060016101000a81548160ff02191690831515021790555060016000806101000a81548160ff0219169083151502179055505b612ed4613c8a565b612edc613d63565b8015612efd5760008060016101000a81548160ff0219169083151502179055505b50565b600060019054906101000a900460ff1680612f26575060008054906101000a900460ff16155b612f65576040517f08c379a0000000000000000000000000000000000000000000000000000000008152600401612f5c90614d04565b60405180910390fd5b60008060019054906101000a900460ff161590508015612fb5576001600060016101000a81548160ff02191690831515021790555060016000806101000a81548160ff0219169083151502179055505b612fbd613e3c565b612fc5613f15565b8015612fe65760008060016101000a81548160ff0219169083151502179055505b50565b600060019054906101000a900460ff168061300f575060008054906101000a900460ff16155b61304e576040517f08c379a000000000000000000000000000000000000000000000000000000000815260040161304590614d04565b60405180910390fd5b60008060019054906101000a900460ff16159050801561309e576001600060016101000a81548160ff02191690831515021790555060016000806101000a81548160ff0219169083151502179055505b6130a6614097565b80156130c75760008060016101000a81548160ff0219169083151502179055505b50565b600060ff5414156130da576132bb565b600060fb60009054906101000a900473ffffffffffffffffffffffffffffffffffffffff1673ffffffffffffffffffffffffffffffffffffffff1663a300733d87876040518363ffffffff1660e01b81526004016131399291906149e4565b60206040518083038186803b15801561315157600080fd5b505afa158015613165573d6000803e3d6000fd5b505050506040513d601f19601f82011682018060405250810190613189919061459b565b905081156131ab576131a483826133fe90919063ffffffff16565b9050613203565b8281116131ed576040517f08c379a00000000000000000000000000000000000000000000000000000000081526004016131e490614d24565b60405180910390fd5b6132008382613a7690919063ffffffff16565b90505b600061323485613226670de0b6b3a764000060ff546133d290919063ffffffff16565b6133e890919063ffffffff16565b9050600068056bc75e2d6310000090508081600183856132549190614f3f565b61325e9190615020565b6132689190614f95565b6132729190614fc6565b9150818310156132b7576040517f08c379a00000000000000000000000000000000000000000000000000000000081526004016132ae90614d24565b60405180910390fd5b5050505b5050505050565b60fb60009054906101000a900473ffffffffffffffffffffffffffffffffffffffff1673ffffffffffffffffffffffffffffffffffffffff16631441a5a96040518163ffffffff1660e01b815260040160206040518083038186803b15801561332a57600080fd5b505afa15801561333e573d6000803e3d6000fd5b505050506040513d601f19601f820116820180604052508101906133629190614437565b73ffffffffffffffffffffffffffffffffffffffff16637543e3f083836040518363ffffffff1660e01b815260040161339c9291906149e4565b600060405180830381600087803b1580156133b657600080fd5b505af11580156133ca573d6000803e3d6000fd5b505050505050565b600081836133e09190614fc6565b905092915050565b600081836133f69190614f95565b905092915050565b6000818361340c9190614f3f565b905092915050565b61341c61086d565b73ffffffffffffffffffffffffffffffffffffffff1663b187bd266040518163ffffffff1660e01b815260040160206040518083038186803b15801561346157600080fd5b505afa158015613475573d6000803e3d6000fd5b505050506040513d601f19601f820116820180604052508101906134999190614549565b156134d9576040517f08c379a00000000000000000000000000000000000000000000000000000000081526004016134d090614c04565b60405180910390fd5b60008373ffffffffffffffffffffffffffffffffffffffff166370a08231336040518263ffffffff1660e01b815260040161351491906149c9565b60206040518083038186803b15801561352c57600080fd5b505afa158015613540573d6000803e3d6000fd5b505050506040513d601f19601f82011682018060405250810190613564919061459b565b90508373ffffffffffffffffffffffffffffffffffffffff166340c10f1933876040518363ffffffff1660e01b81526004016135a1929190614b06565b600060405180830381600087803b1580156135bb57600080fd5b505af11580156135cf573d6000803e3d6000fd5b505050508373ffffffffffffffffffffffffffffffffffffffff166340c10f1960fb60009054906101000a900473ffffffffffffffffffffffffffffffffffffffff1673ffffffffffffffffffffffffffffffffffffffff1663ec94578e6040518163ffffffff1660e01b815260040160206040518083038186803b15801561365757600080fd5b505afa15801561366b573d6000803e3d6000fd5b505050506040513d601f19601f8201168201806040525081019061368f9190614437565b846040518363ffffffff1660e01b81526004016136ad929190614b06565b600060405180830381600087803b1580156136c757600080fd5b505af11580156136db573d6000803e3d6000fd5b505050506136f285826133fe90919063ffffffff16565b8473ffffffffffffffffffffffffffffffffffffffff166370a08231336040518263ffffffff1660e01b815260040161372b91906149c9565b60206040518083038186803b15801561374357600080fd5b505afa158015613757573d6000803e3d6000fd5b505050506040513d601f19601f8201168201806040525081019061377b919061459b565b146137af577f4e487b7100000000000000000000000000000000000000000000000000000000600052600160045260246000fd5b600060fb60009054906101000a900473ffffffffffffffffffffffffffffffffffffffff1673ffffffffffffffffffffffffffffffffffffffff1663498b5ae833876040518363ffffffff1660e01b815260040161380e9291906149e4565b60206040518083038186803b15801561382657600080fd5b505afa15801561383a573d6000803e3d6000fd5b505050506040513d601f19601f8201168201806040525081019061385e919061459b565b905060fb60009054906101000a900473ffffffffffffffffffffffffffffffffffffffff1673ffffffffffffffffffffffffffffffffffffffff1663877034f1336138b2868a6133fe90919063ffffffff16565b8860016040518563ffffffff1660e01b81526004016138d49493929190614b82565b600060405180830381600087803b1580156138ee57600080fd5b505af1158015613902573d6000803e3d6000fd5b5050505060fb60009054906101000a900473ffffffffffffffffffffffffffffffffffffffff1673ffffffffffffffffffffffffffffffffffffffff1663498b5ae833876040518363ffffffff1660e01b81526004016139639291906149e4565b60206040518083038186803b15801561397b57600080fd5b505afa15801561398f573d6000803e3d6000fd5b505050506040513d601f19601f820116820180604052508101906139b3919061459b565b6139d8846139ca89856133fe90919063ffffffff16565b6133fe90919063ffffffff16565b14613a0c577f4e487b7100000000000000000000000000000000000000000000000000000000600052600160045260246000fd5b8473ffffffffffffffffffffffffffffffffffffffff167fb4a4751ef6a44118d02c7f8772a09a847f35ae4293a6c73ffc21039b8063568285613a58868a6133fe90919063ffffffff16565b604051613a66929190614dff565b60405180910390a2505050505050565b60008183613a849190615020565b905092915050565b6000613aba7f360894a13ba1a3210667c828492db98dca3e2076cc3735a920a3ca505d382bbc60001b614178565b60000160009054906101000a900473ffffffffffffffffffffffffffffffffffffffff16905090565b613aec81614182565b613b2b576040517f08c379a0000000000000000000000000000000000000000000000000000000008152600401613b2290614d44565b60405180910390fd5b80613b587f360894a13ba1a3210667c828492db98dca3e2076cc3735a920a3ca505d382bbc60001b614178565b60000160006101000a81548173ffffffffffffffffffffffffffffffffffffffff021916908373ffffffffffffffffffffffffffffffffffffffff16021790555050565b6060613ba783614182565b613be6576040517f08c379a0000000000000000000000000000000000000000000000000000000008152600401613bdd90614da4565b60405180910390fd5b6000808473ffffffffffffffffffffffffffffffffffffffff1684604051613c0e91906149b2565b600060405180830381855af49150503d8060008114613c49576040519150601f19603f3d011682016040523d82523d6000602084013e613c4e565b606091505b5091509150613c76828260405180606001604052806027815260200161558b60279139614195565b9250505092915050565b6000819050919050565b600060019054906101000a900460ff1680613cb0575060008054906101000a900460ff16155b613cef576040517f08c379a0000000000000000000000000000000000000000000000000000000008152600401613ce690614d04565b60405180910390fd5b60008060019054906101000a900460ff161590508015613d3f576001600060016101000a81548160ff02191690831515021790555060016000806101000a81548160ff0219169083151502179055505b8015613d605760008060016101000a81548160ff0219169083151502179055505b50565b600060019054906101000a900460ff1680613d89575060008054906101000a900460ff16155b613dc8576040517f08c379a0000000000000000000000000000000000000000000000000000000008152600401613dbf90614d04565b60405180910390fd5b60008060019054906101000a900460ff161590508015613e18576001600060016101000a81548160ff02191690831515021790555060016000806101000a81548160ff0219169083151502179055505b8015613e395760008060016101000a81548160ff0219169083151502179055505b50565b600060019054906101000a900460ff1680613e62575060008054906101000a900460ff16155b613ea1576040517f08c379a0000000000000000000000000000000000000000000000000000000008152600401613e9890614d04565b60405180910390fd5b60008060019054906101000a900460ff161590508015613ef1576001600060016101000a81548160ff02191690831515021790555060016000806101000a81548160ff0219169083151502179055505b8015613f125760008060016101000a81548160ff0219169083151502179055505b50565b600060019054906101000a900460ff1680613f3b575060008054906101000a900460ff16155b613f7a576040517f08c379a0000000000000000000000000000000000000000000000000000000008152600401613f7190614d04565b60405180910390fd5b60008060019054906101000a900460ff161590508015613fca576001600060016101000a81548160ff02191690831515021790555060016000806101000a81548160ff0219169083151502179055505b6000613fd46125c5565b905080609760006101000a81548173ffffffffffffffffffffffffffffffffffffffff021916908373ffffffffffffffffffffffffffffffffffffffff1602179055508073ffffffffffffffffffffffffffffffffffffffff16600073ffffffffffffffffffffffffffffffffffffffff167f8be0079c531659141344cd1fd0a4f28419497f9722a3daafe3b4186f6b6457e060405160405180910390a35080156140945760008060016101000a81548160ff0219169083151502179055505b50565b600060019054906101000a900460ff16806140bd575060008054906101000a900460ff16155b6140fc576040517f08c379a00000000000000000000000000000000000000000000000000000000081526004016140f390614d04565b60405180910390fd5b60008060019054906101000a900460ff16159050801561414c576001600060016101000a81548160ff02191690831515021790555060016000806101000a81548160ff0219169083151502179055505b600160c98190555080156141755760008060016101000a81548160ff0219169083151502179055505b50565b6000819050919050565b600080823b905060008111915050919050565b606083156141a5578290506141f5565b6000835111156141b85782518084602001fd5b816040517f08c379a00000000000000000000000000000000000000000000000000000000081526004016141ec9190614be2565b60405180910390fd5b9392505050565b600061420f61420a84614e84565b614e5f565b9050808382526020820190508285602086028201111561422e57600080fd5b60005b8581101561425e57816142448882614327565b845260208401935060208301925050600181019050614231565b5050509392505050565b600061427b61427684614eb0565b614e5f565b9050808382526020820190508285602086028201111561429a57600080fd5b60005b858110156142ca57816142b088826143f9565b84526020840193506020830192505060018101905061429d565b5050509392505050565b60006142e76142e284614edc565b614e5f565b9050828152602081018484840111156142ff57600080fd5b61430a8482856150d2565b509392505050565b6000813590506143218161552e565b92915050565b6000815190506143368161552e565b92915050565b60008151905061434b81615545565b92915050565b600082601f83011261436257600080fd5b81516143728482602086016141fc565b91505092915050565b600082601f83011261438c57600080fd5b815161439c848260208601614268565b91505092915050565b6000815190506143b48161555c565b92915050565b600082601f8301126143cb57600080fd5b81356143db8482602086016142d4565b91505092915050565b6000813590506143f381615573565b92915050565b60008151905061440881615573565b92915050565b60006020828403121561442057600080fd5b600061442e84828501614312565b91505092915050565b60006020828403121561444957600080fd5b600061445784828501614327565b91505092915050565b60006020828403121561447257600080fd5b60006144808482850161433c565b91505092915050565b6000806040838503121561449c57600080fd5b60006144aa85828601614312565b925050602083013567ffffffffffffffff8111156144c757600080fd5b6144d3858286016143ba565b9150509250929050565b600080604083850312156144f057600080fd5b600083015167ffffffffffffffff81111561450a57600080fd5b61451685828601614351565b925050602083015167ffffffffffffffff81111561453357600080fd5b61453f8582860161437b565b9150509250929050565b60006020828403121561455b57600080fd5b6000614569848285016143a5565b91505092915050565b60006020828403121561458457600080fd5b6000614592848285016143e4565b91505092915050565b6000602082840312156145ad57600080fd5b60006145bb848285016143f9565b91505092915050565b60008060008060008060c087890312156145dd57600080fd5b60006145eb89828a016143e4565b96505060206145fc89828a01614312565b955050604061460d89828a01614312565b945050606061461e89828a016143e4565b935050608061462f89828a016143e4565b92505060a061464089828a01614312565b9150509295509295509295565b60008060006060848603121561466257600080fd5b6000614670868287016143e4565b935050602061468186828701614312565b9250506040614692868287016143e4565b9150509250925092565b600080600080608085870312156146b257600080fd5b60006146c0878288016143e4565b94505060206146d187828801614312565b93505060406146e2878288016143e4565b92505060606146f387828801614312565b91505092959194509250565b61470881615054565b82525050565b61471781615078565b82525050565b600061472882614f0d565b6147328185614f23565b93506147428185602086016150e1565b80840191505092915050565b614757816150ae565b82525050565b600061476882614f18565b6147728185614f2e565b93506147828185602086016150e1565b61478b816151d2565b840191505092915050565b60006147a3600683614f2e565b91506147ae826151e3565b602082019050919050565b60006147c6600283614f2e565b91506147d18261520c565b602082019050919050565b60006147e9602f83614f2e565b91506147f482615235565b604082019050919050565b600061480c602683614f2e565b915061481782615284565b604082019050919050565b600061482f600283614f2e565b915061483a826152d3565b602082019050919050565b6000614852602183614f2e565b915061485d826152fc565b604082019050919050565b6000614875600283614f2e565b91506148808261534b565b602082019050919050565b6000614898600283614f2e565b91506148a382615374565b602082019050919050565b60006148bb602e83614f2e565b91506148c68261539d565b604082019050919050565b60006148de600283614f2e565b91506148e9826153ec565b602082019050919050565b6000614901602d83614f2e565b915061490c82615415565b604082019050919050565b6000614924602083614f2e565b915061492f82615464565b602082019050919050565b6000614947600283614f2e565b91506149528261548d565b602082019050919050565b600061496a602683614f2e565b9150614975826154b6565b604082019050919050565b600061498d601f83614f2e565b915061499882615505565b602082019050919050565b6149ac816150a4565b82525050565b60006149be828461471d565b915081905092915050565b60006020820190506149de60008301846146ff565b92915050565b60006040820190506149f960008301856146ff565b614a0660208301846146ff565b9392505050565b600060e082019050614a22600083018a6146ff565b614a2f60208301896146ff565b614a3c60408301886146ff565b614a4960608301876149a3565b614a5660808301866149a3565b614a6360a08301856149a3565b614a7060c08301846149a3565b98975050505050505050565b6000606082019050614a9160008301866146ff565b614a9e60208301856146ff565b614aab60408301846149a3565b949350505050565b600060a082019050614ac860008301886146ff565b614ad560208301876146ff565b614ae260408301866149a3565b614aef60608301856146ff565b614afc608083018461470e565b9695505050505050565b6000604082019050614b1b60008301856146ff565b614b2860208301846149a3565b9392505050565b600060a082019050614b4460008301886146ff565b614b5160208301876149a3565b614b5e60408301866146ff565b614b6b60608301856146ff565b614b7860808301846146ff565b9695505050505050565b6000608082019050614b9760008301876146ff565b614ba460208301866149a3565b614bb160408301856146ff565b614bbe606083018461470e565b95945050505050565b6000602082019050614bdc600083018461474e565b92915050565b60006020820190508181036000830152614bfc818461475d565b905092915050565b60006020820190508181036000830152614c1d81614796565b9050919050565b60006020820190508181036000830152614c3d816147b9565b9050919050565b60006020820190508181036000830152614c5d816147dc565b9050919050565b60006020820190508181036000830152614c7d816147ff565b9050919050565b60006020820190508181036000830152614c9d81614822565b9050919050565b60006020820190508181036000830152614cbd81614845565b9050919050565b60006020820190508181036000830152614cdd81614868565b9050919050565b60006020820190508181036000830152614cfd8161488b565b9050919050565b60006020820190508181036000830152614d1d816148ae565b9050919050565b60006020820190508181036000830152614d3d816148d1565b9050919050565b60006020820190508181036000830152614d5d816148f4565b9050919050565b60006020820190508181036000830152614d7d81614917565b9050919050565b60006020820190508181036000830152614d9d8161493a565b9050919050565b60006020820190508181036000830152614dbd8161495d565b9050919050565b60006020820190508181036000830152614ddd81614980565b9050919050565b6000602082019050614df960008301846149a3565b92915050565b6000604082019050614e1460008301856149a3565b614e2160208301846149a3565b9392505050565b6000606082019050614e3d60008301866149a3565b614e4a60208301856149a3565b614e5760408301846149a3565b949350505050565b6000614e69614e7a565b9050614e758282615114565b919050565b6000604051905090565b600067ffffffffffffffff821115614e9f57614e9e6151a3565b5b602082029050602081019050919050565b600067ffffffffffffffff821115614ecb57614eca6151a3565b5b602082029050602081019050919050565b600067ffffffffffffffff821115614ef757614ef66151a3565b5b614f00826151d2565b9050602081019050919050565b600081519050919050565b600081519050919050565b600081905092915050565b600082825260208201905092915050565b6000614f4a826150a4565b9150614f55836150a4565b9250827fffffffffffffffffffffffffffffffffffffffffffffffffffffffffffffffff03821115614f8a57614f89615145565b5b828201905092915050565b6000614fa0826150a4565b9150614fab836150a4565b925082614fbb57614fba615174565b5b828204905092915050565b6000614fd1826150a4565b9150614fdc836150a4565b9250817fffffffffffffffffffffffffffffffffffffffffffffffffffffffffffffffff048311821515161561501557615014615145565b5b828202905092915050565b600061502b826150a4565b9150615036836150a4565b92508282101561504957615048615145565b5b828203905092915050565b600061505f82615084565b9050919050565b600061507182615084565b9050919050565b60008115159050919050565b600073ffffffffffffffffffffffffffffffffffffffff82169050919050565b6000819050919050565b60006150b9826150c0565b9050919050565b60006150cb82615084565b9050919050565b82818337600083830152505050565b60005b838110156150ff5780820151818401526020810190506150e4565b8381111561510e576000848401525b50505050565b61511d826151d2565b810181811067ffffffffffffffff8211171561513c5761513b6151a3565b5b80604052505050565b7f4e487b7100000000000000000000000000000000000000000000000000000000600052601160045260246000fd5b7f4e487b7100000000000000000000000000000000000000000000000000000000600052601260045260246000fd5b7f4e487b7100000000000000000000000000000000000000000000000000000000600052604160045260246000fd5b6000601f19601f8301169050919050565b7f5061757365640000000000000000000000000000000000000000000000000000600082015250565b7f4943000000000000000000000000000000000000000000000000000000000000600082015250565b7f45524331393637557067726164653a207570677261646520627265616b73206660008201527f7572746865722075706772616465730000000000000000000000000000000000602082015250565b7f4f776e61626c653a206e6577206f776e657220697320746865207a65726f206160008201527f6464726573730000000000000000000000000000000000000000000000000000602082015250565b7f5745000000000000000000000000000000000000000000000000000000000000600082015250565b7f5472616e73616374696f6e2068617320657863656564656420646561646c696e60008201527f6500000000000000000000000000000000000000000000000000000000000000602082015250565b7f4946000000000000000000000000000000000000000000000000000000000000600082015250565b7f4352000000000000000000000000000000000000000000000000000000000000600082015250565b7f496e697469616c697a61626c653a20636f6e747261637420697320616c72656160008201527f647920696e697469616c697a6564000000000000000000000000000000000000602082015250565b7f4941000000000000000000000000000000000000000000000000000000000000600082015250565b7f455243313936373a206e657720696d706c656d656e746174696f6e206973206e60008201527f6f74206120636f6e747261637400000000000000000000000000000000000000602082015250565b7f4f776e61626c653a2063616c6c6572206973206e6f7420746865206f776e6572600082015250565b7f4654000000000000000000000000000000000000000000000000000000000000600082015250565b7f416464726573733a2064656c65676174652063616c6c20746f206e6f6e2d636f60008201527f6e74726163740000000000000000000000000000000000000000000000000000602082015250565b7f5265656e7472616e637947756172643a207265656e7472616e742063616c6c00600082015250565b61553781615054565b811461554257600080fd5b50565b61554e81615066565b811461555957600080fd5b50565b61556581615078565b811461557057600080fd5b50565b61557c816150a4565b811461558757600080fd5b5056fe416464726573733a206c6f772d6c6576656c2064656c65676174652063616c6c206661696c6564a26469706673582212200d2c6d43718e462d510fdb2360000c8a2d209ba5379f2149338f5e0e7c2b483664736f6c63430008030033",
  "linkReferences": {},
  "deployedLinkReferences": {}
}