{
  "_format": "hh-sol-artifact-1",
  "contractName": "Handle",
  "sourceName": "contracts/Bank/Handle.sol",
  "abi": [
    {
      "anonymous": false,
      "inputs": [
        {
          "indexed": false,
          "internalType": "address",
          "name": "previousAdmin",
          "type": "address"
        },
        {
          "indexed": false,
          "internalType": "address",
          "name": "newAdmin",
          "type": "address"
        }
      ],
      "name": "AdminChanged",
      "type": "event"
    },
    {
      "anonymous": false,
      "inputs": [
        {
          "indexed": true,
          "internalType": "address",
          "name": "beacon",
          "type": "address"
        }
      ],
      "name": "BeaconUpgraded",
      "type": "event"
    },
    {
      "anonymous": false,
      "inputs": [
        {
          "indexed": true,
          "internalType": "address",
          "name": "collateralToken",
          "type": "address"
        }
      ],
      "name": "ConfigureCollateralToken",
      "type": "event"
    },
    {
      "anonymous": false,
      "inputs": [
        {
          "indexed": true,
          "internalType": "address",
          "name": "fxToken",
          "type": "address"
        }
      ],
      "name": "ConfigureFxToken",
      "type": "event"
    },
    {
      "anonymous": false,
      "inputs": [
        {
          "indexed": true,
          "internalType": "bytes32",
          "name": "role",
          "type": "bytes32"
        },
        {
          "indexed": true,
          "internalType": "bytes32",
          "name": "previousAdminRole",
          "type": "bytes32"
        },
        {
          "indexed": true,
          "internalType": "bytes32",
          "name": "newAdminRole",
          "type": "bytes32"
        }
      ],
      "name": "RoleAdminChanged",
      "type": "event"
    },
    {
      "anonymous": false,
      "inputs": [
        {
          "indexed": true,
          "internalType": "bytes32",
          "name": "role",
          "type": "bytes32"
        },
        {
          "indexed": true,
          "internalType": "address",
          "name": "account",
          "type": "address"
        },
        {
          "indexed": true,
          "internalType": "address",
          "name": "sender",
          "type": "address"
        }
      ],
      "name": "RoleGranted",
      "type": "event"
    },
    {
      "anonymous": false,
      "inputs": [
        {
          "indexed": true,
          "internalType": "bytes32",
          "name": "role",
          "type": "bytes32"
        },
        {
          "indexed": true,
          "internalType": "address",
          "name": "account",
          "type": "address"
        },
        {
          "indexed": true,
          "internalType": "address",
          "name": "sender",
          "type": "address"
        }
      ],
      "name": "RoleRevoked",
      "type": "event"
    },
    {
      "anonymous": false,
      "inputs": [
        {
          "indexed": true,
          "internalType": "address",
          "name": "account",
          "type": "address"
        },
        {
          "indexed": true,
          "internalType": "address",
          "name": "fxToken",
          "type": "address"
        },
        {
          "indexed": true,
          "internalType": "address",
          "name": "collateralToken",
          "type": "address"
        }
      ],
      "name": "UpdateCollateral",
      "type": "event"
    },
    {
      "anonymous": false,
      "inputs": [
        {
          "indexed": true,
          "internalType": "address",
          "name": "account",
          "type": "address"
        },
        {
          "indexed": true,
          "internalType": "address",
          "name": "fxToken",
          "type": "address"
        }
      ],
      "name": "UpdateDebt",
      "type": "event"
    },
    {
      "anonymous": false,
      "inputs": [
        {
          "indexed": true,
          "internalType": "address",
          "name": "implementation",
          "type": "address"
        }
      ],
      "name": "Upgraded",
      "type": "event"
    },
    {
      "inputs": [],
      "name": "ADMIN_ROLE",
      "outputs": [
        {
          "internalType": "bytes32",
          "name": "",
          "type": "bytes32"
        }
      ],
      "stateMutability": "view",
      "type": "function"
    },
    {
      "inputs": [],
      "name": "DEFAULT_ADMIN_ROLE",
      "outputs": [
        {
          "internalType": "bytes32",
          "name": "",
          "type": "bytes32"
        }
      ],
      "stateMutability": "view",
      "type": "function"
    },
    {
      "inputs": [],
      "name": "FeeRecipient",
      "outputs": [
        {
          "internalType": "address",
          "name": "",
          "type": "address"
        }
      ],
      "stateMutability": "view",
      "type": "function"
    },
    {
      "inputs": [],
      "name": "OPERATOR_ROLE",
      "outputs": [
        {
          "internalType": "bytes32",
          "name": "",
          "type": "bytes32"
        }
      ],
      "stateMutability": "view",
      "type": "function"
    },
    {
      "inputs": [],
      "name": "WETH",
      "outputs": [
        {
          "internalType": "address",
          "name": "",
          "type": "address"
        }
      ],
      "stateMutability": "view",
      "type": "function"
    },
    {
      "inputs": [],
      "name": "burnFeePerMille",
      "outputs": [
        {
          "internalType": "uint256",
          "name": "",
          "type": "uint256"
        }
      ],
      "stateMutability": "view",
      "type": "function"
    },
    {
      "inputs": [],
      "name": "comptroller",
      "outputs": [
        {
          "internalType": "address",
          "name": "",
          "type": "address"
        }
      ],
      "stateMutability": "view",
      "type": "function"
    },
    {
      "inputs": [],
      "name": "depositFeePerMille",
      "outputs": [
        {
          "internalType": "uint256",
          "name": "",
          "type": "uint256"
        }
      ],
      "stateMutability": "view",
      "type": "function"
    },
    {
      "inputs": [],
      "name": "fxKeeperPool",
      "outputs": [
        {
          "internalType": "address",
          "name": "",
          "type": "address"
        }
      ],
      "stateMutability": "view",
      "type": "function"
    },
    {
      "inputs": [],
      "name": "getAllCollateralTypes",
      "outputs": [
        {
          "internalType": "address[]",
          "name": "collateral",
          "type": "address[]"
        }
      ],
      "stateMutability": "view",
      "type": "function"
    },
    {
      "inputs": [
        {
          "internalType": "address",
          "name": "account",
          "type": "address"
        },
        {
          "internalType": "address",
          "name": "fxToken",
          "type": "address"
        }
      ],
      "name": "getBalance",
      "outputs": [
        {
          "internalType": "address[]",
          "name": "collateral",
          "type": "address[]"
        },
        {
          "internalType": "uint256[]",
          "name": "balances",
          "type": "uint256[]"
        }
      ],
      "stateMutability": "view",
      "type": "function"
    },
    {
      "inputs": [
        {
          "internalType": "address",
          "name": "account",
          "type": "address"
        },
        {
          "internalType": "address",
          "name": "collateralType",
          "type": "address"
        },
        {
          "internalType": "address",
          "name": "fxToken",
          "type": "address"
        }
      ],
      "name": "getCollateralBalance",
      "outputs": [
        {
          "internalType": "uint256",
          "name": "balance",
          "type": "uint256"
        }
      ],
      "stateMutability": "view",
      "type": "function"
    },
    {
      "inputs": [
        {
          "internalType": "address",
          "name": "collateral",
          "type": "address"
        }
      ],
      "name": "getCollateralDetails",
      "outputs": [
        {
          "components": [
            {
              "internalType": "uint256",
              "name": "mintCR",
              "type": "uint256"
            },
            {
              "internalType": "uint256",
              "name": "liquidationFee",
              "type": "uint256"
            },
            {
              "internalType": "uint256",
              "name": "interestRate",
              "type": "uint256"
            }
          ],
          "internalType": "struct IHandle.CollateralData",
          "name": "",
          "type": "tuple"
        }
      ],
      "stateMutability": "view",
      "type": "function"
    },
    {
      "inputs": [
        {
          "internalType": "address",
          "name": "account",
          "type": "address"
        },
        {
          "internalType": "address",
          "name": "fxToken",
          "type": "address"
        },
        {
          "internalType": "address",
          "name": "collateral",
          "type": "address"
        }
      ],
      "name": "getCollateralR0",
      "outputs": [
        {
          "internalType": "uint256",
          "name": "R0",
          "type": "uint256"
        }
      ],
      "stateMutability": "view",
      "type": "function"
    },
    {
      "inputs": [
        {
          "internalType": "address",
          "name": "account",
          "type": "address"
        },
        {
          "internalType": "address",
          "name": "fxToken",
          "type": "address"
        }
      ],
      "name": "getDebt",
      "outputs": [
        {
          "internalType": "uint256",
          "name": "",
          "type": "uint256"
        }
      ],
      "stateMutability": "view",
      "type": "function"
    },
    {
      "inputs": [
        {
          "internalType": "address",
          "name": "account",
          "type": "address"
        },
        {
          "internalType": "address",
          "name": "fxToken",
          "type": "address"
        }
      ],
      "name": "getPrincipalDebt",
      "outputs": [
        {
          "internalType": "uint256",
          "name": "",
          "type": "uint256"
        }
      ],
      "stateMutability": "view",
      "type": "function"
    },
    {
      "inputs": [
        {
          "internalType": "bytes32",
          "name": "role",
          "type": "bytes32"
        }
      ],
      "name": "getRoleAdmin",
      "outputs": [
        {
          "internalType": "bytes32",
          "name": "",
          "type": "bytes32"
        }
      ],
      "stateMutability": "view",
      "type": "function"
    },
    {
      "inputs": [
        {
          "internalType": "address",
          "name": "token",
          "type": "address"
        }
      ],
      "name": "getTokenPrice",
      "outputs": [
        {
          "internalType": "uint256",
          "name": "quote",
          "type": "uint256"
        }
      ],
      "stateMutability": "view",
      "type": "function"
    },
    {
      "inputs": [
        {
          "internalType": "bytes32",
          "name": "role",
          "type": "bytes32"
        },
        {
          "internalType": "address",
          "name": "account",
          "type": "address"
        }
      ],
      "name": "grantRole",
      "outputs": [],
      "stateMutability": "nonpayable",
      "type": "function"
    },
    {
      "inputs": [
        {
          "internalType": "bytes32",
          "name": "role",
          "type": "bytes32"
        },
        {
          "internalType": "address",
          "name": "account",
          "type": "address"
        }
      ],
      "name": "hasRole",
      "outputs": [
        {
          "internalType": "bool",
          "name": "",
          "type": "bool"
        }
      ],
      "stateMutability": "view",
      "type": "function"
    },
    {
      "inputs": [
        {
          "internalType": "address",
          "name": "weth",
          "type": "address"
        }
      ],
      "name": "initialize",
      "outputs": [],
      "stateMutability": "nonpayable",
      "type": "function"
    },
    {
      "inputs": [],
      "name": "interest",
      "outputs": [
        {
          "internalType": "address",
          "name": "",
          "type": "address"
        }
      ],
      "stateMutability": "view",
      "type": "function"
    },
    {
      "inputs": [
        {
          "internalType": "address",
          "name": "",
          "type": "address"
        }
      ],
      "name": "isCollateralValid",
      "outputs": [
        {
          "internalType": "bool",
          "name": "",
          "type": "bool"
        }
      ],
      "stateMutability": "view",
      "type": "function"
    },
    {
      "inputs": [
        {
          "internalType": "address",
          "name": "",
          "type": "address"
        }
      ],
      "name": "isFxTokenValid",
      "outputs": [
        {
          "internalType": "bool",
          "name": "",
          "type": "bool"
        }
      ],
      "stateMutability": "view",
      "type": "function"
    },
    {
      "inputs": [],
      "name": "isPaused",
      "outputs": [
        {
          "internalType": "bool",
          "name": "",
          "type": "bool"
        }
      ],
      "stateMutability": "view",
      "type": "function"
    },
    {
      "inputs": [],
      "name": "liquidator",
      "outputs": [
        {
          "internalType": "address",
          "name": "",
          "type": "address"
        }
      ],
      "stateMutability": "view",
      "type": "function"
    },
    {
      "inputs": [],
      "name": "mintFeePerMille",
      "outputs": [
        {
          "internalType": "uint256",
          "name": "",
          "type": "uint256"
        }
      ],
      "stateMutability": "view",
      "type": "function"
    },
    {
      "inputs": [
        {
          "internalType": "address",
          "name": "",
          "type": "address"
        }
      ],
      "name": "oracles",
      "outputs": [
        {
          "internalType": "address",
          "name": "",
          "type": "address"
        }
      ],
      "stateMutability": "view",
      "type": "function"
    },
    {
      "inputs": [],
      "name": "pct",
      "outputs": [
        {
          "internalType": "address",
          "name": "",
          "type": "address"
        }
      ],
      "stateMutability": "view",
      "type": "function"
    },
    {
      "inputs": [],
      "name": "pctCollateralUpperBound",
      "outputs": [
        {
          "internalType": "uint256",
          "name": "",
          "type": "uint256"
        }
      ],
      "stateMutability": "view",
      "type": "function"
    },
    {
      "inputs": [],
      "name": "referral",
      "outputs": [
        {
          "internalType": "address",
          "name": "",
          "type": "address"
        }
      ],
      "stateMutability": "view",
      "type": "function"
    },
    {
      "inputs": [
        {
          "internalType": "address",
          "name": "token",
          "type": "address"
        }
      ],
      "name": "removeCollateralToken",
      "outputs": [],
      "stateMutability": "nonpayable",
      "type": "function"
    },
    {
      "inputs": [
        {
          "internalType": "address",
          "name": "token",
          "type": "address"
        }
      ],
      "name": "removeFxToken",
      "outputs": [],
      "stateMutability": "nonpayable",
      "type": "function"
    },
    {
      "inputs": [
        {
          "internalType": "bytes32",
          "name": "role",
          "type": "bytes32"
        },
        {
          "internalType": "address",
          "name": "account",
          "type": "address"
        }
      ],
      "name": "renounceRole",
      "outputs": [],
      "stateMutability": "nonpayable",
      "type": "function"
    },
    {
      "inputs": [
        {
          "internalType": "bytes32",
          "name": "role",
          "type": "bytes32"
        },
        {
          "internalType": "address",
          "name": "account",
          "type": "address"
        }
      ],
      "name": "revokeRole",
      "outputs": [],
      "stateMutability": "nonpayable",
      "type": "function"
    },
    {
      "inputs": [
        {
          "internalType": "address",
          "name": "token",
          "type": "address"
        },
        {
          "internalType": "uint256",
          "name": "mintCR",
          "type": "uint256"
        },
        {
          "internalType": "uint256",
          "name": "liquidationFee",
          "type": "uint256"
        },
        {
          "internalType": "uint256",
          "name": "interestRatePerMille",
          "type": "uint256"
        }
      ],
      "name": "setCollateralToken",
      "outputs": [],
      "stateMutability": "nonpayable",
      "type": "function"
    },
    {
      "inputs": [
        {
          "internalType": "uint256",
          "name": "ratio",
          "type": "uint256"
        }
      ],
      "name": "setCollateralUpperBoundPCT",
      "outputs": [],
      "stateMutability": "nonpayable",
      "type": "function"
    },
    {
      "inputs": [
        {
          "internalType": "address[]",
          "name": "components",
          "type": "address[]"
        }
      ],
      "name": "setComponents",
      "outputs": [],
      "stateMutability": "nonpayable",
      "type": "function"
    },
    {
      "inputs": [
        {
          "internalType": "address",
          "name": "feeRecipient",
          "type": "address"
        }
      ],
      "name": "setFeeRecipient",
      "outputs": [],
      "stateMutability": "nonpayable",
      "type": "function"
    },
    {
      "inputs": [
        {
          "internalType": "uint256",
          "name": "_withdrawFeePerMille",
          "type": "uint256"
        },
        {
          "internalType": "uint256",
          "name": "_depositFeePerMille",
          "type": "uint256"
        },
        {
          "internalType": "uint256",
          "name": "_mintFeePerMille",
          "type": "uint256"
        },
        {
          "internalType": "uint256",
          "name": "_burnFeePerMille",
          "type": "uint256"
        }
      ],
      "name": "setFees",
      "outputs": [],
      "stateMutability": "nonpayable",
      "type": "function"
    },
    {
      "inputs": [
        {
          "internalType": "address",
          "name": "token",
          "type": "address"
        }
      ],
      "name": "setFxToken",
      "outputs": [],
      "stateMutability": "nonpayable",
      "type": "function"
    },
    {
      "inputs": [
        {
          "internalType": "address",
          "name": "_fxToken",
          "type": "address"
        },
        {
          "internalType": "address",
          "name": "_oracle",
          "type": "address"
        }
      ],
      "name": "setOracle",
      "outputs": [],
      "stateMutability": "nonpayable",
      "type": "function"
    },
    {
      "inputs": [
        {
          "internalType": "bool",
          "name": "value",
          "type": "bool"
        }
      ],
      "name": "setPaused",
      "outputs": [],
      "stateMutability": "nonpayable",
      "type": "function"
    },
    {
      "inputs": [
        {
          "internalType": "bytes4",
          "name": "interfaceId",
          "type": "bytes4"
        }
      ],
      "name": "supportsInterface",
      "outputs": [
        {
          "internalType": "bool",
          "name": "",
          "type": "bool"
        }
      ],
      "stateMutability": "view",
      "type": "function"
    },
    {
      "inputs": [
        {
          "internalType": "address",
          "name": "",
          "type": "address"
        }
      ],
      "name": "totalBalances",
      "outputs": [
        {
          "internalType": "uint256",
          "name": "",
          "type": "uint256"
        }
      ],
      "stateMutability": "view",
      "type": "function"
    },
    {
      "inputs": [],
      "name": "treasury",
      "outputs": [
        {
          "internalType": "address payable",
          "name": "",
          "type": "address"
        }
      ],
      "stateMutability": "view",
      "type": "function"
    },
    {
      "inputs": [
        {
          "internalType": "address",
          "name": "account",
          "type": "address"
        },
        {
          "internalType": "uint256",
          "name": "amount",
          "type": "uint256"
        },
        {
          "internalType": "address",
          "name": "fxToken",
          "type": "address"
        },
        {
          "internalType": "address",
          "name": "collateralToken",
          "type": "address"
        },
        {
          "internalType": "bool",
          "name": "increase",
          "type": "bool"
        }
      ],
      "name": "updateCollateralBalance",
      "outputs": [],
      "stateMutability": "nonpayable",
      "type": "function"
    },
    {
      "inputs": [
        {
          "internalType": "address",
          "name": "account",
          "type": "address"
        },
        {
          "internalType": "uint256",
          "name": "amount",
          "type": "uint256"
        },
        {
          "internalType": "address",
          "name": "fxToken",
          "type": "address"
        },
        {
          "internalType": "bool",
          "name": "increase",
          "type": "bool"
        }
      ],
      "name": "updateDebtPosition",
      "outputs": [],
      "stateMutability": "nonpayable",
      "type": "function"
    },
    {
      "inputs": [
        {
          "internalType": "address",
          "name": "newImplementation",
          "type": "address"
        }
      ],
      "name": "upgradeTo",
      "outputs": [],
      "stateMutability": "nonpayable",
      "type": "function"
    },
    {
      "inputs": [
        {
          "internalType": "address",
          "name": "newImplementation",
          "type": "address"
        },
        {
          "internalType": "bytes",
          "name": "data",
          "type": "bytes"
        }
      ],
      "name": "upgradeToAndCall",
      "outputs": [],
      "stateMutability": "payable",
      "type": "function"
    },
    {
      "inputs": [],
      "name": "vaultLibrary",
      "outputs": [
        {
          "internalType": "address",
          "name": "",
          "type": "address"
        }
      ],
      "stateMutability": "view",
      "type": "function"
    },
    {
      "inputs": [
        {
          "internalType": "address",
          "name": "",
          "type": "address"
        },
        {
          "internalType": "address",
          "name": "",
          "type": "address"
        }
      ],
      "name": "vaults",
      "outputs": [
        {
          "internalType": "uint256",
          "name": "debt",
          "type": "uint256"
        }
      ],
      "stateMutability": "view",
      "type": "function"
    },
    {
      "inputs": [],
      "name": "withdrawFeePerMille",
      "outputs": [
        {
          "internalType": "uint256",
          "name": "",
          "type": "uint256"
        }
      ],
      "stateMutability": "view",
      "type": "function"
    }
  ],
  "bytecode": "0x608060405234801561001057600080fd5b50615fba80620000216000396000f3fe60806040526004361061031a5760003560e01c8063877034f1116101ab578063b187bd26116100f7578063d4fac45d11610095578063e75fd0b51161006f578063e75fd0b514610c38578063eb0a8b9114610c63578063ec94578e14610c8e578063f5b541a614610cb95761031a565b8063d4fac45d14610ba8578063d547741f14610be6578063e74b981b14610c0f5761031a565b8063c462b520116100d1578063c462b52014610adc578063c4d66de814610b19578063cf07947d14610b42578063d02641a014610b6b5761031a565b8063b187bd2614610a49578063bd9e520014610a74578063c392f76614610ab15761031a565b8063a0f026ff11610164578063a364c9721161013e578063a364c9721461097b578063ad5c4648146109a4578063addd5099146109cf578063aee9c87214610a0c5761031a565b8063a0f026ff146108d6578063a217fddf14610913578063a300733d1461093e5761031a565b8063877034f1146107c657806391d14854146107ef57806394f9059f1461082c5780639931286d146108555780639cfd9669146108805780639df5138a146108ab5761031a565b80634046ebae1161026a5780635eb0ac1a116102235780636fcba377116101fd5780636fcba3771461070c578063732409931461073557806375b238fc1461075e578063803c97b3146107895761031a565b80635eb0ac1a1461068d5780635fe3b567146106b657806361d027b3146106e15761031a565b80634046ebae1461057857806341e3f281146105a3578063498b5ae8146105ce5780634d635e701461060b5780634f1ef286146106485780635c38eb3a146106645761031a565b806327ab02b9116102d75780632f2ff15d116102b15780632f2ff15d146104c057806331695c4e146104e957806336568abe146105265780633659cfe61461054f5761031a565b806327ab02b914610441578063294d499e1461046c5780632b455759146104975761031a565b806301964f361461031f57806301ffc9a71461034a5780631441a5a91461038757806316c38b3c146103b2578063181e20a7146103db578063248a9ca314610404575b600080fd5b34801561032b57600080fd5b50610334610ce4565b6040516103419190615709565b60405180910390f35b34801561035657600080fd5b50610371600480360381019061036c9190614e07565b610ceb565b60405161037e9190615496565b60405180910390f35b34801561039357600080fd5b5061039c610d65565b6040516103a991906153de565b60405180910390f35b3480156103be57600080fd5b506103d960048036038101906103d49190614d79565b610d8c565b005b3480156103e757600080fd5b5061040260048036038101906103fd9190614b8f565b610e13565b005b34801561041057600080fd5b5061042b60048036038101906104269190614da2565b6111ec565b60405161043891906154b1565b60405180910390f35b34801561044d57600080fd5b5061045661120c565b60405161046391906153de565b60405180910390f35b34801561047857600080fd5b50610481611233565b60405161048e919061543d565b60405180910390f35b3480156104a357600080fd5b506104be60048036038101906104b99190614a87565b6112c1565b005b3480156104cc57600080fd5b506104e760048036038101906104e29190614dcb565b611717565b005b3480156104f557600080fd5b50610510600480360381019061050b9190614aec565b611740565b60405161051d9190615709565b60405180910390f35b34801561053257600080fd5b5061054d60048036038101906105489190614dcb565b611809565b005b34801561055b57600080fd5b5061057660048036038101906105719190614a87565b61188c565b005b34801561058457600080fd5b5061058d6118b3565b60405161059a91906153de565b60405180910390f35b3480156105af57600080fd5b506105b86118da565b6040516105c59190615709565b60405180910390f35b3480156105da57600080fd5b506105f560048036038101906105f09190614ab0565b6118e1565b6040516106029190615709565b60405180910390f35b34801561061757600080fd5b50610632600480360381019061062d9190614ab0565b611a30565b60405161063f9190615709565b60405180910390f35b610662600480360381019061065d9190614b3b565b611a5c565b005b34801561067057600080fd5b5061068b60048036038101906106869190614ab0565b611a75565b005b34801561069957600080fd5b506106b460048036038101906106af9190614ccc565b611c0a565b005b3480156106c257600080fd5b506106cb612277565b6040516106d891906153de565b60405180910390f35b3480156106ed57600080fd5b506106f661229e565b60405161070391906153f9565b60405180910390f35b34801561071857600080fd5b50610733600480360381019061072e9190614e82565b6122c5565b005b34801561074157600080fd5b5061075c60048036038101906107579190614c69565b612354565b005b34801561076a57600080fd5b50610773612626565b60405161078091906154b1565b60405180910390f35b34801561079557600080fd5b506107b060048036038101906107ab9190614a87565b61264a565b6040516107bd9190615496565b60405180910390f35b3480156107d257600080fd5b506107ed60048036038101906107e89190614c06565b61266a565b005b3480156107fb57600080fd5b5061081660048036038101906108119190614dcb565b6128d5565b6040516108239190615496565b60405180910390f35b34801561083857600080fd5b50610853600480360381019061084e9190614a87565b612940565b005b34801561086157600080fd5b5061086a612a3e565b6040516108779190615709565b60405180910390f35b34801561088c57600080fd5b50610895612a45565b6040516108a291906153de565b60405180910390f35b3480156108b757600080fd5b506108c0612a6c565b6040516108cd9190615709565b60405180910390f35b3480156108e257600080fd5b506108fd60048036038101906108f89190614a87565b612a73565b60405161090a9190615496565b60405180910390f35b34801561091f57600080fd5b50610928612a94565b60405161093591906154b1565b60405180910390f35b34801561094a57600080fd5b5061096560048036038101906109609190614ab0565b612a9b565b6040516109729190615709565b60405180910390f35b34801561098757600080fd5b506109a2600480360381019061099d9190614e30565b612b26565b005b3480156109b057600080fd5b506109b9612b9a565b6040516109c691906153de565b60405180910390f35b3480156109db57600080fd5b506109f660048036038101906109f19190614a87565b612bc1565b604051610a0391906153de565b60405180910390f35b348015610a1857600080fd5b50610a336004803603810190610a2e9190614a87565b612bf5565b604051610a409190615709565b60405180910390f35b348015610a5557600080fd5b50610a5e612c0d565b604051610a6b9190615496565b60405180910390f35b348015610a8057600080fd5b50610a9b6004803603810190610a969190614a87565b612c21565b604051610aa891906156ee565b60405180910390f35b348015610abd57600080fd5b50610ac6612c98565b604051610ad391906153de565b60405180910390f35b348015610ae857600080fd5b50610b036004803603810190610afe9190614aec565b612cbf565b604051610b109190615709565b60405180910390f35b348015610b2557600080fd5b50610b406004803603810190610b3b9190614a87565b612d88565b005b348015610b4e57600080fd5b50610b696004803603810190610b649190614a87565b612f20565b005b348015610b7757600080fd5b50610b926004803603810190610b8d9190614a87565b61308b565b604051610b9f9190615709565b60405180910390f35b348015610bb457600080fd5b50610bcf6004803603810190610bca9190614ab0565b6132f8565b604051610bdd92919061545f565b60405180910390f35b348015610bf257600080fd5b50610c0d6004803603810190610c089190614dcb565b6134ec565b005b348015610c1b57600080fd5b50610c366004803603810190610c319190614a87565b613515565b005b348015610c4457600080fd5b50610c4d613635565b604051610c5a9190615709565b60405180910390f35b348015610c6f57600080fd5b50610c7861363c565b604051610c8591906153de565b60405180910390f35b348015610c9a57600080fd5b50610ca3613663565b604051610cb091906153de565b60405180910390f35b348015610cc557600080fd5b50610cce61368a565b604051610cdb91906154b1565b60405180910390f35b6101025481565b60007f7965db0b000000000000000000000000000000000000000000000000000000007bffffffffffffffffffffffffffffffffffffffffffffffffffffffff1916827bffffffffffffffffffffffffffffffffffffffffffffffffffffffff19161480610d5e5750610d5d826136ae565b5b9050919050565b61011160009054906101000a900473ffffffffffffffffffffffffffffffffffffffff1681565b610db67fa49807205ce4d355092ef5a8a18f56e8913cf4a201fbe287825b095693c21775336128d5565b610df5576040517f08c379a0000000000000000000000000000000000000000000000000000000008152600401610dec9061568e565b60405180910390fd5b8061010a60006101000a81548160ff02191690831515021790555050565b610e3d7f97667070c54ef182b0f5858b034beac1b6f3089aa2d3188bb1e8929f4fa9b929336128d5565b610e7c576040517f08c379a0000000000000000000000000000000000000000000000000000000008152600401610e739061554e565b60405180910390fd5b61010a60009054906101000a900460ff1615610ecd576040517f08c379a0000000000000000000000000000000000000000000000000000000008152600401610ec49061550e565b60405180910390fd5b600061010160008773ffffffffffffffffffffffffffffffffffffffff1673ffffffffffffffffffffffffffffffffffffffff16815260200190815260200160002060008573ffffffffffffffffffffffffffffffffffffffff1673ffffffffffffffffffffffffffffffffffffffff16815260200190815260200160002060000160008473ffffffffffffffffffffffffffffffffffffffff1673ffffffffffffffffffffffffffffffffffffffff16815260200190815260200160002054905081610fac57610fa7858261371890919063ffffffff16565b610fc0565b610fbf858261372e90919063ffffffff16565b5b61010160008873ffffffffffffffffffffffffffffffffffffffff1673ffffffffffffffffffffffffffffffffffffffff16815260200190815260200160002060008673ffffffffffffffffffffffffffffffffffffffff1673ffffffffffffffffffffffffffffffffffffffff16815260200190815260200160002060000160008573ffffffffffffffffffffffffffffffffffffffff1673ffffffffffffffffffffffffffffffffffffffff16815260200190815260200160002081905550816110dd576110d88560fe60008673ffffffffffffffffffffffffffffffffffffffff1673ffffffffffffffffffffffffffffffffffffffff1681526020019081526020016000205461371890919063ffffffff16565b611130565b61112f8560fe60008673ffffffffffffffffffffffffffffffffffffffff1673ffffffffffffffffffffffffffffffffffffffff1681526020019081526020016000205461372e90919063ffffffff16565b5b60fe60008573ffffffffffffffffffffffffffffffffffffffff1673ffffffffffffffffffffffffffffffffffffffff168152602001908152602001600020819055508273ffffffffffffffffffffffffffffffffffffffff168473ffffffffffffffffffffffffffffffffffffffff168773ffffffffffffffffffffffffffffffffffffffff167f2027a0219b5bbff94e3a2050ec5c3ab5fafaaffe9c131dd57d2366b04423eff360405160405180910390a4505050505050565b600060c96000838152602001908152602001600020600101549050919050565b61010d60009054906101000a900473ffffffffffffffffffffffffffffffffffffffff1681565b606060fb8054806020026020016040519081016040528092919081815260200182805480156112b757602002820191906000526020600020905b8160009054906101000a900473ffffffffffffffffffffffffffffffffffffffff1673ffffffffffffffffffffffffffffffffffffffff168152602001906001019080831161126d575b5050505050905090565b6112eb7fa49807205ce4d355092ef5a8a18f56e8913cf4a201fbe287825b095693c21775336128d5565b61132a576040517f08c379a00000000000000000000000000000000000000000000000000000000081526004016113219061568e565b60405180910390fd5b600060ff80549050905060005b818110156113f2578273ffffffffffffffffffffffffffffffffffffffff1660ff8281548110611390577f4e487b7100000000000000000000000000000000000000000000000000000000600052603260045260246000fd5b9060005260206000200160009054906101000a900473ffffffffffffffffffffffffffffffffffffffff1673ffffffffffffffffffffffffffffffffffffffff1614156113df578091506113f2565b80806113ea90615a92565b915050611337565b5060ff80549050811061142e577f4e487b7100000000000000000000000000000000000000000000000000000000600052600160045260246000fd5b61010060008373ffffffffffffffffffffffffffffffffffffffff1673ffffffffffffffffffffffffffffffffffffffff16815260200190815260200160002060006101000a81549060ff0219169055600160ff805490506114909190615931565b8110156116685760ff81815481106114d1577f4e487b7100000000000000000000000000000000000000000000000000000000600052603260045260246000fd5b9060005260206000200160006101000a81549073ffffffffffffffffffffffffffffffffffffffff021916905560ff600160ff805490506115129190615931565b81548110611549577f4e487b7100000000000000000000000000000000000000000000000000000000600052603260045260246000fd5b9060005260206000200160009054906101000a900473ffffffffffffffffffffffffffffffffffffffff1660ff82815481106115ae577f4e487b7100000000000000000000000000000000000000000000000000000000600052603260045260246000fd5b9060005260206000200160006101000a81548173ffffffffffffffffffffffffffffffffffffffff021916908373ffffffffffffffffffffffffffffffffffffffff16021790555060ff80548061162e577f4e487b7100000000000000000000000000000000000000000000000000000000600052603160045260246000fd5b6001900381819060005260206000200160006101000a81549073ffffffffffffffffffffffffffffffffffffffff021916905590556116d0565b60ff81815481106116a2577f4e487b7100000000000000000000000000000000000000000000000000000000600052603260045260246000fd5b9060005260206000200160006101000a81549073ffffffffffffffffffffffffffffffffffffffff02191690555b8173ffffffffffffffffffffffffffffffffffffffff167f1b56f46855aea33f90246d19ad4ae4f347ee3e4e01fa69f2f44856e1fb1462b160405160405180910390a25050565b611720826111ec565b6117318161172c613744565b61374c565b61173b83836137e9565b505050565b600061010160008573ffffffffffffffffffffffffffffffffffffffff1673ffffffffffffffffffffffffffffffffffffffff16815260200190815260200160002060008473ffffffffffffffffffffffffffffffffffffffff1673ffffffffffffffffffffffffffffffffffffffff16815260200190815260200160002060020160008373ffffffffffffffffffffffffffffffffffffffff1673ffffffffffffffffffffffffffffffffffffffff1681526020019081526020016000205490509392505050565b611811613744565b73ffffffffffffffffffffffffffffffffffffffff168173ffffffffffffffffffffffffffffffffffffffff161461187e576040517f08c379a0000000000000000000000000000000000000000000000000000000008152600401611875906156ce565b60405180910390fd5b61188882826138ca565b5050565b611895816139ac565b6118b081604051806020016040528060008152506000613a18565b50565b61010f60009054906101000a900473ffffffffffffffffffffffffffffffffffffffff1681565b6101055481565b60008061010160008573ffffffffffffffffffffffffffffffffffffffff1673ffffffffffffffffffffffffffffffffffffffff16815260200190815260200160002060008473ffffffffffffffffffffffffffffffffffffffff1673ffffffffffffffffffffffffffffffffffffffff168152602001908152602001600020600101549050611a2761010c60009054906101000a900473ffffffffffffffffffffffffffffffffffffffff1673ffffffffffffffffffffffffffffffffffffffff16638709294086866040518363ffffffff1660e01b81526004016119c8929190615414565b60206040518083038186803b1580156119e057600080fd5b505afa1580156119f4573d6000803e3d6000fd5b505050506040513d601f19601f82011682018060405250810190611a189190614e59565b8261372e90919063ffffffff16565b91505092915050565b610101602052816000526040600020602052806000526040600020600091509150508060010154905081565b611a65826139ac565b611a7182826001613a18565b5050565b611a9f7fa49807205ce4d355092ef5a8a18f56e8913cf4a201fbe287825b095693c21775336128d5565b611ade576040517f08c379a0000000000000000000000000000000000000000000000000000000008152600401611ad59061568e565b60405180910390fd5b600073ffffffffffffffffffffffffffffffffffffffff168273ffffffffffffffffffffffffffffffffffffffff1614158015611b485750600073ffffffffffffffffffffffffffffffffffffffff168173ffffffffffffffffffffffffffffffffffffffff1614155b611b87576040517f08c379a0000000000000000000000000000000000000000000000000000000008152600401611b7e906155ae565b60405180910390fd5b8061010960008473ffffffffffffffffffffffffffffffffffffffff1673ffffffffffffffffffffffffffffffffffffffff16815260200190815260200160002060006101000a81548173ffffffffffffffffffffffffffffffffffffffff021916908373ffffffffffffffffffffffffffffffffffffffff1602179055505050565b611c347fa49807205ce4d355092ef5a8a18f56e8913cf4a201fbe287825b095693c21775336128d5565b611c73576040517f08c379a0000000000000000000000000000000000000000000000000000000008152600401611c6a9061568e565b60405180910390fd5b60008151905060005b81811015611d4757600073ffffffffffffffffffffffffffffffffffffffff16838281518110611cd5577f4e487b7100000000000000000000000000000000000000000000000000000000600052603260045260246000fd5b602002602001015173ffffffffffffffffffffffffffffffffffffffff161415611d34576040517f08c379a0000000000000000000000000000000000000000000000000000000008152600401611d2b9061552e565b60405180910390fd5b8080611d3f90615a92565b915050611c7c565b5081600081518110611d82577f4e487b7100000000000000000000000000000000000000000000000000000000600052603260045260246000fd5b602002602001015161010a60016101000a81548173ffffffffffffffffffffffffffffffffffffffff021916908373ffffffffffffffffffffffffffffffffffffffff16021790555081600181518110611e05577f4e487b7100000000000000000000000000000000000000000000000000000000600052603260045260246000fd5b602002602001015161010b60006101000a81548173ffffffffffffffffffffffffffffffffffffffff021916908373ffffffffffffffffffffffffffffffffffffffff16021790555081600281518110611e88577f4e487b7100000000000000000000000000000000000000000000000000000000600052603260045260246000fd5b602002602001015161010c60006101000a81548173ffffffffffffffffffffffffffffffffffffffff021916908373ffffffffffffffffffffffffffffffffffffffff16021790555081600381518110611f0b577f4e487b7100000000000000000000000000000000000000000000000000000000600052603260045260246000fd5b602002602001015161010d60006101000a81548173ffffffffffffffffffffffffffffffffffffffff021916908373ffffffffffffffffffffffffffffffffffffffff16021790555081600481518110611f8e577f4e487b7100000000000000000000000000000000000000000000000000000000600052603260045260246000fd5b602002602001015161010e60006101000a81548173ffffffffffffffffffffffffffffffffffffffff021916908373ffffffffffffffffffffffffffffffffffffffff16021790555081600581518110612011577f4e487b7100000000000000000000000000000000000000000000000000000000600052603260045260246000fd5b602002602001015161010f60006101000a81548173ffffffffffffffffffffffffffffffffffffffff021916908373ffffffffffffffffffffffffffffffffffffffff16021790555081600681518110612094577f4e487b7100000000000000000000000000000000000000000000000000000000600052603260045260246000fd5b602002602001015161011060006101000a81548173ffffffffffffffffffffffffffffffffffffffff021916908373ffffffffffffffffffffffffffffffffffffffff16021790555081600781518110612117577f4e487b7100000000000000000000000000000000000000000000000000000000600052603260045260246000fd5b602002602001015161011160006101000a81548173ffffffffffffffffffffffffffffffffffffffff021916908373ffffffffffffffffffffffffffffffffffffffff16021790555060005b600781101561227257600281148061217b5750600381145b156121855761225f565b6121ef7f97667070c54ef182b0f5858b034beac1b6f3089aa2d3188bb1e8929f4fa9b9298483815181106121e2577f4e487b7100000000000000000000000000000000000000000000000000000000600052603260045260246000fd5b60200260200101516128d5565b61225e5761225d7f97667070c54ef182b0f5858b034beac1b6f3089aa2d3188bb1e8929f4fa9b929848381518110612250577f4e487b7100000000000000000000000000000000000000000000000000000000600052603260045260246000fd5b6020026020010151611717565b5b5b808061226a90615a92565b915050612163565b505050565b61010b60009054906101000a900473ffffffffffffffffffffffffffffffffffffffff1681565b61010a60019054906101000a900473ffffffffffffffffffffffffffffffffffffffff1681565b6122ef7fa49807205ce4d355092ef5a8a18f56e8913cf4a201fbe287825b095693c21775336128d5565b61232e576040517f08c379a00000000000000000000000000000000000000000000000000000000081526004016123259061568e565b60405180910390fd5b836101058190555082610106819055508061010481905550816101038190555050505050565b61237e7f97667070c54ef182b0f5858b034beac1b6f3089aa2d3188bb1e8929f4fa9b929336128d5565b806123af57506123ae7fa49807205ce4d355092ef5a8a18f56e8913cf4a201fbe287825b095693c21775336128d5565b5b6123ee576040517f08c379a00000000000000000000000000000000000000000000000000000000081526004016123e59061558e565b60405180910390fd5b606e831015612432576040517f08c379a0000000000000000000000000000000000000000000000000000000008152600401612429906155ce565b60405180910390fd5b600060fd60008673ffffffffffffffffffffffffffffffffffffffff1673ffffffffffffffffffffffffffffffffffffffff168152602001908152602001600020905060008160000154141561253e5760fb859080600181540180825580915050600190039060005260206000200160009091909190916101000a81548173ffffffffffffffffffffffffffffffffffffffff021916908373ffffffffffffffffffffffffffffffffffffffff160217905550600160fc60008773ffffffffffffffffffffffffffffffffffffffff1673ffffffffffffffffffffffffffffffffffffffff16815260200190815260200160002060006101000a81548160ff0219169083151502179055505b61011060009054906101000a900473ffffffffffffffffffffffffffffffffffffffff1673ffffffffffffffffffffffffffffffffffffffff1663551619136040518163ffffffff1660e01b8152600401600060405180830381600087803b1580156125a957600080fd5b505af11580156125bd573d6000803e3d6000fd5b505050508381600001819055508281600101819055508181600201819055508473ffffffffffffffffffffffffffffffffffffffff167f38bfbff5a2ab4e85e1292bfc75e2e0b39855907deca3889448ce609117c8530f60405160405180910390a25050505050565b7fa49807205ce4d355092ef5a8a18f56e8913cf4a201fbe287825b095693c2177581565b60fc6020528060005260406000206000915054906101000a900460ff1681565b6126947f97667070c54ef182b0f5858b034beac1b6f3089aa2d3188bb1e8929f4fa9b929336128d5565b6126d3576040517f08c379a00000000000000000000000000000000000000000000000000000000081526004016126ca9061554e565b60405180910390fd5b61010a60009054906101000a900460ff1615612724576040517f08c379a000000000000000000000000000000000000000000000000000000000815260040161271b9061550e565b60405180910390fd5b61011060009054906101000a900473ffffffffffffffffffffffffffffffffffffffff1673ffffffffffffffffffffffffffffffffffffffff1663551619136040518163ffffffff1660e01b8152600401600060405180830381600087803b15801561278f57600080fd5b505af11580156127a3573d6000803e3d6000fd5b5050505060006127b385846118e1565b90506127bf8584613c2c565b816127dc576127d7848261371890919063ffffffff16565b6127f0565b6127ef848261372e90919063ffffffff16565b5b61010160008773ffffffffffffffffffffffffffffffffffffffff1673ffffffffffffffffffffffffffffffffffffffff16815260200190815260200160002060008573ffffffffffffffffffffffffffffffffffffffff1673ffffffffffffffffffffffffffffffffffffffff168152602001908152602001600020600101819055508273ffffffffffffffffffffffffffffffffffffffff168573ffffffffffffffffffffffffffffffffffffffff167f2d1a59a877ca0f4ce2a4bff5fdbf6e60dabcd7a049afa997fdc2f61bebc68c3860405160405180910390a35050505050565b600060c9600084815260200190815260200160002060000160008373ffffffffffffffffffffffffffffffffffffffff1673ffffffffffffffffffffffffffffffffffffffff16815260200190815260200160002060009054906101000a900460ff16905092915050565b61296a7fa49807205ce4d355092ef5a8a18f56e8913cf4a201fbe287825b095693c21775336128d5565b6129a9576040517f08c379a00000000000000000000000000000000000000000000000000000000081526004016129a09061568e565b60405180910390fd5b60fc60008273ffffffffffffffffffffffffffffffffffffffff1673ffffffffffffffffffffffffffffffffffffffff16815260200190815260200160002060006101000a81549060ff02191690558073ffffffffffffffffffffffffffffffffffffffff167f38bfbff5a2ab4e85e1292bfc75e2e0b39855907deca3889448ce609117c8530f60405160405180910390a250565b6101035481565b61010e60009054906101000a900473ffffffffffffffffffffffffffffffffffffffff1681565b6101065481565b6101006020528060005260406000206000915054906101000a900460ff1681565b6000801b81565b600061010160008473ffffffffffffffffffffffffffffffffffffffff1673ffffffffffffffffffffffffffffffffffffffff16815260200190815260200160002060008373ffffffffffffffffffffffffffffffffffffffff1673ffffffffffffffffffffffffffffffffffffffff16815260200190815260200160002060010154905092915050565b612b507fa49807205ce4d355092ef5a8a18f56e8913cf4a201fbe287825b095693c21775336128d5565b612b8f576040517f08c379a0000000000000000000000000000000000000000000000000000000008152600401612b869061568e565b60405180910390fd5b806101028190555050565b61010860009054906101000a900473ffffffffffffffffffffffffffffffffffffffff1681565b6101096020528060005260406000206000915054906101000a900473ffffffffffffffffffffffffffffffffffffffff1681565b60fe6020528060005260406000206000915090505481565b61010a60009054906101000a900460ff1681565b612c296147a9565b60fd60008373ffffffffffffffffffffffffffffffffffffffff1673ffffffffffffffffffffffffffffffffffffffff16815260200190815260200160002060405180606001604052908160008201548152602001600182015481526020016002820154815250509050919050565b61011060009054906101000a900473ffffffffffffffffffffffffffffffffffffffff1681565b600061010160008573ffffffffffffffffffffffffffffffffffffffff1673ffffffffffffffffffffffffffffffffffffffff16815260200190815260200160002060008373ffffffffffffffffffffffffffffffffffffffff1673ffffffffffffffffffffffffffffffffffffffff16815260200190815260200160002060000160008473ffffffffffffffffffffffffffffffffffffffff1673ffffffffffffffffffffffffffffffffffffffff1681526020019081526020016000205490509392505050565b600060019054906101000a900460ff1680612dae575060008054906101000a900460ff16155b612ded576040517f08c379a0000000000000000000000000000000000000000000000000000000008152600401612de4906155ee565b60405180910390fd5b60008060019054906101000a900460ff161590508015612e3d576001600060016101000a81548160ff02191690831515021790555060016000806101000a81548160ff0219169083151502179055505b612e45613e4d565b612e6f7fa49807205ce4d355092ef5a8a18f56e8913cf4a201fbe287825b095693c2177533613f3e565b612eb97f97667070c54ef182b0f5858b034beac1b6f3089aa2d3188bb1e8929f4fa9b9297fa49807205ce4d355092ef5a8a18f56e8913cf4a201fbe287825b095693c21775613f4c565b8161010860006101000a81548173ffffffffffffffffffffffffffffffffffffffff021916908373ffffffffffffffffffffffffffffffffffffffff1602179055508015612f1c5760008060016101000a81548160ff0219169083151502179055505b5050565b612f4a7fa49807205ce4d355092ef5a8a18f56e8913cf4a201fbe287825b095693c21775336128d5565b612f89576040517f08c379a0000000000000000000000000000000000000000000000000000000008152600401612f809061568e565b60405180910390fd5b60ff819080600181540180825580915050600190039060005260206000200160009091909190916101000a81548173ffffffffffffffffffffffffffffffffffffffff021916908373ffffffffffffffffffffffffffffffffffffffff160217905550600161010060008373ffffffffffffffffffffffffffffffffffffffff1673ffffffffffffffffffffffffffffffffffffffff16815260200190815260200160002060006101000a81548160ff0219169083151502179055508073ffffffffffffffffffffffffffffffffffffffff167f1b56f46855aea33f90246d19ad4ae4f347ee3e4e01fa69f2f44856e1fb1462b160405160405180910390a250565b600061010860009054906101000a900473ffffffffffffffffffffffffffffffffffffffff1673ffffffffffffffffffffffffffffffffffffffff168273ffffffffffffffffffffffffffffffffffffffff1614156130f457670de0b6b3a764000090506132f3565b600073ffffffffffffffffffffffffffffffffffffffff1661010960008473ffffffffffffffffffffffffffffffffffffffff1673ffffffffffffffffffffffffffffffffffffffff16815260200190815260200160002060009054906101000a900473ffffffffffffffffffffffffffffffffffffffff1673ffffffffffffffffffffffffffffffffffffffff1614156131c4576040517f08c379a00000000000000000000000000000000000000000000000000000000081526004016131bb9061560e565b60405180910390fd5b61010960008373ffffffffffffffffffffffffffffffffffffffff1673ffffffffffffffffffffffffffffffffffffffff16815260200190815260200160002060009054906101000a900473ffffffffffffffffffffffffffffffffffffffff1673ffffffffffffffffffffffffffffffffffffffff166337cef791836040518263ffffffff1660e01b815260040161325d91906153de565b60206040518083038186803b15801561327557600080fd5b505afa158015613289573d6000803e3d6000fd5b505050506040513d601f19601f820116820180604052508101906132ad9190614e59565b9050600081116132f2576040517f08c379a00000000000000000000000000000000000000000000000000000000081526004016132e9906156ae565b60405180910390fd5b5b919050565b606080613303611233565b915060008251905060008167ffffffffffffffff81111561334d577f4e487b7100000000000000000000000000000000000000000000000000000000600052604160045260246000fd5b60405190808252806020026020018201604052801561337b5781602001602082028036833780820191505090505b50905060005b828110156134df5761010160008873ffffffffffffffffffffffffffffffffffffffff1673ffffffffffffffffffffffffffffffffffffffff16815260200190815260200160002060008773ffffffffffffffffffffffffffffffffffffffff1673ffffffffffffffffffffffffffffffffffffffff1681526020019081526020016000206000016000868381518110613444577f4e487b7100000000000000000000000000000000000000000000000000000000600052603260045260246000fd5b602002602001015173ffffffffffffffffffffffffffffffffffffffff1673ffffffffffffffffffffffffffffffffffffffff168152602001908152602001600020548282815181106134c0577f4e487b7100000000000000000000000000000000000000000000000000000000600052603260045260246000fd5b60200260200101818152505080806134d790615a92565b915050613381565b5080925050509250929050565b6134f5826111ec565b61350681613501613744565b61374c565b61351083836138ca565b505050565b61353f7fa49807205ce4d355092ef5a8a18f56e8913cf4a201fbe287825b095693c21775336128d5565b61357e576040517f08c379a00000000000000000000000000000000000000000000000000000000081526004016135759061568e565b60405180910390fd5b80600073ffffffffffffffffffffffffffffffffffffffff168173ffffffffffffffffffffffffffffffffffffffff1614156135ef576040517f08c379a00000000000000000000000000000000000000000000000000000000081526004016135e69061566e565b60405180910390fd5b8161010760006101000a81548173ffffffffffffffffffffffffffffffffffffffff021916908373ffffffffffffffffffffffffffffffffffffffff1602179055505050565b6101045481565b61010c60009054906101000a900473ffffffffffffffffffffffffffffffffffffffff1681565b61010760009054906101000a900473ffffffffffffffffffffffffffffffffffffffff1681565b7f97667070c54ef182b0f5858b034beac1b6f3089aa2d3188bb1e8929f4fa9b92981565b60007f01ffc9a7000000000000000000000000000000000000000000000000000000007bffffffffffffffffffffffffffffffffffffffffffffffffffffffff1916827bffffffffffffffffffffffffffffffffffffffffffffffffffffffff1916149050919050565b600081836137269190615931565b905092915050565b6000818361373c9190615881565b905092915050565b600033905090565b61375682826128d5565b6137e55761377b8173ffffffffffffffffffffffffffffffffffffffff166014613fa2565b6137898360001c6020613fa2565b60405160200161379a9291906153a4565b6040516020818303038152906040526040517f08c379a00000000000000000000000000000000000000000000000000000000081526004016137dc91906154cc565b60405180910390fd5b5050565b6137f382826128d5565b6138c657600160c9600084815260200190815260200160002060000160008373ffffffffffffffffffffffffffffffffffffffff1673ffffffffffffffffffffffffffffffffffffffff16815260200190815260200160002060006101000a81548160ff02191690831515021790555061386b613744565b73ffffffffffffffffffffffffffffffffffffffff168173ffffffffffffffffffffffffffffffffffffffff16837f2f8788117e7eff1d82e926ec794901d17c78024a50270940304540a733656f0d60405160405180910390a45b5050565b6138d482826128d5565b156139a857600060c9600084815260200190815260200160002060000160008373ffffffffffffffffffffffffffffffffffffffff1673ffffffffffffffffffffffffffffffffffffffff16815260200190815260200160002060006101000a81548160ff02191690831515021790555061394d613744565b73ffffffffffffffffffffffffffffffffffffffff168173ffffffffffffffffffffffffffffffffffffffff16837ff6391f5c32d9c69d2a47ea670b442974b53935d1edc7fd64eb21e047a839171b60405160405180910390a45b5050565b6139d67fa49807205ce4d355092ef5a8a18f56e8913cf4a201fbe287825b095693c21775336128d5565b613a15576040517f08c379a0000000000000000000000000000000000000000000000000000000008152600401613a0c9061568e565b60405180910390fd5b50565b6000613a2261429c565b9050613a2d846142f3565b600083511180613a3a5750815b15613a4b57613a4984846143ac565b505b6000613a797f4910fdfa16fed3260ed0e7147f7cc6da11a60208b5b9406d12a635614ffd914360001b614490565b90508060000160009054906101000a900460ff16613c255760018160000160006101000a81548160ff021916908315150217905550613b458583604051602401613ac391906153de565b6040516020818303038152906040527f3659cfe6000000000000000000000000000000000000000000000000000000007bffffffffffffffffffffffffffffffffffffffffffffffffffffffff19166020820180517bffffffffffffffffffffffffffffffffffffffffffffffffffffffff83818316178352505050506143ac565b5060008160000160006101000a81548160ff021916908315150217905550613b6b61429c565b73ffffffffffffffffffffffffffffffffffffffff168273ffffffffffffffffffffffffffffffffffffffff1614613bd8576040517f08c379a0000000000000000000000000000000000000000000000000000000008152600401613bcf9061556e565b60405180910390fd5b613be1856142f3565b8473ffffffffffffffffffffffffffffffffffffffff167fbc7cd75a20ee27fd9adebab32041f755214dbc6bffa90cc0225b39da2e5c2d3b60405160405180910390a25b5050505050565b60008061011060009054906101000a900473ffffffffffffffffffffffffffffffffffffffff1673ffffffffffffffffffffffffffffffffffffffff1663d56a5c736040518163ffffffff1660e01b815260040160006040518083038186803b158015613c9857600080fd5b505afa158015613cac573d6000803e3d6000fd5b505050506040513d6000823e3d601f19601f82011682018060405250810190613cd59190614d0d565b91509150600081519050600061010160008773ffffffffffffffffffffffffffffffffffffffff1673ffffffffffffffffffffffffffffffffffffffff16815260200190815260200160002060008673ffffffffffffffffffffffffffffffffffffffff1673ffffffffffffffffffffffffffffffffffffffff168152602001908152602001600020905060005b82811015613e4457848181518110613da4577f4e487b7100000000000000000000000000000000000000000000000000000000600052603260045260246000fd5b6020026020010151826002016000868481518110613deb577f4e487b7100000000000000000000000000000000000000000000000000000000600052603260045260246000fd5b602002602001015173ffffffffffffffffffffffffffffffffffffffff1673ffffffffffffffffffffffffffffffffffffffff168152602001908152602001600020819055508080613e3c90615a92565b915050613d63565b50505050505050565b600060019054906101000a900460ff1680613e73575060008054906101000a900460ff16155b613eb2576040517f08c379a0000000000000000000000000000000000000000000000000000000008152600401613ea9906155ee565b60405180910390fd5b60008060019054906101000a900460ff161590508015613f02576001600060016101000a81548160ff02191690831515021790555060016000806101000a81548160ff0219169083151502179055505b613f0a61449a565b613f12614573565b613f1a61464c565b8015613f3b5760008060016101000a81548160ff0219169083151502179055505b50565b613f4882826137e9565b5050565b80613f56836111ec565b837fbd79b86ffe0ab8e8776151514217cd7cacd52c909f66475c3af44e129f0b00ff60405160405180910390a48060c96000848152602001908152602001600020600101819055505050565b606060006002836002613fb591906158d7565b613fbf9190615881565b67ffffffffffffffff811115613ffe577f4e487b7100000000000000000000000000000000000000000000000000000000600052604160045260246000fd5b6040519080825280601f01601f1916602001820160405280156140305781602001600182028036833780820191505090505b5090507f30000000000000000000000000000000000000000000000000000000000000008160008151811061408e577f4e487b7100000000000000000000000000000000000000000000000000000000600052603260045260246000fd5b60200101907effffffffffffffffffffffffffffffffffffffffffffffffffffffffffffff1916908160001a9053507f780000000000000000000000000000000000000000000000000000000000000081600181518110614118577f4e487b7100000000000000000000000000000000000000000000000000000000600052603260045260246000fd5b60200101907effffffffffffffffffffffffffffffffffffffffffffffffffffffffffffff1916908160001a9053506000600184600261415891906158d7565b6141629190615881565b90505b600181111561424e577f3031323334353637383961626364656600000000000000000000000000000000600f8616601081106141ca577f4e487b7100000000000000000000000000000000000000000000000000000000600052603260045260246000fd5b1a60f81b828281518110614207577f4e487b7100000000000000000000000000000000000000000000000000000000600052603260045260246000fd5b60200101907effffffffffffffffffffffffffffffffffffffffffffffffffffffffffffff1916908160001a905350600485901c94508061424790615a37565b9050614165565b5060008414614292576040517f08c379a0000000000000000000000000000000000000000000000000000000008152600401614289906154ee565b60405180910390fd5b8091505092915050565b60006142ca7f360894a13ba1a3210667c828492db98dca3e2076cc3735a920a3ca505d382bbc60001b614725565b60000160009054906101000a900473ffffffffffffffffffffffffffffffffffffffff16905090565b6142fc8161472f565b61433b576040517f08c379a00000000000000000000000000000000000000000000000000000000081526004016143329061562e565b60405180910390fd5b806143687f360894a13ba1a3210667c828492db98dca3e2076cc3735a920a3ca505d382bbc60001b614725565b60000160006101000a81548173ffffffffffffffffffffffffffffffffffffffff021916908373ffffffffffffffffffffffffffffffffffffffff16021790555050565b60606143b78361472f565b6143f6576040517f08c379a00000000000000000000000000000000000000000000000000000000081526004016143ed9061564e565b60405180910390fd5b6000808473ffffffffffffffffffffffffffffffffffffffff168460405161441e919061538d565b600060405180830381855af49150503d8060008114614459576040519150601f19603f3d011682016040523d82523d6000602084013e61445e565b606091505b50915091506144868282604051806060016040528060278152602001615f5e60279139614742565b9250505092915050565b6000819050919050565b600060019054906101000a900460ff16806144c0575060008054906101000a900460ff16155b6144ff576040517f08c379a00000000000000000000000000000000000000000000000000000000081526004016144f6906155ee565b60405180910390fd5b60008060019054906101000a900460ff16159050801561454f576001600060016101000a81548160ff02191690831515021790555060016000806101000a81548160ff0219169083151502179055505b80156145705760008060016101000a81548160ff0219169083151502179055505b50565b600060019054906101000a900460ff1680614599575060008054906101000a900460ff16155b6145d8576040517f08c379a00000000000000000000000000000000000000000000000000000000081526004016145cf906155ee565b60405180910390fd5b60008060019054906101000a900460ff161590508015614628576001600060016101000a81548160ff02191690831515021790555060016000806101000a81548160ff0219169083151502179055505b80156146495760008060016101000a81548160ff0219169083151502179055505b50565b600060019054906101000a900460ff1680614672575060008054906101000a900460ff16155b6146b1576040517f08c379a00000000000000000000000000000000000000000000000000000000081526004016146a8906155ee565b60405180910390fd5b60008060019054906101000a900460ff161590508015614701576001600060016101000a81548160ff02191690831515021790555060016000806101000a81548160ff0219169083151502179055505b80156147225760008060016101000a81548160ff0219169083151502179055505b50565b6000819050919050565b600080823b905060008111915050919050565b60608315614752578290506147a2565b6000835111156147655782518084602001fd5b816040517f08c379a000000000000000000000000000000000000000000000000000000000815260040161479991906154cc565b60405180910390fd5b9392505050565b60405180606001604052806000815260200160008152602001600081525090565b60006147dd6147d884615749565b615724565b905080838252602082019050828560208602820111156147fc57600080fd5b60005b8581101561482c5781614812888261494c565b8452602084019350602083019250506001810190506147ff565b5050509392505050565b600061484961484484615749565b615724565b9050808382526020820190508285602086028201111561486857600080fd5b60005b85811015614898578161487e8882614961565b84526020840193506020830192505060018101905061486b565b5050509392505050565b60006148b56148b084615775565b615724565b905080838252602082019050828560208602820111156148d457600080fd5b60005b8581101561490457816148ea8882614a72565b8452602084019350602083019250506001810190506148d7565b5050509392505050565b600061492161491c846157a1565b615724565b90508281526020810184848401111561493957600080fd5b6149448482856159f5565b509392505050565b60008135905061495b81615eea565b92915050565b60008151905061497081615eea565b92915050565b600082601f83011261498757600080fd5b81356149978482602086016147ca565b91505092915050565b600082601f8301126149b157600080fd5b81516149c1848260208601614836565b91505092915050565b600082601f8301126149db57600080fd5b81516149eb8482602086016148a2565b91505092915050565b600081359050614a0381615f01565b92915050565b600081359050614a1881615f18565b92915050565b600081359050614a2d81615f2f565b92915050565b600082601f830112614a4457600080fd5b8135614a5484826020860161490e565b91505092915050565b600081359050614a6c81615f46565b92915050565b600081519050614a8181615f46565b92915050565b600060208284031215614a9957600080fd5b6000614aa78482850161494c565b91505092915050565b60008060408385031215614ac357600080fd5b6000614ad18582860161494c565b9250506020614ae28582860161494c565b9150509250929050565b600080600060608486031215614b0157600080fd5b6000614b0f8682870161494c565b9350506020614b208682870161494c565b9250506040614b318682870161494c565b9150509250925092565b60008060408385031215614b4e57600080fd5b6000614b5c8582860161494c565b925050602083013567ffffffffffffffff811115614b7957600080fd5b614b8585828601614a33565b9150509250929050565b600080600080600060a08688031215614ba757600080fd5b6000614bb58882890161494c565b9550506020614bc688828901614a5d565b9450506040614bd78882890161494c565b9350506060614be88882890161494c565b9250506080614bf9888289016149f4565b9150509295509295909350565b60008060008060808587031215614c1c57600080fd5b6000614c2a8782880161494c565b9450506020614c3b87828801614a5d565b9350506040614c4c8782880161494c565b9250506060614c5d878288016149f4565b91505092959194509250565b60008060008060808587031215614c7f57600080fd5b6000614c8d8782880161494c565b9450506020614c9e87828801614a5d565b9350506040614caf87828801614a5d565b9250506060614cc087828801614a5d565b91505092959194509250565b600060208284031215614cde57600080fd5b600082013567ffffffffffffffff811115614cf857600080fd5b614d0484828501614976565b91505092915050565b60008060408385031215614d2057600080fd5b600083015167ffffffffffffffff811115614d3a57600080fd5b614d46858286016149ca565b925050602083015167ffffffffffffffff811115614d6357600080fd5b614d6f858286016149a0565b9150509250929050565b600060208284031215614d8b57600080fd5b6000614d99848285016149f4565b91505092915050565b600060208284031215614db457600080fd5b6000614dc284828501614a09565b91505092915050565b60008060408385031215614dde57600080fd5b6000614dec85828601614a09565b9250506020614dfd8582860161494c565b9150509250929050565b600060208284031215614e1957600080fd5b6000614e2784828501614a1e565b91505092915050565b600060208284031215614e4257600080fd5b6000614e5084828501614a5d565b91505092915050565b600060208284031215614e6b57600080fd5b6000614e7984828501614a72565b91505092915050565b60008060008060808587031215614e9857600080fd5b6000614ea687828801614a5d565b9450506020614eb787828801614a5d565b9350506040614ec887828801614a5d565b9250506060614ed987828801614a5d565b91505092959194509250565b6000614ef18383614f24565b60208301905092915050565b6000614f09838361536f565b60208301905092915050565b614f1e81615977565b82525050565b614f2d81615965565b82525050565b614f3c81615965565b82525050565b6000614f4d826157f2565b614f578185615838565b9350614f62836157d2565b8060005b83811015614f93578151614f7a8882614ee5565b9750614f858361581e565b925050600181019050614f66565b5085935050505092915050565b6000614fab826157fd565b614fb58185615849565b9350614fc0836157e2565b8060005b83811015614ff1578151614fd88882614efd565b9750614fe38361582b565b925050600181019050614fc4565b5085935050505092915050565b61500781615989565b82525050565b61501681615995565b82525050565b600061502782615808565b615031818561585a565b9350615041818560208601615a04565b80840191505092915050565b600061505882615813565b6150628185615865565b9350615072818560208601615a04565b61507b81615b39565b840191505092915050565b600061509182615813565b61509b8185615876565b93506150ab818560208601615a04565b80840191505092915050565b60006150c4602083615865565b91506150cf82615b4a565b602082019050919050565b60006150e7600683615865565b91506150f282615b73565b602082019050919050565b600061510a600f83615865565b915061511582615b9c565b602082019050919050565b600061512d600283615865565b915061513882615bc5565b602082019050919050565b6000615150602f83615865565b915061515b82615bee565b604082019050919050565b6000615173600283615865565b915061517e82615c3d565b602082019050919050565b6000615196600283615865565b91506151a182615c66565b602082019050919050565b60006151b9600283615865565b91506151c482615c8f565b602082019050919050565b60006151dc602e83615865565b91506151e782615cb8565b604082019050919050565b60006151ff601383615865565b915061520a82615d07565b602082019050919050565b6000615222602d83615865565b915061522d82615d30565b604082019050919050565b6000615245602683615865565b915061525082615d7f565b604082019050919050565b6000615268600f83615865565b915061527382615dce565b602082019050919050565b600061528b600283615865565b915061529682615df7565b602082019050919050565b60006152ae601783615876565b91506152b982615e20565b601782019050919050565b60006152d1601383615865565b91506152dc82615e49565b602082019050919050565b60006152f4601183615876565b91506152ff82615e72565b601182019050919050565b6000615317602f83615865565b915061532282615e9b565b604082019050919050565b606082016000820151615343600085018261536f565b506020820151615356602085018261536f565b506040820151615369604085018261536f565b50505050565b615378816159eb565b82525050565b615387816159eb565b82525050565b6000615399828461501c565b915081905092915050565b60006153af826152a1565b91506153bb8285615086565b91506153c6826152e7565b91506153d28284615086565b91508190509392505050565b60006020820190506153f36000830184614f33565b92915050565b600060208201905061540e6000830184614f15565b92915050565b60006040820190506154296000830185614f33565b6154366020830184614f33565b9392505050565b600060208201905081810360008301526154578184614f42565b905092915050565b600060408201905081810360008301526154798185614f42565b9050818103602083015261548d8184614fa0565b90509392505050565b60006020820190506154ab6000830184614ffe565b92915050565b60006020820190506154c6600083018461500d565b92915050565b600060208201905081810360008301526154e6818461504d565b905092915050565b60006020820190508181036000830152615507816150b7565b9050919050565b60006020820190508181036000830152615527816150da565b9050919050565b60006020820190508181036000830152615547816150fd565b9050919050565b6000602082019050818103600083015261556781615120565b9050919050565b6000602082019050818103600083015261558781615143565b9050919050565b600060208201905081810360008301526155a781615166565b9050919050565b600060208201905081810360008301526155c781615189565b9050919050565b600060208201905081810360008301526155e7816151ac565b9050919050565b60006020820190508181036000830152615607816151cf565b9050919050565b60006020820190508181036000830152615627816151f2565b9050919050565b6000602082019050818103600083015261564781615215565b9050919050565b6000602082019050818103600083015261566781615238565b9050919050565b600060208201905081810360008301526156878161525b565b9050919050565b600060208201905081810360008301526156a78161527e565b9050919050565b600060208201905081810360008301526156c7816152c4565b9050919050565b600060208201905081810360008301526156e78161530a565b9050919050565b6000606082019050615703600083018461532d565b92915050565b600060208201905061571e600083018461537e565b92915050565b600061572e61573f565b905061573a8282615a61565b919050565b6000604051905090565b600067ffffffffffffffff82111561576457615763615b0a565b5b602082029050602081019050919050565b600067ffffffffffffffff8211156157905761578f615b0a565b5b602082029050602081019050919050565b600067ffffffffffffffff8211156157bc576157bb615b0a565b5b6157c582615b39565b9050602081019050919050565b6000819050602082019050919050565b6000819050602082019050919050565b600081519050919050565b600081519050919050565b600081519050919050565b600081519050919050565b6000602082019050919050565b6000602082019050919050565b600082825260208201905092915050565b600082825260208201905092915050565b600081905092915050565b600082825260208201905092915050565b600081905092915050565b600061588c826159eb565b9150615897836159eb565b9250827fffffffffffffffffffffffffffffffffffffffffffffffffffffffffffffffff038211156158cc576158cb615adb565b5b828201905092915050565b60006158e2826159eb565b91506158ed836159eb565b9250817fffffffffffffffffffffffffffffffffffffffffffffffffffffffffffffffff048311821515161561592657615925615adb565b5b828202905092915050565b600061593c826159eb565b9150615947836159eb565b92508282101561595a57615959615adb565b5b828203905092915050565b6000615970826159cb565b9050919050565b6000615982826159cb565b9050919050565b60008115159050919050565b6000819050919050565b60007fffffffff0000000000000000000000000000000000000000000000000000000082169050919050565b600073ffffffffffffffffffffffffffffffffffffffff82169050919050565b6000819050919050565b82818337600083830152505050565b60005b83811015615a22578082015181840152602081019050615a07565b83811115615a31576000848401525b50505050565b6000615a42826159eb565b91506000821415615a5657615a55615adb565b5b600182039050919050565b615a6a82615b39565b810181811067ffffffffffffffff82111715615a8957615a88615b0a565b5b80604052505050565b6000615a9d826159eb565b91507fffffffffffffffffffffffffffffffffffffffffffffffffffffffffffffffff821415615ad057615acf615adb565b5b600182019050919050565b7f4e487b7100000000000000000000000000000000000000000000000000000000600052601160045260246000fd5b7f4e487b7100000000000000000000000000000000000000000000000000000000600052604160045260246000fd5b6000601f19601f8301169050919050565b7f537472696e67733a20686578206c656e67746820696e73756666696369656e74600082015250565b7f5061757365640000000000000000000000000000000000000000000000000000600082015250565b7f496e76616c696420616464726573730000000000000000000000000000000000600082015250565b7f4e4f000000000000000000000000000000000000000000000000000000000000600082015250565b7f45524331393637557067726164653a207570677261646520627265616b73206660008201527f7572746865722075706772616465730000000000000000000000000000000000602082015250565b7f4e57000000000000000000000000000000000000000000000000000000000000600082015250565b7f495a000000000000000000000000000000000000000000000000000000000000600082015250565b7f4352000000000000000000000000000000000000000000000000000000000000600082015250565b7f496e697469616c697a61626c653a20636f6e747261637420697320616c72656160008201527f647920696e697469616c697a6564000000000000000000000000000000000000602082015250565b7f4e6f206f7261636c6520666f7220746f6b656e00000000000000000000000000600082015250565b7f455243313936373a206e657720696d706c656d656e746174696f6e206973206e60008201527f6f74206120636f6e747261637400000000000000000000000000000000000000602082015250565b7f416464726573733a2064656c65676174652063616c6c20746f206e6f6e2d636f60008201527f6e74726163740000000000000000000000000000000000000000000000000000602082015250565b7f496e76616c696420416464726573730000000000000000000000000000000000600082015250565b7f4e41000000000000000000000000000000000000000000000000000000000000600082015250565b7f416363657373436f6e74726f6c3a206163636f756e7420000000000000000000600082015250565b7f546f6b656e207072696365206973207a65726f00000000000000000000000000600082015250565b7f206973206d697373696e6720726f6c6520000000000000000000000000000000600082015250565b7f416363657373436f6e74726f6c3a2063616e206f6e6c792072656e6f756e636560008201527f20726f6c657320666f722073656c660000000000000000000000000000000000602082015250565b615ef381615965565b8114615efe57600080fd5b50565b615f0a81615989565b8114615f1557600080fd5b50565b615f2181615995565b8114615f2c57600080fd5b50565b615f388161599f565b8114615f4357600080fd5b50565b615f4f816159eb565b8114615f5a57600080fd5b5056fe416464726573733a206c6f772d6c6576656c2064656c65676174652063616c6c206661696c6564a2646970667358221220a42a657ba36d40a478b8c82d42d30024eb4e7a63e6aab635f85689da569ee26464736f6c63430008030033",
  "linkReferences": {},
  "deployedLinkReferences": {}
}