{
  "_format": "hh-sol-artifact-1",
  "contractName": "Liquidator",
  "sourceName": "contracts/Bank/Liquidator.sol",
  "abi": [
    {
      "anonymous": false,
      "inputs": [
        {
          "indexed": false,
          "internalType": "address",
          "name": "previousAdmin",
          "type": "address"
        },
        {
          "indexed": false,
          "internalType": "address",
          "name": "newAdmin",
          "type": "address"
        }
      ],
      "name": "AdminChanged",
      "type": "event"
    },
    {
      "anonymous": false,
      "inputs": [
        {
          "indexed": true,
          "internalType": "address",
          "name": "beacon",
          "type": "address"
        }
      ],
      "name": "BeaconUpgraded",
      "type": "event"
    },
    {
      "anonymous": false,
      "inputs": [
        {
          "indexed": false,
          "internalType": "address",
          "name": "from",
          "type": "address"
        },
        {
          "indexed": false,
          "internalType": "address",
          "name": "token",
          "type": "address"
        },
        {
          "indexed": false,
          "internalType": "uint256",
          "name": "tokenAmount",
          "type": "uint256"
        },
        {
          "indexed": false,
          "internalType": "uint256[]",
          "name": "collateralAmounts",
          "type": "uint256[]"
        },
        {
          "indexed": false,
          "internalType": "address[]",
          "name": "collateralTypes",
          "type": "address[]"
        }
      ],
      "name": "Liquidate",
      "type": "event"
    },
    {
      "anonymous": false,
      "inputs": [
        {
          "indexed": true,
          "internalType": "address",
          "name": "previousOwner",
          "type": "address"
        },
        {
          "indexed": true,
          "internalType": "address",
          "name": "newOwner",
          "type": "address"
        }
      ],
      "name": "OwnershipTransferred",
      "type": "event"
    },
    {
      "anonymous": false,
      "inputs": [
        {
          "indexed": false,
          "internalType": "address",
          "name": "from",
          "type": "address"
        },
        {
          "indexed": false,
          "internalType": "address",
          "name": "token",
          "type": "address"
        },
        {
          "indexed": false,
          "internalType": "uint256",
          "name": "tokenAmount",
          "type": "uint256"
        },
        {
          "indexed": false,
          "internalType": "uint256[]",
          "name": "collateralAmounts",
          "type": "uint256[]"
        },
        {
          "indexed": false,
          "internalType": "address[]",
          "name": "collateralTypes",
          "type": "address[]"
        }
      ],
      "name": "Redeem",
      "type": "event"
    },
    {
      "anonymous": false,
      "inputs": [
        {
          "indexed": true,
          "internalType": "address",
          "name": "implementation",
          "type": "address"
        }
      ],
      "name": "Upgraded",
      "type": "event"
    },
    {
      "inputs": [
        {
          "internalType": "uint256",
          "name": "amount",
          "type": "uint256"
        },
        {
          "internalType": "address",
          "name": "token",
          "type": "address"
        },
        {
          "internalType": "address",
          "name": "from",
          "type": "address"
        },
        {
          "internalType": "uint256",
          "name": "deadline",
          "type": "uint256"
        },
        {
          "internalType": "address",
          "name": "referral",
          "type": "address"
        }
      ],
      "name": "buyCollateral",
      "outputs": [
        {
          "internalType": "uint256[]",
          "name": "collateralAmounts",
          "type": "uint256[]"
        },
        {
          "internalType": "address[]",
          "name": "collateralTypes",
          "type": "address[]"
        },
        {
          "internalType": "uint256",
          "name": "etherAmount",
          "type": "uint256"
        }
      ],
      "stateMutability": "nonpayable",
      "type": "function"
    },
    {
      "inputs": [
        {
          "internalType": "uint256",
          "name": "amount",
          "type": "uint256"
        },
        {
          "internalType": "address",
          "name": "token",
          "type": "address"
        },
        {
          "internalType": "address[]",
          "name": "from",
          "type": "address[]"
        },
        {
          "internalType": "uint256",
          "name": "deadline",
          "type": "uint256"
        },
        {
          "internalType": "address",
          "name": "referral",
          "type": "address"
        }
      ],
      "name": "buyCollateralFromManyVaults",
      "outputs": [
        {
          "internalType": "uint256[]",
          "name": "collateralAmounts",
          "type": "uint256[]"
        },
        {
          "internalType": "address[]",
          "name": "collateralTypes",
          "type": "address[]"
        },
        {
          "internalType": "uint256",
          "name": "etherAmount",
          "type": "uint256"
        }
      ],
      "stateMutability": "nonpayable",
      "type": "function"
    },
    {
      "inputs": [],
      "name": "crScalar",
      "outputs": [
        {
          "internalType": "uint256",
          "name": "",
          "type": "uint256"
        }
      ],
      "stateMutability": "view",
      "type": "function"
    },
    {
      "inputs": [
        {
          "internalType": "address",
          "name": "token",
          "type": "address"
        },
        {
          "internalType": "address",
          "name": "from",
          "type": "address"
        }
      ],
      "name": "getAllowedBuyCollateralFromTokenAmount",
      "outputs": [
        {
          "internalType": "uint256",
          "name": "allowedAmount",
          "type": "uint256"
        },
        {
          "internalType": "bool",
          "name": "isLiquidation",
          "type": "bool"
        }
      ],
      "stateMutability": "view",
      "type": "function"
    },
    {
      "inputs": [
        {
          "internalType": "address",
          "name": "account",
          "type": "address"
        },
        {
          "internalType": "address",
          "name": "fxToken",
          "type": "address"
        }
      ],
      "name": "getLiquidationRatio",
      "outputs": [
        {
          "internalType": "uint256",
          "name": "ratio",
          "type": "uint256"
        }
      ],
      "stateMutability": "view",
      "type": "function"
    },
    {
      "inputs": [],
      "name": "handleAddress",
      "outputs": [
        {
          "internalType": "address",
          "name": "",
          "type": "address"
        }
      ],
      "stateMutability": "view",
      "type": "function"
    },
    {
      "inputs": [],
      "name": "initialize",
      "outputs": [],
      "stateMutability": "nonpayable",
      "type": "function"
    },
    {
      "inputs": [],
      "name": "keeperPoolThreshold",
      "outputs": [
        {
          "internalType": "uint256",
          "name": "",
          "type": "uint256"
        }
      ],
      "stateMutability": "view",
      "type": "function"
    },
    {
      "inputs": [
        {
          "internalType": "address",
          "name": "account",
          "type": "address"
        },
        {
          "internalType": "address",
          "name": "fxToken",
          "type": "address"
        }
      ],
      "name": "liquidate",
      "outputs": [
        {
          "internalType": "uint256",
          "name": "fxAmount",
          "type": "uint256"
        },
        {
          "internalType": "address[]",
          "name": "collateralTypes",
          "type": "address[]"
        },
        {
          "internalType": "uint256[]",
          "name": "collateralAmounts",
          "type": "uint256[]"
        }
      ],
      "stateMutability": "nonpayable",
      "type": "function"
    },
    {
      "inputs": [],
      "name": "owner",
      "outputs": [
        {
          "internalType": "address",
          "name": "",
          "type": "address"
        }
      ],
      "stateMutability": "view",
      "type": "function"
    },
    {
      "inputs": [],
      "name": "protocolRedemptionFeeRatio",
      "outputs": [
        {
          "internalType": "uint256",
          "name": "",
          "type": "uint256"
        }
      ],
      "stateMutability": "view",
      "type": "function"
    },
    {
      "inputs": [],
      "name": "redemptionFeeRatio",
      "outputs": [
        {
          "internalType": "uint256",
          "name": "",
          "type": "uint256"
        }
      ],
      "stateMutability": "view",
      "type": "function"
    },
    {
      "inputs": [],
      "name": "renounceOwnership",
      "outputs": [],
      "stateMutability": "nonpayable",
      "type": "function"
    },
    {
      "inputs": [
        {
          "internalType": "uint256",
          "name": "value",
          "type": "uint256"
        }
      ],
      "name": "setCrScalar",
      "outputs": [],
      "stateMutability": "nonpayable",
      "type": "function"
    },
    {
      "inputs": [
        {
          "internalType": "address",
          "name": "_handle",
          "type": "address"
        }
      ],
      "name": "setHandleContract",
      "outputs": [],
      "stateMutability": "nonpayable",
      "type": "function"
    },
    {
      "inputs": [
        {
          "internalType": "uint256",
          "name": "amount",
          "type": "uint256"
        }
      ],
      "name": "setKeeperPoolThreshold",
      "outputs": [],
      "stateMutability": "nonpayable",
      "type": "function"
    },
    {
      "inputs": [
        {
          "internalType": "uint256",
          "name": "ratio",
          "type": "uint256"
        }
      ],
      "name": "setProtocolRedemptionFeeRatio",
      "outputs": [],
      "stateMutability": "nonpayable",
      "type": "function"
    },
    {
      "inputs": [
        {
          "internalType": "uint256",
          "name": "ratio",
          "type": "uint256"
        }
      ],
      "name": "setRedemptionFeeRatio",
      "outputs": [],
      "stateMutability": "nonpayable",
      "type": "function"
    },
    {
      "inputs": [
        {
          "internalType": "uint256",
          "name": "crTarget",
          "type": "uint256"
        },
        {
          "internalType": "uint256",
          "name": "debt",
          "type": "uint256"
        },
        {
          "internalType": "uint256",
          "name": "collateral",
          "type": "uint256"
        },
        {
          "internalType": "uint256",
          "name": "returnRatio",
          "type": "uint256"
        }
      ],
      "name": "tokensRequiredForCrIncrease",
      "outputs": [
        {
          "internalType": "uint256",
          "name": "amount",
          "type": "uint256"
        }
      ],
      "stateMutability": "pure",
      "type": "function"
    },
    {
      "inputs": [
        {
          "internalType": "address",
          "name": "newOwner",
          "type": "address"
        }
      ],
      "name": "transferOwnership",
      "outputs": [],
      "stateMutability": "nonpayable",
      "type": "function"
    },
    {
      "inputs": [
        {
          "internalType": "address",
          "name": "newImplementation",
          "type": "address"
        }
      ],
      "name": "upgradeTo",
      "outputs": [],
      "stateMutability": "nonpayable",
      "type": "function"
    },
    {
      "inputs": [
        {
          "internalType": "address",
          "name": "newImplementation",
          "type": "address"
        },
        {
          "internalType": "bytes",
          "name": "data",
          "type": "bytes"
        }
      ],
      "name": "upgradeToAndCall",
      "outputs": [],
      "stateMutability": "payable",
      "type": "function"
    }
  ],
  "bytecode": "0x608060405234801561001057600080fd5b50615ecc80620000216000396000f3fe6080604052600436106101355760003560e01c80638150c6f4116100ab578063bc8f795f1161006f578063bc8f795f146103f8578063c4b672ff14610421578063c960bf9b1461044a578063db17174e14610489578063eb9cd9d0146104c6578063f2fde38b146104f157610135565b80638150c6f414610311578063853993901461033c57806386b9d81f146103655780638da5cb5b146103a45780639b1c414f146103cf57610135565b80633a037336116100fd5780633a037336146102215780634f1ef2861461025f578063715018a61461027b57806374bf578b146102925780637630a69c146102bd5780638129fc1c146102fa57610135565b806317d9eca21461013a5780631a8ce042146101655780633288e015146101a45780633659cfe6146101cd578063368a80bd146101f6575b600080fd5b34801561014657600080fd5b5061014f61051a565b60405161015c91906155a9565b60405180910390f35b34801561017157600080fd5b5061018c60048036038101906101879190614b7b565b610520565b60405161019b93929190615302565b60405180910390f35b3480156101b057600080fd5b506101cb60048036038101906101c69190614b29565b61077e565b005b3480156101d957600080fd5b506101f460048036038101906101ef91906148c9565b610850565b005b34801561020257600080fd5b5061020b610877565b60405161021891906155a9565b60405180910390f35b34801561022d57600080fd5b5061024860048036038101906102439190614944565b61087e565b604051610256929190615609565b60405180910390f35b61027960048036038101906102749190614980565b610d50565b005b34801561028757600080fd5b50610290610d69565b005b34801561029e57600080fd5b506102a7610ea6565b6040516102b49190615112565b60405180910390f35b3480156102c957600080fd5b506102e460048036038101906102df9190614944565b610ed0565b6040516102f191906155a9565b60405180910390f35b34801561030657600080fd5b5061030f610fed565b005b34801561031d57600080fd5b506103266110de565b60405161033391906155a9565b60405180910390f35b34801561034857600080fd5b50610363600480360381019061035e9190614b29565b6110e5565b005b34801561037157600080fd5b5061038c60048036038101906103879190614944565b61116b565b60405161039b939291906155c4565b60405180910390f35b3480156103b057600080fd5b506103b96115c9565b6040516103c69190615112565b60405180910390f35b3480156103db57600080fd5b506103f660048036038101906103f191906148c9565b6115f3565b005b34801561040457600080fd5b5061041f600480360381019061041a9190614b29565b611873565b005b34801561042d57600080fd5b5061044860048036038101906104439190614b29565b6118f9565b005b34801561045657600080fd5b50610471600480360381019061046c9190614bf2565b6119cb565b60405161048093929190615302565b60405180910390f35b34801561049557600080fd5b506104b060048036038101906104ab9190614c81565b612542565b6040516104bd91906155a9565b60405180910390f35b3480156104d257600080fd5b506104db61268b565b6040516104e891906155a9565b60405180910390f35b3480156104fd57600080fd5b50610518600480360381019061051391906148c9565b612691565b005b60fe5481565b60608060008480421115610569576040517f08c379a0000000000000000000000000000000000000000000000000000000008152600401610560906153c9565b60405180910390fd5b8760fb60009054906101000a900473ffffffffffffffffffffffffffffffffffffffff1673ffffffffffffffffffffffffffffffffffffffff1663a0f026ff826040518263ffffffff1660e01b81526004016105c59190615112565b60206040518083038186803b1580156105dd57600080fd5b505afa1580156105f1573d6000803e3d6000fd5b505050506040513d601f19601f820116820180604052508101906106159190614b00565b610654576040517f08c379a000000000000000000000000000000000000000000000000000000000815260040161064b90615429565b60405180910390fd5b60fb60009054906101000a900473ffffffffffffffffffffffffffffffffffffffff1673ffffffffffffffffffffffffffffffffffffffff16631441a5a96040518163ffffffff1660e01b815260040160206040518083038186803b1580156106bc57600080fd5b505afa1580156106d0573d6000803e3d6000fd5b505050506040513d601f19601f820116820180604052508101906106f491906148f2565b73ffffffffffffffffffffffffffffffffffffffff16637543e3f033886040518363ffffffff1660e01b815260040161072e92919061512d565b600060405180830381600087803b15801561074857600080fd5b505af115801561075c573d6000803e3d6000fd5b5050505061076b8a8a8a61283d565b9450945094505050955095509592505050565b61078661326e565b73ffffffffffffffffffffffffffffffffffffffff166107a46115c9565b73ffffffffffffffffffffffffffffffffffffffff16146107fa576040517f08c379a00000000000000000000000000000000000000000000000000000000081526004016107f1906154e9565b60405180910390fd5b670de0b6b3a7640000811115610845576040517f08c379a000000000000000000000000000000000000000000000000000000000815260040161083c90615569565b60405180910390fd5b806101008190555050565b61085981613276565b610874816040518060200160405280600081525060006132f5565b50565b6101015481565b600080600060fd60009054906101000a900473ffffffffffffffffffffffffffffffffffffffff1673ffffffffffffffffffffffffffffffffffffffff1663bcbe3f2285876040518363ffffffff1660e01b81526004016108e092919061512d565b60206040518083038186803b1580156108f857600080fd5b505afa15801561090c573d6000803e3d6000fd5b505050506040513d601f19601f820116820180604052508101906109309190614b52565b9050600060fd60009054906101000a900473ffffffffffffffffffffffffffffffffffffffff1673ffffffffffffffffffffffffffffffffffffffff1663db3fabeb86886040518363ffffffff1660e01b815260040161099192919061512d565b60206040518083038186803b1580156109a957600080fd5b505afa1580156109bd573d6000803e3d6000fd5b505050506040513d601f19601f820116820180604052508101906109e19190614b52565b9050600060fd60009054906101000a900473ffffffffffffffffffffffffffffffffffffffff1673ffffffffffffffffffffffffffffffffffffffff16634c90f22987896040518363ffffffff1660e01b8152600401610a4292919061512d565b60206040518083038186803b158015610a5a57600080fd5b505afa158015610a6e573d6000803e3d6000fd5b505050506040513d601f19601f82011682018060405250810190610a929190614b52565b90506000610ac383610ab5670de0b6b3a76400008561350990919063ffffffff16565b61351f90919063ffffffff16565b9050838110610b07576040517f08c379a0000000000000000000000000000000000000000000000000000000008152600401610afe90615449565b60405180910390fd5b6000670de0b6b3a76400009050610b1e888a610ed0565b82111595508515610c5757610b646064610b56610b47606460fe5461353590919063ffffffff16565b8861350990919063ffffffff16565b61351f90919063ffffffff16565b9450600060fd60009054906101000a900473ffffffffffffffffffffffffffffffffffffffff1673ffffffffffffffffffffffffffffffffffffffff166364d321b78a8c6040518363ffffffff1660e01b8152600401610bc592919061512d565b60206040518083038186803b158015610bdd57600080fd5b505afa158015610bf1573d6000803e3d6000fd5b505050506040513d601f19601f82011682018060405250810190610c159190614b52565b9050610c32670de0b6b3a76400008461354b90919063ffffffff16565b811115610c3f5782610c53565b610c52818361353590919063ffffffff16565b5b9150505b610c6385858584612542565b9650600060fb60009054906101000a900473ffffffffffffffffffffffffffffffffffffffff1673ffffffffffffffffffffffffffffffffffffffff1663d02641a08b6040518263ffffffff1660e01b8152600401610cc29190615112565b60206040518083038186803b158015610cda57600080fd5b505afa158015610cee573d6000803e3d6000fd5b505050506040513d601f19601f82011682018060405250810190610d129190614b52565b9050610d4181610d33670de0b6b3a76400008b61350990919063ffffffff16565b61351f90919063ffffffff16565b97505050505050509250929050565b610d5982613276565b610d65828260016132f5565b5050565b610d7161326e565b73ffffffffffffffffffffffffffffffffffffffff16610d8f6115c9565b73ffffffffffffffffffffffffffffffffffffffff1614610de5576040517f08c379a0000000000000000000000000000000000000000000000000000000008152600401610ddc906154e9565b60405180910390fd5b600073ffffffffffffffffffffffffffffffffffffffff16609760009054906101000a900473ffffffffffffffffffffffffffffffffffffffff1673ffffffffffffffffffffffffffffffffffffffff167f8be0079c531659141344cd1fd0a4f28419497f9722a3daafe3b4186f6b6457e060405160405180910390a36000609760006101000a81548173ffffffffffffffffffffffffffffffffffffffff021916908373ffffffffffffffffffffffffffffffffffffffff160217905550565b600060fb60009054906101000a900473ffffffffffffffffffffffffffffffffffffffff16905090565b6000610fa56064610f97605060fd60009054906101000a900473ffffffffffffffffffffffffffffffffffffffff1673ffffffffffffffffffffffffffffffffffffffff1663bcbe3f2288886040518363ffffffff1660e01b8152600401610f3992919061512d565b60206040518083038186803b158015610f5157600080fd5b505afa158015610f65573d6000803e3d6000fd5b505050506040513d601f19601f82011682018060405250810190610f899190614b52565b61350990919063ffffffff16565b61351f90919063ffffffff16565b90506000610fd86064610fca606e670de0b6b3a764000061350990919063ffffffff16565b61351f90919063ffffffff16565b905080821015610fe6578091505b5092915050565b600060019054906101000a900460ff1680611013575060008054906101000a900460ff16155b611052576040517f08c379a000000000000000000000000000000000000000000000000000000000815260040161104990615469565b60405180910390fd5b60008060019054906101000a900460ff1615905080156110a2576001600060016101000a81548160ff02191690831515021790555060016000806101000a81548160ff0219169083151502179055505b6110aa613561565b6110b261364a565b6110ba613733565b80156110db5760008060016101000a81548160ff0219169083151502179055505b50565b6101005481565b6110ed61326e565b73ffffffffffffffffffffffffffffffffffffffff1661110b6115c9565b73ffffffffffffffffffffffffffffffffffffffff1614611161576040517f08c379a0000000000000000000000000000000000000000000000000000000008152600401611158906154e9565b60405180910390fd5b8060ff8190555050565b60006060808360fb60009054906101000a900473ffffffffffffffffffffffffffffffffffffffff1673ffffffffffffffffffffffffffffffffffffffff1663a0f026ff826040518263ffffffff1660e01b81526004016111cc9190615112565b60206040518083038186803b1580156111e457600080fd5b505afa1580156111f8573d6000803e3d6000fd5b505050506040513d601f19601f8201168201806040525081019061121c9190614b00565b61125b576040517f08c379a000000000000000000000000000000000000000000000000000000000815260040161125290615429565b60405180910390fd5b600260c95414156112a1576040517f08c379a000000000000000000000000000000000000000000000000000000000815260040161129890615589565b60405180910390fd5b600260c981905550600060fb60009054906101000a900473ffffffffffffffffffffffffffffffffffffffff1673ffffffffffffffffffffffffffffffffffffffff1663d02641a0876040518263ffffffff1660e01b81526004016113069190615112565b60206040518083038186803b15801561131e57600080fd5b505afa158015611332573d6000803e3d6000fd5b505050506040513d601f19601f820116820180604052508101906113569190614b52565b90506113628682613814565b600060fd60009054906101000a900473ffffffffffffffffffffffffffffffffffffffff1673ffffffffffffffffffffffffffffffffffffffff1663db3fabeb89896040518363ffffffff1660e01b81526004016113c192919061512d565b60206040518083038186803b1580156113d957600080fd5b505afa1580156113ed573d6000803e3d6000fd5b505050506040513d601f19601f820116820180604052508101906114119190614b52565b9050600060fd60009054906101000a900473ffffffffffffffffffffffffffffffffffffffff1673ffffffffffffffffffffffffffffffffffffffff16634c90f2298a8a6040518363ffffffff1660e01b815260040161147292919061512d565b60206040518083038186803b15801561148a57600080fd5b505afa15801561149e573d6000803e3d6000fd5b505050506040513d601f19601f820116820180604052508101906114c29190614b52565b90506114d0898984846139f7565b600060fd60009054906101000a900473ffffffffffffffffffffffffffffffffffffffff1673ffffffffffffffffffffffffffffffffffffffff166364d321b78b8b6040518363ffffffff1660e01b815260040161152f92919061512d565b60206040518083038186803b15801561154757600080fd5b505afa15801561155b573d6000803e3d6000fd5b505050506040513d601f19601f8201168201806040525081019061157f9190614b52565b905061158f8a8a85858589613a8f565b975061159d8a8a8a87613cfd565b80975081985050506115b38a8a83878c8c613d85565b955050505050600160c981905550509250925092565b6000609760009054906101000a900473ffffffffffffffffffffffffffffffffffffffff16905090565b6115fb61326e565b73ffffffffffffffffffffffffffffffffffffffff166116196115c9565b73ffffffffffffffffffffffffffffffffffffffff161461166f576040517f08c379a0000000000000000000000000000000000000000000000000000000008152600401611666906154e9565b60405180910390fd5b8060fb60006101000a81548173ffffffffffffffffffffffffffffffffffffffff021916908373ffffffffffffffffffffffffffffffffffffffff16021790555060fb60009054906101000a900473ffffffffffffffffffffffffffffffffffffffff1673ffffffffffffffffffffffffffffffffffffffff166361d027b36040518163ffffffff1660e01b815260040160206040518083038186803b15801561171857600080fd5b505afa15801561172c573d6000803e3d6000fd5b505050506040513d601f19601f82011682018060405250810190611750919061491b565b60fc60006101000a81548173ffffffffffffffffffffffffffffffffffffffff021916908373ffffffffffffffffffffffffffffffffffffffff16021790555060fb60009054906101000a900473ffffffffffffffffffffffffffffffffffffffff1673ffffffffffffffffffffffffffffffffffffffff1663eb0a8b916040518163ffffffff1660e01b815260040160206040518083038186803b1580156117f857600080fd5b505afa15801561180c573d6000803e3d6000fd5b505050506040513d601f19601f8201168201806040525081019061183091906148f2565b60fd60006101000a81548173ffffffffffffffffffffffffffffffffffffffff021916908373ffffffffffffffffffffffffffffffffffffffff16021790555050565b61187b61326e565b73ffffffffffffffffffffffffffffffffffffffff166118996115c9565b73ffffffffffffffffffffffffffffffffffffffff16146118ef576040517f08c379a00000000000000000000000000000000000000000000000000000000081526004016118e6906154e9565b60405180910390fd5b8060fe8190555050565b61190161326e565b73ffffffffffffffffffffffffffffffffffffffff1661191f6115c9565b73ffffffffffffffffffffffffffffffffffffffff1614611975576040517f08c379a000000000000000000000000000000000000000000000000000000000815260040161196c906154e9565b60405180910390fd5b670de0b6b3a76400008111156119c0576040517f08c379a00000000000000000000000000000000000000000000000000000000081526004016119b790615569565b60405180910390fd5b806101018190555050565b60608060008480421115611a14576040517f08c379a0000000000000000000000000000000000000000000000000000000008152600401611a0b906153c9565b60405180910390fd5b8760fb60009054906101000a900473ffffffffffffffffffffffffffffffffffffffff1673ffffffffffffffffffffffffffffffffffffffff1663a0f026ff826040518263ffffffff1660e01b8152600401611a709190615112565b60206040518083038186803b158015611a8857600080fd5b505afa158015611a9c573d6000803e3d6000fd5b505050506040513d601f19601f82011682018060405250810190611ac09190614b00565b611aff576040517f08c379a0000000000000000000000000000000000000000000000000000000008152600401611af690615429565b60405180910390fd5b60fb60009054906101000a900473ffffffffffffffffffffffffffffffffffffffff1673ffffffffffffffffffffffffffffffffffffffff16631441a5a96040518163ffffffff1660e01b815260040160206040518083038186803b158015611b6757600080fd5b505afa158015611b7b573d6000803e3d6000fd5b505050506040513d601f19601f82011682018060405250810190611b9f91906148f2565b73ffffffffffffffffffffffffffffffffffffffff16637543e3f033886040518363ffffffff1660e01b8152600401611bd992919061512d565b600060405180830381600087803b158015611bf357600080fd5b505af1158015611c07573d6000803e3d6000fd5b5050505060fb60009054906101000a900473ffffffffffffffffffffffffffffffffffffffff1673ffffffffffffffffffffffffffffffffffffffff1663294d499e6040518163ffffffff1660e01b815260040160006040518083038186803b158015611c7357600080fd5b505afa158015611c87573d6000803e3d6000fd5b505050506040513d6000823e3d601f19601f82011682018060405250810190611cb091906149d4565b9350835167ffffffffffffffff811115611cf3577f4e487b7100000000000000000000000000000000000000000000000000000000600052604160045260246000fd5b604051908082528060200260200182016040528015611d215781602001602082028036833780820191505090505b509450600092506000600467ffffffffffffffff811115611d6b577f4e487b7100000000000000000000000000000000000000000000000000000000600052604160045260246000fd5b604051908082528060200260200182016040528015611d995781602001602082028036833780820191505090505b50905060fb60009054906101000a900473ffffffffffffffffffffffffffffffffffffffff1673ffffffffffffffffffffffffffffffffffffffff1663d02641a08b6040518263ffffffff1660e01b8152600401611df79190615112565b60206040518083038186803b158015611e0f57600080fd5b505afa158015611e23573d6000803e3d6000fd5b505050506040513d601f19601f82011682018060405250810190611e479190614b52565b81600081518110611e81577f4e487b7100000000000000000000000000000000000000000000000000000000600052603260045260246000fd5b602002602001018181525050611f9d60fd60009054906101000a900473ffffffffffffffffffffffffffffffffffffffff1673ffffffffffffffffffffffffffffffffffffffff166380ef72a98c6040518263ffffffff1660e01b8152600401611eeb9190615112565b60206040518083038186803b158015611f0357600080fd5b505afa158015611f17573d6000803e3d6000fd5b505050506040513d601f19601f82011682018060405250810190611f3b9190614b52565b611f8f83600081518110611f78577f4e487b7100000000000000000000000000000000000000000000000000000000600052603260045260246000fd5b60200260200101518e61350990919063ffffffff16565b61351f90919063ffffffff16565b81600181518110611fd7577f4e487b7100000000000000000000000000000000000000000000000000000000600052603260045260246000fd5b60200260200101818152505060008160028151811061201f577f4e487b7100000000000000000000000000000000000000000000000000000000600052603260045260246000fd5b602002602001018181525050885181600381518110612067577f4e487b7100000000000000000000000000000000000000000000000000000000600052603260045260246000fd5b602002602001018181525050606060005b826003815181106120b2577f4e487b7100000000000000000000000000000000000000000000000000000000600052603260045260246000fd5b602002602001015181101561253257606060006121108f8f8f8681518110612103577f4e487b7100000000000000000000000000000000000000000000000000000000600052603260045260246000fd5b602002602001015161283d565b8093508194508296505050508085600281518110612157577f4e487b7100000000000000000000000000000000000000000000000000000000600052603260045260246000fd5b602002602001018181525050505060005b875181101561225c576122048382815181106121ad577f4e487b7100000000000000000000000000000000000000000000000000000000600052603260045260246000fd5b60200260200101518a83815181106121ee577f4e487b7100000000000000000000000000000000000000000000000000000000600052603260045260246000fd5b602002602001015161353590919063ffffffff16565b89828151811061223d577f4e487b7100000000000000000000000000000000000000000000000000000000600052603260045260246000fd5b602002602001018181525050808061225490615966565b915050612168565b5082600181518110612297577f4e487b7100000000000000000000000000000000000000000000000000000000600052603260045260246000fd5b6020026020010151836002815181106122d9577f4e487b7100000000000000000000000000000000000000000000000000000000600052603260045260246000fd5b6020026020010151116123805761237b83600281518110612323577f4e487b7100000000000000000000000000000000000000000000000000000000600052603260045260246000fd5b602002602001015184600181518110612365577f4e487b7100000000000000000000000000000000000000000000000000000000600052603260045260246000fd5b602002602001015161354b90919063ffffffff16565b612383565b60005b836001815181106123bd577f4e487b7100000000000000000000000000000000000000000000000000000000600052603260045260246000fd5b60200260200101818152505061241d83600281518110612406577f4e487b7100000000000000000000000000000000000000000000000000000000600052603260045260246000fd5b60200260200101518761353590919063ffffffff16565b955060008360018151811061245b577f4e487b7100000000000000000000000000000000000000000000000000000000600052603260045260246000fd5b6020026020010151141561246e57612532565b61251d836000815181106124ab577f4e487b7100000000000000000000000000000000000000000000000000000000600052603260045260246000fd5b602002602001015161250f670de0b6b3a7640000866001815181106124f9577f4e487b7100000000000000000000000000000000000000000000000000000000600052603260045260246000fd5b602002602001015161350990919063ffffffff16565b61351f90919063ffffffff16565b9c50808061252a90615966565b915050612078565b5050505050955095509592505050565b6000670de0b6b3a7640000851161258e576040517f08c379a000000000000000000000000000000000000000000000000000000000815260040161258590615509565b60405180910390fd5b8284106125d0576040517f08c379a00000000000000000000000000000000000000000000000000000000081526004016125c790615489565b60405180910390fd5b848210612612576040517f08c379a000000000000000000000000000000000000000000000000000000000815260040161260990615369565b60405180910390fd5b6000612653612632670de0b6b3a76400008661350990919063ffffffff16565b612645888861350990919063ffffffff16565b61354b90919063ffffffff16565b9050600061266a848861354b90919063ffffffff16565b905061267f818361351f90919063ffffffff16565b92505050949350505050565b60ff5481565b61269961326e565b73ffffffffffffffffffffffffffffffffffffffff166126b76115c9565b73ffffffffffffffffffffffffffffffffffffffff161461270d576040517f08c379a0000000000000000000000000000000000000000000000000000000008152600401612704906154e9565b60405180910390fd5b600073ffffffffffffffffffffffffffffffffffffffff168173ffffffffffffffffffffffffffffffffffffffff16141561277d576040517f08c379a0000000000000000000000000000000000000000000000000000000008152600401612774906153a9565b60405180910390fd5b8073ffffffffffffffffffffffffffffffffffffffff16609760009054906101000a900473ffffffffffffffffffffffffffffffffffffffff1673ffffffffffffffffffffffffffffffffffffffff167f8be0079c531659141344cd1fd0a4f28419497f9722a3daafe3b4186f6b6457e060405160405180910390a380609760006101000a81548173ffffffffffffffffffffffffffffffffffffffff021916908373ffffffffffffffffffffffffffffffffffffffff16021790555050565b606080600080868673ffffffffffffffffffffffffffffffffffffffff166370a08231336040518263ffffffff1660e01b815260040161287d9190615112565b60206040518083038186803b15801561289557600080fd5b505afa1580156128a9573d6000803e3d6000fd5b505050506040513d601f19601f820116820180604052508101906128cd9190614b52565b101561290e576040517f08c379a0000000000000000000000000000000000000000000000000000000008152600401612905906154a9565b60405180910390fd5b600061291a878761087e565b809350819250505060008111612965576040517f08c379a000000000000000000000000000000000000000000000000000000000815260040161295c906154a9565b60405180910390fd5b80881115612971578097505b8760fb60009054906101000a900473ffffffffffffffffffffffffffffffffffffffff1673ffffffffffffffffffffffffffffffffffffffff1663498b5ae8888a6040518363ffffffff1660e01b81526004016129cf92919061512d565b60206040518083038186803b1580156129e757600080fd5b505afa1580156129fb573d6000803e3d6000fd5b505050506040513d601f19601f82011682018060405250810190612a1f9190614b52565b1015612a60576040517f08c379a0000000000000000000000000000000000000000000000000000000008152600401612a57906154a9565b60405180910390fd5b5080612d4057612b42670de0b6b3a7640000612b346101005460fd60009054906101000a900473ffffffffffffffffffffffffffffffffffffffff1673ffffffffffffffffffffffffffffffffffffffff166364d321b78a8c6040518363ffffffff1660e01b8152600401612ad692919061512d565b60206040518083038186803b158015612aee57600080fd5b505afa158015612b02573d6000803e3d6000fd5b505050506040513d601f19601f82011682018060405250810190612b269190614b52565b61350990919063ffffffff16565b61351f90919063ffffffff16565b9150670de0b6b3a7640000821115612b8f576040517f08c379a0000000000000000000000000000000000000000000000000000000008152600401612b8690615569565b60405180910390fd5b6000612bc1670de0b6b3a7640000612bb3610101548661350990919063ffffffff16565b61351f90919063ffffffff16565b90506000811115612d3e5760fc60009054906101000a900473ffffffffffffffffffffffffffffffffffffffff1673ffffffffffffffffffffffffffffffffffffffff1663eb2266fc8760fb60009054906101000a900473ffffffffffffffffffffffffffffffffffffffff1673ffffffffffffffffffffffffffffffffffffffff1663ec94578e6040518163ffffffff1660e01b815260040160206040518083038186803b158015612c7357600080fd5b505afa158015612c87573d6000803e3d6000fd5b505050506040513d601f19601f82011682018060405250810190612cab91906148f2565b848b60016040518663ffffffff1660e01b8152600401612ccf9594939291906151e0565b600060405180830381600087803b158015612ce957600080fd5b505af1158015612cfd573d6000803e3d6000fd5b505050506040513d6000823e3d601f19601f82011682018060405250810190612d269190614a15565b5050612d3b818461354b90919063ffffffff16565b92505b505b612e4a6ec097ce7bc90715b34b9f1000000000612e3c612d71670de0b6b3a76400008661353590919063ffffffff16565b612e2e8b60fb60009054906101000a900473ffffffffffffffffffffffffffffffffffffffff1673ffffffffffffffffffffffffffffffffffffffff1663d02641a08d6040518263ffffffff1660e01b8152600401612dd09190615112565b60206040518083038186803b158015612de857600080fd5b505afa158015612dfc573d6000803e3d6000fd5b505050506040513d601f19601f82011682018060405250810190612e209190614b52565b61350990919063ffffffff16565b61350990919063ffffffff16565b61351f90919063ffffffff16565b9150600060fd60009054906101000a900473ffffffffffffffffffffffffffffffffffffffff1673ffffffffffffffffffffffffffffffffffffffff1663234ab3e28789866040518463ffffffff1660e01b8152600401612ead939291906151a9565b60006040518083038186803b158015612ec557600080fd5b505afa158015612ed9573d6000803e3d6000fd5b505050506040513d6000823e3d601f19601f82011682018060405250810190612f029190614a81565b80935081975082965050505080612f4e576040517f08c379a0000000000000000000000000000000000000000000000000000000008152600401612f4590615549565b60405180910390fd5b8673ffffffffffffffffffffffffffffffffffffffff16639dc29fac338a6040518363ffffffff1660e01b8152600401612f89929190615294565b600060405180830381600087803b158015612fa357600080fd5b505af1158015612fb7573d6000803e3d6000fd5b5050505060fb60009054906101000a900473ffffffffffffffffffffffffffffffffffffffff1673ffffffffffffffffffffffffffffffffffffffff1663877034f1878a8a60006040518563ffffffff1660e01b815260040161301d94939291906152bd565b600060405180830381600087803b15801561303757600080fd5b505af115801561304b573d6000803e3d6000fd5b505050505060008351905060005b818110156131d857600086828151811061309c577f4e487b7100000000000000000000000000000000000000000000000000000000600052603260045260246000fd5b602002602001015114156130af576131c5565b60fc60009054906101000a900473ffffffffffffffffffffffffffffffffffffffff1673ffffffffffffffffffffffffffffffffffffffff166358166d2488878481518110613127577f4e487b7100000000000000000000000000000000000000000000000000000000600052603260045260246000fd5b6020026020010151338a8681518110613169577f4e487b7100000000000000000000000000000000000000000000000000000000600052603260045260246000fd5b60200260200101518d6040518663ffffffff1660e01b8152600401613192959493929190615156565b600060405180830381600087803b1580156131ac57600080fd5b505af11580156131c0573d6000803e3d6000fd5b505050505b80806131d090615966565b915050613059565b508115613223577f2426307748198161cc6d888a254354d78b8e8a97610a53f1d4742a819010eb5c86888a8888604051613216959493929190615233565b60405180910390a1613263565b7f85801d8b70db8bdabd6c7f02c3cad017384b116cf25ca73238bba9a4d86bd1a386888a888860405161325a959493929190615233565b60405180910390a15b505093509350939050565b600033905090565b61327e61326e565b73ffffffffffffffffffffffffffffffffffffffff1661329c6115c9565b73ffffffffffffffffffffffffffffffffffffffff16146132f2576040517f08c379a00000000000000000000000000000000000000000000000000000000081526004016132e9906154e9565b60405180910390fd5b50565b60006132ff613eb1565b905061330a84613f08565b6000835111806133175750815b15613328576133268484613fc1565b505b60006133567f4910fdfa16fed3260ed0e7147f7cc6da11a60208b5b9406d12a635614ffd914360001b6140a5565b90508060000160009054906101000a900460ff166135025760018160000160006101000a81548160ff02191690831515021790555061342285836040516024016133a09190615112565b6040516020818303038152906040527f3659cfe6000000000000000000000000000000000000000000000000000000007bffffffffffffffffffffffffffffffffffffffffffffffffffffffff19166020820180517bffffffffffffffffffffffffffffffffffffffffffffffffffffffff8381831617835250505050613fc1565b5060008160000160006101000a81548160ff021916908315150217905550613448613eb1565b73ffffffffffffffffffffffffffffffffffffffff168273ffffffffffffffffffffffffffffffffffffffff16146134b5576040517f08c379a00000000000000000000000000000000000000000000000000000000081526004016134ac90615389565b60405180910390fd5b6134be85613f08565b8473ffffffffffffffffffffffffffffffffffffffff167fbc7cd75a20ee27fd9adebab32041f755214dbc6bffa90cc0225b39da2e5c2d3b60405160405180910390a25b5050505050565b60008183613517919061580b565b905092915050565b6000818361352d91906157da565b905092915050565b600081836135439190615784565b905092915050565b600081836135599190615865565b905092915050565b600060019054906101000a900460ff1680613587575060008054906101000a900460ff16155b6135c6576040517f08c379a00000000000000000000000000000000000000000000000000000000081526004016135bd90615469565b60405180910390fd5b60008060019054906101000a900460ff161590508015613616576001600060016101000a81548160ff02191690831515021790555060016000806101000a81548160ff0219169083151502179055505b61361e6140af565b613626614188565b80156136475760008060016101000a81548160ff0219169083151502179055505b50565b600060019054906101000a900460ff1680613670575060008054906101000a900460ff16155b6136af576040517f08c379a00000000000000000000000000000000000000000000000000000000081526004016136a690615469565b60405180910390fd5b60008060019054906101000a900460ff1615905080156136ff576001600060016101000a81548160ff02191690831515021790555060016000806101000a81548160ff0219169083151502179055505b613707614261565b61370f61433a565b80156137305760008060016101000a81548160ff0219169083151502179055505b50565b600060019054906101000a900460ff1680613759575060008054906101000a900460ff16155b613798576040517f08c379a000000000000000000000000000000000000000000000000000000000815260040161378f90615469565b60405180910390fd5b60008060019054906101000a900460ff1615905080156137e8576001600060016101000a81548160ff02191690831515021790555060016000806101000a81548160ff0219169083151502179055505b6137f06144bc565b80156138115760008060016101000a81548160ff0219169083151502179055505b50565b600060fb60009054906101000a900473ffffffffffffffffffffffffffffffffffffffff1673ffffffffffffffffffffffffffffffffffffffff166327ab02b96040518163ffffffff1660e01b815260040160206040518083038186803b15801561387e57600080fd5b505afa158015613892573d6000803e3d6000fd5b505050506040513d601f19601f820116820180604052508101906138b691906148f2565b90508073ffffffffffffffffffffffffffffffffffffffff163373ffffffffffffffffffffffffffffffffffffffff1614156138f257506139f3565b60006139a9670de0b6b3a764000061399b858573ffffffffffffffffffffffffffffffffffffffff1663883c95da896040518263ffffffff1660e01b815260040161393d9190615112565b60206040518083038186803b15801561395557600080fd5b505afa158015613969573d6000803e3d6000fd5b505050506040513d601f19601f8201168201806040525081019061398d9190614b52565b61350990919063ffffffff16565b61351f90919063ffffffff16565b905060ff548111156139f0576040517f08c379a00000000000000000000000000000000000000000000000000000000081526004016139e7906153e9565b60405180910390fd5b50505b5050565b6000613a2683613a18670de0b6b3a76400008561350990919063ffffffff16565b61351f90919063ffffffff16565b9050613a328585610ed0565b8111158015613a495750670de0b6b3a76400008110155b613a88576040517f08c379a0000000000000000000000000000000000000000000000000000000008152600401613a7f90615449565b60405180910390fd5b5050505050565b600080613b796064613b6b613ab0606460fe5461353590919063ffffffff16565b60fd60009054906101000a900473ffffffffffffffffffffffffffffffffffffffff1673ffffffffffffffffffffffffffffffffffffffff1663bcbe3f228d8d6040518363ffffffff1660e01b8152600401613b0d92919061512d565b60206040518083038186803b158015613b2557600080fd5b505afa158015613b39573d6000803e3d6000fd5b505050506040513d601f19601f82011682018060405250810190613b5d9190614b52565b61350990919063ffffffff16565b61351f90919063ffffffff16565b90506000613bc4670de0b6b3a7640000613bb689613ba8670de0b6b3a76400008b61350990919063ffffffff16565b61351f90919063ffffffff16565b61354b90919063ffffffff16565b905080851115613bd2578094505b613c2484613c16670de0b6b3a7640000613c08868c8c613c038d670de0b6b3a764000061353590919063ffffffff16565b612542565b61350990919063ffffffff16565b61351f90919063ffffffff16565b9250828873ffffffffffffffffffffffffffffffffffffffff166370a08231336040518263ffffffff1660e01b8152600401613c609190615112565b60206040518083038186803b158015613c7857600080fd5b505afa158015613c8c573d6000803e3d6000fd5b505050506040513d601f19601f82011682018060405250810190613cb09190614b52565b1015613cf1576040517f08c379a0000000000000000000000000000000000000000000000000000000008152600401613ce890615409565b60405180910390fd5b50509695505050505050565b6060806000613d0d85878961283d565b809350819550829450505050613d46670de0b6b3a7640000613d38868861350990919063ffffffff16565b61351f90919063ffffffff16565b8114613d7b577f4e487b7100000000000000000000000000000000000000000000000000000000600052600160045260246000fd5b5094509492505050565b606080613de1670de0b6b3a7640000613dd387613dc5670de0b6b3a7640000613db78c8b61350990919063ffffffff16565b61351f90919063ffffffff16565b61350990919063ffffffff16565b61351f90919063ffffffff16565b935060fc60009054906101000a900473ffffffffffffffffffffffffffffffffffffffff1673ffffffffffffffffffffffffffffffffffffffff1663eb2266fc8933878b60006040518663ffffffff1660e01b8152600401613e479594939291906151e0565b600060405180830381600087803b158015613e6157600080fd5b505af1158015613e75573d6000803e3d6000fd5b505050506040513d6000823e3d601f19601f82011682018060405250810190613e9e9190614a15565b8093508192505050509695505050505050565b6000613edf7f360894a13ba1a3210667c828492db98dca3e2076cc3735a920a3ca505d382bbc60001b61459d565b60000160009054906101000a900473ffffffffffffffffffffffffffffffffffffffff16905090565b613f11816145a7565b613f50576040517f08c379a0000000000000000000000000000000000000000000000000000000008152600401613f47906154c9565b60405180910390fd5b80613f7d7f360894a13ba1a3210667c828492db98dca3e2076cc3735a920a3ca505d382bbc60001b61459d565b60000160006101000a81548173ffffffffffffffffffffffffffffffffffffffff021916908373ffffffffffffffffffffffffffffffffffffffff16021790555050565b6060613fcc836145a7565b61400b576040517f08c379a000000000000000000000000000000000000000000000000000000000815260040161400290615529565b60405180910390fd5b6000808473ffffffffffffffffffffffffffffffffffffffff168460405161403391906150fb565b600060405180830381855af49150503d806000811461406e576040519150601f19603f3d011682016040523d82523d6000602084013e614073565b606091505b509150915061409b8282604051806060016040528060278152602001615e70602791396145ba565b9250505092915050565b6000819050919050565b600060019054906101000a900460ff16806140d5575060008054906101000a900460ff16155b614114576040517f08c379a000000000000000000000000000000000000000000000000000000000815260040161410b90615469565b60405180910390fd5b60008060019054906101000a900460ff161590508015614164576001600060016101000a81548160ff02191690831515021790555060016000806101000a81548160ff0219169083151502179055505b80156141855760008060016101000a81548160ff0219169083151502179055505b50565b600060019054906101000a900460ff16806141ae575060008054906101000a900460ff16155b6141ed576040517f08c379a00000000000000000000000000000000000000000000000000000000081526004016141e490615469565b60405180910390fd5b60008060019054906101000a900460ff16159050801561423d576001600060016101000a81548160ff02191690831515021790555060016000806101000a81548160ff0219169083151502179055505b801561425e5760008060016101000a81548160ff0219169083151502179055505b50565b600060019054906101000a900460ff1680614287575060008054906101000a900460ff16155b6142c6576040517f08c379a00000000000000000000000000000000000000000000000000000000081526004016142bd90615469565b60405180910390fd5b60008060019054906101000a900460ff161590508015614316576001600060016101000a81548160ff02191690831515021790555060016000806101000a81548160ff0219169083151502179055505b80156143375760008060016101000a81548160ff0219169083151502179055505b50565b600060019054906101000a900460ff1680614360575060008054906101000a900460ff16155b61439f576040517f08c379a000000000000000000000000000000000000000000000000000000000815260040161439690615469565b60405180910390fd5b60008060019054906101000a900460ff1615905080156143ef576001600060016101000a81548160ff02191690831515021790555060016000806101000a81548160ff0219169083151502179055505b60006143f961326e565b905080609760006101000a81548173ffffffffffffffffffffffffffffffffffffffff021916908373ffffffffffffffffffffffffffffffffffffffff1602179055508073ffffffffffffffffffffffffffffffffffffffff16600073ffffffffffffffffffffffffffffffffffffffff167f8be0079c531659141344cd1fd0a4f28419497f9722a3daafe3b4186f6b6457e060405160405180910390a35080156144b95760008060016101000a81548160ff0219169083151502179055505b50565b600060019054906101000a900460ff16806144e2575060008054906101000a900460ff16155b614521576040517f08c379a000000000000000000000000000000000000000000000000000000000815260040161451890615469565b60405180910390fd5b60008060019054906101000a900460ff161590508015614571576001600060016101000a81548160ff02191690831515021790555060016000806101000a81548160ff0219169083151502179055505b600160c981905550801561459a5760008060016101000a81548160ff0219169083151502179055505b50565b6000819050919050565b600080823b905060008111915050919050565b606083156145ca5782905061461a565b6000835111156145dd5782518084602001fd5b816040517f08c379a00000000000000000000000000000000000000000000000000000000081526004016146119190615347565b60405180910390fd5b9392505050565b600061463461462f84615657565b615632565b9050808382526020820190508285602086028201111561465357600080fd5b60005b85811015614683578161466988826147a3565b845260208401935060208301925050600181019050614656565b5050509392505050565b60006146a061469b84615657565b615632565b905080838252602082019050828560208602820111156146bf57600080fd5b60005b858110156146ef57816146d588826147b8565b8452602084019350602083019250506001810190506146c2565b5050509392505050565b600061470c61470784615683565b615632565b9050808382526020820190508285602086028201111561472b57600080fd5b60005b8581101561475b578161474188826148b4565b84526020840193506020830192505060018101905061472e565b5050509392505050565b6000614778614773846156af565b615632565b90508281526020810184848401111561479057600080fd5b61479b8482856158f3565b509392505050565b6000813590506147b281615e13565b92915050565b6000815190506147c781615e13565b92915050565b6000815190506147dc81615e2a565b92915050565b600082601f8301126147f357600080fd5b8135614803848260208601614621565b91505092915050565b600082601f83011261481d57600080fd5b815161482d84826020860161468d565b91505092915050565b600082601f83011261484757600080fd5b81516148578482602086016146f9565b91505092915050565b60008151905061486f81615e41565b92915050565b600082601f83011261488657600080fd5b8135614896848260208601614765565b91505092915050565b6000813590506148ae81615e58565b92915050565b6000815190506148c381615e58565b92915050565b6000602082840312156148db57600080fd5b60006148e9848285016147a3565b91505092915050565b60006020828403121561490457600080fd5b6000614912848285016147b8565b91505092915050565b60006020828403121561492d57600080fd5b600061493b848285016147cd565b91505092915050565b6000806040838503121561495757600080fd5b6000614965858286016147a3565b9250506020614976858286016147a3565b9150509250929050565b6000806040838503121561499357600080fd5b60006149a1858286016147a3565b925050602083013567ffffffffffffffff8111156149be57600080fd5b6149ca85828601614875565b9150509250929050565b6000602082840312156149e657600080fd5b600082015167ffffffffffffffff811115614a0057600080fd5b614a0c8482850161480c565b91505092915050565b60008060408385031215614a2857600080fd5b600083015167ffffffffffffffff811115614a4257600080fd5b614a4e8582860161480c565b925050602083015167ffffffffffffffff811115614a6b57600080fd5b614a7785828601614836565b9150509250929050565b600080600060608486031215614a9657600080fd5b600084015167ffffffffffffffff811115614ab057600080fd5b614abc8682870161480c565b935050602084015167ffffffffffffffff811115614ad957600080fd5b614ae586828701614836565b9250506040614af686828701614860565b9150509250925092565b600060208284031215614b1257600080fd5b6000614b2084828501614860565b91505092915050565b600060208284031215614b3b57600080fd5b6000614b498482850161489f565b91505092915050565b600060208284031215614b6457600080fd5b6000614b72848285016148b4565b91505092915050565b600080600080600060a08688031215614b9357600080fd5b6000614ba18882890161489f565b9550506020614bb2888289016147a3565b9450506040614bc3888289016147a3565b9350506060614bd48882890161489f565b9250506080614be5888289016147a3565b9150509295509295909350565b600080600080600060a08688031215614c0a57600080fd5b6000614c188882890161489f565b9550506020614c29888289016147a3565b945050604086013567ffffffffffffffff811115614c4657600080fd5b614c52888289016147e2565b9350506060614c638882890161489f565b9250506080614c74888289016147a3565b9150509295509295909350565b60008060008060808587031215614c9757600080fd5b6000614ca58782880161489f565b9450506020614cb68782880161489f565b9350506040614cc78782880161489f565b9250506060614cd88782880161489f565b91505092959194509250565b6000614cf08383614d14565b60208301905092915050565b6000614d0883836150dd565b60208301905092915050565b614d1d81615899565b82525050565b614d2c81615899565b82525050565b6000614d3d82615700565b614d478185615746565b9350614d52836156e0565b8060005b83811015614d83578151614d6a8882614ce4565b9750614d758361572c565b925050600181019050614d56565b5085935050505092915050565b6000614d9b8261570b565b614da58185615757565b9350614db0836156f0565b8060005b83811015614de1578151614dc88882614cfc565b9750614dd383615739565b925050600181019050614db4565b5085935050505092915050565b614df7816158bd565b82525050565b6000614e0882615716565b614e128185615768565b9350614e22818560208601615902565b80840191505092915050565b6000614e3982615721565b614e438185615773565b9350614e53818560208601615902565b614e5c81615a3c565b840191505092915050565b6000614e74600883615773565b9150614e7f82615a4d565b602082019050919050565b6000614e97602f83615773565b9150614ea282615a76565b604082019050919050565b6000614eba602683615773565b9150614ec582615ac5565b604082019050919050565b6000614edd602183615773565b9150614ee882615b14565b604082019050919050565b6000614f00600283615773565b9150614f0b82615b63565b602082019050919050565b6000614f23602083615773565b9150614f2e82615b8c565b602082019050919050565b6000614f46600283615773565b9150614f5182615bb5565b602082019050919050565b6000614f69600283615773565b9150614f7482615bde565b602082019050919050565b6000614f8c602e83615773565b9150614f9782615c07565b604082019050919050565b6000614faf601083615773565b9150614fba82615c56565b602082019050919050565b6000614fd2600283615773565b9150614fdd82615c7f565b602082019050919050565b6000614ff5602d83615773565b915061500082615ca8565b604082019050919050565b6000615018602083615773565b915061502382615cf7565b602082019050919050565b600061503b601183615773565b915061504682615d20565b602082019050919050565b600061505e602683615773565b915061506982615d49565b604082019050919050565b6000615081600283615773565b915061508c82615d98565b602082019050919050565b60006150a4600683615773565b91506150af82615dc1565b602082019050919050565b60006150c7601f83615773565b91506150d282615dea565b602082019050919050565b6150e6816158e9565b82525050565b6150f5816158e9565b82525050565b60006151078284614dfd565b915081905092915050565b60006020820190506151276000830184614d23565b92915050565b60006040820190506151426000830185614d23565b61514f6020830184614d23565b9392505050565b600060a08201905061516b6000830188614d23565b6151786020830187614d23565b6151856040830186614d23565b61519260608301856150ec565b61519f6080830184614d23565b9695505050505050565b60006060820190506151be6000830186614d23565b6151cb6020830185614d23565b6151d860408301846150ec565b949350505050565b600060a0820190506151f56000830188614d23565b6152026020830187614d23565b61520f60408301866150ec565b61521c6060830185614d23565b6152296080830184614dee565b9695505050505050565b600060a0820190506152486000830188614d23565b6152556020830187614d23565b61526260408301866150ec565b81810360608301526152748185614d90565b905081810360808301526152888184614d32565b90509695505050505050565b60006040820190506152a96000830185614d23565b6152b660208301846150ec565b9392505050565b60006080820190506152d26000830187614d23565b6152df60208301866150ec565b6152ec6040830185614d23565b6152f96060830184614dee565b95945050505050565b6000606082019050818103600083015261531c8186614d90565b905081810360208301526153308185614d32565b905061533f60408301846150ec565b949350505050565b600060208201905081810360008301526153618184614e2e565b905092915050565b6000602082019050818103600083015261538281614e67565b9050919050565b600060208201905081810360008301526153a281614e8a565b9050919050565b600060208201905081810360008301526153c281614ead565b9050919050565b600060208201905081810360008301526153e281614ed0565b9050919050565b6000602082019050818103600083015261540281614ef3565b9050919050565b6000602082019050818103600083015261542281614f16565b9050919050565b6000602082019050818103600083015261544281614f39565b9050919050565b6000602082019050818103600083015261546281614f5c565b9050919050565b6000602082019050818103600083015261548281614f7f565b9050919050565b600060208201905081810360008301526154a281614fa2565b9050919050565b600060208201905081810360008301526154c281614fc5565b9050919050565b600060208201905081810360008301526154e281614fe8565b9050919050565b600060208201905081810360008301526155028161500b565b9050919050565b600060208201905081810360008301526155228161502e565b9050919050565b6000602082019050818103600083015261554281615051565b9050919050565b6000602082019050818103600083015261556281615074565b9050919050565b6000602082019050818103600083015261558281615097565b9050919050565b600060208201905081810360008301526155a2816150ba565b9050919050565b60006020820190506155be60008301846150ec565b92915050565b60006060820190506155d960008301866150ec565b81810360208301526155eb8185614d32565b905081810360408301526155ff8184614d90565b9050949350505050565b600060408201905061561e60008301856150ec565b61562b6020830184614dee565b9392505050565b600061563c61564d565b90506156488282615935565b919050565b6000604051905090565b600067ffffffffffffffff82111561567257615671615a0d565b5b602082029050602081019050919050565b600067ffffffffffffffff82111561569e5761569d615a0d565b5b602082029050602081019050919050565b600067ffffffffffffffff8211156156ca576156c9615a0d565b5b6156d382615a3c565b9050602081019050919050565b6000819050602082019050919050565b6000819050602082019050919050565b600081519050919050565b600081519050919050565b600081519050919050565b600081519050919050565b6000602082019050919050565b6000602082019050919050565b600082825260208201905092915050565b600082825260208201905092915050565b600081905092915050565b600082825260208201905092915050565b600061578f826158e9565b915061579a836158e9565b9250827fffffffffffffffffffffffffffffffffffffffffffffffffffffffffffffffff038211156157cf576157ce6159af565b5b828201905092915050565b60006157e5826158e9565b91506157f0836158e9565b925082615800576157ff6159de565b5b828204905092915050565b6000615816826158e9565b9150615821836158e9565b9250817fffffffffffffffffffffffffffffffffffffffffffffffffffffffffffffffff048311821515161561585a576158596159af565b5b828202905092915050565b6000615870826158e9565b915061587b836158e9565b92508282101561588e5761588d6159af565b5b828203905092915050565b60006158a4826158c9565b9050919050565b60006158b6826158c9565b9050919050565b60008115159050919050565b600073ffffffffffffffffffffffffffffffffffffffff82169050919050565b6000819050919050565b82818337600083830152505050565b60005b83811015615920578082015181840152602081019050615905565b8381111561592f576000848401525b50505050565b61593e82615a3c565b810181811067ffffffffffffffff8211171561595d5761595c615a0d565b5b80604052505050565b6000615971826158e9565b91507fffffffffffffffffffffffffffffffffffffffffffffffffffffffffffffffff8214156159a4576159a36159af565b5b600182019050919050565b7f4e487b7100000000000000000000000000000000000000000000000000000000600052601160045260246000fd5b7f4e487b7100000000000000000000000000000000000000000000000000000000600052601260045260246000fd5b7f4e487b7100000000000000000000000000000000000000000000000000000000600052604160045260246000fd5b6000601f19601f8301169050919050565b7f5252203e3d204352000000000000000000000000000000000000000000000000600082015250565b7f45524331393637557067726164653a207570677261646520627265616b73206660008201527f7572746865722075706772616465730000000000000000000000000000000000602082015250565b7f4f776e61626c653a206e6577206f776e657220697320746865207a65726f206160008201527f6464726573730000000000000000000000000000000000000000000000000000602082015250565b7f5472616e73616374696f6e2068617320657863656564656420646561646c696e60008201527f6500000000000000000000000000000000000000000000000000000000000000602082015250565b7f4e57000000000000000000000000000000000000000000000000000000000000600082015250565b7f4c697175696461746f723a20696e73756666696369656e742062616c616e6365600082015250565b7f4946000000000000000000000000000000000000000000000000000000000000600082015250565b7f4352000000000000000000000000000000000000000000000000000000000000600082015250565b7f496e697469616c697a61626c653a20636f6e747261637420697320616c72656160008201527f647920696e697469616c697a6564000000000000000000000000000000000000602082015250565b7f496e76616c6964207661756c7420435200000000000000000000000000000000600082015250565b7f4941000000000000000000000000000000000000000000000000000000000000600082015250565b7f455243313936373a206e657720696d706c656d656e746174696f6e206973206e60008201527f6f74206120636f6e747261637400000000000000000000000000000000000000602082015250565b7f4f776e61626c653a2063616c6c6572206973206e6f7420746865206f776e6572600082015250565b7f496e76616c696420746172676574204352000000000000000000000000000000600082015250565b7f416464726573733a2064656c65676174652063616c6c20746f206e6f6e2d636f60008201527f6e74726163740000000000000000000000000000000000000000000000000000602082015250565b7f4341000000000000000000000000000000000000000000000000000000000000600082015250565b7f303c523c3d310000000000000000000000000000000000000000000000000000600082015250565b7f5265656e7472616e637947756172643a207265656e7472616e742063616c6c00600082015250565b615e1c81615899565b8114615e2757600080fd5b50565b615e33816158ab565b8114615e3e57600080fd5b50565b615e4a816158bd565b8114615e5557600080fd5b50565b615e61816158e9565b8114615e6c57600080fd5b5056fe416464726573733a206c6f772d6c6576656c2064656c65676174652063616c6c206661696c6564a26469706673582212208457f24aa593eba4d3eb0dbeaa338893c2be4f76fa4fc1f1d63d14e6dd2cd19b64736f6c63430008030033",
  "linkReferences": {},
  "deployedLinkReferences": {}
}