{
  "_format": "hh-sol-artifact-1",
  "contractName": "Liquidator",
  "sourceName": "contracts/Bank/Liquidator.sol",
  "abi": [
    {
      "anonymous": false,
      "inputs": [
        {
          "indexed": false,
          "internalType": "address",
          "name": "previousAdmin",
          "type": "address"
        },
        {
          "indexed": false,
          "internalType": "address",
          "name": "newAdmin",
          "type": "address"
        }
      ],
      "name": "AdminChanged",
      "type": "event"
    },
    {
      "anonymous": false,
      "inputs": [
        {
          "indexed": true,
          "internalType": "address",
          "name": "beacon",
          "type": "address"
        }
      ],
      "name": "BeaconUpgraded",
      "type": "event"
    },
    {
      "anonymous": false,
      "inputs": [
        {
          "indexed": false,
          "internalType": "address",
          "name": "from",
          "type": "address"
        },
        {
          "indexed": false,
          "internalType": "address",
          "name": "token",
          "type": "address"
        },
        {
          "indexed": false,
          "internalType": "uint256",
          "name": "tokenAmount",
          "type": "uint256"
        },
        {
          "indexed": false,
          "internalType": "uint256[]",
          "name": "collateralAmounts",
          "type": "uint256[]"
        },
        {
          "indexed": false,
          "internalType": "address[]",
          "name": "collateralTypes",
          "type": "address[]"
        }
      ],
      "name": "Liquidate",
      "type": "event"
    },
    {
      "anonymous": false,
      "inputs": [
        {
          "indexed": true,
          "internalType": "address",
          "name": "previousOwner",
          "type": "address"
        },
        {
          "indexed": true,
          "internalType": "address",
          "name": "newOwner",
          "type": "address"
        }
      ],
      "name": "OwnershipTransferred",
      "type": "event"
    },
    {
      "anonymous": false,
      "inputs": [
        {
          "indexed": false,
          "internalType": "address",
          "name": "from",
          "type": "address"
        },
        {
          "indexed": false,
          "internalType": "address",
          "name": "token",
          "type": "address"
        },
        {
          "indexed": false,
          "internalType": "uint256",
          "name": "tokenAmount",
          "type": "uint256"
        },
        {
          "indexed": false,
          "internalType": "uint256[]",
          "name": "collateralAmounts",
          "type": "uint256[]"
        },
        {
          "indexed": false,
          "internalType": "address[]",
          "name": "collateralTypes",
          "type": "address[]"
        }
      ],
      "name": "Redeem",
      "type": "event"
    },
    {
      "anonymous": false,
      "inputs": [
        {
          "indexed": true,
          "internalType": "address",
          "name": "implementation",
          "type": "address"
        }
      ],
      "name": "Upgraded",
      "type": "event"
    },
    {
      "inputs": [
        {
          "internalType": "uint256",
          "name": "amount",
          "type": "uint256"
        },
        {
          "internalType": "address",
          "name": "token",
          "type": "address"
        },
        {
          "internalType": "address",
          "name": "from",
          "type": "address"
        },
        {
          "internalType": "uint256",
          "name": "deadline",
          "type": "uint256"
        },
        {
          "internalType": "address",
          "name": "referral",
          "type": "address"
        }
      ],
      "name": "buyCollateral",
      "outputs": [
        {
          "internalType": "uint256[]",
          "name": "collateralAmounts",
          "type": "uint256[]"
        },
        {
          "internalType": "address[]",
          "name": "collateralTypes",
          "type": "address[]"
        },
        {
          "internalType": "uint256",
          "name": "etherAmount",
          "type": "uint256"
        }
      ],
      "stateMutability": "nonpayable",
      "type": "function"
    },
    {
      "inputs": [
        {
          "internalType": "uint256",
          "name": "amount",
          "type": "uint256"
        },
        {
          "internalType": "address",
          "name": "token",
          "type": "address"
        },
        {
          "internalType": "address[]",
          "name": "from",
          "type": "address[]"
        },
        {
          "internalType": "uint256",
          "name": "deadline",
          "type": "uint256"
        }
      ],
      "name": "buyCollateralFromManyVaults",
      "outputs": [
        {
          "internalType": "uint256[]",
          "name": "collateralAmounts",
          "type": "uint256[]"
        },
        {
          "internalType": "address[]",
          "name": "collateralTypes",
          "type": "address[]"
        },
        {
          "internalType": "uint256",
          "name": "etherAmount",
          "type": "uint256"
        }
      ],
      "stateMutability": "nonpayable",
      "type": "function"
    },
    {
      "inputs": [],
      "name": "crScalar",
      "outputs": [
        {
          "internalType": "uint256",
          "name": "",
          "type": "uint256"
        }
      ],
      "stateMutability": "view",
      "type": "function"
    },
    {
      "inputs": [
        {
          "internalType": "address",
          "name": "token",
          "type": "address"
        },
        {
          "internalType": "address",
          "name": "from",
          "type": "address"
        }
      ],
      "name": "getAllowedBuyCollateralFromTokenAmount",
      "outputs": [
        {
          "internalType": "uint256",
          "name": "allowedAmount",
          "type": "uint256"
        },
        {
          "internalType": "bool",
          "name": "isLiquidation",
          "type": "bool"
        }
      ],
      "stateMutability": "view",
      "type": "function"
    },
    {
      "inputs": [
        {
          "internalType": "address",
          "name": "account",
          "type": "address"
        },
        {
          "internalType": "address",
          "name": "fxToken",
          "type": "address"
        }
      ],
      "name": "getLiquidationRatio",
      "outputs": [
        {
          "internalType": "uint256",
          "name": "ratio",
          "type": "uint256"
        }
      ],
      "stateMutability": "view",
      "type": "function"
    },
    {
      "inputs": [],
      "name": "handle",
      "outputs": [
        {
          "internalType": "contract IHandle",
          "name": "",
          "type": "address"
        }
      ],
      "stateMutability": "view",
      "type": "function"
    },
    {
      "inputs": [],
      "name": "handleAddress",
      "outputs": [
        {
          "internalType": "address",
          "name": "",
          "type": "address"
        }
      ],
      "stateMutability": "view",
      "type": "function"
    },
    {
      "inputs": [],
      "name": "initialize",
      "outputs": [],
      "stateMutability": "nonpayable",
      "type": "function"
    },
    {
      "inputs": [
        {
          "internalType": "address",
          "name": "account",
          "type": "address"
        },
        {
          "internalType": "address",
          "name": "fxToken",
          "type": "address"
        }
      ],
      "name": "liquidate",
      "outputs": [
        {
          "internalType": "uint256",
          "name": "fxAmount",
          "type": "uint256"
        },
        {
          "internalType": "address[]",
          "name": "collateralTypes",
          "type": "address[]"
        },
        {
          "internalType": "uint256[]",
          "name": "collateralAmounts",
          "type": "uint256[]"
        }
      ],
      "stateMutability": "nonpayable",
      "type": "function"
    },
    {
      "inputs": [],
      "name": "keeperPoolThreshold",
      "outputs": [
        {
          "internalType": "uint256",
          "name": "",
          "type": "uint256"
        }
      ],
      "stateMutability": "view",
      "type": "function"
    },
    {
      "inputs": [
        {
          "internalType": "address",
          "name": "account",
          "type": "address"
        },
        {
          "internalType": "address",
          "name": "fxToken",
          "type": "address"
        }
      ],
      "name": "liquidate",
      "outputs": [
        {
          "internalType": "uint256",
          "name": "fxAmount",
          "type": "uint256"
        },
        {
          "internalType": "address[]",
          "name": "collateralTypes",
          "type": "address[]"
        },
        {
          "internalType": "uint256[]",
          "name": "collateralAmounts",
          "type": "uint256[]"
        }
      ],
      "stateMutability": "nonpayable",
      "type": "function"
    },
    {
      "inputs": [],
      "name": "owner",
      "outputs": [
        {
          "internalType": "address",
          "name": "",
          "type": "address"
        }
      ],
      "stateMutability": "view",
      "type": "function"
    },
    {
      "inputs": [],
      "name": "redemptionFeeRatio",
      "outputs": [
        {
          "internalType": "uint256",
          "name": "",
          "type": "uint256"
        }
      ],
      "stateMutability": "view",
      "type": "function"
    },
    {
      "inputs": [],
      "name": "renounceOwnership",
      "outputs": [],
      "stateMutability": "nonpayable",
      "type": "function"
    },
    {
      "inputs": [
        {
          "internalType": "uint256",
          "name": "value",
          "type": "uint256"
        }
      ],
      "name": "setCrScalar",
      "outputs": [],
      "stateMutability": "nonpayable",
      "type": "function"
    },
    {
      "inputs": [
        {
          "internalType": "address",
          "name": "_handle",
          "type": "address"
        }
      ],
      "name": "setHandleContract",
      "outputs": [],
      "stateMutability": "nonpayable",
      "type": "function"
    },
    {
      "inputs": [
        {
          "internalType": "uint256",
          "name": "amount",
          "type": "uint256"
        }
      ],
      "name": "setKeeperPoolThreshold",
      "outputs": [],
      "stateMutability": "nonpayable",
      "type": "function"
    },
    {
      "inputs": [
        {
          "internalType": "uint256",
          "name": "ratio",
          "type": "uint256"
        }
      ],
      "name": "setRedemptionFeeRatio",
      "outputs": [],
      "stateMutability": "nonpayable",
      "type": "function"
    },
    {
      "inputs": [
        {
          "internalType": "uint256",
          "name": "crTarget",
          "type": "uint256"
        },
        {
          "internalType": "uint256",
          "name": "debt",
          "type": "uint256"
        },
        {
          "internalType": "uint256",
          "name": "collateral",
          "type": "uint256"
        },
        {
          "internalType": "uint256",
          "name": "returnRatio",
          "type": "uint256"
        }
      ],
      "name": "tokensRequiredForCrIncrease",
      "outputs": [
        {
          "internalType": "uint256",
          "name": "amount",
          "type": "uint256"
        }
      ],
      "stateMutability": "pure",
      "type": "function"
    },
    {
      "inputs": [
        {
          "internalType": "address",
          "name": "newOwner",
          "type": "address"
        }
      ],
      "name": "transferOwnership",
      "outputs": [],
      "stateMutability": "nonpayable",
      "type": "function"
    },
    {
      "inputs": [
        {
          "internalType": "address",
          "name": "newImplementation",
          "type": "address"
        }
      ],
      "name": "upgradeTo",
      "outputs": [],
      "stateMutability": "nonpayable",
      "type": "function"
    },
    {
      "inputs": [
        {
          "internalType": "address",
          "name": "newImplementation",
          "type": "address"
        },
        {
          "internalType": "bytes",
          "name": "data",
          "type": "bytes"
        }
      ],
      "name": "upgradeToAndCall",
      "outputs": [],
      "stateMutability": "payable",
      "type": "function"
    }
  ],
  "bytecode": "0x608060405234801561001057600080fd5b50615b7880620000216000396000f3fe60806040526004361061012a5760003560e01c80638129fc1c116100ab5780639b1c414f1161006f5780639b1c414f146103d8578063bc8f795f14610401578063db17174e1461042a578063eb9cd9d014610467578063f2fde38b14610492578063fd0da099146104bb5761012a565b80638129fc1c146103035780638150c6f41461031a578063853993901461034557806386b9d81f1461036e5780638da5cb5b146103ad5761012a565b80633ffd9208116100f25780633ffd9208146102295780634f1ef28614610268578063715018a61461028457806374bf578b1461029b5780637630a69c146102c65761012a565b806317d9eca21461012f5780631a8ce0421461015a5780633288e015146101995780633659cfe6146101c25780633a037336146101eb575b600080fd5b34801561013b57600080fd5b506101446104e6565b6040516101519190615231565b60405180910390f35b34801561016657600080fd5b50610181600480360381019061017c91906147ed565b6104ec565b60405161019093929190614f6f565b60405180910390f35b3480156101a557600080fd5b506101c060048036038101906101bb919061479b565b61074a565b005b3480156101ce57600080fd5b506101e960048036038101906101e4919061453b565b61081c565b005b3480156101f757600080fd5b50610212600480360381019061020d91906145b6565b610843565b604051610220929190615291565b60405180910390f35b34801561023557600080fd5b50610250600480360381019061024b9190614864565b610d15565b60405161025f93929190614f6f565b60405180910390f35b610282600480360381019061027d91906145f2565b61177f565b005b34801561029057600080fd5b50610299611798565b005b3480156102a757600080fd5b506102b06118d5565b6040516102bd9190614d7f565b60405180910390f35b3480156102d257600080fd5b506102ed60048036038101906102e891906145b6565b6118ff565b6040516102fa9190615231565b60405180910390f35b34801561030f57600080fd5b50610318611a1c565b005b34801561032657600080fd5b5061032f611b0d565b60405161033c9190615231565b60405180910390f35b34801561035157600080fd5b5061036c6004803603810190610367919061479b565b611b14565b005b34801561037a57600080fd5b50610395600480360381019061039091906145b6565b611b9a565b6040516103a49392919061524c565b60405180910390f35b3480156103b957600080fd5b506103c2611ff8565b6040516103cf9190614d7f565b60405180910390f35b3480156103e457600080fd5b506103ff60048036038101906103fa919061453b565b612022565b005b34801561040d57600080fd5b506104286004803603810190610423919061479b565b6122a2565b005b34801561043657600080fd5b50610451600480360381019061044c91906148df565b612328565b60405161045e9190615231565b60405180910390f35b34801561047357600080fd5b5061047c612471565b6040516104899190615231565b60405180910390f35b34801561049e57600080fd5b506104b960048036038101906104b4919061453b565b612477565b005b3480156104c757600080fd5b506104d0612623565b6040516104dd9190614fb4565b60405180910390f35b60fe5481565b60608060008480421115610535576040517f08c379a000000000000000000000000000000000000000000000000000000000815260040161052c90615051565b60405180910390fd5b8760fb60009054906101000a900473ffffffffffffffffffffffffffffffffffffffff1673ffffffffffffffffffffffffffffffffffffffff1663a0f026ff826040518263ffffffff1660e01b81526004016105919190614d7f565b60206040518083038186803b1580156105a957600080fd5b505afa1580156105bd573d6000803e3d6000fd5b505050506040513d601f19601f820116820180604052508101906105e19190614772565b610620576040517f08c379a0000000000000000000000000000000000000000000000000000000008152600401610617906150b1565b60405180910390fd5b60fb60009054906101000a900473ffffffffffffffffffffffffffffffffffffffff1673ffffffffffffffffffffffffffffffffffffffff16631441a5a96040518163ffffffff1660e01b815260040160206040518083038186803b15801561068857600080fd5b505afa15801561069c573d6000803e3d6000fd5b505050506040513d601f19601f820116820180604052508101906106c09190614564565b73ffffffffffffffffffffffffffffffffffffffff16637543e3f033886040518363ffffffff1660e01b81526004016106fa929190614d9a565b600060405180830381600087803b15801561071457600080fd5b505af1158015610728573d6000803e3d6000fd5b505050506107378a8a8a612649565b9450945094505050955095509592505050565b610752612ee0565b73ffffffffffffffffffffffffffffffffffffffff16610770611ff8565b73ffffffffffffffffffffffffffffffffffffffff16146107c6576040517f08c379a00000000000000000000000000000000000000000000000000000000081526004016107bd90615171565b60405180910390fd5b670de0b6b3a7640000811115610811576040517f08c379a0000000000000000000000000000000000000000000000000000000008152600401610808906151f1565b60405180910390fd5b806101008190555050565b61082581612ee8565b61084081604051806020016040528060008152506000612f67565b50565b600080600060fd60009054906101000a900473ffffffffffffffffffffffffffffffffffffffff1673ffffffffffffffffffffffffffffffffffffffff1663bcbe3f2285876040518363ffffffff1660e01b81526004016108a5929190614d9a565b60206040518083038186803b1580156108bd57600080fd5b505afa1580156108d1573d6000803e3d6000fd5b505050506040513d601f19601f820116820180604052508101906108f591906147c4565b9050600060fd60009054906101000a900473ffffffffffffffffffffffffffffffffffffffff1673ffffffffffffffffffffffffffffffffffffffff1663db3fabeb86886040518363ffffffff1660e01b8152600401610956929190614d9a565b60206040518083038186803b15801561096e57600080fd5b505afa158015610982573d6000803e3d6000fd5b505050506040513d601f19601f820116820180604052508101906109a691906147c4565b9050600060fd60009054906101000a900473ffffffffffffffffffffffffffffffffffffffff1673ffffffffffffffffffffffffffffffffffffffff16634c90f22987896040518363ffffffff1660e01b8152600401610a07929190614d9a565b60206040518083038186803b158015610a1f57600080fd5b505afa158015610a33573d6000803e3d6000fd5b505050506040513d601f19601f82011682018060405250810190610a5791906147c4565b90506000610a8883610a7a670de0b6b3a76400008561317b90919063ffffffff16565b61319190919063ffffffff16565b9050838110610acc576040517f08c379a0000000000000000000000000000000000000000000000000000000008152600401610ac3906150d1565b60405180910390fd5b6000670de0b6b3a76400009050610ae3888a6118ff565b82111595508515610c1c57610b296064610b1b610b0c606460fe546131a790919063ffffffff16565b8861317b90919063ffffffff16565b61319190919063ffffffff16565b9450600060fd60009054906101000a900473ffffffffffffffffffffffffffffffffffffffff1673ffffffffffffffffffffffffffffffffffffffff166364d321b78a8c6040518363ffffffff1660e01b8152600401610b8a929190614d9a565b60206040518083038186803b158015610ba257600080fd5b505afa158015610bb6573d6000803e3d6000fd5b505050506040513d601f19601f82011682018060405250810190610bda91906147c4565b9050610bf7670de0b6b3a7640000846131bd90919063ffffffff16565b811115610c045782610c18565b610c1781836131a790919063ffffffff16565b5b9150505b610c2885858584612328565b9650600060fb60009054906101000a900473ffffffffffffffffffffffffffffffffffffffff1673ffffffffffffffffffffffffffffffffffffffff1663d02641a08b6040518263ffffffff1660e01b8152600401610c879190614d7f565b60206040518083038186803b158015610c9f57600080fd5b505afa158015610cb3573d6000803e3d6000fd5b505050506040513d601f19601f82011682018060405250810190610cd791906147c4565b9050610d0681610cf8670de0b6b3a76400008b61317b90919063ffffffff16565b61319190919063ffffffff16565b97505050505050509250929050565b60608060008380421115610d5e576040517f08c379a0000000000000000000000000000000000000000000000000000000008152600401610d5590615051565b60405180910390fd5b8660fb60009054906101000a900473ffffffffffffffffffffffffffffffffffffffff1673ffffffffffffffffffffffffffffffffffffffff1663a0f026ff826040518263ffffffff1660e01b8152600401610dba9190614d7f565b60206040518083038186803b158015610dd257600080fd5b505afa158015610de6573d6000803e3d6000fd5b505050506040513d601f19601f82011682018060405250810190610e0a9190614772565b610e49576040517f08c379a0000000000000000000000000000000000000000000000000000000008152600401610e40906150b1565b60405180910390fd5b60fb60009054906101000a900473ffffffffffffffffffffffffffffffffffffffff1673ffffffffffffffffffffffffffffffffffffffff1663294d499e6040518163ffffffff1660e01b815260040160006040518083038186803b158015610eb157600080fd5b505afa158015610ec5573d6000803e3d6000fd5b505050506040513d6000823e3d601f19601f82011682018060405250810190610eee9190614646565b9350835167ffffffffffffffff811115610f31577f4e487b7100000000000000000000000000000000000000000000000000000000600052604160045260246000fd5b604051908082528060200260200182016040528015610f5f5781602001602082028036833780820191505090505b509450600092506000600467ffffffffffffffff811115610fa9577f4e487b7100000000000000000000000000000000000000000000000000000000600052604160045260246000fd5b604051908082528060200260200182016040528015610fd75781602001602082028036833780820191505090505b50905060fb60009054906101000a900473ffffffffffffffffffffffffffffffffffffffff1673ffffffffffffffffffffffffffffffffffffffff1663d02641a08a6040518263ffffffff1660e01b81526004016110359190614d7f565b60206040518083038186803b15801561104d57600080fd5b505afa158015611061573d6000803e3d6000fd5b505050506040513d601f19601f8201168201806040525081019061108591906147c4565b816000815181106110bf577f4e487b7100000000000000000000000000000000000000000000000000000000600052603260045260246000fd5b6020026020010181815250506111db60fd60009054906101000a900473ffffffffffffffffffffffffffffffffffffffff1673ffffffffffffffffffffffffffffffffffffffff166380ef72a98b6040518263ffffffff1660e01b81526004016111299190614d7f565b60206040518083038186803b15801561114157600080fd5b505afa158015611155573d6000803e3d6000fd5b505050506040513d601f19601f8201168201806040525081019061117991906147c4565b6111cd836000815181106111b6577f4e487b7100000000000000000000000000000000000000000000000000000000600052603260045260246000fd5b60200260200101518d61317b90919063ffffffff16565b61319190919063ffffffff16565b81600181518110611215577f4e487b7100000000000000000000000000000000000000000000000000000000600052603260045260246000fd5b60200260200101818152505060008160028151811061125d577f4e487b7100000000000000000000000000000000000000000000000000000000600052603260045260246000fd5b6020026020010181815250508751816003815181106112a5577f4e487b7100000000000000000000000000000000000000000000000000000000600052603260045260246000fd5b602002602001018181525050606060005b826003815181106112f0577f4e487b7100000000000000000000000000000000000000000000000000000000600052603260045260246000fd5b6020026020010151811015611770576060600061134e8e8e8e8681518110611341577f4e487b7100000000000000000000000000000000000000000000000000000000600052603260045260246000fd5b6020026020010151612649565b8093508194508296505050508085600281518110611395577f4e487b7100000000000000000000000000000000000000000000000000000000600052603260045260246000fd5b602002602001018181525050505060005b875181101561149a576114428382815181106113eb577f4e487b7100000000000000000000000000000000000000000000000000000000600052603260045260246000fd5b60200260200101518a838151811061142c577f4e487b7100000000000000000000000000000000000000000000000000000000600052603260045260246000fd5b60200260200101516131a790919063ffffffff16565b89828151811061147b577f4e487b7100000000000000000000000000000000000000000000000000000000600052603260045260246000fd5b602002602001018181525050808061149290615612565b9150506113a6565b50826001815181106114d5577f4e487b7100000000000000000000000000000000000000000000000000000000600052603260045260246000fd5b602002602001015183600281518110611517577f4e487b7100000000000000000000000000000000000000000000000000000000600052603260045260246000fd5b6020026020010151116115be576115b983600281518110611561577f4e487b7100000000000000000000000000000000000000000000000000000000600052603260045260246000fd5b6020026020010151846001815181106115a3577f4e487b7100000000000000000000000000000000000000000000000000000000600052603260045260246000fd5b60200260200101516131bd90919063ffffffff16565b6115c1565b60005b836001815181106115fb577f4e487b7100000000000000000000000000000000000000000000000000000000600052603260045260246000fd5b60200260200101818152505061165b83600281518110611644577f4e487b7100000000000000000000000000000000000000000000000000000000600052603260045260246000fd5b6020026020010151876131a790919063ffffffff16565b9550600083600181518110611699577f4e487b7100000000000000000000000000000000000000000000000000000000600052603260045260246000fd5b602002602001015114156116ac57611770565b61175b836000815181106116e9577f4e487b7100000000000000000000000000000000000000000000000000000000600052603260045260246000fd5b602002602001015161174d670de0b6b3a764000086600181518110611737577f4e487b7100000000000000000000000000000000000000000000000000000000600052603260045260246000fd5b602002602001015161317b90919063ffffffff16565b61319190919063ffffffff16565b9b50808061176890615612565b9150506112b6565b50505050509450945094915050565b61178882612ee8565b61179482826001612f67565b5050565b6117a0612ee0565b73ffffffffffffffffffffffffffffffffffffffff166117be611ff8565b73ffffffffffffffffffffffffffffffffffffffff1614611814576040517f08c379a000000000000000000000000000000000000000000000000000000000815260040161180b90615171565b60405180910390fd5b600073ffffffffffffffffffffffffffffffffffffffff16609760009054906101000a900473ffffffffffffffffffffffffffffffffffffffff1673ffffffffffffffffffffffffffffffffffffffff167f8be0079c531659141344cd1fd0a4f28419497f9722a3daafe3b4186f6b6457e060405160405180910390a36000609760006101000a81548173ffffffffffffffffffffffffffffffffffffffff021916908373ffffffffffffffffffffffffffffffffffffffff160217905550565b600060fb60009054906101000a900473ffffffffffffffffffffffffffffffffffffffff16905090565b60006119d460646119c6605060fd60009054906101000a900473ffffffffffffffffffffffffffffffffffffffff1673ffffffffffffffffffffffffffffffffffffffff1663bcbe3f2288886040518363ffffffff1660e01b8152600401611968929190614d9a565b60206040518083038186803b15801561198057600080fd5b505afa158015611994573d6000803e3d6000fd5b505050506040513d601f19601f820116820180604052508101906119b891906147c4565b61317b90919063ffffffff16565b61319190919063ffffffff16565b90506000611a0760646119f9606e670de0b6b3a764000061317b90919063ffffffff16565b61319190919063ffffffff16565b905080821015611a15578091505b5092915050565b600060019054906101000a900460ff1680611a42575060008054906101000a900460ff16155b611a81576040517f08c379a0000000000000000000000000000000000000000000000000000000008152600401611a78906150f1565b60405180910390fd5b60008060019054906101000a900460ff161590508015611ad1576001600060016101000a81548160ff02191690831515021790555060016000806101000a81548160ff0219169083151502179055505b611ad96131d3565b611ae16132bc565b611ae96133a5565b8015611b0a5760008060016101000a81548160ff0219169083151502179055505b50565b6101005481565b611b1c612ee0565b73ffffffffffffffffffffffffffffffffffffffff16611b3a611ff8565b73ffffffffffffffffffffffffffffffffffffffff1614611b90576040517f08c379a0000000000000000000000000000000000000000000000000000000008152600401611b8790615171565b60405180910390fd5b8060ff8190555050565b60006060808360fb60009054906101000a900473ffffffffffffffffffffffffffffffffffffffff1673ffffffffffffffffffffffffffffffffffffffff1663a0f026ff826040518263ffffffff1660e01b8152600401611bfb9190614d7f565b60206040518083038186803b158015611c1357600080fd5b505afa158015611c27573d6000803e3d6000fd5b505050506040513d601f19601f82011682018060405250810190611c4b9190614772565b611c8a576040517f08c379a0000000000000000000000000000000000000000000000000000000008152600401611c81906150b1565b60405180910390fd5b600260c9541415611cd0576040517f08c379a0000000000000000000000000000000000000000000000000000000008152600401611cc790615211565b60405180910390fd5b600260c981905550600060fb60009054906101000a900473ffffffffffffffffffffffffffffffffffffffff1673ffffffffffffffffffffffffffffffffffffffff1663d02641a0876040518263ffffffff1660e01b8152600401611d359190614d7f565b60206040518083038186803b158015611d4d57600080fd5b505afa158015611d61573d6000803e3d6000fd5b505050506040513d601f19601f82011682018060405250810190611d8591906147c4565b9050611d918682613486565b600060fd60009054906101000a900473ffffffffffffffffffffffffffffffffffffffff1673ffffffffffffffffffffffffffffffffffffffff1663db3fabeb89896040518363ffffffff1660e01b8152600401611df0929190614d9a565b60206040518083038186803b158015611e0857600080fd5b505afa158015611e1c573d6000803e3d6000fd5b505050506040513d601f19601f82011682018060405250810190611e4091906147c4565b9050600060fd60009054906101000a900473ffffffffffffffffffffffffffffffffffffffff1673ffffffffffffffffffffffffffffffffffffffff16634c90f2298a8a6040518363ffffffff1660e01b8152600401611ea1929190614d9a565b60206040518083038186803b158015611eb957600080fd5b505afa158015611ecd573d6000803e3d6000fd5b505050506040513d601f19601f82011682018060405250810190611ef191906147c4565b9050611eff89898484613669565b600060fd60009054906101000a900473ffffffffffffffffffffffffffffffffffffffff1673ffffffffffffffffffffffffffffffffffffffff166364d321b78b8b6040518363ffffffff1660e01b8152600401611f5e929190614d9a565b60206040518083038186803b158015611f7657600080fd5b505afa158015611f8a573d6000803e3d6000fd5b505050506040513d601f19601f82011682018060405250810190611fae91906147c4565b9050611fbe8a8a85858589613701565b9750611fcc8a8a8a8761396f565b8097508198505050611fe28a8a83878c8c6139f7565b955050505050600160c981905550509250925092565b6000609760009054906101000a900473ffffffffffffffffffffffffffffffffffffffff16905090565b61202a612ee0565b73ffffffffffffffffffffffffffffffffffffffff16612048611ff8565b73ffffffffffffffffffffffffffffffffffffffff161461209e576040517f08c379a000000000000000000000000000000000000000000000000000000000815260040161209590615171565b60405180910390fd5b8060fb60006101000a81548173ffffffffffffffffffffffffffffffffffffffff021916908373ffffffffffffffffffffffffffffffffffffffff16021790555060fb60009054906101000a900473ffffffffffffffffffffffffffffffffffffffff1673ffffffffffffffffffffffffffffffffffffffff166361d027b36040518163ffffffff1660e01b815260040160206040518083038186803b15801561214757600080fd5b505afa15801561215b573d6000803e3d6000fd5b505050506040513d601f19601f8201168201806040525081019061217f919061458d565b60fc60006101000a81548173ffffffffffffffffffffffffffffffffffffffff021916908373ffffffffffffffffffffffffffffffffffffffff16021790555060fb60009054906101000a900473ffffffffffffffffffffffffffffffffffffffff1673ffffffffffffffffffffffffffffffffffffffff1663eb0a8b916040518163ffffffff1660e01b815260040160206040518083038186803b15801561222757600080fd5b505afa15801561223b573d6000803e3d6000fd5b505050506040513d601f19601f8201168201806040525081019061225f9190614564565b60fd60006101000a81548173ffffffffffffffffffffffffffffffffffffffff021916908373ffffffffffffffffffffffffffffffffffffffff16021790555050565b6122aa612ee0565b73ffffffffffffffffffffffffffffffffffffffff166122c8611ff8565b73ffffffffffffffffffffffffffffffffffffffff161461231e576040517f08c379a000000000000000000000000000000000000000000000000000000000815260040161231590615171565b60405180910390fd5b8060fe8190555050565b6000670de0b6b3a76400008511612374576040517f08c379a000000000000000000000000000000000000000000000000000000000815260040161236b90615191565b60405180910390fd5b8284106123b6576040517f08c379a00000000000000000000000000000000000000000000000000000000081526004016123ad90615111565b60405180910390fd5b8482106123f8576040517f08c379a00000000000000000000000000000000000000000000000000000000081526004016123ef90614ff1565b60405180910390fd5b6000612439612418670de0b6b3a76400008661317b90919063ffffffff16565b61242b888861317b90919063ffffffff16565b6131bd90919063ffffffff16565b9050600061245084886131bd90919063ffffffff16565b9050612465818361319190919063ffffffff16565b92505050949350505050565b60ff5481565b61247f612ee0565b73ffffffffffffffffffffffffffffffffffffffff1661249d611ff8565b73ffffffffffffffffffffffffffffffffffffffff16146124f3576040517f08c379a00000000000000000000000000000000000000000000000000000000081526004016124ea90615171565b60405180910390fd5b600073ffffffffffffffffffffffffffffffffffffffff168173ffffffffffffffffffffffffffffffffffffffff161415612563576040517f08c379a000000000000000000000000000000000000000000000000000000000815260040161255a90615031565b60405180910390fd5b8073ffffffffffffffffffffffffffffffffffffffff16609760009054906101000a900473ffffffffffffffffffffffffffffffffffffffff1673ffffffffffffffffffffffffffffffffffffffff167f8be0079c531659141344cd1fd0a4f28419497f9722a3daafe3b4186f6b6457e060405160405180910390a380609760006101000a81548173ffffffffffffffffffffffffffffffffffffffff021916908373ffffffffffffffffffffffffffffffffffffffff16021790555050565b60fb60009054906101000a900473ffffffffffffffffffffffffffffffffffffffff1681565b606080600080670de0b6b3a76400009150868673ffffffffffffffffffffffffffffffffffffffff166370a08231336040518263ffffffff1660e01b81526004016126949190614d7f565b60206040518083038186803b1580156126ac57600080fd5b505afa1580156126c0573d6000803e3d6000fd5b505050506040513d601f19601f820116820180604052508101906126e491906147c4565b1015612725576040517f08c379a000000000000000000000000000000000000000000000000000000000815260040161271c90615131565b60405180910390fd5b60006127318787610843565b80935081925050506000811161277c576040517f08c379a000000000000000000000000000000000000000000000000000000000815260040161277390615131565b60405180910390fd5b80881115612788578097505b8760fb60009054906101000a900473ffffffffffffffffffffffffffffffffffffffff1673ffffffffffffffffffffffffffffffffffffffff1663498b5ae8888a6040518363ffffffff1660e01b81526004016127e6929190614d9a565b60206040518083038186803b1580156127fe57600080fd5b505afa158015612812573d6000803e3d6000fd5b505050506040513d601f19601f8201168201806040525081019061283691906147c4565b1015612877576040517f08c379a000000000000000000000000000000000000000000000000000000000815260040161286e90615131565b60405180910390fd5b50806129b95761296b8261295d670de0b6b3a764000061294f6101005460fd60009054906101000a900473ffffffffffffffffffffffffffffffffffffffff1673ffffffffffffffffffffffffffffffffffffffff166364d321b78c8e6040518363ffffffff1660e01b81526004016128f1929190614d9a565b60206040518083038186803b15801561290957600080fd5b505afa15801561291d573d6000803e3d6000fd5b505050506040513d601f19601f8201168201806040525081019061294191906147c4565b61317b90919063ffffffff16565b61319190919063ffffffff16565b6131a790919063ffffffff16565b9150671bc16d674ec800008211156129b8576040517f08c379a00000000000000000000000000000000000000000000000000000000081526004016129af906151f1565b60405180910390fd5b5b612abc670de0b6b3a7640000612aae670de0b6b3a7640000612aa086612a928d60fb60009054906101000a900473ffffffffffffffffffffffffffffffffffffffff1673ffffffffffffffffffffffffffffffffffffffff1663d02641a08f6040518263ffffffff1660e01b8152600401612a349190614d7f565b60206040518083038186803b158015612a4c57600080fd5b505afa158015612a60573d6000803e3d6000fd5b505050506040513d601f19601f82011682018060405250810190612a8491906147c4565b61317b90919063ffffffff16565b61317b90919063ffffffff16565b61319190919063ffffffff16565b61319190919063ffffffff16565b9150600060fd60009054906101000a900473ffffffffffffffffffffffffffffffffffffffff1673ffffffffffffffffffffffffffffffffffffffff1663234ab3e28789866040518463ffffffff1660e01b8152600401612b1f93929190614e16565b60006040518083038186803b158015612b3757600080fd5b505afa158015612b4b573d6000803e3d6000fd5b505050506040513d6000823e3d601f19601f82011682018060405250810190612b7491906146f3565b80935081975082965050505080612bc0576040517f08c379a0000000000000000000000000000000000000000000000000000000008152600401612bb7906151d1565b60405180910390fd5b8673ffffffffffffffffffffffffffffffffffffffff16639dc29fac338a6040518363ffffffff1660e01b8152600401612bfb929190614f01565b600060405180830381600087803b158015612c1557600080fd5b505af1158015612c29573d6000803e3d6000fd5b5050505060fb60009054906101000a900473ffffffffffffffffffffffffffffffffffffffff1673ffffffffffffffffffffffffffffffffffffffff1663877034f1878a8a60006040518563ffffffff1660e01b8152600401612c8f9493929190614f2a565b600060405180830381600087803b158015612ca957600080fd5b505af1158015612cbd573d6000803e3d6000fd5b505050505060008351905060005b81811015612e4a576000868281518110612d0e577f4e487b7100000000000000000000000000000000000000000000000000000000600052603260045260246000fd5b60200260200101511415612d2157612e37565b60fc60009054906101000a900473ffffffffffffffffffffffffffffffffffffffff1673ffffffffffffffffffffffffffffffffffffffff166358166d2488878481518110612d99577f4e487b7100000000000000000000000000000000000000000000000000000000600052603260045260246000fd5b6020026020010151338a8681518110612ddb577f4e487b7100000000000000000000000000000000000000000000000000000000600052603260045260246000fd5b60200260200101518d6040518663ffffffff1660e01b8152600401612e04959493929190614dc3565b600060405180830381600087803b158015612e1e57600080fd5b505af1158015612e32573d6000803e3d6000fd5b505050505b8080612e4290615612565b915050612ccb565b508115612e95577f2426307748198161cc6d888a254354d78b8e8a97610a53f1d4742a819010eb5c86888a8888604051612e88959493929190614ea0565b60405180910390a1612ed5565b7f85801d8b70db8bdabd6c7f02c3cad017384b116cf25ca73238bba9a4d86bd1a386888a8888604051612ecc959493929190614ea0565b60405180910390a15b505093509350939050565b600033905090565b612ef0612ee0565b73ffffffffffffffffffffffffffffffffffffffff16612f0e611ff8565b73ffffffffffffffffffffffffffffffffffffffff1614612f64576040517f08c379a0000000000000000000000000000000000000000000000000000000008152600401612f5b90615171565b60405180910390fd5b50565b6000612f71613b23565b9050612f7c84613b7a565b600083511180612f895750815b15612f9a57612f988484613c33565b505b6000612fc87f4910fdfa16fed3260ed0e7147f7cc6da11a60208b5b9406d12a635614ffd914360001b613d17565b90508060000160009054906101000a900460ff166131745760018160000160006101000a81548160ff02191690831515021790555061309485836040516024016130129190614d7f565b6040516020818303038152906040527f3659cfe6000000000000000000000000000000000000000000000000000000007bffffffffffffffffffffffffffffffffffffffffffffffffffffffff19166020820180517bffffffffffffffffffffffffffffffffffffffffffffffffffffffff8381831617835250505050613c33565b5060008160000160006101000a81548160ff0219169083151502179055506130ba613b23565b73ffffffffffffffffffffffffffffffffffffffff168273ffffffffffffffffffffffffffffffffffffffff1614613127576040517f08c379a000000000000000000000000000000000000000000000000000000000815260040161311e90615011565b60405180910390fd5b61313085613b7a565b8473ffffffffffffffffffffffffffffffffffffffff167fbc7cd75a20ee27fd9adebab32041f755214dbc6bffa90cc0225b39da2e5c2d3b60405160405180910390a25b5050505050565b600081836131899190615493565b905092915050565b6000818361319f9190615462565b905092915050565b600081836131b5919061540c565b905092915050565b600081836131cb91906154ed565b905092915050565b600060019054906101000a900460ff16806131f9575060008054906101000a900460ff16155b613238576040517f08c379a000000000000000000000000000000000000000000000000000000000815260040161322f906150f1565b60405180910390fd5b60008060019054906101000a900460ff161590508015613288576001600060016101000a81548160ff02191690831515021790555060016000806101000a81548160ff0219169083151502179055505b613290613d21565b613298613dfa565b80156132b95760008060016101000a81548160ff0219169083151502179055505b50565b600060019054906101000a900460ff16806132e2575060008054906101000a900460ff16155b613321576040517f08c379a0000000000000000000000000000000000000000000000000000000008152600401613318906150f1565b60405180910390fd5b60008060019054906101000a900460ff161590508015613371576001600060016101000a81548160ff02191690831515021790555060016000806101000a81548160ff0219169083151502179055505b613379613ed3565b613381613fac565b80156133a25760008060016101000a81548160ff0219169083151502179055505b50565b600060019054906101000a900460ff16806133cb575060008054906101000a900460ff16155b61340a576040517f08c379a0000000000000000000000000000000000000000000000000000000008152600401613401906150f1565b60405180910390fd5b60008060019054906101000a900460ff16159050801561345a576001600060016101000a81548160ff02191690831515021790555060016000806101000a81548160ff0219169083151502179055505b61346261412e565b80156134835760008060016101000a81548160ff0219169083151502179055505b50565b600060fb60009054906101000a900473ffffffffffffffffffffffffffffffffffffffff1673ffffffffffffffffffffffffffffffffffffffff166327ab02b96040518163ffffffff1660e01b815260040160206040518083038186803b1580156134f057600080fd5b505afa158015613504573d6000803e3d6000fd5b505050506040513d601f19601f820116820180604052508101906135289190614564565b90508073ffffffffffffffffffffffffffffffffffffffff163373ffffffffffffffffffffffffffffffffffffffff1614156135645750613665565b600061361b670de0b6b3a764000061360d858573ffffffffffffffffffffffffffffffffffffffff1663883c95da896040518263ffffffff1660e01b81526004016135af9190614d7f565b60206040518083038186803b1580156135c757600080fd5b505afa1580156135db573d6000803e3d6000fd5b505050506040513d601f19601f820116820180604052508101906135ff91906147c4565b61317b90919063ffffffff16565b61319190919063ffffffff16565b905060ff54811115613662576040517f08c379a000000000000000000000000000000000000000000000000000000000815260040161365990615071565b60405180910390fd5b50505b5050565b60006136988361368a670de0b6b3a76400008561317b90919063ffffffff16565b61319190919063ffffffff16565b90506136a485856118ff565b81111580156136bb5750670de0b6b3a76400008110155b6136fa576040517f08c379a00000000000000000000000000000000000000000000000000000000081526004016136f1906150d1565b60405180910390fd5b5050505050565b6000806137eb60646137dd613722606460fe546131a790919063ffffffff16565b60fd60009054906101000a900473ffffffffffffffffffffffffffffffffffffffff1673ffffffffffffffffffffffffffffffffffffffff1663bcbe3f228d8d6040518363ffffffff1660e01b815260040161377f929190614d9a565b60206040518083038186803b15801561379757600080fd5b505afa1580156137ab573d6000803e3d6000fd5b505050506040513d601f19601f820116820180604052508101906137cf91906147c4565b61317b90919063ffffffff16565b61319190919063ffffffff16565b90506000613836670de0b6b3a76400006138288961381a670de0b6b3a76400008b61317b90919063ffffffff16565b61319190919063ffffffff16565b6131bd90919063ffffffff16565b905080851115613844578094505b61389684613888670de0b6b3a764000061387a868c8c6138758d670de0b6b3a76400006131a790919063ffffffff16565b612328565b61317b90919063ffffffff16565b61319190919063ffffffff16565b9250828873ffffffffffffffffffffffffffffffffffffffff166370a08231336040518263ffffffff1660e01b81526004016138d29190614d7f565b60206040518083038186803b1580156138ea57600080fd5b505afa1580156138fe573d6000803e3d6000fd5b505050506040513d601f19601f8201168201806040525081019061392291906147c4565b1015613963576040517f08c379a000000000000000000000000000000000000000000000000000000000815260040161395a90615091565b60405180910390fd5b50509695505050505050565b606080600061397f858789612649565b8093508195508294505050506139b8670de0b6b3a76400006139aa868861317b90919063ffffffff16565b61319190919063ffffffff16565b81146139ed577f4e487b7100000000000000000000000000000000000000000000000000000000600052600160045260246000fd5b5094509492505050565b606080613a53670de0b6b3a7640000613a4587613a37670de0b6b3a7640000613a298c8b61317b90919063ffffffff16565b61319190919063ffffffff16565b61317b90919063ffffffff16565b61319190919063ffffffff16565b935060fc60009054906101000a900473ffffffffffffffffffffffffffffffffffffffff1673ffffffffffffffffffffffffffffffffffffffff1663eb2266fc8933878b60006040518663ffffffff1660e01b8152600401613ab9959493929190614e4d565b600060405180830381600087803b158015613ad357600080fd5b505af1158015613ae7573d6000803e3d6000fd5b505050506040513d6000823e3d601f19601f82011682018060405250810190613b109190614687565b8093508192505050509695505050505050565b6000613b517f360894a13ba1a3210667c828492db98dca3e2076cc3735a920a3ca505d382bbc60001b61420f565b60000160009054906101000a900473ffffffffffffffffffffffffffffffffffffffff16905090565b613b8381614219565b613bc2576040517f08c379a0000000000000000000000000000000000000000000000000000000008152600401613bb990615151565b60405180910390fd5b80613bef7f360894a13ba1a3210667c828492db98dca3e2076cc3735a920a3ca505d382bbc60001b61420f565b60000160006101000a81548173ffffffffffffffffffffffffffffffffffffffff021916908373ffffffffffffffffffffffffffffffffffffffff16021790555050565b6060613c3e83614219565b613c7d576040517f08c379a0000000000000000000000000000000000000000000000000000000008152600401613c74906151b1565b60405180910390fd5b6000808473ffffffffffffffffffffffffffffffffffffffff1684604051613ca59190614d68565b600060405180830381855af49150503d8060008114613ce0576040519150601f19603f3d011682016040523d82523d6000602084013e613ce5565b606091505b5091509150613d0d8282604051806060016040528060278152602001615b1c6027913961422c565b9250505092915050565b6000819050919050565b600060019054906101000a900460ff1680613d47575060008054906101000a900460ff16155b613d86576040517f08c379a0000000000000000000000000000000000000000000000000000000008152600401613d7d906150f1565b60405180910390fd5b60008060019054906101000a900460ff161590508015613dd6576001600060016101000a81548160ff02191690831515021790555060016000806101000a81548160ff0219169083151502179055505b8015613df75760008060016101000a81548160ff0219169083151502179055505b50565b600060019054906101000a900460ff1680613e20575060008054906101000a900460ff16155b613e5f576040517f08c379a0000000000000000000000000000000000000000000000000000000008152600401613e56906150f1565b60405180910390fd5b60008060019054906101000a900460ff161590508015613eaf576001600060016101000a81548160ff02191690831515021790555060016000806101000a81548160ff0219169083151502179055505b8015613ed05760008060016101000a81548160ff0219169083151502179055505b50565b600060019054906101000a900460ff1680613ef9575060008054906101000a900460ff16155b613f38576040517f08c379a0000000000000000000000000000000000000000000000000000000008152600401613f2f906150f1565b60405180910390fd5b60008060019054906101000a900460ff161590508015613f88576001600060016101000a81548160ff02191690831515021790555060016000806101000a81548160ff0219169083151502179055505b8015613fa95760008060016101000a81548160ff0219169083151502179055505b50565b600060019054906101000a900460ff1680613fd2575060008054906101000a900460ff16155b614011576040517f08c379a0000000000000000000000000000000000000000000000000000000008152600401614008906150f1565b60405180910390fd5b60008060019054906101000a900460ff161590508015614061576001600060016101000a81548160ff02191690831515021790555060016000806101000a81548160ff0219169083151502179055505b600061406b612ee0565b905080609760006101000a81548173ffffffffffffffffffffffffffffffffffffffff021916908373ffffffffffffffffffffffffffffffffffffffff1602179055508073ffffffffffffffffffffffffffffffffffffffff16600073ffffffffffffffffffffffffffffffffffffffff167f8be0079c531659141344cd1fd0a4f28419497f9722a3daafe3b4186f6b6457e060405160405180910390a350801561412b5760008060016101000a81548160ff0219169083151502179055505b50565b600060019054906101000a900460ff1680614154575060008054906101000a900460ff16155b614193576040517f08c379a000000000000000000000000000000000000000000000000000000000815260040161418a906150f1565b60405180910390fd5b60008060019054906101000a900460ff1615905080156141e3576001600060016101000a81548160ff02191690831515021790555060016000806101000a81548160ff0219169083151502179055505b600160c981905550801561420c5760008060016101000a81548160ff0219169083151502179055505b50565b6000819050919050565b600080823b905060008111915050919050565b6060831561423c5782905061428c565b60008351111561424f5782518084602001fd5b816040517f08c379a00000000000000000000000000000000000000000000000000000000081526004016142839190614fcf565b60405180910390fd5b9392505050565b60006142a66142a1846152df565b6152ba565b905080838252602082019050828560208602820111156142c557600080fd5b60005b858110156142f557816142db8882614415565b8452602084019350602083019250506001810190506142c8565b5050509392505050565b600061431261430d846152df565b6152ba565b9050808382526020820190508285602086028201111561433157600080fd5b60005b858110156143615781614347888261442a565b845260208401935060208301925050600181019050614334565b5050509392505050565b600061437e6143798461530b565b6152ba565b9050808382526020820190508285602086028201111561439d57600080fd5b60005b858110156143cd57816143b38882614526565b8452602084019350602083019250506001810190506143a0565b5050509392505050565b60006143ea6143e584615337565b6152ba565b90508281526020810184848401111561440257600080fd5b61440d84828561559f565b509392505050565b60008135905061442481615abf565b92915050565b60008151905061443981615abf565b92915050565b60008151905061444e81615ad6565b92915050565b600082601f83011261446557600080fd5b8135614475848260208601614293565b91505092915050565b600082601f83011261448f57600080fd5b815161449f8482602086016142ff565b91505092915050565b600082601f8301126144b957600080fd5b81516144c984826020860161436b565b91505092915050565b6000815190506144e181615aed565b92915050565b600082601f8301126144f857600080fd5b81356145088482602086016143d7565b91505092915050565b60008135905061452081615b04565b92915050565b60008151905061453581615b04565b92915050565b60006020828403121561454d57600080fd5b600061455b84828501614415565b91505092915050565b60006020828403121561457657600080fd5b60006145848482850161442a565b91505092915050565b60006020828403121561459f57600080fd5b60006145ad8482850161443f565b91505092915050565b600080604083850312156145c957600080fd5b60006145d785828601614415565b92505060206145e885828601614415565b9150509250929050565b6000806040838503121561460557600080fd5b600061461385828601614415565b925050602083013567ffffffffffffffff81111561463057600080fd5b61463c858286016144e7565b9150509250929050565b60006020828403121561465857600080fd5b600082015167ffffffffffffffff81111561467257600080fd5b61467e8482850161447e565b91505092915050565b6000806040838503121561469a57600080fd5b600083015167ffffffffffffffff8111156146b457600080fd5b6146c08582860161447e565b925050602083015167ffffffffffffffff8111156146dd57600080fd5b6146e9858286016144a8565b9150509250929050565b60008060006060848603121561470857600080fd5b600084015167ffffffffffffffff81111561472257600080fd5b61472e8682870161447e565b935050602084015167ffffffffffffffff81111561474b57600080fd5b614757868287016144a8565b9250506040614768868287016144d2565b9150509250925092565b60006020828403121561478457600080fd5b6000614792848285016144d2565b91505092915050565b6000602082840312156147ad57600080fd5b60006147bb84828501614511565b91505092915050565b6000602082840312156147d657600080fd5b60006147e484828501614526565b91505092915050565b600080600080600060a0868803121561480557600080fd5b600061481388828901614511565b955050602061482488828901614415565b945050604061483588828901614415565b935050606061484688828901614511565b925050608061485788828901614415565b9150509295509295909350565b6000806000806080858703121561487a57600080fd5b600061488887828801614511565b945050602061489987828801614415565b935050604085013567ffffffffffffffff8111156148b657600080fd5b6148c287828801614454565b92505060606148d387828801614511565b91505092959194509250565b600080600080608085870312156148f557600080fd5b600061490387828801614511565b945050602061491487828801614511565b935050604061492587828801614511565b925050606061493687828801614511565b91505092959194509250565b600061494e8383614972565b60208301905092915050565b60006149668383614d4a565b60208301905092915050565b61497b81615521565b82525050565b61498a81615521565b82525050565b600061499b82615388565b6149a581856153ce565b93506149b083615368565b8060005b838110156149e15781516149c88882614942565b97506149d3836153b4565b9250506001810190506149b4565b5085935050505092915050565b60006149f982615393565b614a0381856153df565b9350614a0e83615378565b8060005b83811015614a3f578151614a26888261495a565b9750614a31836153c1565b925050600181019050614a12565b5085935050505092915050565b614a5581615545565b82525050565b6000614a668261539e565b614a7081856153f0565b9350614a808185602086016155ae565b80840191505092915050565b614a958161557b565b82525050565b6000614aa6826153a9565b614ab081856153fb565b9350614ac08185602086016155ae565b614ac9816156e8565b840191505092915050565b6000614ae16008836153fb565b9150614aec826156f9565b602082019050919050565b6000614b04602f836153fb565b9150614b0f82615722565b604082019050919050565b6000614b276026836153fb565b9150614b3282615771565b604082019050919050565b6000614b4a6021836153fb565b9150614b55826157c0565b604082019050919050565b6000614b6d6002836153fb565b9150614b788261580f565b602082019050919050565b6000614b906020836153fb565b9150614b9b82615838565b602082019050919050565b6000614bb36002836153fb565b9150614bbe82615861565b602082019050919050565b6000614bd66002836153fb565b9150614be18261588a565b602082019050919050565b6000614bf9602e836153fb565b9150614c04826158b3565b604082019050919050565b6000614c1c6010836153fb565b9150614c2782615902565b602082019050919050565b6000614c3f6002836153fb565b9150614c4a8261592b565b602082019050919050565b6000614c62602d836153fb565b9150614c6d82615954565b604082019050919050565b6000614c856020836153fb565b9150614c90826159a3565b602082019050919050565b6000614ca86011836153fb565b9150614cb3826159cc565b602082019050919050565b6000614ccb6026836153fb565b9150614cd6826159f5565b604082019050919050565b6000614cee6002836153fb565b9150614cf982615a44565b602082019050919050565b6000614d116006836153fb565b9150614d1c82615a6d565b602082019050919050565b6000614d34601f836153fb565b9150614d3f82615a96565b602082019050919050565b614d5381615571565b82525050565b614d6281615571565b82525050565b6000614d748284614a5b565b915081905092915050565b6000602082019050614d946000830184614981565b92915050565b6000604082019050614daf6000830185614981565b614dbc6020830184614981565b9392505050565b600060a082019050614dd86000830188614981565b614de56020830187614981565b614df26040830186614981565b614dff6060830185614d59565b614e0c6080830184614981565b9695505050505050565b6000606082019050614e2b6000830186614981565b614e386020830185614981565b614e456040830184614d59565b949350505050565b600060a082019050614e626000830188614981565b614e6f6020830187614981565b614e7c6040830186614d59565b614e896060830185614981565b614e966080830184614a4c565b9695505050505050565b600060a082019050614eb56000830188614981565b614ec26020830187614981565b614ecf6040830186614d59565b8181036060830152614ee181856149ee565b90508181036080830152614ef58184614990565b90509695505050505050565b6000604082019050614f166000830185614981565b614f236020830184614d59565b9392505050565b6000608082019050614f3f6000830187614981565b614f4c6020830186614d59565b614f596040830185614981565b614f666060830184614a4c565b95945050505050565b60006060820190508181036000830152614f8981866149ee565b90508181036020830152614f9d8185614990565b9050614fac6040830184614d59565b949350505050565b6000602082019050614fc96000830184614a8c565b92915050565b60006020820190508181036000830152614fe98184614a9b565b905092915050565b6000602082019050818103600083015261500a81614ad4565b9050919050565b6000602082019050818103600083015261502a81614af7565b9050919050565b6000602082019050818103600083015261504a81614b1a565b9050919050565b6000602082019050818103600083015261506a81614b3d565b9050919050565b6000602082019050818103600083015261508a81614b60565b9050919050565b600060208201905081810360008301526150aa81614b83565b9050919050565b600060208201905081810360008301526150ca81614ba6565b9050919050565b600060208201905081810360008301526150ea81614bc9565b9050919050565b6000602082019050818103600083015261510a81614bec565b9050919050565b6000602082019050818103600083015261512a81614c0f565b9050919050565b6000602082019050818103600083015261514a81614c32565b9050919050565b6000602082019050818103600083015261516a81614c55565b9050919050565b6000602082019050818103600083015261518a81614c78565b9050919050565b600060208201905081810360008301526151aa81614c9b565b9050919050565b600060208201905081810360008301526151ca81614cbe565b9050919050565b600060208201905081810360008301526151ea81614ce1565b9050919050565b6000602082019050818103600083015261520a81614d04565b9050919050565b6000602082019050818103600083015261522a81614d27565b9050919050565b60006020820190506152466000830184614d59565b92915050565b60006060820190506152616000830186614d59565b81810360208301526152738185614990565b9050818103604083015261528781846149ee565b9050949350505050565b60006040820190506152a66000830185614d59565b6152b36020830184614a4c565b9392505050565b60006152c46152d5565b90506152d082826155e1565b919050565b6000604051905090565b600067ffffffffffffffff8211156152fa576152f96156b9565b5b602082029050602081019050919050565b600067ffffffffffffffff821115615326576153256156b9565b5b602082029050602081019050919050565b600067ffffffffffffffff821115615352576153516156b9565b5b61535b826156e8565b9050602081019050919050565b6000819050602082019050919050565b6000819050602082019050919050565b600081519050919050565b600081519050919050565b600081519050919050565b600081519050919050565b6000602082019050919050565b6000602082019050919050565b600082825260208201905092915050565b600082825260208201905092915050565b600081905092915050565b600082825260208201905092915050565b600061541782615571565b915061542283615571565b9250827fffffffffffffffffffffffffffffffffffffffffffffffffffffffffffffffff038211156154575761545661565b565b5b828201905092915050565b600061546d82615571565b915061547883615571565b9250826154885761548761568a565b5b828204905092915050565b600061549e82615571565b91506154a983615571565b9250817fffffffffffffffffffffffffffffffffffffffffffffffffffffffffffffffff04831182151516156154e2576154e161565b565b5b828202905092915050565b60006154f882615571565b915061550383615571565b9250828210156155165761551561565b565b5b828203905092915050565b600061552c82615551565b9050919050565b600061553e82615551565b9050919050565b60008115159050919050565b600073ffffffffffffffffffffffffffffffffffffffff82169050919050565b6000819050919050565b60006155868261558d565b9050919050565b600061559882615551565b9050919050565b82818337600083830152505050565b60005b838110156155cc5780820151818401526020810190506155b1565b838111156155db576000848401525b50505050565b6155ea826156e8565b810181811067ffffffffffffffff82111715615609576156086156b9565b5b80604052505050565b600061561d82615571565b91507fffffffffffffffffffffffffffffffffffffffffffffffffffffffffffffffff8214156156505761564f61565b565b5b600182019050919050565b7f4e487b7100000000000000000000000000000000000000000000000000000000600052601160045260246000fd5b7f4e487b7100000000000000000000000000000000000000000000000000000000600052601260045260246000fd5b7f4e487b7100000000000000000000000000000000000000000000000000000000600052604160045260246000fd5b6000601f19601f8301169050919050565b7f5252203e3d204352000000000000000000000000000000000000000000000000600082015250565b7f45524331393637557067726164653a207570677261646520627265616b73206660008201527f7572746865722075706772616465730000000000000000000000000000000000602082015250565b7f4f776e61626c653a206e6577206f776e657220697320746865207a65726f206160008201527f6464726573730000000000000000000000000000000000000000000000000000602082015250565b7f5472616e73616374696f6e2068617320657863656564656420646561646c696e60008201527f6500000000000000000000000000000000000000000000000000000000000000602082015250565b7f4e57000000000000000000000000000000000000000000000000000000000000600082015250565b7f4c697175696461746f723a20696e73756666696369656e742062616c616e6365600082015250565b7f4946000000000000000000000000000000000000000000000000000000000000600082015250565b7f4352000000000000000000000000000000000000000000000000000000000000600082015250565b7f496e697469616c697a61626c653a20636f6e747261637420697320616c72656160008201527f647920696e697469616c697a6564000000000000000000000000000000000000602082015250565b7f496e76616c6964207661756c7420435200000000000000000000000000000000600082015250565b7f4941000000000000000000000000000000000000000000000000000000000000600082015250565b7f455243313936373a206e657720696d706c656d656e746174696f6e206973206e60008201527f6f74206120636f6e747261637400000000000000000000000000000000000000602082015250565b7f4f776e61626c653a2063616c6c6572206973206e6f7420746865206f776e6572600082015250565b7f496e76616c696420746172676574204352000000000000000000000000000000600082015250565b7f416464726573733a2064656c65676174652063616c6c20746f206e6f6e2d636f60008201527f6e74726163740000000000000000000000000000000000000000000000000000602082015250565b7f4341000000000000000000000000000000000000000000000000000000000000600082015250565b7f303c523c3d310000000000000000000000000000000000000000000000000000600082015250565b7f5265656e7472616e637947756172643a207265656e7472616e742063616c6c00600082015250565b615ac881615521565b8114615ad357600080fd5b50565b615adf81615533565b8114615aea57600080fd5b50565b615af681615545565b8114615b0157600080fd5b50565b615b0d81615571565b8114615b1857600080fd5b5056fe416464726573733a206c6f772d6c6576656c2064656c65676174652063616c6c206661696c6564a26469706673582212204f6ba1b3649f3ad3f9aadba32a4570f98d4e77598a1bf8523465b1b9b1828e3764736f6c63430008030033",
  "linkReferences": {},
  "deployedLinkReferences": {}
}