{
  "_format": "hh-sol-artifact-1",
  "contractName": "Treasury",
  "sourceName": "contracts/Bank/Treasury.sol",
  "abi": [
    {
      "anonymous": false,
      "inputs": [
        {
          "indexed": false,
          "internalType": "address",
          "name": "previousAdmin",
          "type": "address"
        },
        {
          "indexed": false,
          "internalType": "address",
          "name": "newAdmin",
          "type": "address"
        }
      ],
      "name": "AdminChanged",
      "type": "event"
    },
    {
      "anonymous": false,
      "inputs": [
        {
          "indexed": true,
          "internalType": "address",
          "name": "beacon",
          "type": "address"
        }
      ],
      "name": "BeaconUpgraded",
      "type": "event"
    },
    {
      "anonymous": false,
      "inputs": [
        {
          "indexed": true,
          "internalType": "bytes32",
          "name": "role",
          "type": "bytes32"
        },
        {
          "indexed": true,
          "internalType": "bytes32",
          "name": "previousAdminRole",
          "type": "bytes32"
        },
        {
          "indexed": true,
          "internalType": "bytes32",
          "name": "newAdminRole",
          "type": "bytes32"
        }
      ],
      "name": "RoleAdminChanged",
      "type": "event"
    },
    {
      "anonymous": false,
      "inputs": [
        {
          "indexed": true,
          "internalType": "bytes32",
          "name": "role",
          "type": "bytes32"
        },
        {
          "indexed": true,
          "internalType": "address",
          "name": "account",
          "type": "address"
        },
        {
          "indexed": true,
          "internalType": "address",
          "name": "sender",
          "type": "address"
        }
      ],
      "name": "RoleGranted",
      "type": "event"
    },
    {
      "anonymous": false,
      "inputs": [
        {
          "indexed": true,
          "internalType": "bytes32",
          "name": "role",
          "type": "bytes32"
        },
        {
          "indexed": true,
          "internalType": "address",
          "name": "account",
          "type": "address"
        },
        {
          "indexed": true,
          "internalType": "address",
          "name": "sender",
          "type": "address"
        }
      ],
      "name": "RoleRevoked",
      "type": "event"
    },
    {
      "anonymous": false,
      "inputs": [
        {
          "indexed": true,
          "internalType": "address",
          "name": "implementation",
          "type": "address"
        }
      ],
      "name": "Upgraded",
      "type": "event"
    },
    {
      "inputs": [],
      "name": "ADMIN_ROLE",
      "outputs": [
        {
          "internalType": "bytes32",
          "name": "",
          "type": "bytes32"
        }
      ],
      "stateMutability": "view",
      "type": "function"
    },
    {
      "inputs": [],
      "name": "DEFAULT_ADMIN_ROLE",
      "outputs": [
        {
          "internalType": "bytes32",
          "name": "",
          "type": "bytes32"
        }
      ],
      "stateMutability": "view",
      "type": "function"
    },
    {
      "inputs": [],
      "name": "OPERATOR_ROLE",
      "outputs": [
        {
          "internalType": "bytes32",
          "name": "",
          "type": "bytes32"
        }
      ],
      "stateMutability": "view",
      "type": "function"
    },
    {
      "inputs": [
        {
          "internalType": "address",
          "name": "to",
          "type": "address"
        },
        {
          "internalType": "uint256",
          "name": "amount",
          "type": "uint256"
        },
        {
          "internalType": "address",
          "name": "collateralToken",
          "type": "address"
        },
        {
          "internalType": "address",
          "name": "fxToken",
          "type": "address"
        }
      ],
      "name": "depositCollateral",
      "outputs": [],
      "stateMutability": "nonpayable",
      "type": "function"
    },
    {
      "inputs": [
        {
          "internalType": "address",
          "name": "to",
          "type": "address"
        },
        {
          "internalType": "address",
          "name": "fxToken",
          "type": "address"
        }
      ],
      "name": "depositCollateralETH",
      "outputs": [],
      "stateMutability": "payable",
      "type": "function"
    },
    {
      "inputs": [
        {
          "internalType": "address",
          "name": "from",
          "type": "address"
        },
        {
          "internalType": "address",
          "name": "to",
          "type": "address"
        },
        {
          "internalType": "uint256",
          "name": "amount",
          "type": "uint256"
        },
        {
          "internalType": "address",
          "name": "fxToken",
          "type": "address"
        },
        {
          "internalType": "bool",
          "name": "requireFullAmount",
          "type": "bool"
        }
      ],
      "name": "forceWithdrawAnyCollateral",
      "outputs": [
        {
          "internalType": "address[]",
          "name": "collateralTypes",
          "type": "address[]"
        },
        {
          "internalType": "uint256[]",
          "name": "collateralAmounts",
          "type": "uint256[]"
        }
      ],
      "stateMutability": "nonpayable",
      "type": "function"
    },
    {
      "inputs": [
        {
          "internalType": "address",
          "name": "from",
          "type": "address"
        },
        {
          "internalType": "address",
          "name": "collateralToken",
          "type": "address"
        },
        {
          "internalType": "address",
          "name": "to",
          "type": "address"
        },
        {
          "internalType": "uint256",
          "name": "amount",
          "type": "uint256"
        },
        {
          "internalType": "address",
          "name": "fxToken",
          "type": "address"
        }
      ],
      "name": "forceWithdrawCollateral",
      "outputs": [],
      "stateMutability": "nonpayable",
      "type": "function"
    },
    {
      "inputs": [
        {
          "internalType": "bytes32",
          "name": "role",
          "type": "bytes32"
        }
      ],
      "name": "getRoleAdmin",
      "outputs": [
        {
          "internalType": "bytes32",
          "name": "",
          "type": "bytes32"
        }
      ],
      "stateMutability": "view",
      "type": "function"
    },
    {
      "inputs": [
        {
          "internalType": "bytes32",
          "name": "role",
          "type": "bytes32"
        },
        {
          "internalType": "address",
          "name": "account",
          "type": "address"
        }
      ],
      "name": "grantRole",
      "outputs": [],
      "stateMutability": "nonpayable",
      "type": "function"
    },
    {
      "inputs": [],
      "name": "handleAddress",
      "outputs": [
        {
          "internalType": "address",
          "name": "",
          "type": "address"
        }
      ],
      "stateMutability": "view",
      "type": "function"
    },
    {
      "inputs": [
        {
          "internalType": "bytes32",
          "name": "role",
          "type": "bytes32"
        },
        {
          "internalType": "address",
          "name": "account",
          "type": "address"
        }
      ],
      "name": "hasRole",
      "outputs": [
        {
          "internalType": "bool",
          "name": "",
          "type": "bool"
        }
      ],
      "stateMutability": "view",
      "type": "function"
    },
    {
      "inputs": [],
      "name": "initialize",
      "outputs": [],
      "stateMutability": "nonpayable",
      "type": "function"
    },
    {
      "inputs": [
        {
          "internalType": "bytes32",
          "name": "role",
          "type": "bytes32"
        },
        {
          "internalType": "address",
          "name": "account",
          "type": "address"
        }
      ],
      "name": "renounceRole",
      "outputs": [],
      "stateMutability": "nonpayable",
      "type": "function"
    },
    {
      "inputs": [
        {
          "internalType": "address",
          "name": "token",
          "type": "address"
        },
        {
          "internalType": "uint256",
          "name": "amount",
          "type": "uint256"
        }
      ],
      "name": "requestFundsPCT",
      "outputs": [],
      "stateMutability": "nonpayable",
      "type": "function"
    },
    {
      "inputs": [
        {
          "internalType": "bytes32",
          "name": "role",
          "type": "bytes32"
        },
        {
          "internalType": "address",
          "name": "account",
          "type": "address"
        }
      ],
      "name": "revokeRole",
      "outputs": [],
      "stateMutability": "nonpayable",
      "type": "function"
    },
    {
      "inputs": [
        {
          "internalType": "address",
          "name": "_handle",
          "type": "address"
        }
      ],
      "name": "setHandleContract",
      "outputs": [],
      "stateMutability": "nonpayable",
      "type": "function"
    },
    {
      "inputs": [
        {
          "internalType": "uint256",
          "name": "value",
          "type": "uint256"
        }
      ],
      "name": "setMaximumTotalDepositAllowed",
      "outputs": [],
      "stateMutability": "nonpayable",
      "type": "function"
    },
    {
      "inputs": [
        {
          "internalType": "bytes4",
          "name": "interfaceId",
          "type": "bytes4"
        }
      ],
      "name": "supportsInterface",
      "outputs": [
        {
          "internalType": "bool",
          "name": "",
          "type": "bool"
        }
      ],
      "stateMutability": "view",
      "type": "function"
    },
    {
      "inputs": [
        {
          "internalType": "address",
          "name": "newImplementation",
          "type": "address"
        }
      ],
      "name": "upgradeTo",
      "outputs": [],
      "stateMutability": "nonpayable",
      "type": "function"
    },
    {
      "inputs": [
        {
          "internalType": "address",
          "name": "newImplementation",
          "type": "address"
        },
        {
          "internalType": "bytes",
          "name": "data",
          "type": "bytes"
        }
      ],
      "name": "upgradeToAndCall",
      "outputs": [],
      "stateMutability": "payable",
      "type": "function"
    },
    {
      "inputs": [
        {
          "internalType": "address",
          "name": "collateralToken",
          "type": "address"
        },
        {
          "internalType": "address",
          "name": "to",
          "type": "address"
        },
        {
          "internalType": "uint256",
          "name": "amount",
          "type": "uint256"
        },
        {
          "internalType": "address",
          "name": "fxToken",
          "type": "address"
        }
      ],
      "name": "withdrawCollateral",
      "outputs": [],
      "stateMutability": "nonpayable",
      "type": "function"
    },
    {
      "inputs": [
        {
          "internalType": "address",
          "name": "to",
          "type": "address"
        },
        {
          "internalType": "uint256",
          "name": "amount",
          "type": "uint256"
        },
        {
          "internalType": "address",
          "name": "fxToken",
          "type": "address"
        }
      ],
      "name": "withdrawCollateralETH",
      "outputs": [],
      "stateMutability": "nonpayable",
      "type": "function"
    },
    {
      "inputs": [
        {
          "internalType": "address",
          "name": "from",
          "type": "address"
        },
        {
          "internalType": "address",
          "name": "collateralToken",
          "type": "address"
        },
        {
          "internalType": "address",
          "name": "to",
          "type": "address"
        },
        {
          "internalType": "uint256",
          "name": "amount",
          "type": "uint256"
        },
        {
          "internalType": "address",
          "name": "fxToken",
          "type": "address"
        }
      ],
      "name": "withdrawCollateralFrom",
      "outputs": [],
      "stateMutability": "nonpayable",
      "type": "function"
    },
    {
      "stateMutability": "payable",
      "type": "receive"
    }
  ],
  "bytecode": "0x608060405234801561001057600080fd5b50615ff180620000216000396000f3fe6080604052600436106101445760003560e01c80637d694f15116100b6578063ce1c18511161006f578063ce1c18511461042c578063d547741f14610455578063e82f1e7a1461047e578063eb2266fc1461049a578063f5b541a6146104d8578063fd58a301146105035761014b565b80637d694f15146103325780638129fc1c1461035b5780638c6d4c471461037257806391d148541461039b5780639b1c414f146103d8578063a217fddf146104015761014b565b80634f1ef286116101085780634f1ef2861461024557806358166d24146102615780635a6f45de1461028a57806364cfc1ad146102b357806374bf578b146102dc57806375b238fc146103075761014b565b806301ffc9a714610150578063248a9ca31461018d5780632f2ff15d146101ca57806336568abe146101f35780633659cfe61461021c5761014b565b3661014b57005b600080fd5b34801561015c57600080fd5b5061017760048036038101906101729190614dfe565b61052c565b60405161018491906154e0565b60405180910390f35b34801561019957600080fd5b506101b460048036038101906101af9190614d99565b6105a6565b6040516101c191906154fb565b60405180910390f35b3480156101d657600080fd5b506101f160048036038101906101ec9190614dc2565b6105c6565b005b3480156101ff57600080fd5b5061021a60048036038101906102159190614dc2565b6105ef565b005b34801561022857600080fd5b50610243600480360381019061023e91906149d0565b610672565b005b61025f600480360381019061025a9190614baf565b610699565b005b34801561026d57600080fd5b5061028860048036038101906102839190614a5e565b6106b2565b005b34801561029657600080fd5b506102b160048036038101906102ac9190614ad5565b610821565b005b3480156102bf57600080fd5b506102da60048036038101906102d59190614a5e565b61088a565b005b3480156102e857600080fd5b506102f1610ac8565b6040516102fe9190615336565b60405180910390f35b34801561031357600080fd5b5061031c610af3565b60405161032991906154fb565b60405180910390f35b34801561033e57600080fd5b5061035960048036038101906103549190614e27565b610b17565b005b34801561036757600080fd5b50610370610b8b565b005b34801561037e57600080fd5b5061039960048036038101906103949190614c03565b610ce8565b005b3480156103a757600080fd5b506103c260048036038101906103bd9190614dc2565b610e8e565b6040516103cf91906154e0565b60405180910390f35b3480156103e457600080fd5b506103ff60048036038101906103fa91906149d0565b610ef9565b005b34801561040d57600080fd5b5061041661161d565b60405161042391906154fb565b60405180910390f35b34801561043857600080fd5b50610453600480360381019061044e9190614c8e565b611624565b005b34801561046157600080fd5b5061047c60048036038101906104779190614dc2565b61168d565b005b61049860048036038101906104939190614a22565b6116b6565b005b3480156104a657600080fd5b506104c160048036038101906104bc9190614b38565b6118d2565b6040516104cf9291906154a9565b60405180910390f35b3480156104e457600080fd5b506104ed611b59565b6040516104fa91906154fb565b60405180910390f35b34801561050f57600080fd5b5061052a60048036038101906105259190614c3f565b611b7d565b005b60007f7965db0b000000000000000000000000000000000000000000000000000000007bffffffffffffffffffffffffffffffffffffffffffffffffffffffff1916827bffffffffffffffffffffffffffffffffffffffffffffffffffffffff1916148061059f575061059e8261244a565b5b9050919050565b600060c96000838152602001908152602001600020600101549050919050565b6105cf826105a6565b6105e0816105db6124b4565b6124bc565b6105ea8383612559565b505050565b6105f76124b4565b73ffffffffffffffffffffffffffffffffffffffff168173ffffffffffffffffffffffffffffffffffffffff1614610664576040517f08c379a000000000000000000000000000000000000000000000000000000000815260040161065b906156f8565b60405180910390fd5b61066e828261263a565b5050565b61067b8161271c565b61069681604051806020016040528060008152506000612788565b50565b6106a28261271c565b6106ae82826001612788565b5050565b6106dc7f97667070c54ef182b0f5858b034beac1b6f3089aa2d3188bb1e8929f4fa9b92933610e8e565b61071b576040517f08c379a000000000000000000000000000000000000000000000000000000000815260040161071290615578565b60405180910390fd5b8161012d60009054906101000a900473ffffffffffffffffffffffffffffffffffffffff1673ffffffffffffffffffffffffffffffffffffffff1663c462b5208787856040518463ffffffff1660e01b815260040161077c9392919061537a565b60206040518083038186803b15801561079457600080fd5b505afa1580156107a8573d6000803e3d6000fd5b505050506040513d601f19601f820116820180604052508101906107cc9190614e50565b101561080d576040517f08c379a000000000000000000000000000000000000000000000000000000000815260040161080490615698565b60405180910390fd5b61081a858585858561299c565b5050505050565b600260fb541415610867576040517f08c379a000000000000000000000000000000000000000000000000000000000815260040161085e906156d8565b60405180910390fd5b600260fb8190555061087c3385858585612e9e565b600160fb8190555050505050565b848073ffffffffffffffffffffffffffffffffffffffff163373ffffffffffffffffffffffffffffffffffffffff16148061091e57506108ea7f97667070c54ef182b0f5858b034beac1b6f3089aa2d3188bb1e8929f4fa9b92933610e8e565b801561091d575061091b7fa49807205ce4d355092ef5a8a18f56e8913cf4a201fbe287825b095693c2177533610e8e565b155b5b61095d576040517f08c379a0000000000000000000000000000000000000000000000000000000008152600401610954906155d8565b60405180910390fd5b600260fb5414156109a3576040517f08c379a000000000000000000000000000000000000000000000000000000000815260040161099a906156d8565b60405180910390fd5b600260fb8190555061012d60009054906101000a900473ffffffffffffffffffffffffffffffffffffffff1673ffffffffffffffffffffffffffffffffffffffff1663c392f7666040518163ffffffff1660e01b815260040160206040518083038186803b158015610a1457600080fd5b505afa158015610a28573d6000803e3d6000fd5b505050506040513d601f19601f82011682018060405250810190610a4c91906149f9565b73ffffffffffffffffffffffffffffffffffffffff16634342fef56040518163ffffffff1660e01b8152600401600060405180830381600087803b158015610a9357600080fd5b505af1158015610aa7573d6000803e3d6000fd5b50505050610ab88686868686612e9e565b600160fb81905550505050505050565b600061012d60009054906101000a900473ffffffffffffffffffffffffffffffffffffffff16905090565b7fa49807205ce4d355092ef5a8a18f56e8913cf4a201fbe287825b095693c2177581565b610b417fa49807205ce4d355092ef5a8a18f56e8913cf4a201fbe287825b095693c2177533610e8e565b610b80576040517f08c379a0000000000000000000000000000000000000000000000000000000008152600401610b77906156b8565b60405180910390fd5b806101318190555050565b600060019054906101000a900460ff1680610bb1575060008054906101000a900460ff16155b610bf0576040517f08c379a0000000000000000000000000000000000000000000000000000000008152600401610be7906155f8565b60405180910390fd5b60008060019054906101000a900460ff161590508015610c40576001600060016101000a81548160ff02191690831515021790555060016000806101000a81548160ff0219169083151502179055505b610c486131f5565b610c506132e6565b610c7a7fa49807205ce4d355092ef5a8a18f56e8913cf4a201fbe287825b095693c21775336133c7565b610cc47f97667070c54ef182b0f5858b034beac1b6f3089aa2d3188bb1e8929f4fa9b9297fa49807205ce4d355092ef5a8a18f56e8913cf4a201fbe287825b095693c217756133d5565b8015610ce55760008060016101000a81548160ff0219169083151502179055505b50565b600061012d60009054906101000a900473ffffffffffffffffffffffffffffffffffffffff1673ffffffffffffffffffffffffffffffffffffffff16639cfd96696040518163ffffffff1660e01b815260040160206040518083038186803b158015610d5357600080fd5b505afa158015610d67573d6000803e3d6000fd5b505050506040513d601f19601f82011682018060405250810190610d8b91906149f9565b90508073ffffffffffffffffffffffffffffffffffffffff163373ffffffffffffffffffffffffffffffffffffffff1614610dfb576040517f08c379a0000000000000000000000000000000000000000000000000000000008152600401610df290615578565b60405180910390fd5b8273ffffffffffffffffffffffffffffffffffffffff1663a9059cbb82846040518363ffffffff1660e01b8152600401610e369291906153e8565b602060405180830381600087803b158015610e5057600080fd5b505af1158015610e64573d6000803e3d6000fd5b505050506040513d601f19601f82011682018060405250810190610e889190614d70565b50505050565b600060c9600084815260200190815260200160002060000160008373ffffffffffffffffffffffffffffffffffffffff1673ffffffffffffffffffffffffffffffffffffffff16815260200190815260200160002060009054906101000a900460ff16905092915050565b610f237fa49807205ce4d355092ef5a8a18f56e8913cf4a201fbe287825b095693c2177533610e8e565b610f62576040517f08c379a0000000000000000000000000000000000000000000000000000000008152600401610f59906156b8565b60405180910390fd5b8061012d60006101000a81548173ffffffffffffffffffffffffffffffffffffffff021916908373ffffffffffffffffffffffffffffffffffffffff16021790555061012d60009054906101000a900473ffffffffffffffffffffffffffffffffffffffff1673ffffffffffffffffffffffffffffffffffffffff1663ad5c46486040518163ffffffff1660e01b815260040160206040518083038186803b15801561100d57600080fd5b505afa158015611021573d6000803e3d6000fd5b505050506040513d601f19601f8201168201806040525081019061104591906149f9565b61012f60006101000a81548173ffffffffffffffffffffffffffffffffffffffff021916908373ffffffffffffffffffffffffffffffffffffffff16021790555060006003905060008167ffffffffffffffff8111156110ce577f4e487b7100000000000000000000000000000000000000000000000000000000600052604160045260246000fd5b6040519080825280602002602001820160405280156110fc5781602001602082028036833780820191505090505b50905061012d60009054906101000a900473ffffffffffffffffffffffffffffffffffffffff1673ffffffffffffffffffffffffffffffffffffffff16635fe3b5676040518163ffffffff1660e01b815260040160206040518083038186803b15801561116857600080fd5b505afa15801561117c573d6000803e3d6000fd5b505050506040513d601f19601f820116820180604052508101906111a091906149f9565b816000815181106111da577f4e487b7100000000000000000000000000000000000000000000000000000000600052603260045260246000fd5b602002602001019073ffffffffffffffffffffffffffffffffffffffff16908173ffffffffffffffffffffffffffffffffffffffff168152505061012d60009054906101000a900473ffffffffffffffffffffffffffffffffffffffff1673ffffffffffffffffffffffffffffffffffffffff166327ab02b96040518163ffffffff1660e01b815260040160206040518083038186803b15801561127d57600080fd5b505afa158015611291573d6000803e3d6000fd5b505050506040513d601f19601f820116820180604052508101906112b591906149f9565b816001815181106112ef577f4e487b7100000000000000000000000000000000000000000000000000000000600052603260045260246000fd5b602002602001019073ffffffffffffffffffffffffffffffffffffffff16908173ffffffffffffffffffffffffffffffffffffffff168152505061012d60009054906101000a900473ffffffffffffffffffffffffffffffffffffffff1673ffffffffffffffffffffffffffffffffffffffff16634046ebae6040518163ffffffff1660e01b815260040160206040518083038186803b15801561139257600080fd5b505afa1580156113a6573d6000803e3d6000fd5b505050506040513d601f19601f820116820180604052508101906113ca91906149f9565b81600281518110611404577f4e487b7100000000000000000000000000000000000000000000000000000000600052603260045260246000fd5b602002602001019073ffffffffffffffffffffffffffffffffffffffff16908173ffffffffffffffffffffffffffffffffffffffff168152505060005b82811015611535576114b37f97667070c54ef182b0f5858b034beac1b6f3089aa2d3188bb1e8929f4fa9b9298383815181106114a6577f4e487b7100000000000000000000000000000000000000000000000000000000600052603260045260246000fd5b6020026020010151610e8e565b611522576115217f97667070c54ef182b0f5858b034beac1b6f3089aa2d3188bb1e8929f4fa9b929838381518110611514577f4e487b7100000000000000000000000000000000000000000000000000000000600052603260045260246000fd5b60200260200101516105c6565b5b808061152d90615ac0565b915050611441565b5061012d60009054906101000a900473ffffffffffffffffffffffffffffffffffffffff1673ffffffffffffffffffffffffffffffffffffffff1663eb0a8b916040518163ffffffff1660e01b815260040160206040518083038186803b15801561159f57600080fd5b505afa1580156115b3573d6000803e3d6000fd5b505050506040513d601f19601f820116820180604052508101906115d791906149f9565b61012e60006101000a81548173ffffffffffffffffffffffffffffffffffffffff021916908373ffffffffffffffffffffffffffffffffffffffff160217905550505050565b6000801b81565b600260fb54141561166a576040517f08c379a0000000000000000000000000000000000000000000000000000000008152600401611661906156d8565b60405180910390fd5b600260fb8190555061167f338585858561342b565b600160fb8190555050505050565b611696826105a6565b6116a7816116a26124b4565b6124bc565b6116b1838361263a565b505050565b600260fb5414156116fc576040517f08c379a00000000000000000000000000000000000000000000000000000000081526004016116f3906156d8565b60405180910390fd5b600260fb8190555061012d60009054906101000a900473ffffffffffffffffffffffffffffffffffffffff1673ffffffffffffffffffffffffffffffffffffffff1663803c97b361012f60009054906101000a900473ffffffffffffffffffffffffffffffffffffffff166040518263ffffffff1660e01b81526004016117839190615336565b60206040518083038186803b15801561179b57600080fd5b505afa1580156117af573d6000803e3d6000fd5b505050506040513d601f19601f820116820180604052508101906117d39190614d70565b611812576040517f08c379a000000000000000000000000000000000000000000000000000000000815260040161180990615558565b60405180910390fd5b61012f60009054906101000a900473ffffffffffffffffffffffffffffffffffffffff1673ffffffffffffffffffffffffffffffffffffffff1663d0e30db0346040518263ffffffff1660e01b81526004016000604051808303818588803b15801561187d57600080fd5b505af1158015611891573d6000803e3d6000fd5b50505050506118c630833461012f60009054906101000a900473ffffffffffffffffffffffffffffffffffffffff168561342b565b600160fb819055505050565b6060806118ff7f97667070c54ef182b0f5858b034beac1b6f3089aa2d3188bb1e8929f4fa9b92933610e8e565b61193e576040517f08c379a000000000000000000000000000000000000000000000000000000000815260040161193590615578565b60405180910390fd5b600061012e60009054906101000a900473ffffffffffffffffffffffffffffffffffffffff1673ffffffffffffffffffffffffffffffffffffffff1663234ab3e28987896040518463ffffffff1660e01b81526004016119a0939291906153b1565b60006040518083038186803b1580156119b857600080fd5b505afa1580156119cc573d6000803e3d6000fd5b505050506040513d6000823e3d601f19601f820116820180604052508101906119f59190614cf1565b809350819450829550505050838015611a0c575080155b15611a4c576040517f08c379a0000000000000000000000000000000000000000000000000000000008152600401611a4390615618565b60405180910390fd5b60008351905060005b81811015611b4c576000848281518110611a98577f4e487b7100000000000000000000000000000000000000000000000000000000600052603260045260246000fd5b60200260200101511415611aab57611b39565b611b388a868381518110611ae8577f4e487b7100000000000000000000000000000000000000000000000000000000600052603260045260246000fd5b60200260200101518b878581518110611b2a577f4e487b7100000000000000000000000000000000000000000000000000000000600052603260045260246000fd5b60200260200101518b61299c565b5b8080611b4490615ac0565b915050611a55565b5050509550959350505050565b7f97667070c54ef182b0f5858b034beac1b6f3089aa2d3188bb1e8929f4fa9b92981565b600260fb541415611bc3576040517f08c379a0000000000000000000000000000000000000000000000000000000008152600401611bba906156d8565b60405180910390fd5b600260fb81905550600061012d60009054906101000a900473ffffffffffffffffffffffffffffffffffffffff1673ffffffffffffffffffffffffffffffffffffffff1663d02641a061012f60009054906101000a900473ffffffffffffffffffffffffffffffffffffffff166040518263ffffffff1660e01b8152600401611c4c9190615336565b60206040518083038186803b158015611c6457600080fd5b505afa158015611c78573d6000803e3d6000fd5b505050506040513d601f19601f82011682018060405250810190611c9c9190614e50565b90506000611d7a82611d6c670de0b6b3a764000061012e60009054906101000a900473ffffffffffffffffffffffffffffffffffffffff1673ffffffffffffffffffffffffffffffffffffffff1663e76ab23933896040518363ffffffff1660e01b8152600401611d0e929190615351565b60206040518083038186803b158015611d2657600080fd5b505afa158015611d3a573d6000803e3d6000fd5b505050506040513d601f19601f82011682018060405250810190611d5e9190614e50565b613b9290919063ffffffff16565b613ba890919063ffffffff16565b9050600061012d60009054906101000a900473ffffffffffffffffffffffffffffffffffffffff1673ffffffffffffffffffffffffffffffffffffffff1663c462b5203361012f60009054906101000a900473ffffffffffffffffffffffffffffffffffffffff16876040518463ffffffff1660e01b8152600401611e019392919061537a565b60206040518083038186803b158015611e1957600080fd5b505afa158015611e2d573d6000803e3d6000fd5b505050506040513d601f19601f82011682018060405250810190611e519190614e50565b905080821115611e5f578091505b60008211611ea2576040517f08c379a0000000000000000000000000000000000000000000000000000000008152600401611e9990615698565b60405180910390fd5b61012d60009054906101000a900473ffffffffffffffffffffffffffffffffffffffff1673ffffffffffffffffffffffffffffffffffffffff1663c392f7666040518163ffffffff1660e01b815260040160206040518083038186803b158015611f0b57600080fd5b505afa158015611f1f573d6000803e3d6000fd5b505050506040513d601f19601f82011682018060405250810190611f4391906149f9565b73ffffffffffffffffffffffffffffffffffffffff16634342fef56040518163ffffffff1660e01b8152600401600060405180830381600087803b158015611f8a57600080fd5b505af1158015611f9e573d6000803e3d6000fd5b5050505081851115611fae578194505b61012f60009054906101000a900473ffffffffffffffffffffffffffffffffffffffff1673ffffffffffffffffffffffffffffffffffffffff16632e1a7d4d866040518263ffffffff1660e01b815260040161200a9190615718565b600060405180830381600087803b15801561202457600080fd5b505af1158015612038573d6000803e3d6000fd5b5050505084471015612073577f4e487b7100000000000000000000000000000000000000000000000000000000600052600160045260246000fd5b600061213c6103e861212e61012d60009054906101000a900473ffffffffffffffffffffffffffffffffffffffff1673ffffffffffffffffffffffffffffffffffffffff166341e3f2816040518163ffffffff1660e01b815260040160206040518083038186803b1580156120e757600080fd5b505afa1580156120fb573d6000803e3d6000fd5b505050506040513d601f19601f8201168201806040525081019061211f9190614e50565b89613b9290919063ffffffff16565b613ba890919063ffffffff16565b90506121518187613bbe90919063ffffffff16565b9550600061012d60009054906101000a900473ffffffffffffffffffffffffffffffffffffffff1673ffffffffffffffffffffffffffffffffffffffff1663ec94578e6040518163ffffffff1660e01b815260040160206040518083038186803b1580156121be57600080fd5b505afa1580156121d2573d6000803e3d6000fd5b505050506040513d601f19601f820116820180604052508101906121f691906149f9565b73ffffffffffffffffffffffffffffffffffffffff1682604051612219906152e7565b60006040518083038185875af1925050503d8060008114612256576040519150601f19603f3d011682016040523d82523d6000602084013e61225b565b606091505b505080915050806122a1576040517f08c379a000000000000000000000000000000000000000000000000000000000815260040161229890615598565b60405180910390fd5b3373ffffffffffffffffffffffffffffffffffffffff16876040516122c5906152e7565b60006040518083038185875af1925050503d8060008114612302576040519150601f19603f3d011682016040523d82523d6000602084013e612307565b606091505b5050809150508061234d576040517f08c379a000000000000000000000000000000000000000000000000000000000815260040161234490615598565b60405180910390fd5b61012d60009054906101000a900473ffffffffffffffffffffffffffffffffffffffff1673ffffffffffffffffffffffffffffffffffffffff1663181e20a733898961012f60009054906101000a900473ffffffffffffffffffffffffffffffffffffffff1660006040518663ffffffff1660e01b81526004016123d5959493929190615456565b600060405180830381600087803b1580156123ef57600080fd5b505af1158015612403573d6000803e3d6000fd5b50505050612438338761012f60009054906101000a900473ffffffffffffffffffffffffffffffffffffffff168a6000613bd4565b5050505050600160fb81905550505050565b60007f01ffc9a7000000000000000000000000000000000000000000000000000000007bffffffffffffffffffffffffffffffffffffffffffffffffffffffff1916827bffffffffffffffffffffffffffffffffffffffffffffffffffffffff1916149050919050565b600033905090565b6124c68282610e8e565b612555576124eb8173ffffffffffffffffffffffffffffffffffffffff166014613e96565b6124f98360001c6020613e96565b60405160200161250a9291906152fc565b6040516020818303038152906040526040517f08c379a000000000000000000000000000000000000000000000000000000000815260040161254c9190615516565b60405180910390fd5b5050565b6125638282610e8e565b61263657600160c9600084815260200190815260200160002060000160008373ffffffffffffffffffffffffffffffffffffffff1673ffffffffffffffffffffffffffffffffffffffff16815260200190815260200160002060006101000a81548160ff0219169083151502179055506125db6124b4565b73ffffffffffffffffffffffffffffffffffffffff168173ffffffffffffffffffffffffffffffffffffffff16837f2f8788117e7eff1d82e926ec794901d17c78024a50270940304540a733656f0d60405160405180910390a45b5050565b6126448282610e8e565b1561271857600060c9600084815260200190815260200160002060000160008373ffffffffffffffffffffffffffffffffffffffff1673ffffffffffffffffffffffffffffffffffffffff16815260200190815260200160002060006101000a81548160ff0219169083151502179055506126bd6124b4565b73ffffffffffffffffffffffffffffffffffffffff168173ffffffffffffffffffffffffffffffffffffffff16837ff6391f5c32d9c69d2a47ea670b442974b53935d1edc7fd64eb21e047a839171b60405160405180910390a45b5050565b6127467fa49807205ce4d355092ef5a8a18f56e8913cf4a201fbe287825b095693c2177533610e8e565b612785576040517f08c379a000000000000000000000000000000000000000000000000000000000815260040161277c906156b8565b60405180910390fd5b50565b6000612792614190565b905061279d846141e7565b6000835111806127aa5750815b156127bb576127b984846142a0565b505b60006127e97f4910fdfa16fed3260ed0e7147f7cc6da11a60208b5b9406d12a635614ffd914360001b614384565b90508060000160009054906101000a900460ff166129955760018160000160006101000a81548160ff0219169083151502179055506128b585836040516024016128339190615336565b6040516020818303038152906040527f3659cfe6000000000000000000000000000000000000000000000000000000007bffffffffffffffffffffffffffffffffffffffffffffffffffffffff19166020820180517bffffffffffffffffffffffffffffffffffffffffffffffffffffffff83818316178352505050506142a0565b5060008160000160006101000a81548160ff0219169083151502179055506128db614190565b73ffffffffffffffffffffffffffffffffffffffff168273ffffffffffffffffffffffffffffffffffffffff1614612948576040517f08c379a000000000000000000000000000000000000000000000000000000000815260040161293f906155b8565b60405180910390fd5b612951856141e7565b8473ffffffffffffffffffffffffffffffffffffffff167fbc7cd75a20ee27fd9adebab32041f755214dbc6bffa90cc0225b39da2e5c2d3b60405160405180910390a25b5050505050565b60008473ffffffffffffffffffffffffffffffffffffffff166370a08231856040518263ffffffff1660e01b81526004016129d79190615336565b60206040518083038186803b1580156129ef57600080fd5b505afa158015612a03573d6000803e3d6000fd5b505050506040513d601f19601f82011682018060405250810190612a279190614e50565b9050600061012d60009054906101000a900473ffffffffffffffffffffffffffffffffffffffff1673ffffffffffffffffffffffffffffffffffffffff1663ec94578e6040518163ffffffff1660e01b815260040160206040518083038186803b158015612a9457600080fd5b505afa158015612aa8573d6000803e3d6000fd5b505050506040513d601f19601f82011682018060405250810190612acc91906149f9565b905060008173ffffffffffffffffffffffffffffffffffffffff168673ffffffffffffffffffffffffffffffffffffffff161415612b0b576000612bd3565b612bd26103e8612bc461012d60009054906101000a900473ffffffffffffffffffffffffffffffffffffffff1673ffffffffffffffffffffffffffffffffffffffff166341e3f2816040518163ffffffff1660e01b815260040160206040518083038186803b158015612b7d57600080fd5b505afa158015612b91573d6000803e3d6000fd5b505050506040513d601f19601f82011682018060405250810190612bb59190614e50565b88613b9290919063ffffffff16565b613ba890919063ffffffff16565b5b90506000811115612c6d578673ffffffffffffffffffffffffffffffffffffffff1663a9059cbb83836040518363ffffffff1660e01b8152600401612c199291906153e8565b602060405180830381600087803b158015612c3357600080fd5b505af1158015612c47573d6000803e3d6000fd5b505050506040513d601f19601f82011682018060405250810190612c6b9190614d70565b505b8673ffffffffffffffffffffffffffffffffffffffff1663a9059cbb87612c9d8489613bbe90919063ffffffff16565b6040518363ffffffff1660e01b8152600401612cba9291906153e8565b602060405180830381600087803b158015612cd457600080fd5b505af1158015612ce8573d6000803e3d6000fd5b505050506040513d601f19601f82011682018060405250810190612d0c9190614d70565b50612d3281612d24878661438e90919063ffffffff16565b613bbe90919063ffffffff16565b8773ffffffffffffffffffffffffffffffffffffffff166370a08231886040518263ffffffff1660e01b8152600401612d6b9190615336565b60206040518083038186803b158015612d8357600080fd5b505afa158015612d97573d6000803e3d6000fd5b505050506040513d601f19601f82011682018060405250810190612dbb9190614e50565b14612def577f4e487b7100000000000000000000000000000000000000000000000000000000600052600160045260246000fd5b61012d60009054906101000a900473ffffffffffffffffffffffffffffffffffffffff1673ffffffffffffffffffffffffffffffffffffffff1663181e20a78987878b60006040518663ffffffff1660e01b8152600401612e54959493929190615456565b600060405180830381600087803b158015612e6e57600080fd5b505af1158015612e82573d6000803e3d6000fd5b50505050612e94888589886000613bd4565b5050505050505050565b600061012d60009054906101000a900473ffffffffffffffffffffffffffffffffffffffff1673ffffffffffffffffffffffffffffffffffffffff1663d02641a0866040518263ffffffff1660e01b8152600401612efc9190615336565b60206040518083038186803b158015612f1457600080fd5b505afa158015612f28573d6000803e3d6000fd5b505050506040513d601f19601f82011682018060405250810190612f4c9190614e50565b905060006130cd826130bf61012e60009054906101000a900473ffffffffffffffffffffffffffffffffffffffff1673ffffffffffffffffffffffffffffffffffffffff166380ef72a98a6040518263ffffffff1660e01b8152600401612fb39190615336565b60206040518083038186803b158015612fcb57600080fd5b505afa158015612fdf573d6000803e3d6000fd5b505050506040513d601f19601f820116820180604052508101906130039190614e50565b61012e60009054906101000a900473ffffffffffffffffffffffffffffffffffffffff1673ffffffffffffffffffffffffffffffffffffffff1663e76ab2398c896040518363ffffffff1660e01b8152600401613061929190615351565b60206040518083038186803b15801561307957600080fd5b505afa15801561308d573d6000803e3d6000fd5b505050506040513d601f19601f820116820180604052508101906130b19190614e50565b613b9290919063ffffffff16565b613ba890919063ffffffff16565b9050600061012d60009054906101000a900473ffffffffffffffffffffffffffffffffffffffff1673ffffffffffffffffffffffffffffffffffffffff1663c462b5208989876040518463ffffffff1660e01b81526004016131319392919061537a565b60206040518083038186803b15801561314957600080fd5b505afa15801561315d573d6000803e3d6000fd5b505050506040513d601f19601f820116820180604052508101906131819190614e50565b90508082111561318f578091505b600082116131d2576040517f08c379a00000000000000000000000000000000000000000000000000000000081526004016131c990615698565b60405180910390fd5b818511156131de578194505b6131eb888888888861299c565b5050505050505050565b600060019054906101000a900460ff168061321b575060008054906101000a900460ff16155b61325a576040517f08c379a0000000000000000000000000000000000000000000000000000000008152600401613251906155f8565b60405180910390fd5b60008060019054906101000a900460ff1615905080156132aa576001600060016101000a81548160ff02191690831515021790555060016000806101000a81548160ff0219169083151502179055505b6132b26143a4565b6132ba61447d565b6132c2614556565b80156132e35760008060016101000a81548160ff0219169083151502179055505b50565b600060019054906101000a900460ff168061330c575060008054906101000a900460ff16155b61334b576040517f08c379a0000000000000000000000000000000000000000000000000000000008152600401613342906155f8565b60405180910390fd5b60008060019054906101000a900460ff16159050801561339b576001600060016101000a81548160ff02191690831515021790555060016000806101000a81548160ff0219169083151502179055505b6133a361462f565b80156133c45760008060016101000a81548160ff0219169083151502179055505b50565b6133d18282612559565b5050565b806133df836105a6565b837fbd79b86ffe0ab8e8776151514217cd7cacd52c909f66475c3af44e129f0b00ff60405160405180910390a48060c96000848152602001908152602001600020600101819055505050565b61012d60009054906101000a900473ffffffffffffffffffffffffffffffffffffffff1673ffffffffffffffffffffffffffffffffffffffff1663803c97b3836040518263ffffffff1660e01b81526004016134879190615336565b60206040518083038186803b15801561349f57600080fd5b505afa1580156134b3573d6000803e3d6000fd5b505050506040513d601f19601f820116820180604052508101906134d79190614d70565b613516576040517f08c379a000000000000000000000000000000000000000000000000000000000815260040161350d90615558565b60405180910390fd5b60006136a861369661012e60009054906101000a900473ffffffffffffffffffffffffffffffffffffffff1673ffffffffffffffffffffffffffffffffffffffff166380ef72a9866040518263ffffffff1660e01b815260040161357a9190615336565b60206040518083038186803b15801561359257600080fd5b505afa1580156135a6573d6000803e3d6000fd5b505050506040513d601f19601f820116820180604052508101906135ca9190614e50565b61368861012d60009054906101000a900473ffffffffffffffffffffffffffffffffffffffff1673ffffffffffffffffffffffffffffffffffffffff1663d02641a0886040518263ffffffff1660e01b81526004016136299190615336565b60206040518083038186803b15801561364157600080fd5b505afa158015613655573d6000803e3d6000fd5b505050506040513d601f19601f820116820180604052508101906136799190614e50565b88613b9290919063ffffffff16565b613ba890919063ffffffff16565b6101305461438e90919063ffffffff16565b905060006101315414806136bf5750610131548111155b6136fe576040517f08c379a00000000000000000000000000000000000000000000000000000000081526004016136f590615618565b60405180910390fd5b806101308190555061012d60009054906101000a900473ffffffffffffffffffffffffffffffffffffffff1673ffffffffffffffffffffffffffffffffffffffff1663c392f7666040518163ffffffff1660e01b815260040160206040518083038186803b15801561376f57600080fd5b505afa158015613783573d6000803e3d6000fd5b505050506040513d601f19601f820116820180604052508101906137a791906149f9565b73ffffffffffffffffffffffffffffffffffffffff16634342fef56040518163ffffffff1660e01b8152600401600060405180830381600087803b1580156137ee57600080fd5b505af1158015613802573d6000803e3d6000fd5b5050505060006138cf6103e86138c161012d60009054906101000a900473ffffffffffffffffffffffffffffffffffffffff1673ffffffffffffffffffffffffffffffffffffffff16639df5138a6040518163ffffffff1660e01b815260040160206040518083038186803b15801561387a57600080fd5b505afa15801561388e573d6000803e3d6000fd5b505050506040513d601f19601f820116820180604052508101906138b29190614e50565b88613b9290919063ffffffff16565b613ba890919063ffffffff16565b90506138e48186613bbe90919063ffffffff16565b94508373ffffffffffffffffffffffffffffffffffffffff166323b872dd8830886040518463ffffffff1660e01b8152600401613923939291906153b1565b602060405180830381600087803b15801561393d57600080fd5b505af1158015613951573d6000803e3d6000fd5b505050506040513d601f19601f820116820180604052508101906139759190614d70565b6139b4576040517f08c379a00000000000000000000000000000000000000000000000000000000081526004016139ab90615658565b60405180910390fd5b61012d60009054906101000a900473ffffffffffffffffffffffffffffffffffffffff1673ffffffffffffffffffffffffffffffffffffffff1663181e20a78787868860016040518663ffffffff1660e01b8152600401613a19959493929190615456565b600060405180830381600087803b158015613a3357600080fd5b505af1158015613a47573d6000803e3d6000fd5b505050508373ffffffffffffffffffffffffffffffffffffffff166323b872dd8861012d60009054906101000a900473ffffffffffffffffffffffffffffffffffffffff1673ffffffffffffffffffffffffffffffffffffffff1663ec94578e6040518163ffffffff1660e01b815260040160206040518083038186803b158015613ad157600080fd5b505afa158015613ae5573d6000803e3d6000fd5b505050506040513d601f19601f82011682018060405250810190613b0991906149f9565b846040518463ffffffff1660e01b8152600401613b28939291906153b1565b602060405180830381600087803b158015613b4257600080fd5b505af1158015613b56573d6000803e3d6000fd5b505050506040513d601f19601f82011682018060405250810190613b7a9190614d70565b50613b89868486886001613bd4565b50505050505050565b60008183613ba09190615917565b905092915050565b60008183613bb691906158e6565b905092915050565b60008183613bcc9190615971565b905092915050565b600061012d60009054906101000a900473ffffffffffffffffffffffffffffffffffffffff1673ffffffffffffffffffffffffffffffffffffffff166301964f366040518163ffffffff1660e01b815260040160206040518083038186803b158015613c3f57600080fd5b505afa158015613c53573d6000803e3d6000fd5b505050506040513d601f19601f82011682018060405250810190613c779190614e50565b90506000811415613c885750613e8f565b613cb5670de0b6b3a7640000613ca78386613b9290919063ffffffff16565b613ba890919063ffffffff16565b9250600061012d60009054906101000a900473ffffffffffffffffffffffffffffffffffffffff1673ffffffffffffffffffffffffffffffffffffffff16639cfd96696040518163ffffffff1660e01b815260040160206040518083038186803b158015613d2257600080fd5b505afa158015613d36573d6000803e3d6000fd5b505050506040513d601f19601f82011682018060405250810190613d5a91906149f9565b90508215613df9578073ffffffffffffffffffffffffffffffffffffffff16634a0e780e888689896040518563ffffffff1660e01b8152600401613da19493929190615411565b602060405180830381600087803b158015613dbb57600080fd5b505af1158015613dcf573d6000803e3d6000fd5b505050506040513d601f19601f82011682018060405250810190613df39190614e50565b50613e8c565b8073ffffffffffffffffffffffffffffffffffffffff16635aa347c7888689896040518563ffffffff1660e01b8152600401613e389493929190615411565b602060405180830381600087803b158015613e5257600080fd5b505af1158015613e66573d6000803e3d6000fd5b505050506040513d601f19601f82011682018060405250810190613e8a9190614e50565b505b50505b5050505050565b606060006002836002613ea99190615917565b613eb39190615890565b67ffffffffffffffff811115613ef2577f4e487b7100000000000000000000000000000000000000000000000000000000600052604160045260246000fd5b6040519080825280601f01601f191660200182016040528015613f245781602001600182028036833780820191505090505b5090507f300000000000000000000000000000000000000000000000000000000000000081600081518110613f82577f4e487b7100000000000000000000000000000000000000000000000000000000600052603260045260246000fd5b60200101907effffffffffffffffffffffffffffffffffffffffffffffffffffffffffffff1916908160001a9053507f78000000000000000000000000000000000000000000000000000000000000008160018151811061400c577f4e487b7100000000000000000000000000000000000000000000000000000000600052603260045260246000fd5b60200101907effffffffffffffffffffffffffffffffffffffffffffffffffffffffffffff1916908160001a9053506000600184600261404c9190615917565b6140569190615890565b90505b6001811115614142577f3031323334353637383961626364656600000000000000000000000000000000600f8616601081106140be577f4e487b7100000000000000000000000000000000000000000000000000000000600052603260045260246000fd5b1a60f81b8282815181106140fb577f4e487b7100000000000000000000000000000000000000000000000000000000600052603260045260246000fd5b60200101907effffffffffffffffffffffffffffffffffffffffffffffffffffffffffffff1916908160001a905350600485901c94508061413b90615a65565b9050614059565b5060008414614186576040517f08c379a000000000000000000000000000000000000000000000000000000000815260040161417d90615538565b60405180910390fd5b8091505092915050565b60006141be7f360894a13ba1a3210667c828492db98dca3e2076cc3735a920a3ca505d382bbc60001b614710565b60000160009054906101000a900473ffffffffffffffffffffffffffffffffffffffff16905090565b6141f08161471a565b61422f576040517f08c379a000000000000000000000000000000000000000000000000000000000815260040161422690615638565b60405180910390fd5b8061425c7f360894a13ba1a3210667c828492db98dca3e2076cc3735a920a3ca505d382bbc60001b614710565b60000160006101000a81548173ffffffffffffffffffffffffffffffffffffffff021916908373ffffffffffffffffffffffffffffffffffffffff16021790555050565b60606142ab8361471a565b6142ea576040517f08c379a00000000000000000000000000000000000000000000000000000000081526004016142e190615678565b60405180910390fd5b6000808473ffffffffffffffffffffffffffffffffffffffff168460405161431291906152d0565b600060405180830381855af49150503d806000811461434d576040519150601f19603f3d011682016040523d82523d6000602084013e614352565b606091505b509150915061437a8282604051806060016040528060278152602001615f956027913961472d565b9250505092915050565b6000819050919050565b6000818361439c9190615890565b905092915050565b600060019054906101000a900460ff16806143ca575060008054906101000a900460ff16155b614409576040517f08c379a0000000000000000000000000000000000000000000000000000000008152600401614400906155f8565b60405180910390fd5b60008060019054906101000a900460ff161590508015614459576001600060016101000a81548160ff02191690831515021790555060016000806101000a81548160ff0219169083151502179055505b801561447a5760008060016101000a81548160ff0219169083151502179055505b50565b600060019054906101000a900460ff16806144a3575060008054906101000a900460ff16155b6144e2576040517f08c379a00000000000000000000000000000000000000000000000000000000081526004016144d9906155f8565b60405180910390fd5b60008060019054906101000a900460ff161590508015614532576001600060016101000a81548160ff02191690831515021790555060016000806101000a81548160ff0219169083151502179055505b80156145535760008060016101000a81548160ff0219169083151502179055505b50565b600060019054906101000a900460ff168061457c575060008054906101000a900460ff16155b6145bb576040517f08c379a00000000000000000000000000000000000000000000000000000000081526004016145b2906155f8565b60405180910390fd5b60008060019054906101000a900460ff16159050801561460b576001600060016101000a81548160ff02191690831515021790555060016000806101000a81548160ff0219169083151502179055505b801561462c5760008060016101000a81548160ff0219169083151502179055505b50565b600060019054906101000a900460ff1680614655575060008054906101000a900460ff16155b614694576040517f08c379a000000000000000000000000000000000000000000000000000000000815260040161468b906155f8565b60405180910390fd5b60008060019054906101000a900460ff1615905080156146e4576001600060016101000a81548160ff02191690831515021790555060016000806101000a81548160ff0219169083151502179055505b600160fb81905550801561470d5760008060016101000a81548160ff0219169083151502179055505b50565b6000819050919050565b600080823b905060008111915050919050565b6060831561473d5782905061478d565b6000835111156147505782518084602001fd5b816040517f08c379a00000000000000000000000000000000000000000000000000000000081526004016147849190615516565b60405180910390fd5b9392505050565b60006147a76147a284615758565b615733565b905080838252602082019050828560208602820111156147c657600080fd5b60005b858110156147f657816147dc88826148bf565b8452602084019350602083019250506001810190506147c9565b5050509392505050565b600061481361480e84615784565b615733565b9050808382526020820190508285602086028201111561483257600080fd5b60005b85811015614862578161484888826149bb565b845260208401935060208301925050600181019050614835565b5050509392505050565b600061487f61487a846157b0565b615733565b90508281526020810184848401111561489757600080fd5b6148a2848285615a23565b509392505050565b6000813590506148b981615f21565b92915050565b6000815190506148ce81615f21565b92915050565b600082601f8301126148e557600080fd5b81516148f5848260208601614794565b91505092915050565b600082601f83011261490f57600080fd5b815161491f848260208601614800565b91505092915050565b60008135905061493781615f38565b92915050565b60008151905061494c81615f38565b92915050565b60008135905061496181615f4f565b92915050565b60008135905061497681615f66565b92915050565b600082601f83011261498d57600080fd5b813561499d84826020860161486c565b91505092915050565b6000813590506149b581615f7d565b92915050565b6000815190506149ca81615f7d565b92915050565b6000602082840312156149e257600080fd5b60006149f0848285016148aa565b91505092915050565b600060208284031215614a0b57600080fd5b6000614a19848285016148bf565b91505092915050565b60008060408385031215614a3557600080fd5b6000614a43858286016148aa565b9250506020614a54858286016148aa565b9150509250929050565b600080600080600060a08688031215614a7657600080fd5b6000614a84888289016148aa565b9550506020614a95888289016148aa565b9450506040614aa6888289016148aa565b9350506060614ab7888289016149a6565b9250506080614ac8888289016148aa565b9150509295509295909350565b60008060008060808587031215614aeb57600080fd5b6000614af9878288016148aa565b9450506020614b0a878288016148aa565b9350506040614b1b878288016149a6565b9250506060614b2c878288016148aa565b91505092959194509250565b600080600080600060a08688031215614b5057600080fd5b6000614b5e888289016148aa565b9550506020614b6f888289016148aa565b9450506040614b80888289016149a6565b9350506060614b91888289016148aa565b9250506080614ba288828901614928565b9150509295509295909350565b60008060408385031215614bc257600080fd5b6000614bd0858286016148aa565b925050602083013567ffffffffffffffff811115614bed57600080fd5b614bf98582860161497c565b9150509250929050565b60008060408385031215614c1657600080fd5b6000614c24858286016148aa565b9250506020614c35858286016149a6565b9150509250929050565b600080600060608486031215614c5457600080fd5b6000614c62868287016148aa565b9350506020614c73868287016149a6565b9250506040614c84868287016148aa565b9150509250925092565b60008060008060808587031215614ca457600080fd5b6000614cb2878288016148aa565b9450506020614cc3878288016149a6565b9350506040614cd4878288016148aa565b9250506060614ce5878288016148aa565b91505092959194509250565b600080600060608486031215614d0657600080fd5b600084015167ffffffffffffffff811115614d2057600080fd5b614d2c868287016148d4565b935050602084015167ffffffffffffffff811115614d4957600080fd5b614d55868287016148fe565b9250506040614d668682870161493d565b9150509250925092565b600060208284031215614d8257600080fd5b6000614d908482850161493d565b91505092915050565b600060208284031215614dab57600080fd5b6000614db984828501614952565b91505092915050565b60008060408385031215614dd557600080fd5b6000614de385828601614952565b9250506020614df4858286016148aa565b9150509250929050565b600060208284031215614e1057600080fd5b6000614e1e84828501614967565b91505092915050565b600060208284031215614e3957600080fd5b6000614e47848285016149a6565b91505092915050565b600060208284031215614e6257600080fd5b6000614e70848285016149bb565b91505092915050565b6000614e858383614ea9565b60208301905092915050565b6000614e9d83836152b2565b60208301905092915050565b614eb2816159a5565b82525050565b614ec1816159a5565b82525050565b6000614ed282615801565b614edc8185615847565b9350614ee7836157e1565b8060005b83811015614f18578151614eff8882614e79565b9750614f0a8361582d565b925050600181019050614eeb565b5085935050505092915050565b6000614f308261580c565b614f3a8185615858565b9350614f45836157f1565b8060005b83811015614f76578151614f5d8882614e91565b9750614f688361583a565b925050600181019050614f49565b5085935050505092915050565b614f8c816159b7565b82525050565b614f9b816159c3565b82525050565b6000614fac82615817565b614fb68185615869565b9350614fc6818560208601615a32565b80840191505092915050565b6000614fdd82615822565b614fe78185615874565b9350614ff7818560208601615a32565b61500081615b96565b840191505092915050565b600061501682615822565b6150208185615885565b9350615030818560208601615a32565b80840191505092915050565b6000615049602083615874565b915061505482615ba7565b602082019050919050565b600061506c600283615874565b915061507782615bd0565b602082019050919050565b600061508f600283615874565b915061509a82615bf9565b602082019050919050565b60006150b2600283615874565b91506150bd82615c22565b602082019050919050565b60006150d5602f83615874565b91506150e082615c4b565b604082019050919050565b60006150f8600283615874565b915061510382615c9a565b602082019050919050565b600061511b602e83615874565b915061512682615cc3565b604082019050919050565b600061513e600283615874565b915061514982615d12565b602082019050919050565b6000615161602d83615874565b915061516c82615d3b565b604082019050919050565b6000615184600283615874565b915061518f82615d8a565b602082019050919050565b60006151a7602683615874565b91506151b282615db3565b604082019050919050565b60006151ca600283615874565b91506151d582615e02565b602082019050919050565b60006151ed600083615869565b91506151f882615e2b565b600082019050919050565b6000615210600283615874565b915061521b82615e2e565b602082019050919050565b6000615233601783615885565b915061523e82615e57565b601782019050919050565b6000615256601f83615874565b915061526182615e80565b602082019050919050565b6000615279601183615885565b915061528482615ea9565b601182019050919050565b600061529c602f83615874565b91506152a782615ed2565b604082019050919050565b6152bb81615a19565b82525050565b6152ca81615a19565b82525050565b60006152dc8284614fa1565b915081905092915050565b60006152f2826151e0565b9150819050919050565b600061530782615226565b9150615313828561500b565b915061531e8261526c565b915061532a828461500b565b91508190509392505050565b600060208201905061534b6000830184614eb8565b92915050565b60006040820190506153666000830185614eb8565b6153736020830184614eb8565b9392505050565b600060608201905061538f6000830186614eb8565b61539c6020830185614eb8565b6153a96040830184614eb8565b949350505050565b60006060820190506153c66000830186614eb8565b6153d36020830185614eb8565b6153e060408301846152c1565b949350505050565b60006040820190506153fd6000830185614eb8565b61540a60208301846152c1565b9392505050565b60006080820190506154266000830187614eb8565b61543360208301866152c1565b6154406040830185614eb8565b61544d6060830184614eb8565b95945050505050565b600060a08201905061546b6000830188614eb8565b61547860208301876152c1565b6154856040830186614eb8565b6154926060830185614eb8565b61549f6080830184614f83565b9695505050505050565b600060408201905081810360008301526154c38185614ec7565b905081810360208301526154d78184614f25565b90509392505050565b60006020820190506154f56000830184614f83565b92915050565b60006020820190506155106000830184614f92565b92915050565b600060208201905081810360008301526155308184614fd2565b905092915050565b600060208201905081810360008301526155518161503c565b9050919050565b600060208201905081810360008301526155718161505f565b9050919050565b6000602082019050818103600083015261559181615082565b9050919050565b600060208201905081810360008301526155b1816150a5565b9050919050565b600060208201905081810360008301526155d1816150c8565b9050919050565b600060208201905081810360008301526155f1816150eb565b9050919050565b600060208201905081810360008301526156118161510e565b9050919050565b6000602082019050818103600083015261563181615131565b9050919050565b6000602082019050818103600083015261565181615154565b9050919050565b6000602082019050818103600083015261567181615177565b9050919050565b600060208201905081810360008301526156918161519a565b9050919050565b600060208201905081810360008301526156b1816151bd565b9050919050565b600060208201905081810360008301526156d181615203565b9050919050565b600060208201905081810360008301526156f181615249565b9050919050565b600060208201905081810360008301526157118161528f565b9050919050565b600060208201905061572d60008301846152c1565b92915050565b600061573d61574e565b90506157498282615a8f565b919050565b6000604051905090565b600067ffffffffffffffff82111561577357615772615b67565b5b602082029050602081019050919050565b600067ffffffffffffffff82111561579f5761579e615b67565b5b602082029050602081019050919050565b600067ffffffffffffffff8211156157cb576157ca615b67565b5b6157d482615b96565b9050602081019050919050565b6000819050602082019050919050565b6000819050602082019050919050565b600081519050919050565b600081519050919050565b600081519050919050565b600081519050919050565b6000602082019050919050565b6000602082019050919050565b600082825260208201905092915050565b600082825260208201905092915050565b600081905092915050565b600082825260208201905092915050565b600081905092915050565b600061589b82615a19565b91506158a683615a19565b9250827fffffffffffffffffffffffffffffffffffffffffffffffffffffffffffffffff038211156158db576158da615b09565b5b828201905092915050565b60006158f182615a19565b91506158fc83615a19565b92508261590c5761590b615b38565b5b828204905092915050565b600061592282615a19565b915061592d83615a19565b9250817fffffffffffffffffffffffffffffffffffffffffffffffffffffffffffffffff048311821515161561596657615965615b09565b5b828202905092915050565b600061597c82615a19565b915061598783615a19565b92508282101561599a57615999615b09565b5b828203905092915050565b60006159b0826159f9565b9050919050565b60008115159050919050565b6000819050919050565b60007fffffffff0000000000000000000000000000000000000000000000000000000082169050919050565b600073ffffffffffffffffffffffffffffffffffffffff82169050919050565b6000819050919050565b82818337600083830152505050565b60005b83811015615a50578082015181840152602081019050615a35565b83811115615a5f576000848401525b50505050565b6000615a7082615a19565b91506000821415615a8457615a83615b09565b5b600182039050919050565b615a9882615b96565b810181811067ffffffffffffffff82111715615ab757615ab6615b67565b5b80604052505050565b6000615acb82615a19565b91507fffffffffffffffffffffffffffffffffffffffffffffffffffffffffffffffff821415615afe57615afd615b09565b5b600182019050919050565b7f4e487b7100000000000000000000000000000000000000000000000000000000600052601160045260246000fd5b7f4e487b7100000000000000000000000000000000000000000000000000000000600052601260045260246000fd5b7f4e487b7100000000000000000000000000000000000000000000000000000000600052604160045260246000fd5b6000601f19601f8301169050919050565b7f537472696e67733a20686578206c656e67746820696e73756666696369656e74600082015250565b7f4943000000000000000000000000000000000000000000000000000000000000600082015250565b7f4e4f000000000000000000000000000000000000000000000000000000000000600082015250565b7f4650000000000000000000000000000000000000000000000000000000000000600082015250565b7f45524331393637557067726164653a207570677261646520627265616b73206660008201527f7572746865722075706772616465730000000000000000000000000000000000602082015250565b7f4e57000000000000000000000000000000000000000000000000000000000000600082015250565b7f496e697469616c697a61626c653a20636f6e747261637420697320616c72656160008201527f647920696e697469616c697a6564000000000000000000000000000000000000602082015250565b7f4941000000000000000000000000000000000000000000000000000000000000600082015250565b7f455243313936373a206e657720696d706c656d656e746174696f6e206973206e60008201527f6f74206120636f6e747261637400000000000000000000000000000000000000602082015250565b7f4654000000000000000000000000000000000000000000000000000000000000600082015250565b7f416464726573733a2064656c65676174652063616c6c20746f206e6f6e2d636f60008201527f6e74726163740000000000000000000000000000000000000000000000000000602082015250565b7f4341000000000000000000000000000000000000000000000000000000000000600082015250565b50565b7f4e41000000000000000000000000000000000000000000000000000000000000600082015250565b7f416363657373436f6e74726f6c3a206163636f756e7420000000000000000000600082015250565b7f5265656e7472616e637947756172643a207265656e7472616e742063616c6c00600082015250565b7f206973206d697373696e6720726f6c6520000000000000000000000000000000600082015250565b7f416363657373436f6e74726f6c3a2063616e206f6e6c792072656e6f756e636560008201527f20726f6c657320666f722073656c660000000000000000000000000000000000602082015250565b615f2a816159a5565b8114615f3557600080fd5b50565b615f41816159b7565b8114615f4c57600080fd5b50565b615f58816159c3565b8114615f6357600080fd5b50565b615f6f816159cd565b8114615f7a57600080fd5b50565b615f8681615a19565b8114615f9157600080fd5b5056fe416464726573733a206c6f772d6c6576656c2064656c65676174652063616c6c206661696c6564a2646970667358221220b06021a0ff83b6444ed51c12d6389f439162ccf8b6f252099cd12b19c2538b3464736f6c63430008030033",
  "linkReferences": {},
  "deployedLinkReferences": {}
}