{
  "_format": "hh-sol-artifact-1",
  "contractName": "Treasury",
  "sourceName": "contracts/Bank/Treasury.sol",
  "abi": [
    {
      "anonymous": false,
      "inputs": [
        {
          "indexed": false,
          "internalType": "address",
          "name": "previousAdmin",
          "type": "address"
        },
        {
          "indexed": false,
          "internalType": "address",
          "name": "newAdmin",
          "type": "address"
        }
      ],
      "name": "AdminChanged",
      "type": "event"
    },
    {
      "anonymous": false,
      "inputs": [
        {
          "indexed": true,
          "internalType": "address",
          "name": "beacon",
          "type": "address"
        }
      ],
      "name": "BeaconUpgraded",
      "type": "event"
    },
    {
      "anonymous": false,
      "inputs": [
        {
          "indexed": true,
          "internalType": "bytes32",
          "name": "role",
          "type": "bytes32"
        },
        {
          "indexed": true,
          "internalType": "bytes32",
          "name": "previousAdminRole",
          "type": "bytes32"
        },
        {
          "indexed": true,
          "internalType": "bytes32",
          "name": "newAdminRole",
          "type": "bytes32"
        }
      ],
      "name": "RoleAdminChanged",
      "type": "event"
    },
    {
      "anonymous": false,
      "inputs": [
        {
          "indexed": true,
          "internalType": "bytes32",
          "name": "role",
          "type": "bytes32"
        },
        {
          "indexed": true,
          "internalType": "address",
          "name": "account",
          "type": "address"
        },
        {
          "indexed": true,
          "internalType": "address",
          "name": "sender",
          "type": "address"
        }
      ],
      "name": "RoleGranted",
      "type": "event"
    },
    {
      "anonymous": false,
      "inputs": [
        {
          "indexed": true,
          "internalType": "bytes32",
          "name": "role",
          "type": "bytes32"
        },
        {
          "indexed": true,
          "internalType": "address",
          "name": "account",
          "type": "address"
        },
        {
          "indexed": true,
          "internalType": "address",
          "name": "sender",
          "type": "address"
        }
      ],
      "name": "RoleRevoked",
      "type": "event"
    },
    {
      "anonymous": false,
      "inputs": [
        {
          "indexed": true,
          "internalType": "address",
          "name": "implementation",
          "type": "address"
        }
      ],
      "name": "Upgraded",
      "type": "event"
    },
    {
      "inputs": [],
      "name": "ADMIN_ROLE",
      "outputs": [
        {
          "internalType": "bytes32",
          "name": "",
          "type": "bytes32"
        }
      ],
      "stateMutability": "view",
      "type": "function"
    },
    {
      "inputs": [],
      "name": "DEFAULT_ADMIN_ROLE",
      "outputs": [
        {
          "internalType": "bytes32",
          "name": "",
          "type": "bytes32"
        }
      ],
      "stateMutability": "view",
      "type": "function"
    },
    {
      "inputs": [],
      "name": "OPERATOR_ROLE",
      "outputs": [
        {
          "internalType": "bytes32",
          "name": "",
          "type": "bytes32"
        }
      ],
      "stateMutability": "view",
      "type": "function"
    },
    {
      "inputs": [
        {
          "internalType": "address",
          "name": "to",
          "type": "address"
        },
        {
          "internalType": "uint256",
          "name": "amount",
          "type": "uint256"
        },
        {
          "internalType": "address",
          "name": "collateralToken",
          "type": "address"
        },
        {
          "internalType": "address",
          "name": "fxToken",
          "type": "address"
        }
      ],
      "name": "depositCollateral",
      "outputs": [],
      "stateMutability": "nonpayable",
      "type": "function"
    },
    {
      "inputs": [
        {
          "internalType": "address",
          "name": "to",
          "type": "address"
        },
        {
          "internalType": "address",
          "name": "fxToken",
          "type": "address"
        }
      ],
      "name": "depositCollateralETH",
      "outputs": [],
      "stateMutability": "payable",
      "type": "function"
    },
    {
      "inputs": [
        {
          "internalType": "address",
          "name": "from",
          "type": "address"
        },
        {
          "internalType": "address",
          "name": "to",
          "type": "address"
        },
        {
          "internalType": "uint256",
          "name": "amount",
          "type": "uint256"
        },
        {
          "internalType": "address",
          "name": "fxToken",
          "type": "address"
        }
      ],
      "name": "forceWithdrawAnyCollateral",
      "outputs": [
        {
          "internalType": "address[]",
          "name": "collateralTypes",
          "type": "address[]"
        },
        {
          "internalType": "uint256[]",
          "name": "collateralAmounts",
          "type": "uint256[]"
        }
      ],
      "stateMutability": "nonpayable",
      "type": "function"
    },
    {
      "inputs": [
        {
          "internalType": "address",
          "name": "from",
          "type": "address"
        },
        {
          "internalType": "address",
          "name": "collateralToken",
          "type": "address"
        },
        {
          "internalType": "address",
          "name": "to",
          "type": "address"
        },
        {
          "internalType": "uint256",
          "name": "amount",
          "type": "uint256"
        },
        {
          "internalType": "address",
          "name": "fxToken",
          "type": "address"
        }
      ],
      "name": "forceWithdrawCollateral",
      "outputs": [],
      "stateMutability": "nonpayable",
      "type": "function"
    },
    {
      "inputs": [
        {
          "internalType": "bytes32",
          "name": "role",
          "type": "bytes32"
        }
      ],
      "name": "getRoleAdmin",
      "outputs": [
        {
          "internalType": "bytes32",
          "name": "",
          "type": "bytes32"
        }
      ],
      "stateMutability": "view",
      "type": "function"
    },
    {
      "inputs": [
        {
          "internalType": "bytes32",
          "name": "role",
          "type": "bytes32"
        },
        {
          "internalType": "address",
          "name": "account",
          "type": "address"
        }
      ],
      "name": "grantRole",
      "outputs": [],
      "stateMutability": "nonpayable",
      "type": "function"
    },
    {
      "inputs": [],
      "name": "handleAddress",
      "outputs": [
        {
          "internalType": "address",
          "name": "",
          "type": "address"
        }
      ],
      "stateMutability": "view",
      "type": "function"
    },
    {
      "inputs": [
        {
          "internalType": "bytes32",
          "name": "role",
          "type": "bytes32"
        },
        {
          "internalType": "address",
          "name": "account",
          "type": "address"
        }
      ],
      "name": "hasRole",
      "outputs": [
        {
          "internalType": "bool",
          "name": "",
          "type": "bool"
        }
      ],
      "stateMutability": "view",
      "type": "function"
    },
    {
      "inputs": [],
      "name": "initialize",
      "outputs": [],
      "stateMutability": "nonpayable",
      "type": "function"
    },
    {
      "inputs": [
        {
          "internalType": "bytes32",
          "name": "role",
          "type": "bytes32"
        },
        {
          "internalType": "address",
          "name": "account",
          "type": "address"
        }
      ],
      "name": "renounceRole",
      "outputs": [],
      "stateMutability": "nonpayable",
      "type": "function"
    },
    {
      "inputs": [
        {
          "internalType": "address",
          "name": "token",
          "type": "address"
        },
        {
          "internalType": "uint256",
          "name": "amount",
          "type": "uint256"
        }
      ],
      "name": "requestFundsPCT",
      "outputs": [],
      "stateMutability": "nonpayable",
      "type": "function"
    },
    {
      "inputs": [
        {
          "internalType": "bytes32",
          "name": "role",
          "type": "bytes32"
        },
        {
          "internalType": "address",
          "name": "account",
          "type": "address"
        }
      ],
      "name": "revokeRole",
      "outputs": [],
      "stateMutability": "nonpayable",
      "type": "function"
    },
    {
      "inputs": [
        {
          "internalType": "address",
          "name": "_handle",
          "type": "address"
        }
      ],
      "name": "setHandleContract",
      "outputs": [],
      "stateMutability": "nonpayable",
      "type": "function"
    },
    {
      "inputs": [
        {
          "internalType": "bytes4",
          "name": "interfaceId",
          "type": "bytes4"
        }
      ],
      "name": "supportsInterface",
      "outputs": [
        {
          "internalType": "bool",
          "name": "",
          "type": "bool"
        }
      ],
      "stateMutability": "view",
      "type": "function"
    },
    {
      "inputs": [
        {
          "internalType": "address",
          "name": "account",
          "type": "address"
        },
        {
          "internalType": "address",
          "name": "fxToken",
          "type": "address"
        }
      ],
      "name": "updateVaultInterest",
      "outputs": [],
      "stateMutability": "nonpayable",
      "type": "function"
    },
    {
      "inputs": [
        {
          "internalType": "address",
          "name": "newImplementation",
          "type": "address"
        }
      ],
      "name": "upgradeTo",
      "outputs": [],
      "stateMutability": "nonpayable",
      "type": "function"
    },
    {
      "inputs": [
        {
          "internalType": "address",
          "name": "newImplementation",
          "type": "address"
        },
        {
          "internalType": "bytes",
          "name": "data",
          "type": "bytes"
        }
      ],
      "name": "upgradeToAndCall",
      "outputs": [],
      "stateMutability": "payable",
      "type": "function"
    },
    {
      "inputs": [
        {
          "internalType": "address",
          "name": "collateralToken",
          "type": "address"
        },
        {
          "internalType": "address",
          "name": "to",
          "type": "address"
        },
        {
          "internalType": "uint256",
          "name": "amount",
          "type": "uint256"
        },
        {
          "internalType": "address",
          "name": "fxToken",
          "type": "address"
        }
      ],
      "name": "withdrawCollateral",
      "outputs": [],
      "stateMutability": "nonpayable",
      "type": "function"
    },
    {
      "inputs": [
        {
          "internalType": "address",
          "name": "to",
          "type": "address"
        },
        {
          "internalType": "uint256",
          "name": "amount",
          "type": "uint256"
        },
        {
          "internalType": "address",
          "name": "fxToken",
          "type": "address"
        }
      ],
      "name": "withdrawCollateralETH",
      "outputs": [],
      "stateMutability": "nonpayable",
      "type": "function"
    },
    {
      "inputs": [
        {
          "internalType": "address",
          "name": "from",
          "type": "address"
        },
        {
          "internalType": "address",
          "name": "collateralToken",
          "type": "address"
        },
        {
          "internalType": "address",
          "name": "to",
          "type": "address"
        },
        {
          "internalType": "uint256",
          "name": "amount",
          "type": "uint256"
        },
        {
          "internalType": "address",
          "name": "fxToken",
          "type": "address"
        }
      ],
      "name": "withdrawCollateralFrom",
      "outputs": [],
      "stateMutability": "nonpayable",
      "type": "function"
    },
    {
      "stateMutability": "payable",
      "type": "receive"
    }
  ],
  "bytecode": "0x608060405234801561001057600080fd5b50615cbe80620000216000396000f3fe6080604052600436106101445760003560e01c806374bf578b116100b6578063a217fddf1161006f578063a217fddf1461043f578063ce1c18511461046a578063d547741f14610493578063e82f1e7a146104bc578063f5b541a6146104d8578063fd58a301146105035761014b565b806374bf578b1461034357806375b238fc1461036e5780638129fc1c146103995780638c6d4c47146103b057806391d14854146103d95780639b1c414f146104165761014b565b80633659cfe6116101085780633659cfe61461025a5780633fa6b819146102835780634f1ef286146102ac57806358166d24146102c85780635a6f45de146102f157806364cfc1ad1461031a5761014b565b806301ffc9a714610150578063248a9ca31461018d5780632f2ff15d146101ca578063337b219a146101f357806336568abe146102315761014b565b3661014b57005b600080fd5b34801561015c57600080fd5b5061017760048036038101906101729190614aaf565b61052c565b60405161018491906151ad565b60405180910390f35b34801561019957600080fd5b506101b460048036038101906101af9190614a4a565b6105a6565b6040516101c191906151c8565b60405180910390f35b3480156101d657600080fd5b506101f160048036038101906101ec9190614a73565b6105c6565b005b3480156101ff57600080fd5b5061021a600480360381019061021591906147fd565b6105ef565b604051610228929190615176565b60405180910390f35b34801561023d57600080fd5b5061025860048036038101906102539190614a73565b61081b565b005b34801561026657600080fd5b50610281600480360381019061027c91906146f8565b61089e565b005b34801561028f57600080fd5b506102aa60048036038101906102a5919061474a565b6108c5565b005b6102c660048036038101906102c19190614860565b6109a7565b005b3480156102d457600080fd5b506102ef60048036038101906102ea9190614786565b6109c0565b005b3480156102fd57600080fd5b50610318600480360381019061031391906147fd565b610a3d565b005b34801561032657600080fd5b50610341600480360381019061033c9190614786565b610aa6565b005b34801561034f57600080fd5b50610358610be4565b6040516103659190614fbe565b60405180910390f35b34801561037a57600080fd5b50610383610c0f565b60405161039091906151c8565b60405180910390f35b3480156103a557600080fd5b506103ae610c33565b005b3480156103bc57600080fd5b506103d760048036038101906103d291906148b4565b610d90565b005b3480156103e557600080fd5b5061040060048036038101906103fb9190614a73565b610f36565b60405161040d91906151ad565b60405180910390f35b34801561042257600080fd5b5061043d600480360381019061043891906146f8565b610fa1565b005b34801561044b57600080fd5b506104546116c5565b60405161046191906151c8565b60405180910390f35b34801561047657600080fd5b50610491600480360381019061048c919061493f565b6116cc565b005b34801561049f57600080fd5b506104ba60048036038101906104b59190614a73565b611735565b005b6104d660048036038101906104d1919061474a565b61175e565b005b3480156104e457600080fd5b506104ed61197a565b6040516104fa91906151c8565b60405180910390f35b34801561050f57600080fd5b5061052a600480360381019061052591906148f0565b61199e565b005b60007f7965db0b000000000000000000000000000000000000000000000000000000007bffffffffffffffffffffffffffffffffffffffffffffffffffffffff1916827bffffffffffffffffffffffffffffffffffffffffffffffffffffffff1916148061059f575061059e82612175565b5b9050919050565b600060c96000838152602001908152602001600020600101549050919050565b6105cf826105a6565b6105e0816105db6121df565b6121e7565b6105ea8383612284565b505050565b60608061061c7f97667070c54ef182b0f5858b034beac1b6f3089aa2d3188bb1e8929f4fa9b92933610f36565b61065b576040517f08c379a000000000000000000000000000000000000000000000000000000000815260040161065290615245565b60405180910390fd5b600061012e60009054906101000a900473ffffffffffffffffffffffffffffffffffffffff1673ffffffffffffffffffffffffffffffffffffffff1663234ab3e28886886040518463ffffffff1660e01b81526004016106bd93929190615039565b60006040518083038186803b1580156106d557600080fd5b505afa1580156106e9573d6000803e3d6000fd5b505050506040513d6000823e3d601f19601f8201168201806040525081019061071291906149a2565b8093508194508295505050508061075e576040517f08c379a0000000000000000000000000000000000000000000000000000000008152600401610755906152e5565b60405180910390fd5b60008351905060005b8181101561080f576107fc898683815181106107ac577f4e487b7100000000000000000000000000000000000000000000000000000000600052603260045260246000fd5b60200260200101518a8785815181106107ee577f4e487b7100000000000000000000000000000000000000000000000000000000600052603260045260246000fd5b60200260200101518a612365565b80806108079061578d565b915050610767565b50505094509492505050565b6108236121df565b73ffffffffffffffffffffffffffffffffffffffff168173ffffffffffffffffffffffffffffffffffffffff1614610890576040517f08c379a0000000000000000000000000000000000000000000000000000000008152600401610887906153c5565b60405180910390fd5b61089a828261281b565b5050565b6108a7816128fd565b6108c281604051806020016040528060008152506000612969565b50565b818073ffffffffffffffffffffffffffffffffffffffff163373ffffffffffffffffffffffffffffffffffffffff16148061095957506109257f97667070c54ef182b0f5858b034beac1b6f3089aa2d3188bb1e8929f4fa9b92933610f36565b801561095857506109567fa49807205ce4d355092ef5a8a18f56e8913cf4a201fbe287825b095693c2177533610f36565b155b5b610998576040517f08c379a000000000000000000000000000000000000000000000000000000000815260040161098f906152a5565b60405180910390fd5b6109a28383612b7d565b505050565b6109b0826128fd565b6109bc82826001612969565b5050565b6109ea7f97667070c54ef182b0f5858b034beac1b6f3089aa2d3188bb1e8929f4fa9b92933610f36565b610a29576040517f08c379a0000000000000000000000000000000000000000000000000000000008152600401610a2090615245565b60405180910390fd5b610a368585858585612365565b5050505050565b600260fb541415610a83576040517f08c379a0000000000000000000000000000000000000000000000000000000008152600401610a7a906153a5565b60405180910390fd5b600260fb81905550610a983385858585612eb8565b600160fb8190555050505050565b848073ffffffffffffffffffffffffffffffffffffffff163373ffffffffffffffffffffffffffffffffffffffff161480610b3a5750610b067f97667070c54ef182b0f5858b034beac1b6f3089aa2d3188bb1e8929f4fa9b92933610f36565b8015610b395750610b377fa49807205ce4d355092ef5a8a18f56e8913cf4a201fbe287825b095693c2177533610f36565b155b5b610b79576040517f08c379a0000000000000000000000000000000000000000000000000000000008152600401610b70906152a5565b60405180910390fd5b600260fb541415610bbf576040517f08c379a0000000000000000000000000000000000000000000000000000000008152600401610bb6906153a5565b60405180910390fd5b600260fb81905550610bd48686868686612eb8565b600160fb81905550505050505050565b600061012d60009054906101000a900473ffffffffffffffffffffffffffffffffffffffff16905090565b7fa49807205ce4d355092ef5a8a18f56e8913cf4a201fbe287825b095693c2177581565b600060019054906101000a900460ff1680610c59575060008054906101000a900460ff16155b610c98576040517f08c379a0000000000000000000000000000000000000000000000000000000008152600401610c8f906152c5565b60405180910390fd5b60008060019054906101000a900460ff161590508015610ce8576001600060016101000a81548160ff02191690831515021790555060016000806101000a81548160ff0219169083151502179055505b610cf0613219565b610cf861330a565b610d227fa49807205ce4d355092ef5a8a18f56e8913cf4a201fbe287825b095693c21775336133eb565b610d6c7f97667070c54ef182b0f5858b034beac1b6f3089aa2d3188bb1e8929f4fa9b9297fa49807205ce4d355092ef5a8a18f56e8913cf4a201fbe287825b095693c217756133f9565b8015610d8d5760008060016101000a81548160ff0219169083151502179055505b50565b600061012d60009054906101000a900473ffffffffffffffffffffffffffffffffffffffff1673ffffffffffffffffffffffffffffffffffffffff16639cfd96696040518163ffffffff1660e01b815260040160206040518083038186803b158015610dfb57600080fd5b505afa158015610e0f573d6000803e3d6000fd5b505050506040513d601f19601f82011682018060405250810190610e339190614721565b90508073ffffffffffffffffffffffffffffffffffffffff163373ffffffffffffffffffffffffffffffffffffffff1614610ea3576040517f08c379a0000000000000000000000000000000000000000000000000000000008152600401610e9a90615245565b60405180910390fd5b8273ffffffffffffffffffffffffffffffffffffffff1663a9059cbb82846040518363ffffffff1660e01b8152600401610ede929190615070565b602060405180830381600087803b158015610ef857600080fd5b505af1158015610f0c573d6000803e3d6000fd5b505050506040513d601f19601f82011682018060405250810190610f309190614a21565b50505050565b600060c9600084815260200190815260200160002060000160008373ffffffffffffffffffffffffffffffffffffffff1673ffffffffffffffffffffffffffffffffffffffff16815260200190815260200160002060009054906101000a900460ff16905092915050565b610fcb7fa49807205ce4d355092ef5a8a18f56e8913cf4a201fbe287825b095693c2177533610f36565b61100a576040517f08c379a000000000000000000000000000000000000000000000000000000000815260040161100190615385565b60405180910390fd5b8061012d60006101000a81548173ffffffffffffffffffffffffffffffffffffffff021916908373ffffffffffffffffffffffffffffffffffffffff16021790555061012d60009054906101000a900473ffffffffffffffffffffffffffffffffffffffff1673ffffffffffffffffffffffffffffffffffffffff1663ad5c46486040518163ffffffff1660e01b815260040160206040518083038186803b1580156110b557600080fd5b505afa1580156110c9573d6000803e3d6000fd5b505050506040513d601f19601f820116820180604052508101906110ed9190614721565b61012f60006101000a81548173ffffffffffffffffffffffffffffffffffffffff021916908373ffffffffffffffffffffffffffffffffffffffff16021790555060006003905060008167ffffffffffffffff811115611176577f4e487b7100000000000000000000000000000000000000000000000000000000600052604160045260246000fd5b6040519080825280602002602001820160405280156111a45781602001602082028036833780820191505090505b50905061012d60009054906101000a900473ffffffffffffffffffffffffffffffffffffffff1673ffffffffffffffffffffffffffffffffffffffff16635fe3b5676040518163ffffffff1660e01b815260040160206040518083038186803b15801561121057600080fd5b505afa158015611224573d6000803e3d6000fd5b505050506040513d601f19601f820116820180604052508101906112489190614721565b81600081518110611282577f4e487b7100000000000000000000000000000000000000000000000000000000600052603260045260246000fd5b602002602001019073ffffffffffffffffffffffffffffffffffffffff16908173ffffffffffffffffffffffffffffffffffffffff168152505061012d60009054906101000a900473ffffffffffffffffffffffffffffffffffffffff1673ffffffffffffffffffffffffffffffffffffffff166327ab02b96040518163ffffffff1660e01b815260040160206040518083038186803b15801561132557600080fd5b505afa158015611339573d6000803e3d6000fd5b505050506040513d601f19601f8201168201806040525081019061135d9190614721565b81600181518110611397577f4e487b7100000000000000000000000000000000000000000000000000000000600052603260045260246000fd5b602002602001019073ffffffffffffffffffffffffffffffffffffffff16908173ffffffffffffffffffffffffffffffffffffffff168152505061012d60009054906101000a900473ffffffffffffffffffffffffffffffffffffffff1673ffffffffffffffffffffffffffffffffffffffff16634046ebae6040518163ffffffff1660e01b815260040160206040518083038186803b15801561143a57600080fd5b505afa15801561144e573d6000803e3d6000fd5b505050506040513d601f19601f820116820180604052508101906114729190614721565b816002815181106114ac577f4e487b7100000000000000000000000000000000000000000000000000000000600052603260045260246000fd5b602002602001019073ffffffffffffffffffffffffffffffffffffffff16908173ffffffffffffffffffffffffffffffffffffffff168152505060005b828110156115dd5761155b7f97667070c54ef182b0f5858b034beac1b6f3089aa2d3188bb1e8929f4fa9b92983838151811061154e577f4e487b7100000000000000000000000000000000000000000000000000000000600052603260045260246000fd5b6020026020010151610f36565b6115ca576115c97f97667070c54ef182b0f5858b034beac1b6f3089aa2d3188bb1e8929f4fa9b9298383815181106115bc577f4e487b7100000000000000000000000000000000000000000000000000000000600052603260045260246000fd5b60200260200101516105c6565b5b80806115d59061578d565b9150506114e9565b5061012d60009054906101000a900473ffffffffffffffffffffffffffffffffffffffff1673ffffffffffffffffffffffffffffffffffffffff1663eb0a8b916040518163ffffffff1660e01b815260040160206040518083038186803b15801561164757600080fd5b505afa15801561165b573d6000803e3d6000fd5b505050506040513d601f19601f8201168201806040525081019061167f9190614721565b61012e60006101000a81548173ffffffffffffffffffffffffffffffffffffffff021916908373ffffffffffffffffffffffffffffffffffffffff160217905550505050565b6000801b81565b600260fb541415611712576040517f08c379a0000000000000000000000000000000000000000000000000000000008152600401611709906153a5565b60405180910390fd5b600260fb81905550611727338585858561344f565b600160fb8190555050505050565b61173e826105a6565b61174f8161174a6121df565b6121e7565b611759838361281b565b505050565b600260fb5414156117a4576040517f08c379a000000000000000000000000000000000000000000000000000000000815260040161179b906153a5565b60405180910390fd5b600260fb8190555061012d60009054906101000a900473ffffffffffffffffffffffffffffffffffffffff1673ffffffffffffffffffffffffffffffffffffffff1663803c97b361012f60009054906101000a900473ffffffffffffffffffffffffffffffffffffffff166040518263ffffffff1660e01b815260040161182b9190614fbe565b60206040518083038186803b15801561184357600080fd5b505afa158015611857573d6000803e3d6000fd5b505050506040513d601f19601f8201168201806040525081019061187b9190614a21565b6118ba576040517f08c379a00000000000000000000000000000000000000000000000000000000081526004016118b190615225565b60405180910390fd5b61012f60009054906101000a900473ffffffffffffffffffffffffffffffffffffffff1673ffffffffffffffffffffffffffffffffffffffff1663d0e30db0346040518263ffffffff1660e01b81526004016000604051808303818588803b15801561192557600080fd5b505af1158015611939573d6000803e3d6000fd5b505050505061196e30833461012f60009054906101000a900473ffffffffffffffffffffffffffffffffffffffff168561344f565b600160fb819055505050565b7f97667070c54ef182b0f5858b034beac1b6f3089aa2d3188bb1e8929f4fa9b92981565b600260fb5414156119e4576040517f08c379a00000000000000000000000000000000000000000000000000000000081526004016119db906153a5565b60405180910390fd5b600260fb819055506119f63382612b7d565b600061012d60009054906101000a900473ffffffffffffffffffffffffffffffffffffffff1673ffffffffffffffffffffffffffffffffffffffff1663d02641a061012f60009054906101000a900473ffffffffffffffffffffffffffffffffffffffff166040518263ffffffff1660e01b8152600401611a779190614fbe565b60206040518083038186803b158015611a8f57600080fd5b505afa158015611aa3573d6000803e3d6000fd5b505050506040513d601f19601f82011682018060405250810190611ac79190614ad8565b90506000611ba582611b97670de0b6b3a764000061012e60009054906101000a900473ffffffffffffffffffffffffffffffffffffffff1673ffffffffffffffffffffffffffffffffffffffff1663e76ab23933896040518363ffffffff1660e01b8152600401611b39929190614fd9565b60206040518083038186803b158015611b5157600080fd5b505afa158015611b65573d6000803e3d6000fd5b505050506040513d601f19601f82011682018060405250810190611b899190614ad8565b6138cf90919063ffffffff16565b6138e590919063ffffffff16565b9050600061012d60009054906101000a900473ffffffffffffffffffffffffffffffffffffffff1673ffffffffffffffffffffffffffffffffffffffff1663c462b5203361012f60009054906101000a900473ffffffffffffffffffffffffffffffffffffffff16876040518463ffffffff1660e01b8152600401611c2c93929190615002565b60206040518083038186803b158015611c4457600080fd5b505afa158015611c58573d6000803e3d6000fd5b505050506040513d601f19601f82011682018060405250810190611c7c9190614ad8565b905080821115611c8a578091505b60008211611ccd576040517f08c379a0000000000000000000000000000000000000000000000000000000008152600401611cc490615365565b60405180910390fd5b81851115611cd9578194505b61012f60009054906101000a900473ffffffffffffffffffffffffffffffffffffffff1673ffffffffffffffffffffffffffffffffffffffff16632e1a7d4d866040518263ffffffff1660e01b8152600401611d3591906153e5565b600060405180830381600087803b158015611d4f57600080fd5b505af1158015611d63573d6000803e3d6000fd5b5050505084471015611d9e577f4e487b7100000000000000000000000000000000000000000000000000000000600052600160045260246000fd5b6000611e676103e8611e5961012d60009054906101000a900473ffffffffffffffffffffffffffffffffffffffff1673ffffffffffffffffffffffffffffffffffffffff166341e3f2816040518163ffffffff1660e01b815260040160206040518083038186803b158015611e1257600080fd5b505afa158015611e26573d6000803e3d6000fd5b505050506040513d601f19601f82011682018060405250810190611e4a9190614ad8565b896138cf90919063ffffffff16565b6138e590919063ffffffff16565b9050611e7c81876138fb90919063ffffffff16565b9550600061012d60009054906101000a900473ffffffffffffffffffffffffffffffffffffffff1673ffffffffffffffffffffffffffffffffffffffff1663ec94578e6040518163ffffffff1660e01b815260040160206040518083038186803b158015611ee957600080fd5b505afa158015611efd573d6000803e3d6000fd5b505050506040513d601f19601f82011682018060405250810190611f219190614721565b73ffffffffffffffffffffffffffffffffffffffff1682604051611f4490614f6f565b60006040518083038185875af1925050503d8060008114611f81576040519150601f19603f3d011682016040523d82523d6000602084013e611f86565b606091505b50508091505080611fcc576040517f08c379a0000000000000000000000000000000000000000000000000000000008152600401611fc390615265565b60405180910390fd5b3373ffffffffffffffffffffffffffffffffffffffff1687604051611ff090614f6f565b60006040518083038185875af1925050503d806000811461202d576040519150601f19603f3d011682016040523d82523d6000602084013e612032565b606091505b50508091505080612078576040517f08c379a000000000000000000000000000000000000000000000000000000000815260040161206f90615265565b60405180910390fd5b61012d60009054906101000a900473ffffffffffffffffffffffffffffffffffffffff1673ffffffffffffffffffffffffffffffffffffffff1663181e20a733898961012f60009054906101000a900473ffffffffffffffffffffffffffffffffffffffff1660006040518663ffffffff1660e01b81526004016121009594939291906150de565b600060405180830381600087803b15801561211a57600080fd5b505af115801561212e573d6000803e3d6000fd5b50505050612163338761012f60009054906101000a900473ffffffffffffffffffffffffffffffffffffffff168a6000613911565b5050505050600160fb81905550505050565b60007f01ffc9a7000000000000000000000000000000000000000000000000000000007bffffffffffffffffffffffffffffffffffffffffffffffffffffffff1916827bffffffffffffffffffffffffffffffffffffffffffffffffffffffff1916149050919050565b600033905090565b6121f18282610f36565b612280576122168173ffffffffffffffffffffffffffffffffffffffff166014613bd3565b6122248360001c6020613bd3565b604051602001612235929190614f84565b6040516020818303038152906040526040517f08c379a000000000000000000000000000000000000000000000000000000000815260040161227791906151e3565b60405180910390fd5b5050565b61228e8282610f36565b61236157600160c9600084815260200190815260200160002060000160008373ffffffffffffffffffffffffffffffffffffffff1673ffffffffffffffffffffffffffffffffffffffff16815260200190815260200160002060006101000a81548160ff0219169083151502179055506123066121df565b73ffffffffffffffffffffffffffffffffffffffff168173ffffffffffffffffffffffffffffffffffffffff16837f2f8788117e7eff1d82e926ec794901d17c78024a50270940304540a733656f0d60405160405180910390a45b5050565b60008473ffffffffffffffffffffffffffffffffffffffff166370a08231856040518263ffffffff1660e01b81526004016123a09190614fbe565b60206040518083038186803b1580156123b857600080fd5b505afa1580156123cc573d6000803e3d6000fd5b505050506040513d601f19601f820116820180604052508101906123f09190614ad8565b905060006124bb6103e86124ad61012d60009054906101000a900473ffffffffffffffffffffffffffffffffffffffff1673ffffffffffffffffffffffffffffffffffffffff166341e3f2816040518163ffffffff1660e01b815260040160206040518083038186803b15801561246657600080fd5b505afa15801561247a573d6000803e3d6000fd5b505050506040513d601f19601f8201168201806040525081019061249e9190614ad8565b876138cf90919063ffffffff16565b6138e590919063ffffffff16565b90508573ffffffffffffffffffffffffffffffffffffffff1663a9059cbb61012d60009054906101000a900473ffffffffffffffffffffffffffffffffffffffff1673ffffffffffffffffffffffffffffffffffffffff1663ec94578e6040518163ffffffff1660e01b815260040160206040518083038186803b15801561254257600080fd5b505afa158015612556573d6000803e3d6000fd5b505050506040513d601f19601f8201168201806040525081019061257a9190614721565b836040518363ffffffff1660e01b8152600401612598929190615070565b602060405180830381600087803b1580156125b257600080fd5b505af11580156125c6573d6000803e3d6000fd5b505050506040513d601f19601f820116820180604052508101906125ea9190614a21565b508573ffffffffffffffffffffffffffffffffffffffff1663a9059cbb8661261b84886138fb90919063ffffffff16565b6040518363ffffffff1660e01b8152600401612638929190615070565b602060405180830381600087803b15801561265257600080fd5b505af1158015612666573d6000803e3d6000fd5b505050506040513d601f19601f8201168201806040525081019061268a9190614a21565b506126b0816126a28685613ecd90919063ffffffff16565b6138fb90919063ffffffff16565b8673ffffffffffffffffffffffffffffffffffffffff166370a08231876040518263ffffffff1660e01b81526004016126e99190614fbe565b60206040518083038186803b15801561270157600080fd5b505afa158015612715573d6000803e3d6000fd5b505050506040513d601f19601f820116820180604052508101906127399190614ad8565b1461276d577f4e487b7100000000000000000000000000000000000000000000000000000000600052600160045260246000fd5b61012d60009054906101000a900473ffffffffffffffffffffffffffffffffffffffff1673ffffffffffffffffffffffffffffffffffffffff1663181e20a78886868a60006040518663ffffffff1660e01b81526004016127d29594939291906150de565b600060405180830381600087803b1580156127ec57600080fd5b505af1158015612800573d6000803e3d6000fd5b50505050612812878488876000613911565b50505050505050565b6128258282610f36565b156128f957600060c9600084815260200190815260200160002060000160008373ffffffffffffffffffffffffffffffffffffffff1673ffffffffffffffffffffffffffffffffffffffff16815260200190815260200160002060006101000a81548160ff02191690831515021790555061289e6121df565b73ffffffffffffffffffffffffffffffffffffffff168173ffffffffffffffffffffffffffffffffffffffff16837ff6391f5c32d9c69d2a47ea670b442974b53935d1edc7fd64eb21e047a839171b60405160405180910390a45b5050565b6129277fa49807205ce4d355092ef5a8a18f56e8913cf4a201fbe287825b095693c2177533610f36565b612966576040517f08c379a000000000000000000000000000000000000000000000000000000000815260040161295d90615385565b60405180910390fd5b50565b6000612973613ee3565b905061297e84613f3a565b60008351118061298b5750815b1561299c5761299a8484613ff3565b505b60006129ca7f4910fdfa16fed3260ed0e7147f7cc6da11a60208b5b9406d12a635614ffd914360001b6140d7565b90508060000160009054906101000a900460ff16612b765760018160000160006101000a81548160ff021916908315150217905550612a968583604051602401612a149190614fbe565b6040516020818303038152906040527f3659cfe6000000000000000000000000000000000000000000000000000000007bffffffffffffffffffffffffffffffffffffffffffffffffffffffff19166020820180517bffffffffffffffffffffffffffffffffffffffffffffffffffffffff8381831617835250505050613ff3565b5060008160000160006101000a81548160ff021916908315150217905550612abc613ee3565b73ffffffffffffffffffffffffffffffffffffffff168273ffffffffffffffffffffffffffffffffffffffff1614612b29576040517f08c379a0000000000000000000000000000000000000000000000000000000008152600401612b2090615285565b60405180910390fd5b612b3285613f3a565b8473ffffffffffffffffffffffffffffffffffffffff167fbc7cd75a20ee27fd9adebab32041f755214dbc6bffa90cc0225b39da2e5c2d3b60405160405180910390a25b5050505050565b600061012d60009054906101000a900473ffffffffffffffffffffffffffffffffffffffff1673ffffffffffffffffffffffffffffffffffffffff1663c68da11084846040518363ffffffff1660e01b8152600401612bdd929190614fd9565b60206040518083038186803b158015612bf557600080fd5b505afa158015612c09573d6000803e3d6000fd5b505050506040513d601f19601f82011682018060405250810190612c2d9190614ad8565b905042811415612c3d5750612eb4565b6000811415612cde5761012d60009054906101000a900473ffffffffffffffffffffffffffffffffffffffff1673ffffffffffffffffffffffffffffffffffffffff1663d5d907db8484426040518463ffffffff1660e01b8152600401612ca693929190615039565b600060405180830381600087803b158015612cc057600080fd5b505af1158015612cd4573d6000803e3d6000fd5b5050505050612eb4565b61012d60009054906101000a900473ffffffffffffffffffffffffffffffffffffffff1673ffffffffffffffffffffffffffffffffffffffff1663877034f18461012e60009054906101000a900473ffffffffffffffffffffffffffffffffffffffff1673ffffffffffffffffffffffffffffffffffffffff16638709294087876040518363ffffffff1660e01b8152600401612d7c929190614fd9565b60206040518083038186803b158015612d9457600080fd5b505afa158015612da8573d6000803e3d6000fd5b505050506040513d601f19601f82011682018060405250810190612dcc9190614ad8565b8560016040518563ffffffff1660e01b8152600401612dee9493929190615131565b600060405180830381600087803b158015612e0857600080fd5b505af1158015612e1c573d6000803e3d6000fd5b5050505061012d60009054906101000a900473ffffffffffffffffffffffffffffffffffffffff1673ffffffffffffffffffffffffffffffffffffffff1663d5d907db8484426040518463ffffffff1660e01b8152600401612e8093929190615039565b600060405180830381600087803b158015612e9a57600080fd5b505af1158015612eae573d6000803e3d6000fd5b50505050505b5050565b612ec28582612b7d565b600061012d60009054906101000a900473ffffffffffffffffffffffffffffffffffffffff1673ffffffffffffffffffffffffffffffffffffffff1663d02641a0866040518263ffffffff1660e01b8152600401612f209190614fbe565b60206040518083038186803b158015612f3857600080fd5b505afa158015612f4c573d6000803e3d6000fd5b505050506040513d601f19601f82011682018060405250810190612f709190614ad8565b905060006130f1826130e361012e60009054906101000a900473ffffffffffffffffffffffffffffffffffffffff1673ffffffffffffffffffffffffffffffffffffffff166380ef72a98a6040518263ffffffff1660e01b8152600401612fd79190614fbe565b60206040518083038186803b158015612fef57600080fd5b505afa158015613003573d6000803e3d6000fd5b505050506040513d601f19601f820116820180604052508101906130279190614ad8565b61012e60009054906101000a900473ffffffffffffffffffffffffffffffffffffffff1673ffffffffffffffffffffffffffffffffffffffff1663e76ab2398c896040518363ffffffff1660e01b8152600401613085929190614fd9565b60206040518083038186803b15801561309d57600080fd5b505afa1580156130b1573d6000803e3d6000fd5b505050506040513d601f19601f820116820180604052508101906130d59190614ad8565b6138cf90919063ffffffff16565b6138e590919063ffffffff16565b9050600061012d60009054906101000a900473ffffffffffffffffffffffffffffffffffffffff1673ffffffffffffffffffffffffffffffffffffffff1663c462b5208989876040518463ffffffff1660e01b815260040161315593929190615002565b60206040518083038186803b15801561316d57600080fd5b505afa158015613181573d6000803e3d6000fd5b505050506040513d601f19601f820116820180604052508101906131a59190614ad8565b9050808211156131b3578091505b600082116131f6576040517f08c379a00000000000000000000000000000000000000000000000000000000081526004016131ed90615365565b60405180910390fd5b81851115613202578194505b61320f8888888888612365565b5050505050505050565b600060019054906101000a900460ff168061323f575060008054906101000a900460ff16155b61327e576040517f08c379a0000000000000000000000000000000000000000000000000000000008152600401613275906152c5565b60405180910390fd5b60008060019054906101000a900460ff1615905080156132ce576001600060016101000a81548160ff02191690831515021790555060016000806101000a81548160ff0219169083151502179055505b6132d66140e1565b6132de6141ba565b6132e6614293565b80156133075760008060016101000a81548160ff0219169083151502179055505b50565b600060019054906101000a900460ff1680613330575060008054906101000a900460ff16155b61336f576040517f08c379a0000000000000000000000000000000000000000000000000000000008152600401613366906152c5565b60405180910390fd5b60008060019054906101000a900460ff1615905080156133bf576001600060016101000a81548160ff02191690831515021790555060016000806101000a81548160ff0219169083151502179055505b6133c761436c565b80156133e85760008060016101000a81548160ff0219169083151502179055505b50565b6133f58282612284565b5050565b80613403836105a6565b837fbd79b86ffe0ab8e8776151514217cd7cacd52c909f66475c3af44e129f0b00ff60405160405180910390a48060c96000848152602001908152602001600020600101819055505050565b61012d60009054906101000a900473ffffffffffffffffffffffffffffffffffffffff1673ffffffffffffffffffffffffffffffffffffffff1663803c97b3836040518263ffffffff1660e01b81526004016134ab9190614fbe565b60206040518083038186803b1580156134c357600080fd5b505afa1580156134d7573d6000803e3d6000fd5b505050506040513d601f19601f820116820180604052508101906134fb9190614a21565b61353a576040517f08c379a000000000000000000000000000000000000000000000000000000000815260040161353190615225565b60405180910390fd5b6135448482612b7d565b600061360d6103e86135ff61012d60009054906101000a900473ffffffffffffffffffffffffffffffffffffffff1673ffffffffffffffffffffffffffffffffffffffff16639df5138a6040518163ffffffff1660e01b815260040160206040518083038186803b1580156135b857600080fd5b505afa1580156135cc573d6000803e3d6000fd5b505050506040513d601f19601f820116820180604052508101906135f09190614ad8565b876138cf90919063ffffffff16565b6138e590919063ffffffff16565b905061362281856138fb90919063ffffffff16565b93508273ffffffffffffffffffffffffffffffffffffffff166323b872dd8730876040518463ffffffff1660e01b815260040161366193929190615039565b602060405180830381600087803b15801561367b57600080fd5b505af115801561368f573d6000803e3d6000fd5b505050506040513d601f19601f820116820180604052508101906136b39190614a21565b6136f2576040517f08c379a00000000000000000000000000000000000000000000000000000000081526004016136e990615325565b60405180910390fd5b61012d60009054906101000a900473ffffffffffffffffffffffffffffffffffffffff1673ffffffffffffffffffffffffffffffffffffffff1663181e20a78686858760016040518663ffffffff1660e01b81526004016137579594939291906150de565b600060405180830381600087803b15801561377157600080fd5b505af1158015613785573d6000803e3d6000fd5b505050508273ffffffffffffffffffffffffffffffffffffffff166323b872dd8761012d60009054906101000a900473ffffffffffffffffffffffffffffffffffffffff1673ffffffffffffffffffffffffffffffffffffffff1663ec94578e6040518163ffffffff1660e01b815260040160206040518083038186803b15801561380f57600080fd5b505afa158015613823573d6000803e3d6000fd5b505050506040513d601f19601f820116820180604052508101906138479190614721565b846040518463ffffffff1660e01b815260040161386693929190615039565b602060405180830381600087803b15801561388057600080fd5b505af1158015613894573d6000803e3d6000fd5b505050506040513d601f19601f820116820180604052508101906138b89190614a21565b506138c7858385876001613911565b505050505050565b600081836138dd91906155e4565b905092915050565b600081836138f391906155b3565b905092915050565b60008183613909919061563e565b905092915050565b600061012d60009054906101000a900473ffffffffffffffffffffffffffffffffffffffff1673ffffffffffffffffffffffffffffffffffffffff166301964f366040518163ffffffff1660e01b815260040160206040518083038186803b15801561397c57600080fd5b505afa158015613990573d6000803e3d6000fd5b505050506040513d601f19601f820116820180604052508101906139b49190614ad8565b905060008114156139c55750613bcc565b6139f2670de0b6b3a76400006139e483866138cf90919063ffffffff16565b6138e590919063ffffffff16565b9250600061012d60009054906101000a900473ffffffffffffffffffffffffffffffffffffffff1673ffffffffffffffffffffffffffffffffffffffff16639cfd96696040518163ffffffff1660e01b815260040160206040518083038186803b158015613a5f57600080fd5b505afa158015613a73573d6000803e3d6000fd5b505050506040513d601f19601f82011682018060405250810190613a979190614721565b90508215613b36578073ffffffffffffffffffffffffffffffffffffffff16634a0e780e888689896040518563ffffffff1660e01b8152600401613ade9493929190615099565b602060405180830381600087803b158015613af857600080fd5b505af1158015613b0c573d6000803e3d6000fd5b505050506040513d601f19601f82011682018060405250810190613b309190614ad8565b50613bc9565b8073ffffffffffffffffffffffffffffffffffffffff16635aa347c7888689896040518563ffffffff1660e01b8152600401613b759493929190615099565b602060405180830381600087803b158015613b8f57600080fd5b505af1158015613ba3573d6000803e3d6000fd5b505050506040513d601f19601f82011682018060405250810190613bc79190614ad8565b505b50505b5050505050565b606060006002836002613be691906155e4565b613bf0919061555d565b67ffffffffffffffff811115613c2f577f4e487b7100000000000000000000000000000000000000000000000000000000600052604160045260246000fd5b6040519080825280601f01601f191660200182016040528015613c615781602001600182028036833780820191505090505b5090507f300000000000000000000000000000000000000000000000000000000000000081600081518110613cbf577f4e487b7100000000000000000000000000000000000000000000000000000000600052603260045260246000fd5b60200101907effffffffffffffffffffffffffffffffffffffffffffffffffffffffffffff1916908160001a9053507f780000000000000000000000000000000000000000000000000000000000000081600181518110613d49577f4e487b7100000000000000000000000000000000000000000000000000000000600052603260045260246000fd5b60200101907effffffffffffffffffffffffffffffffffffffffffffffffffffffffffffff1916908160001a90535060006001846002613d8991906155e4565b613d93919061555d565b90505b6001811115613e7f577f3031323334353637383961626364656600000000000000000000000000000000600f861660108110613dfb577f4e487b7100000000000000000000000000000000000000000000000000000000600052603260045260246000fd5b1a60f81b828281518110613e38577f4e487b7100000000000000000000000000000000000000000000000000000000600052603260045260246000fd5b60200101907effffffffffffffffffffffffffffffffffffffffffffffffffffffffffffff1916908160001a905350600485901c945080613e7890615732565b9050613d96565b5060008414613ec3576040517f08c379a0000000000000000000000000000000000000000000000000000000008152600401613eba90615205565b60405180910390fd5b8091505092915050565b60008183613edb919061555d565b905092915050565b6000613f117f360894a13ba1a3210667c828492db98dca3e2076cc3735a920a3ca505d382bbc60001b61444d565b60000160009054906101000a900473ffffffffffffffffffffffffffffffffffffffff16905090565b613f4381614457565b613f82576040517f08c379a0000000000000000000000000000000000000000000000000000000008152600401613f7990615305565b60405180910390fd5b80613faf7f360894a13ba1a3210667c828492db98dca3e2076cc3735a920a3ca505d382bbc60001b61444d565b60000160006101000a81548173ffffffffffffffffffffffffffffffffffffffff021916908373ffffffffffffffffffffffffffffffffffffffff16021790555050565b6060613ffe83614457565b61403d576040517f08c379a000000000000000000000000000000000000000000000000000000000815260040161403490615345565b60405180910390fd5b6000808473ffffffffffffffffffffffffffffffffffffffff16846040516140659190614f58565b600060405180830381855af49150503d80600081146140a0576040519150601f19603f3d011682016040523d82523d6000602084013e6140a5565b606091505b50915091506140cd8282604051806060016040528060278152602001615c626027913961446a565b9250505092915050565b6000819050919050565b600060019054906101000a900460ff1680614107575060008054906101000a900460ff16155b614146576040517f08c379a000000000000000000000000000000000000000000000000000000000815260040161413d906152c5565b60405180910390fd5b60008060019054906101000a900460ff161590508015614196576001600060016101000a81548160ff02191690831515021790555060016000806101000a81548160ff0219169083151502179055505b80156141b75760008060016101000a81548160ff0219169083151502179055505b50565b600060019054906101000a900460ff16806141e0575060008054906101000a900460ff16155b61421f576040517f08c379a0000000000000000000000000000000000000000000000000000000008152600401614216906152c5565b60405180910390fd5b60008060019054906101000a900460ff16159050801561426f576001600060016101000a81548160ff02191690831515021790555060016000806101000a81548160ff0219169083151502179055505b80156142905760008060016101000a81548160ff0219169083151502179055505b50565b600060019054906101000a900460ff16806142b9575060008054906101000a900460ff16155b6142f8576040517f08c379a00000000000000000000000000000000000000000000000000000000081526004016142ef906152c5565b60405180910390fd5b60008060019054906101000a900460ff161590508015614348576001600060016101000a81548160ff02191690831515021790555060016000806101000a81548160ff0219169083151502179055505b80156143695760008060016101000a81548160ff0219169083151502179055505b50565b600060019054906101000a900460ff1680614392575060008054906101000a900460ff16155b6143d1576040517f08c379a00000000000000000000000000000000000000000000000000000000081526004016143c8906152c5565b60405180910390fd5b60008060019054906101000a900460ff161590508015614421576001600060016101000a81548160ff02191690831515021790555060016000806101000a81548160ff0219169083151502179055505b600160fb81905550801561444a5760008060016101000a81548160ff0219169083151502179055505b50565b6000819050919050565b600080823b905060008111915050919050565b6060831561447a578290506144ca565b60008351111561448d5782518084602001fd5b816040517f08c379a00000000000000000000000000000000000000000000000000000000081526004016144c191906151e3565b60405180910390fd5b9392505050565b60006144e46144df84615425565b615400565b9050808382526020820190508285602086028201111561450357600080fd5b60005b85811015614533578161451988826145fc565b845260208401935060208301925050600181019050614506565b5050509392505050565b600061455061454b84615451565b615400565b9050808382526020820190508285602086028201111561456f57600080fd5b60005b8581101561459f578161458588826146e3565b845260208401935060208301925050600181019050614572565b5050509392505050565b60006145bc6145b78461547d565b615400565b9050828152602081018484840111156145d457600080fd5b6145df8482856156f0565b509392505050565b6000813590506145f681615bee565b92915050565b60008151905061460b81615bee565b92915050565b600082601f83011261462257600080fd5b81516146328482602086016144d1565b91505092915050565b600082601f83011261464c57600080fd5b815161465c84826020860161453d565b91505092915050565b60008151905061467481615c05565b92915050565b60008135905061468981615c1c565b92915050565b60008135905061469e81615c33565b92915050565b600082601f8301126146b557600080fd5b81356146c58482602086016145a9565b91505092915050565b6000813590506146dd81615c4a565b92915050565b6000815190506146f281615c4a565b92915050565b60006020828403121561470a57600080fd5b6000614718848285016145e7565b91505092915050565b60006020828403121561473357600080fd5b6000614741848285016145fc565b91505092915050565b6000806040838503121561475d57600080fd5b600061476b858286016145e7565b925050602061477c858286016145e7565b9150509250929050565b600080600080600060a0868803121561479e57600080fd5b60006147ac888289016145e7565b95505060206147bd888289016145e7565b94505060406147ce888289016145e7565b93505060606147df888289016146ce565b92505060806147f0888289016145e7565b9150509295509295909350565b6000806000806080858703121561481357600080fd5b6000614821878288016145e7565b9450506020614832878288016145e7565b9350506040614843878288016146ce565b9250506060614854878288016145e7565b91505092959194509250565b6000806040838503121561487357600080fd5b6000614881858286016145e7565b925050602083013567ffffffffffffffff81111561489e57600080fd5b6148aa858286016146a4565b9150509250929050565b600080604083850312156148c757600080fd5b60006148d5858286016145e7565b92505060206148e6858286016146ce565b9150509250929050565b60008060006060848603121561490557600080fd5b6000614913868287016145e7565b9350506020614924868287016146ce565b9250506040614935868287016145e7565b9150509250925092565b6000806000806080858703121561495557600080fd5b6000614963878288016145e7565b9450506020614974878288016146ce565b9350506040614985878288016145e7565b9250506060614996878288016145e7565b91505092959194509250565b6000806000606084860312156149b757600080fd5b600084015167ffffffffffffffff8111156149d157600080fd5b6149dd86828701614611565b935050602084015167ffffffffffffffff8111156149fa57600080fd5b614a068682870161463b565b9250506040614a1786828701614665565b9150509250925092565b600060208284031215614a3357600080fd5b6000614a4184828501614665565b91505092915050565b600060208284031215614a5c57600080fd5b6000614a6a8482850161467a565b91505092915050565b60008060408385031215614a8657600080fd5b6000614a948582860161467a565b9250506020614aa5858286016145e7565b9150509250929050565b600060208284031215614ac157600080fd5b6000614acf8482850161468f565b91505092915050565b600060208284031215614aea57600080fd5b6000614af8848285016146e3565b91505092915050565b6000614b0d8383614b31565b60208301905092915050565b6000614b258383614f3a565b60208301905092915050565b614b3a81615672565b82525050565b614b4981615672565b82525050565b6000614b5a826154ce565b614b648185615514565b9350614b6f836154ae565b8060005b83811015614ba0578151614b878882614b01565b9750614b92836154fa565b925050600181019050614b73565b5085935050505092915050565b6000614bb8826154d9565b614bc28185615525565b9350614bcd836154be565b8060005b83811015614bfe578151614be58882614b19565b9750614bf083615507565b925050600181019050614bd1565b5085935050505092915050565b614c1481615684565b82525050565b614c2381615690565b82525050565b6000614c34826154e4565b614c3e8185615536565b9350614c4e8185602086016156ff565b80840191505092915050565b6000614c65826154ef565b614c6f8185615541565b9350614c7f8185602086016156ff565b614c8881615863565b840191505092915050565b6000614c9e826154ef565b614ca88185615552565b9350614cb88185602086016156ff565b80840191505092915050565b6000614cd1602083615541565b9150614cdc82615874565b602082019050919050565b6000614cf4600283615541565b9150614cff8261589d565b602082019050919050565b6000614d17600283615541565b9150614d22826158c6565b602082019050919050565b6000614d3a600283615541565b9150614d45826158ef565b602082019050919050565b6000614d5d602f83615541565b9150614d6882615918565b604082019050919050565b6000614d80600283615541565b9150614d8b82615967565b602082019050919050565b6000614da3602e83615541565b9150614dae82615990565b604082019050919050565b6000614dc6600283615541565b9150614dd1826159df565b602082019050919050565b6000614de9602d83615541565b9150614df482615a08565b604082019050919050565b6000614e0c600283615541565b9150614e1782615a57565b602082019050919050565b6000614e2f602683615541565b9150614e3a82615a80565b604082019050919050565b6000614e52600283615541565b9150614e5d82615acf565b602082019050919050565b6000614e75600083615536565b9150614e8082615af8565b600082019050919050565b6000614e98600283615541565b9150614ea382615afb565b602082019050919050565b6000614ebb601783615552565b9150614ec682615b24565b601782019050919050565b6000614ede601f83615541565b9150614ee982615b4d565b602082019050919050565b6000614f01601183615552565b9150614f0c82615b76565b601182019050919050565b6000614f24602f83615541565b9150614f2f82615b9f565b604082019050919050565b614f43816156e6565b82525050565b614f52816156e6565b82525050565b6000614f648284614c29565b915081905092915050565b6000614f7a82614e68565b9150819050919050565b6000614f8f82614eae565b9150614f9b8285614c93565b9150614fa682614ef4565b9150614fb28284614c93565b91508190509392505050565b6000602082019050614fd36000830184614b40565b92915050565b6000604082019050614fee6000830185614b40565b614ffb6020830184614b40565b9392505050565b60006060820190506150176000830186614b40565b6150246020830185614b40565b6150316040830184614b40565b949350505050565b600060608201905061504e6000830186614b40565b61505b6020830185614b40565b6150686040830184614f49565b949350505050565b60006040820190506150856000830185614b40565b6150926020830184614f49565b9392505050565b60006080820190506150ae6000830187614b40565b6150bb6020830186614f49565b6150c86040830185614b40565b6150d56060830184614b40565b95945050505050565b600060a0820190506150f36000830188614b40565b6151006020830187614f49565b61510d6040830186614b40565b61511a6060830185614b40565b6151276080830184614c0b565b9695505050505050565b60006080820190506151466000830187614b40565b6151536020830186614f49565b6151606040830185614b40565b61516d6060830184614c0b565b95945050505050565b600060408201905081810360008301526151908185614b4f565b905081810360208301526151a48184614bad565b90509392505050565b60006020820190506151c26000830184614c0b565b92915050565b60006020820190506151dd6000830184614c1a565b92915050565b600060208201905081810360008301526151fd8184614c5a565b905092915050565b6000602082019050818103600083015261521e81614cc4565b9050919050565b6000602082019050818103600083015261523e81614ce7565b9050919050565b6000602082019050818103600083015261525e81614d0a565b9050919050565b6000602082019050818103600083015261527e81614d2d565b9050919050565b6000602082019050818103600083015261529e81614d50565b9050919050565b600060208201905081810360008301526152be81614d73565b9050919050565b600060208201905081810360008301526152de81614d96565b9050919050565b600060208201905081810360008301526152fe81614db9565b9050919050565b6000602082019050818103600083015261531e81614ddc565b9050919050565b6000602082019050818103600083015261533e81614dff565b9050919050565b6000602082019050818103600083015261535e81614e22565b9050919050565b6000602082019050818103600083015261537e81614e45565b9050919050565b6000602082019050818103600083015261539e81614e8b565b9050919050565b600060208201905081810360008301526153be81614ed1565b9050919050565b600060208201905081810360008301526153de81614f17565b9050919050565b60006020820190506153fa6000830184614f49565b92915050565b600061540a61541b565b9050615416828261575c565b919050565b6000604051905090565b600067ffffffffffffffff8211156154405761543f615834565b5b602082029050602081019050919050565b600067ffffffffffffffff82111561546c5761546b615834565b5b602082029050602081019050919050565b600067ffffffffffffffff82111561549857615497615834565b5b6154a182615863565b9050602081019050919050565b6000819050602082019050919050565b6000819050602082019050919050565b600081519050919050565b600081519050919050565b600081519050919050565b600081519050919050565b6000602082019050919050565b6000602082019050919050565b600082825260208201905092915050565b600082825260208201905092915050565b600081905092915050565b600082825260208201905092915050565b600081905092915050565b6000615568826156e6565b9150615573836156e6565b9250827fffffffffffffffffffffffffffffffffffffffffffffffffffffffffffffffff038211156155a8576155a76157d6565b5b828201905092915050565b60006155be826156e6565b91506155c9836156e6565b9250826155d9576155d8615805565b5b828204905092915050565b60006155ef826156e6565b91506155fa836156e6565b9250817fffffffffffffffffffffffffffffffffffffffffffffffffffffffffffffffff0483118215151615615633576156326157d6565b5b828202905092915050565b6000615649826156e6565b9150615654836156e6565b925082821015615667576156666157d6565b5b828203905092915050565b600061567d826156c6565b9050919050565b60008115159050919050565b6000819050919050565b60007fffffffff0000000000000000000000000000000000000000000000000000000082169050919050565b600073ffffffffffffffffffffffffffffffffffffffff82169050919050565b6000819050919050565b82818337600083830152505050565b60005b8381101561571d578082015181840152602081019050615702565b8381111561572c576000848401525b50505050565b600061573d826156e6565b91506000821415615751576157506157d6565b5b600182039050919050565b61576582615863565b810181811067ffffffffffffffff8211171561578457615783615834565b5b80604052505050565b6000615798826156e6565b91507fffffffffffffffffffffffffffffffffffffffffffffffffffffffffffffffff8214156157cb576157ca6157d6565b5b600182019050919050565b7f4e487b7100000000000000000000000000000000000000000000000000000000600052601160045260246000fd5b7f4e487b7100000000000000000000000000000000000000000000000000000000600052601260045260246000fd5b7f4e487b7100000000000000000000000000000000000000000000000000000000600052604160045260246000fd5b6000601f19601f8301169050919050565b7f537472696e67733a20686578206c656e67746820696e73756666696369656e74600082015250565b7f4943000000000000000000000000000000000000000000000000000000000000600082015250565b7f4e4f000000000000000000000000000000000000000000000000000000000000600082015250565b7f4650000000000000000000000000000000000000000000000000000000000000600082015250565b7f45524331393637557067726164653a207570677261646520627265616b73206660008201527f7572746865722075706772616465730000000000000000000000000000000000602082015250565b7f4e57000000000000000000000000000000000000000000000000000000000000600082015250565b7f496e697469616c697a61626c653a20636f6e747261637420697320616c72656160008201527f647920696e697469616c697a6564000000000000000000000000000000000000602082015250565b7f4941000000000000000000000000000000000000000000000000000000000000600082015250565b7f455243313936373a206e657720696d706c656d656e746174696f6e206973206e60008201527f6f74206120636f6e747261637400000000000000000000000000000000000000602082015250565b7f4654000000000000000000000000000000000000000000000000000000000000600082015250565b7f416464726573733a2064656c65676174652063616c6c20746f206e6f6e2d636f60008201527f6e74726163740000000000000000000000000000000000000000000000000000602082015250565b7f4341000000000000000000000000000000000000000000000000000000000000600082015250565b50565b7f4e41000000000000000000000000000000000000000000000000000000000000600082015250565b7f416363657373436f6e74726f6c3a206163636f756e7420000000000000000000600082015250565b7f5265656e7472616e637947756172643a207265656e7472616e742063616c6c00600082015250565b7f206973206d697373696e6720726f6c6520000000000000000000000000000000600082015250565b7f416363657373436f6e74726f6c3a2063616e206f6e6c792072656e6f756e636560008201527f20726f6c657320666f722073656c660000000000000000000000000000000000602082015250565b615bf781615672565b8114615c0257600080fd5b50565b615c0e81615684565b8114615c1957600080fd5b50565b615c2581615690565b8114615c3057600080fd5b50565b615c3c8161569a565b8114615c4757600080fd5b50565b615c53816156e6565b8114615c5e57600080fd5b5056fe416464726573733a206c6f772d6c6576656c2064656c65676174652063616c6c206661696c6564a2646970667358221220039584f815a80327d0bc0e23cc4a9ec89a6180778e74961363ab16c94c0fc66664736f6c63430008030033",
  "linkReferences": {},
  "deployedLinkReferences": {}
}