{
  "_format": "hh-sol-artifact-1",
  "contractName": "Treasury",
  "sourceName": "contracts/Bank/Treasury.sol",
  "abi": [
    {
      "anonymous": false,
      "inputs": [
        {
          "indexed": false,
          "internalType": "address",
          "name": "previousAdmin",
          "type": "address"
        },
        {
          "indexed": false,
          "internalType": "address",
          "name": "newAdmin",
          "type": "address"
        }
      ],
      "name": "AdminChanged",
      "type": "event"
    },
    {
      "anonymous": false,
      "inputs": [
        {
          "indexed": true,
          "internalType": "address",
          "name": "beacon",
          "type": "address"
        }
      ],
      "name": "BeaconUpgraded",
      "type": "event"
    },
    {
      "anonymous": false,
      "inputs": [
        {
          "indexed": true,
          "internalType": "bytes32",
          "name": "role",
          "type": "bytes32"
        },
        {
          "indexed": true,
          "internalType": "bytes32",
          "name": "previousAdminRole",
          "type": "bytes32"
        },
        {
          "indexed": true,
          "internalType": "bytes32",
          "name": "newAdminRole",
          "type": "bytes32"
        }
      ],
      "name": "RoleAdminChanged",
      "type": "event"
    },
    {
      "anonymous": false,
      "inputs": [
        {
          "indexed": true,
          "internalType": "bytes32",
          "name": "role",
          "type": "bytes32"
        },
        {
          "indexed": true,
          "internalType": "address",
          "name": "account",
          "type": "address"
        },
        {
          "indexed": true,
          "internalType": "address",
          "name": "sender",
          "type": "address"
        }
      ],
      "name": "RoleGranted",
      "type": "event"
    },
    {
      "anonymous": false,
      "inputs": [
        {
          "indexed": true,
          "internalType": "bytes32",
          "name": "role",
          "type": "bytes32"
        },
        {
          "indexed": true,
          "internalType": "address",
          "name": "account",
          "type": "address"
        },
        {
          "indexed": true,
          "internalType": "address",
          "name": "sender",
          "type": "address"
        }
      ],
      "name": "RoleRevoked",
      "type": "event"
    },
    {
      "anonymous": false,
      "inputs": [
        {
          "indexed": true,
          "internalType": "address",
          "name": "implementation",
          "type": "address"
        }
      ],
      "name": "Upgraded",
      "type": "event"
    },
    {
      "inputs": [],
      "name": "ADMIN_ROLE",
      "outputs": [
        {
          "internalType": "bytes32",
          "name": "",
          "type": "bytes32"
        }
      ],
      "stateMutability": "view",
      "type": "function"
    },
    {
      "inputs": [],
      "name": "DEFAULT_ADMIN_ROLE",
      "outputs": [
        {
          "internalType": "bytes32",
          "name": "",
          "type": "bytes32"
        }
      ],
      "stateMutability": "view",
      "type": "function"
    },
    {
      "inputs": [],
      "name": "OPERATOR_ROLE",
      "outputs": [
        {
          "internalType": "bytes32",
          "name": "",
          "type": "bytes32"
        }
      ],
      "stateMutability": "view",
      "type": "function"
    },
    {
      "inputs": [
        {
          "internalType": "address",
          "name": "account",
          "type": "address"
        },
        {
          "internalType": "uint256",
          "name": "depositAmount",
          "type": "uint256"
        },
        {
          "internalType": "address",
          "name": "collateralToken",
          "type": "address"
        },
        {
          "internalType": "address",
          "name": "fxToken",
          "type": "address"
        }
      ],
      "name": "depositCollateral",
      "outputs": [],
      "stateMutability": "nonpayable",
      "type": "function"
    },
    {
      "inputs": [
        {
          "internalType": "address",
          "name": "account",
          "type": "address"
        },
        {
          "internalType": "address",
          "name": "fxToken",
          "type": "address"
        }
      ],
      "name": "depositCollateralETH",
      "outputs": [],
      "stateMutability": "payable",
      "type": "function"
    },
    {
      "inputs": [
        {
          "internalType": "address",
          "name": "from",
          "type": "address"
        },
        {
          "internalType": "address",
          "name": "collateralToken",
          "type": "address"
        },
        {
          "internalType": "address",
          "name": "to",
          "type": "address"
        },
        {
          "internalType": "uint256",
          "name": "amount",
          "type": "uint256"
        },
        {
          "internalType": "address",
          "name": "fxToken",
          "type": "address"
        }
      ],
      "name": "forceWithdrawCollateral",
      "outputs": [],
      "stateMutability": "nonpayable",
      "type": "function"
    },
    {
      "inputs": [
        {
          "internalType": "bytes32",
          "name": "role",
          "type": "bytes32"
        }
      ],
      "name": "getRoleAdmin",
      "outputs": [
        {
          "internalType": "bytes32",
          "name": "",
          "type": "bytes32"
        }
      ],
      "stateMutability": "view",
      "type": "function"
    },
    {
      "inputs": [
        {
          "internalType": "bytes32",
          "name": "role",
          "type": "bytes32"
        },
        {
          "internalType": "address",
          "name": "account",
          "type": "address"
        }
      ],
      "name": "grantRole",
      "outputs": [],
      "stateMutability": "nonpayable",
      "type": "function"
    },
    {
      "inputs": [],
      "name": "handleAddress",
      "outputs": [
        {
          "internalType": "address",
          "name": "",
          "type": "address"
        }
      ],
      "stateMutability": "view",
      "type": "function"
    },
    {
      "inputs": [
        {
          "internalType": "bytes32",
          "name": "role",
          "type": "bytes32"
        },
        {
          "internalType": "address",
          "name": "account",
          "type": "address"
        }
      ],
      "name": "hasRole",
      "outputs": [
        {
          "internalType": "bool",
          "name": "",
          "type": "bool"
        }
      ],
      "stateMutability": "view",
      "type": "function"
    },
    {
      "inputs": [],
      "name": "initialize",
      "outputs": [],
      "stateMutability": "nonpayable",
      "type": "function"
    },
    {
      "inputs": [
        {
          "internalType": "bytes32",
          "name": "role",
          "type": "bytes32"
        },
        {
          "internalType": "address",
          "name": "account",
          "type": "address"
        }
      ],
      "name": "renounceRole",
      "outputs": [],
      "stateMutability": "nonpayable",
      "type": "function"
    },
    {
      "inputs": [
        {
          "internalType": "address",
          "name": "token",
          "type": "address"
        },
        {
          "internalType": "uint256",
          "name": "amount",
          "type": "uint256"
        }
      ],
      "name": "requestFundsPCT",
      "outputs": [],
      "stateMutability": "nonpayable",
      "type": "function"
    },
    {
      "inputs": [
        {
          "internalType": "bytes32",
          "name": "role",
          "type": "bytes32"
        },
        {
          "internalType": "address",
          "name": "account",
          "type": "address"
        }
      ],
      "name": "revokeRole",
      "outputs": [],
      "stateMutability": "nonpayable",
      "type": "function"
    },
    {
      "inputs": [
        {
          "internalType": "address",
          "name": "_handle",
          "type": "address"
        }
      ],
      "name": "setHandleContract",
      "outputs": [],
      "stateMutability": "nonpayable",
      "type": "function"
    },
    {
      "inputs": [
        {
          "internalType": "bytes4",
          "name": "interfaceId",
          "type": "bytes4"
        }
      ],
      "name": "supportsInterface",
      "outputs": [
        {
          "internalType": "bool",
          "name": "",
          "type": "bool"
        }
      ],
      "stateMutability": "view",
      "type": "function"
    },
    {
      "inputs": [
        {
          "internalType": "address",
          "name": "account",
          "type": "address"
        },
        {
          "internalType": "address",
          "name": "fxToken",
          "type": "address"
        }
      ],
      "name": "updateVaultInterest",
      "outputs": [],
      "stateMutability": "nonpayable",
      "type": "function"
    },
    {
      "inputs": [
        {
          "internalType": "address",
          "name": "newImplementation",
          "type": "address"
        }
      ],
      "name": "upgradeTo",
      "outputs": [],
      "stateMutability": "nonpayable",
      "type": "function"
    },
    {
      "inputs": [
        {
          "internalType": "address",
          "name": "newImplementation",
          "type": "address"
        },
        {
          "internalType": "bytes",
          "name": "data",
          "type": "bytes"
        }
      ],
      "name": "upgradeToAndCall",
      "outputs": [],
      "stateMutability": "payable",
      "type": "function"
    },
    {
      "inputs": [
        {
          "internalType": "address",
          "name": "from",
          "type": "address"
        },
        {
          "internalType": "address",
          "name": "to",
          "type": "address"
        },
        {
          "internalType": "uint256",
          "name": "amount",
          "type": "uint256"
        },
        {
          "internalType": "address",
          "name": "fxToken",
          "type": "address"
        }
      ],
      "name": "withdrawAnyCollateral",
      "outputs": [
        {
          "internalType": "address[]",
          "name": "collateralTypes",
          "type": "address[]"
        },
        {
          "internalType": "uint256[]",
          "name": "collateralAmounts",
          "type": "uint256[]"
        }
      ],
      "stateMutability": "nonpayable",
      "type": "function"
    },
    {
      "inputs": [
        {
          "internalType": "address",
          "name": "collateralToken",
          "type": "address"
        },
        {
          "internalType": "address",
          "name": "to",
          "type": "address"
        },
        {
          "internalType": "uint256",
          "name": "amount",
          "type": "uint256"
        },
        {
          "internalType": "address",
          "name": "fxToken",
          "type": "address"
        }
      ],
      "name": "withdrawCollateral",
      "outputs": [],
      "stateMutability": "nonpayable",
      "type": "function"
    },
    {
      "inputs": [
        {
          "internalType": "address",
          "name": "to",
          "type": "address"
        },
        {
          "internalType": "uint256",
          "name": "amount",
          "type": "uint256"
        },
        {
          "internalType": "address",
          "name": "fxToken",
          "type": "address"
        }
      ],
      "name": "withdrawCollateralETH",
      "outputs": [],
      "stateMutability": "nonpayable",
      "type": "function"
    },
    {
      "inputs": [
        {
          "internalType": "address",
          "name": "from",
          "type": "address"
        },
        {
          "internalType": "address",
          "name": "collateralToken",
          "type": "address"
        },
        {
          "internalType": "address",
          "name": "to",
          "type": "address"
        },
        {
          "internalType": "uint256",
          "name": "amount",
          "type": "uint256"
        },
        {
          "internalType": "address",
          "name": "fxToken",
          "type": "address"
        }
      ],
      "name": "withdrawCollateralFrom",
      "outputs": [],
      "stateMutability": "nonpayable",
      "type": "function"
    },
    {
      "stateMutability": "payable",
      "type": "receive"
    }
  ],
  "bytecode": "0x608060405234801561001057600080fd5b50615d0f80620000216000396000f3fe6080604052600436106101445760003560e01c806374bf578b116100b6578063a217fddf1161006f578063a217fddf1461043f578063ce1c18511461046a578063d547741f14610493578063e82f1e7a146104bc578063f5b541a6146104d8578063fd58a301146105035761014b565b806374bf578b1461034357806375b238fc1461036e5780638129fc1c146103995780638c6d4c47146103b057806391d14854146103d95780639b1c414f146104165761014b565b80633659cfe6116101085780633659cfe61461025a5780633fa6b819146102835780634f1ef286146102ac57806358166d24146102c85780635a6f45de146102f157806364cfc1ad1461031a5761014b565b806301ffc9a7146101505780631856d56f1461018d578063248a9ca3146101cb5780632f2ff15d1461020857806336568abe146102315761014b565b3661014b57005b600080fd5b34801561015c57600080fd5b5061017760048036038101906101729190614b00565b61052c565b60405161018491906151fe565b60405180910390f35b34801561019957600080fd5b506101b460048036038101906101af919061484e565b6105a6565b6040516101c29291906151c7565b60405180910390f35b3480156101d757600080fd5b506101f260048036038101906101ed9190614a9b565b61083d565b6040516101ff9190615219565b60405180910390f35b34801561021457600080fd5b5061022f600480360381019061022a9190614ac4565b61085d565b005b34801561023d57600080fd5b5061025860048036038101906102539190614ac4565b610886565b005b34801561026657600080fd5b50610281600480360381019061027c9190614749565b610909565b005b34801561028f57600080fd5b506102aa60048036038101906102a5919061479b565b610930565b005b6102c660048036038101906102c191906148b1565b610a12565b005b3480156102d457600080fd5b506102ef60048036038101906102ea91906147d7565b610a2b565b005b3480156102fd57600080fd5b506103186004803603810190610313919061484e565b610fb5565b005b34801561032657600080fd5b50610341600480360381019061033c91906147d7565b61101e565b005b34801561034f57600080fd5b5061035861115c565b604051610365919061500f565b60405180910390f35b34801561037a57600080fd5b50610383611187565b6040516103909190615219565b60405180910390f35b3480156103a557600080fd5b506103ae6111ab565b005b3480156103bc57600080fd5b506103d760048036038101906103d29190614905565b611308565b005b3480156103e557600080fd5b5061040060048036038101906103fb9190614ac4565b6114ae565b60405161040d91906151fe565b60405180910390f35b34801561042257600080fd5b5061043d60048036038101906104389190614749565b611519565b005b34801561044b57600080fd5b50610454611989565b6040516104619190615219565b60405180910390f35b34801561047657600080fd5b50610491600480360381019061048c9190614990565b611990565b005b34801561049f57600080fd5b506104ba60048036038101906104b59190614ac4565b611e65565b005b6104d660048036038101906104d1919061479b565b611e8e565b005b3480156104e457600080fd5b506104ed6123a4565b6040516104fa9190615219565b60405180910390f35b34801561050f57600080fd5b5061052a60048036038101906105259190614941565b6123c8565b005b60007f7965db0b000000000000000000000000000000000000000000000000000000007bffffffffffffffffffffffffffffffffffffffffffffffffffffffff1916827bffffffffffffffffffffffffffffffffffffffffffffffffffffffff1916148061059f575061059e82612b9f565b5b9050919050565b606080858073ffffffffffffffffffffffffffffffffffffffff163373ffffffffffffffffffffffffffffffffffffffff16148061063d57506106097f97667070c54ef182b0f5858b034beac1b6f3089aa2d3188bb1e8929f4fa9b929336114ae565b801561063c575061063a7fa49807205ce4d355092ef5a8a18f56e8913cf4a201fbe287825b095693c21775336114ae565b155b5b61067c576040517f08c379a0000000000000000000000000000000000000000000000000000000008152600401610673906152f6565b60405180910390fd5b600061012e60009054906101000a900473ffffffffffffffffffffffffffffffffffffffff1673ffffffffffffffffffffffffffffffffffffffff1663234ab3e28987896040518463ffffffff1660e01b81526004016106de9392919061508a565b60006040518083038186803b1580156106f657600080fd5b505afa15801561070a573d6000803e3d6000fd5b505050506040513d6000823e3d601f19601f8201168201806040525081019061073391906149f3565b8093508195508296505050508061077f576040517f08c379a000000000000000000000000000000000000000000000000000000000815260040161077690615336565b60405180910390fd5b60008451905060005b818110156108305761081d8a8783815181106107cd577f4e487b7100000000000000000000000000000000000000000000000000000000600052603260045260246000fd5b60200260200101518b88858151811061080f577f4e487b7100000000000000000000000000000000000000000000000000000000600052603260045260246000fd5b60200260200101518b612c09565b8080610828906157de565b915050610788565b5050505094509492505050565b600060c96000838152602001908152602001600020600101549050919050565b6108668261083d565b61087781610872612ec7565b612ecf565b6108818383612f6c565b505050565b61088e612ec7565b73ffffffffffffffffffffffffffffffffffffffff168173ffffffffffffffffffffffffffffffffffffffff16146108fb576040517f08c379a00000000000000000000000000000000000000000000000000000000081526004016108f290615416565b60405180910390fd5b610905828261304d565b5050565b6109128161312f565b61092d8160405180602001604052806000815250600061319b565b50565b818073ffffffffffffffffffffffffffffffffffffffff163373ffffffffffffffffffffffffffffffffffffffff1614806109c457506109907f97667070c54ef182b0f5858b034beac1b6f3089aa2d3188bb1e8929f4fa9b929336114ae565b80156109c357506109c17fa49807205ce4d355092ef5a8a18f56e8913cf4a201fbe287825b095693c21775336114ae565b155b5b610a03576040517f08c379a00000000000000000000000000000000000000000000000000000000081526004016109fa906152f6565b60405180910390fd5b610a0d83836133af565b505050565b610a1b8261312f565b610a278282600161319b565b5050565b848073ffffffffffffffffffffffffffffffffffffffff163373ffffffffffffffffffffffffffffffffffffffff161480610abf5750610a8b7f97667070c54ef182b0f5858b034beac1b6f3089aa2d3188bb1e8929f4fa9b929336114ae565b8015610abe5750610abc7fa49807205ce4d355092ef5a8a18f56e8913cf4a201fbe287825b095693c21775336114ae565b155b5b610afe576040517f08c379a0000000000000000000000000000000000000000000000000000000008152600401610af5906152f6565b60405180910390fd5b60008573ffffffffffffffffffffffffffffffffffffffff166370a08231866040518263ffffffff1660e01b8152600401610b39919061500f565b60206040518083038186803b158015610b5157600080fd5b505afa158015610b65573d6000803e3d6000fd5b505050506040513d601f19601f82011682018060405250810190610b899190614b29565b90506000610c546103e8610c4661012d60009054906101000a900473ffffffffffffffffffffffffffffffffffffffff1673ffffffffffffffffffffffffffffffffffffffff166341e3f2816040518163ffffffff1660e01b815260040160206040518083038186803b158015610bff57600080fd5b505afa158015610c13573d6000803e3d6000fd5b505050506040513d601f19601f82011682018060405250810190610c379190614b29565b886136ea90919063ffffffff16565b61370090919063ffffffff16565b90508673ffffffffffffffffffffffffffffffffffffffff1663a9059cbb61012d60009054906101000a900473ffffffffffffffffffffffffffffffffffffffff1673ffffffffffffffffffffffffffffffffffffffff1663ec94578e6040518163ffffffff1660e01b815260040160206040518083038186803b158015610cdb57600080fd5b505afa158015610cef573d6000803e3d6000fd5b505050506040513d601f19601f82011682018060405250810190610d139190614772565b836040518363ffffffff1660e01b8152600401610d319291906150c1565b602060405180830381600087803b158015610d4b57600080fd5b505af1158015610d5f573d6000803e3d6000fd5b505050506040513d601f19601f82011682018060405250810190610d839190614a72565b508673ffffffffffffffffffffffffffffffffffffffff1663a9059cbb87610db4848961371690919063ffffffff16565b6040518363ffffffff1660e01b8152600401610dd19291906150c1565b602060405180830381600087803b158015610deb57600080fd5b505af1158015610dff573d6000803e3d6000fd5b505050506040513d601f19601f82011682018060405250810190610e239190614a72565b50610e4981610e3b878561372c90919063ffffffff16565b61371690919063ffffffff16565b8773ffffffffffffffffffffffffffffffffffffffff166370a08231886040518263ffffffff1660e01b8152600401610e82919061500f565b60206040518083038186803b158015610e9a57600080fd5b505afa158015610eae573d6000803e3d6000fd5b505050506040513d601f19601f82011682018060405250810190610ed29190614b29565b14610f06577f4e487b7100000000000000000000000000000000000000000000000000000000600052600160045260246000fd5b61012d60009054906101000a900473ffffffffffffffffffffffffffffffffffffffff1673ffffffffffffffffffffffffffffffffffffffff1663181e20a78987878b60006040518663ffffffff1660e01b8152600401610f6b95949392919061512f565b600060405180830381600087803b158015610f8557600080fd5b505af1158015610f99573d6000803e3d6000fd5b50505050610fab888589886000613742565b5050505050505050565b600260fb541415610ffb576040517f08c379a0000000000000000000000000000000000000000000000000000000008152600401610ff2906153f6565b60405180910390fd5b600260fb819055506110103385858585612c09565b600160fb8190555050505050565b848073ffffffffffffffffffffffffffffffffffffffff163373ffffffffffffffffffffffffffffffffffffffff1614806110b2575061107e7f97667070c54ef182b0f5858b034beac1b6f3089aa2d3188bb1e8929f4fa9b929336114ae565b80156110b157506110af7fa49807205ce4d355092ef5a8a18f56e8913cf4a201fbe287825b095693c21775336114ae565b155b5b6110f1576040517f08c379a00000000000000000000000000000000000000000000000000000000081526004016110e8906152f6565b60405180910390fd5b600260fb541415611137576040517f08c379a000000000000000000000000000000000000000000000000000000000815260040161112e906153f6565b60405180910390fd5b600260fb8190555061114c8686868686612c09565b600160fb81905550505050505050565b600061012d60009054906101000a900473ffffffffffffffffffffffffffffffffffffffff16905090565b7fa49807205ce4d355092ef5a8a18f56e8913cf4a201fbe287825b095693c2177581565b600060019054906101000a900460ff16806111d1575060008054906101000a900460ff16155b611210576040517f08c379a000000000000000000000000000000000000000000000000000000000815260040161120790615316565b60405180910390fd5b60008060019054906101000a900460ff161590508015611260576001600060016101000a81548160ff02191690831515021790555060016000806101000a81548160ff0219169083151502179055505b611268613a04565b611270613af5565b61129a7fa49807205ce4d355092ef5a8a18f56e8913cf4a201fbe287825b095693c2177533613bd6565b6112e47f97667070c54ef182b0f5858b034beac1b6f3089aa2d3188bb1e8929f4fa9b9297fa49807205ce4d355092ef5a8a18f56e8913cf4a201fbe287825b095693c21775613be4565b80156113055760008060016101000a81548160ff0219169083151502179055505b50565b600061012d60009054906101000a900473ffffffffffffffffffffffffffffffffffffffff1673ffffffffffffffffffffffffffffffffffffffff16639cfd96696040518163ffffffff1660e01b815260040160206040518083038186803b15801561137357600080fd5b505afa158015611387573d6000803e3d6000fd5b505050506040513d601f19601f820116820180604052508101906113ab9190614772565b90508073ffffffffffffffffffffffffffffffffffffffff163373ffffffffffffffffffffffffffffffffffffffff161461141b576040517f08c379a000000000000000000000000000000000000000000000000000000000815260040161141290615296565b60405180910390fd5b8273ffffffffffffffffffffffffffffffffffffffff1663a9059cbb82846040518363ffffffff1660e01b81526004016114569291906150c1565b602060405180830381600087803b15801561147057600080fd5b505af1158015611484573d6000803e3d6000fd5b505050506040513d601f19601f820116820180604052508101906114a89190614a72565b50505050565b600060c9600084815260200190815260200160002060000160008373ffffffffffffffffffffffffffffffffffffffff1673ffffffffffffffffffffffffffffffffffffffff16815260200190815260200160002060009054906101000a900460ff16905092915050565b6115437fa49807205ce4d355092ef5a8a18f56e8913cf4a201fbe287825b095693c21775336114ae565b611582576040517f08c379a0000000000000000000000000000000000000000000000000000000008152600401611579906153d6565b60405180910390fd5b8061012d60006101000a81548173ffffffffffffffffffffffffffffffffffffffff021916908373ffffffffffffffffffffffffffffffffffffffff16021790555061012d60009054906101000a900473ffffffffffffffffffffffffffffffffffffffff1673ffffffffffffffffffffffffffffffffffffffff1663ad5c46486040518163ffffffff1660e01b815260040160206040518083038186803b15801561162d57600080fd5b505afa158015611641573d6000803e3d6000fd5b505050506040513d601f19601f820116820180604052508101906116659190614772565b61012f60006101000a81548173ffffffffffffffffffffffffffffffffffffffff021916908373ffffffffffffffffffffffffffffffffffffffff160217905550600061012d60009054906101000a900473ffffffffffffffffffffffffffffffffffffffff1673ffffffffffffffffffffffffffffffffffffffff16635fe3b5676040518163ffffffff1660e01b815260040160206040518083038186803b15801561171157600080fd5b505afa158015611725573d6000803e3d6000fd5b505050506040513d601f19601f820116820180604052508101906117499190614772565b90506117757f97667070c54ef182b0f5858b034beac1b6f3089aa2d3188bb1e8929f4fa9b929826114ae565b6117a4576117a37f97667070c54ef182b0f5858b034beac1b6f3089aa2d3188bb1e8929f4fa9b9298261085d565b5b600061012d60009054906101000a900473ffffffffffffffffffffffffffffffffffffffff1673ffffffffffffffffffffffffffffffffffffffff166327ab02b96040518163ffffffff1660e01b815260040160206040518083038186803b15801561180f57600080fd5b505afa158015611823573d6000803e3d6000fd5b505050506040513d601f19601f820116820180604052508101906118479190614772565b90506118737f97667070c54ef182b0f5858b034beac1b6f3089aa2d3188bb1e8929f4fa9b929826114ae565b6118a2576118a17f97667070c54ef182b0f5858b034beac1b6f3089aa2d3188bb1e8929f4fa9b9298261085d565b5b61012d60009054906101000a900473ffffffffffffffffffffffffffffffffffffffff1673ffffffffffffffffffffffffffffffffffffffff1663eb0a8b916040518163ffffffff1660e01b815260040160206040518083038186803b15801561190b57600080fd5b505afa15801561191f573d6000803e3d6000fd5b505050506040513d601f19601f820116820180604052508101906119439190614772565b61012e60006101000a81548173ffffffffffffffffffffffffffffffffffffffff021916908373ffffffffffffffffffffffffffffffffffffffff160217905550505050565b6000801b81565b600260fb5414156119d6576040517f08c379a00000000000000000000000000000000000000000000000000000000081526004016119cd906153f6565b60405180910390fd5b600260fb8190555061012d60009054906101000a900473ffffffffffffffffffffffffffffffffffffffff1673ffffffffffffffffffffffffffffffffffffffff1663803c97b3836040518263ffffffff1660e01b8152600401611a3a919061500f565b60206040518083038186803b158015611a5257600080fd5b505afa158015611a66573d6000803e3d6000fd5b505050506040513d601f19601f82011682018060405250810190611a8a9190614a72565b611ac9576040517f08c379a0000000000000000000000000000000000000000000000000000000008152600401611ac090615276565b60405180910390fd5b611ad384826133af565b6000611b9c6103e8611b8e61012d60009054906101000a900473ffffffffffffffffffffffffffffffffffffffff1673ffffffffffffffffffffffffffffffffffffffff16639df5138a6040518163ffffffff1660e01b815260040160206040518083038186803b158015611b4757600080fd5b505afa158015611b5b573d6000803e3d6000fd5b505050506040513d601f19601f82011682018060405250810190611b7f9190614b29565b876136ea90919063ffffffff16565b61370090919063ffffffff16565b9050611bb1818561371690919063ffffffff16565b93508273ffffffffffffffffffffffffffffffffffffffff166323b872dd3330876040518463ffffffff1660e01b8152600401611bf09392919061508a565b602060405180830381600087803b158015611c0a57600080fd5b505af1158015611c1e573d6000803e3d6000fd5b505050506040513d601f19601f82011682018060405250810190611c429190614a72565b611c81576040517f08c379a0000000000000000000000000000000000000000000000000000000008152600401611c7890615376565b60405180910390fd5b61012d60009054906101000a900473ffffffffffffffffffffffffffffffffffffffff1673ffffffffffffffffffffffffffffffffffffffff1663181e20a78686858760016040518663ffffffff1660e01b8152600401611ce695949392919061512f565b600060405180830381600087803b158015611d0057600080fd5b505af1158015611d14573d6000803e3d6000fd5b505050508273ffffffffffffffffffffffffffffffffffffffff166323b872dd3361012d60009054906101000a900473ffffffffffffffffffffffffffffffffffffffff1673ffffffffffffffffffffffffffffffffffffffff1663ec94578e6040518163ffffffff1660e01b815260040160206040518083038186803b158015611d9e57600080fd5b505afa158015611db2573d6000803e3d6000fd5b505050506040513d601f19601f82011682018060405250810190611dd69190614772565b846040518463ffffffff1660e01b8152600401611df59392919061508a565b602060405180830381600087803b158015611e0f57600080fd5b505af1158015611e23573d6000803e3d6000fd5b505050506040513d601f19601f82011682018060405250810190611e479190614a72565b50611e56858385876001613742565b50600160fb8190555050505050565b611e6e8261083d565b611e7f81611e7a612ec7565b612ecf565b611e89838361304d565b505050565b600260fb541415611ed4576040517f08c379a0000000000000000000000000000000000000000000000000000000008152600401611ecb906153f6565b60405180910390fd5b600260fb8190555061012d60009054906101000a900473ffffffffffffffffffffffffffffffffffffffff1673ffffffffffffffffffffffffffffffffffffffff1663803c97b361012f60009054906101000a900473ffffffffffffffffffffffffffffffffffffffff166040518263ffffffff1660e01b8152600401611f5b919061500f565b60206040518083038186803b158015611f7357600080fd5b505afa158015611f87573d6000803e3d6000fd5b505050506040513d601f19601f82011682018060405250810190611fab9190614a72565b611fea576040517f08c379a0000000000000000000000000000000000000000000000000000000008152600401611fe190615276565b60405180910390fd5b611ff482826133af565b60006120bd6103e86120af61012d60009054906101000a900473ffffffffffffffffffffffffffffffffffffffff1673ffffffffffffffffffffffffffffffffffffffff16639df5138a6040518163ffffffff1660e01b815260040160206040518083038186803b15801561206857600080fd5b505afa15801561207c573d6000803e3d6000fd5b505050506040513d601f19601f820116820180604052508101906120a09190614b29565b346136ea90919063ffffffff16565b61370090919063ffffffff16565b905060006120d4823461371690919063ffffffff16565b905061012f60009054906101000a900473ffffffffffffffffffffffffffffffffffffffff1673ffffffffffffffffffffffffffffffffffffffff1663d0e30db0346040518263ffffffff1660e01b81526004016000604051808303818588803b15801561214157600080fd5b505af1158015612155573d6000803e3d6000fd5b505050505061012f60009054906101000a900473ffffffffffffffffffffffffffffffffffffffff1673ffffffffffffffffffffffffffffffffffffffff1663a9059cbb61012d60009054906101000a900473ffffffffffffffffffffffffffffffffffffffff1673ffffffffffffffffffffffffffffffffffffffff1663ec94578e6040518163ffffffff1660e01b815260040160206040518083038186803b15801561220257600080fd5b505afa158015612216573d6000803e3d6000fd5b505050506040513d601f19601f8201168201806040525081019061223a9190614772565b846040518363ffffffff1660e01b81526004016122589291906150c1565b602060405180830381600087803b15801561227257600080fd5b505af1158015612286573d6000803e3d6000fd5b505050506040513d601f19601f820116820180604052508101906122aa9190614a72565b5061012d60009054906101000a900473ffffffffffffffffffffffffffffffffffffffff1673ffffffffffffffffffffffffffffffffffffffff1663181e20a785838661012f60009054906101000a900473ffffffffffffffffffffffffffffffffffffffff1660016040518663ffffffff1660e01b815260040161233395949392919061512f565b600060405180830381600087803b15801561234d57600080fd5b505af1158015612361573d6000803e3d6000fd5b50505050612396848461012f60009054906101000a900473ffffffffffffffffffffffffffffffffffffffff16846001613742565b5050600160fb819055505050565b7f97667070c54ef182b0f5858b034beac1b6f3089aa2d3188bb1e8929f4fa9b92981565b600260fb54141561240e576040517f08c379a0000000000000000000000000000000000000000000000000000000008152600401612405906153f6565b60405180910390fd5b600260fb8190555061242033826133af565b600061012d60009054906101000a900473ffffffffffffffffffffffffffffffffffffffff1673ffffffffffffffffffffffffffffffffffffffff1663d02641a061012f60009054906101000a900473ffffffffffffffffffffffffffffffffffffffff166040518263ffffffff1660e01b81526004016124a1919061500f565b60206040518083038186803b1580156124b957600080fd5b505afa1580156124cd573d6000803e3d6000fd5b505050506040513d601f19601f820116820180604052508101906124f19190614b29565b905060006125cf826125c1670de0b6b3a764000061012e60009054906101000a900473ffffffffffffffffffffffffffffffffffffffff1673ffffffffffffffffffffffffffffffffffffffff1663e76ab23933896040518363ffffffff1660e01b815260040161256392919061502a565b60206040518083038186803b15801561257b57600080fd5b505afa15801561258f573d6000803e3d6000fd5b505050506040513d601f19601f820116820180604052508101906125b39190614b29565b6136ea90919063ffffffff16565b61370090919063ffffffff16565b9050600061012d60009054906101000a900473ffffffffffffffffffffffffffffffffffffffff1673ffffffffffffffffffffffffffffffffffffffff1663c462b5203361012f60009054906101000a900473ffffffffffffffffffffffffffffffffffffffff16876040518463ffffffff1660e01b815260040161265693929190615053565b60206040518083038186803b15801561266e57600080fd5b505afa158015612682573d6000803e3d6000fd5b505050506040513d601f19601f820116820180604052508101906126a69190614b29565b9050808211156126b4578091505b600082116126f7576040517f08c379a00000000000000000000000000000000000000000000000000000000081526004016126ee906153b6565b60405180910390fd5b81851115612703578194505b61012f60009054906101000a900473ffffffffffffffffffffffffffffffffffffffff1673ffffffffffffffffffffffffffffffffffffffff16632e1a7d4d866040518263ffffffff1660e01b815260040161275f9190615436565b600060405180830381600087803b15801561277957600080fd5b505af115801561278d573d6000803e3d6000fd5b50505050844710156127c8577f4e487b7100000000000000000000000000000000000000000000000000000000600052600160045260246000fd5b60006128916103e861288361012d60009054906101000a900473ffffffffffffffffffffffffffffffffffffffff1673ffffffffffffffffffffffffffffffffffffffff166341e3f2816040518163ffffffff1660e01b815260040160206040518083038186803b15801561283c57600080fd5b505afa158015612850573d6000803e3d6000fd5b505050506040513d601f19601f820116820180604052508101906128749190614b29565b896136ea90919063ffffffff16565b61370090919063ffffffff16565b90506128a6818761371690919063ffffffff16565b9550600061012d60009054906101000a900473ffffffffffffffffffffffffffffffffffffffff1673ffffffffffffffffffffffffffffffffffffffff1663ec94578e6040518163ffffffff1660e01b815260040160206040518083038186803b15801561291357600080fd5b505afa158015612927573d6000803e3d6000fd5b505050506040513d601f19601f8201168201806040525081019061294b9190614772565b73ffffffffffffffffffffffffffffffffffffffff168260405161296e90614fc0565b60006040518083038185875af1925050503d80600081146129ab576040519150601f19603f3d011682016040523d82523d6000602084013e6129b0565b606091505b505080915050806129f6576040517f08c379a00000000000000000000000000000000000000000000000000000000081526004016129ed906152b6565b60405180910390fd5b3373ffffffffffffffffffffffffffffffffffffffff1687604051612a1a90614fc0565b60006040518083038185875af1925050503d8060008114612a57576040519150601f19603f3d011682016040523d82523d6000602084013e612a5c565b606091505b50508091505080612aa2576040517f08c379a0000000000000000000000000000000000000000000000000000000008152600401612a99906152b6565b60405180910390fd5b61012d60009054906101000a900473ffffffffffffffffffffffffffffffffffffffff1673ffffffffffffffffffffffffffffffffffffffff1663181e20a733898961012f60009054906101000a900473ffffffffffffffffffffffffffffffffffffffff1660006040518663ffffffff1660e01b8152600401612b2a95949392919061512f565b600060405180830381600087803b158015612b4457600080fd5b505af1158015612b58573d6000803e3d6000fd5b50505050612b8d338761012f60009054906101000a900473ffffffffffffffffffffffffffffffffffffffff168a6000613742565b5050505050600160fb81905550505050565b60007f01ffc9a7000000000000000000000000000000000000000000000000000000007bffffffffffffffffffffffffffffffffffffffffffffffffffffffff1916827bffffffffffffffffffffffffffffffffffffffffffffffffffffffff1916149050919050565b612c1385826133af565b600061012d60009054906101000a900473ffffffffffffffffffffffffffffffffffffffff1673ffffffffffffffffffffffffffffffffffffffff1663d02641a0866040518263ffffffff1660e01b8152600401612c71919061500f565b60206040518083038186803b158015612c8957600080fd5b505afa158015612c9d573d6000803e3d6000fd5b505050506040513d601f19601f82011682018060405250810190612cc19190614b29565b90506000612d9f82612d91670de0b6b3a764000061012e60009054906101000a900473ffffffffffffffffffffffffffffffffffffffff1673ffffffffffffffffffffffffffffffffffffffff1663e76ab2398c896040518363ffffffff1660e01b8152600401612d3392919061502a565b60206040518083038186803b158015612d4b57600080fd5b505afa158015612d5f573d6000803e3d6000fd5b505050506040513d601f19601f82011682018060405250810190612d839190614b29565b6136ea90919063ffffffff16565b61370090919063ffffffff16565b9050600061012d60009054906101000a900473ffffffffffffffffffffffffffffffffffffffff1673ffffffffffffffffffffffffffffffffffffffff1663c462b5208989876040518463ffffffff1660e01b8152600401612e0393929190615053565b60206040518083038186803b158015612e1b57600080fd5b505afa158015612e2f573d6000803e3d6000fd5b505050506040513d601f19601f82011682018060405250810190612e539190614b29565b905080821115612e61578091505b60008211612ea4576040517f08c379a0000000000000000000000000000000000000000000000000000000008152600401612e9b906153b6565b60405180910390fd5b81851115612eb0578194505b612ebd8888888888610a2b565b5050505050505050565b600033905090565b612ed982826114ae565b612f6857612efe8173ffffffffffffffffffffffffffffffffffffffff166014613c3a565b612f0c8360001c6020613c3a565b604051602001612f1d929190614fd5565b6040516020818303038152906040526040517f08c379a0000000000000000000000000000000000000000000000000000000008152600401612f5f9190615234565b60405180910390fd5b5050565b612f7682826114ae565b61304957600160c9600084815260200190815260200160002060000160008373ffffffffffffffffffffffffffffffffffffffff1673ffffffffffffffffffffffffffffffffffffffff16815260200190815260200160002060006101000a81548160ff021916908315150217905550612fee612ec7565b73ffffffffffffffffffffffffffffffffffffffff168173ffffffffffffffffffffffffffffffffffffffff16837f2f8788117e7eff1d82e926ec794901d17c78024a50270940304540a733656f0d60405160405180910390a45b5050565b61305782826114ae565b1561312b57600060c9600084815260200190815260200160002060000160008373ffffffffffffffffffffffffffffffffffffffff1673ffffffffffffffffffffffffffffffffffffffff16815260200190815260200160002060006101000a81548160ff0219169083151502179055506130d0612ec7565b73ffffffffffffffffffffffffffffffffffffffff168173ffffffffffffffffffffffffffffffffffffffff16837ff6391f5c32d9c69d2a47ea670b442974b53935d1edc7fd64eb21e047a839171b60405160405180910390a45b5050565b6131597fa49807205ce4d355092ef5a8a18f56e8913cf4a201fbe287825b095693c21775336114ae565b613198576040517f08c379a000000000000000000000000000000000000000000000000000000000815260040161318f906153d6565b60405180910390fd5b50565b60006131a5613f34565b90506131b084613f8b565b6000835111806131bd5750815b156131ce576131cc8484614044565b505b60006131fc7f4910fdfa16fed3260ed0e7147f7cc6da11a60208b5b9406d12a635614ffd914360001b614128565b90508060000160009054906101000a900460ff166133a85760018160000160006101000a81548160ff0219169083151502179055506132c88583604051602401613246919061500f565b6040516020818303038152906040527f3659cfe6000000000000000000000000000000000000000000000000000000007bffffffffffffffffffffffffffffffffffffffffffffffffffffffff19166020820180517bffffffffffffffffffffffffffffffffffffffffffffffffffffffff8381831617835250505050614044565b5060008160000160006101000a81548160ff0219169083151502179055506132ee613f34565b73ffffffffffffffffffffffffffffffffffffffff168273ffffffffffffffffffffffffffffffffffffffff161461335b576040517f08c379a0000000000000000000000000000000000000000000000000000000008152600401613352906152d6565b60405180910390fd5b61336485613f8b565b8473ffffffffffffffffffffffffffffffffffffffff167fbc7cd75a20ee27fd9adebab32041f755214dbc6bffa90cc0225b39da2e5c2d3b60405160405180910390a25b5050505050565b600061012d60009054906101000a900473ffffffffffffffffffffffffffffffffffffffff1673ffffffffffffffffffffffffffffffffffffffff1663c68da11084846040518363ffffffff1660e01b815260040161340f92919061502a565b60206040518083038186803b15801561342757600080fd5b505afa15801561343b573d6000803e3d6000fd5b505050506040513d601f19601f8201168201806040525081019061345f9190614b29565b90504281141561346f57506136e6565b60008114156135105761012d60009054906101000a900473ffffffffffffffffffffffffffffffffffffffff1673ffffffffffffffffffffffffffffffffffffffff1663d5d907db8484426040518463ffffffff1660e01b81526004016134d89392919061508a565b600060405180830381600087803b1580156134f257600080fd5b505af1158015613506573d6000803e3d6000fd5b50505050506136e6565b61012d60009054906101000a900473ffffffffffffffffffffffffffffffffffffffff1673ffffffffffffffffffffffffffffffffffffffff1663877034f18461012e60009054906101000a900473ffffffffffffffffffffffffffffffffffffffff1673ffffffffffffffffffffffffffffffffffffffff16638709294087876040518363ffffffff1660e01b81526004016135ae92919061502a565b60206040518083038186803b1580156135c657600080fd5b505afa1580156135da573d6000803e3d6000fd5b505050506040513d601f19601f820116820180604052508101906135fe9190614b29565b8560016040518563ffffffff1660e01b81526004016136209493929190615182565b600060405180830381600087803b15801561363a57600080fd5b505af115801561364e573d6000803e3d6000fd5b5050505061012d60009054906101000a900473ffffffffffffffffffffffffffffffffffffffff1673ffffffffffffffffffffffffffffffffffffffff1663d5d907db8484426040518463ffffffff1660e01b81526004016136b29392919061508a565b600060405180830381600087803b1580156136cc57600080fd5b505af11580156136e0573d6000803e3d6000fd5b50505050505b5050565b600081836136f89190615635565b905092915050565b6000818361370e9190615604565b905092915050565b60008183613724919061568f565b905092915050565b6000818361373a91906155ae565b905092915050565b600061012d60009054906101000a900473ffffffffffffffffffffffffffffffffffffffff1673ffffffffffffffffffffffffffffffffffffffff166301964f366040518163ffffffff1660e01b815260040160206040518083038186803b1580156137ad57600080fd5b505afa1580156137c1573d6000803e3d6000fd5b505050506040513d601f19601f820116820180604052508101906137e59190614b29565b905060008114156137f657506139fd565b613823670de0b6b3a764000061381583866136ea90919063ffffffff16565b61370090919063ffffffff16565b9250600061012d60009054906101000a900473ffffffffffffffffffffffffffffffffffffffff1673ffffffffffffffffffffffffffffffffffffffff16639cfd96696040518163ffffffff1660e01b815260040160206040518083038186803b15801561389057600080fd5b505afa1580156138a4573d6000803e3d6000fd5b505050506040513d601f19601f820116820180604052508101906138c89190614772565b90508215613967578073ffffffffffffffffffffffffffffffffffffffff16634a0e780e888689896040518563ffffffff1660e01b815260040161390f94939291906150ea565b602060405180830381600087803b15801561392957600080fd5b505af115801561393d573d6000803e3d6000fd5b505050506040513d601f19601f820116820180604052508101906139619190614b29565b506139fa565b8073ffffffffffffffffffffffffffffffffffffffff16635aa347c7888689896040518563ffffffff1660e01b81526004016139a694939291906150ea565b602060405180830381600087803b1580156139c057600080fd5b505af11580156139d4573d6000803e3d6000fd5b505050506040513d601f19601f820116820180604052508101906139f89190614b29565b505b50505b5050505050565b600060019054906101000a900460ff1680613a2a575060008054906101000a900460ff16155b613a69576040517f08c379a0000000000000000000000000000000000000000000000000000000008152600401613a6090615316565b60405180910390fd5b60008060019054906101000a900460ff161590508015613ab9576001600060016101000a81548160ff02191690831515021790555060016000806101000a81548160ff0219169083151502179055505b613ac1614132565b613ac961420b565b613ad16142e4565b8015613af25760008060016101000a81548160ff0219169083151502179055505b50565b600060019054906101000a900460ff1680613b1b575060008054906101000a900460ff16155b613b5a576040517f08c379a0000000000000000000000000000000000000000000000000000000008152600401613b5190615316565b60405180910390fd5b60008060019054906101000a900460ff161590508015613baa576001600060016101000a81548160ff02191690831515021790555060016000806101000a81548160ff0219169083151502179055505b613bb26143bd565b8015613bd35760008060016101000a81548160ff0219169083151502179055505b50565b613be08282612f6c565b5050565b80613bee8361083d565b837fbd79b86ffe0ab8e8776151514217cd7cacd52c909f66475c3af44e129f0b00ff60405160405180910390a48060c96000848152602001908152602001600020600101819055505050565b606060006002836002613c4d9190615635565b613c5791906155ae565b67ffffffffffffffff811115613c96577f4e487b7100000000000000000000000000000000000000000000000000000000600052604160045260246000fd5b6040519080825280601f01601f191660200182016040528015613cc85781602001600182028036833780820191505090505b5090507f300000000000000000000000000000000000000000000000000000000000000081600081518110613d26577f4e487b7100000000000000000000000000000000000000000000000000000000600052603260045260246000fd5b60200101907effffffffffffffffffffffffffffffffffffffffffffffffffffffffffffff1916908160001a9053507f780000000000000000000000000000000000000000000000000000000000000081600181518110613db0577f4e487b7100000000000000000000000000000000000000000000000000000000600052603260045260246000fd5b60200101907effffffffffffffffffffffffffffffffffffffffffffffffffffffffffffff1916908160001a90535060006001846002613df09190615635565b613dfa91906155ae565b90505b6001811115613ee6577f3031323334353637383961626364656600000000000000000000000000000000600f861660108110613e62577f4e487b7100000000000000000000000000000000000000000000000000000000600052603260045260246000fd5b1a60f81b828281518110613e9f577f4e487b7100000000000000000000000000000000000000000000000000000000600052603260045260246000fd5b60200101907effffffffffffffffffffffffffffffffffffffffffffffffffffffffffffff1916908160001a905350600485901c945080613edf90615783565b9050613dfd565b5060008414613f2a576040517f08c379a0000000000000000000000000000000000000000000000000000000008152600401613f2190615256565b60405180910390fd5b8091505092915050565b6000613f627f360894a13ba1a3210667c828492db98dca3e2076cc3735a920a3ca505d382bbc60001b61449e565b60000160009054906101000a900473ffffffffffffffffffffffffffffffffffffffff16905090565b613f94816144a8565b613fd3576040517f08c379a0000000000000000000000000000000000000000000000000000000008152600401613fca90615356565b60405180910390fd5b806140007f360894a13ba1a3210667c828492db98dca3e2076cc3735a920a3ca505d382bbc60001b61449e565b60000160006101000a81548173ffffffffffffffffffffffffffffffffffffffff021916908373ffffffffffffffffffffffffffffffffffffffff16021790555050565b606061404f836144a8565b61408e576040517f08c379a000000000000000000000000000000000000000000000000000000000815260040161408590615396565b60405180910390fd5b6000808473ffffffffffffffffffffffffffffffffffffffff16846040516140b69190614fa9565b600060405180830381855af49150503d80600081146140f1576040519150601f19603f3d011682016040523d82523d6000602084013e6140f6565b606091505b509150915061411e8282604051806060016040528060278152602001615cb3602791396144bb565b9250505092915050565b6000819050919050565b600060019054906101000a900460ff1680614158575060008054906101000a900460ff16155b614197576040517f08c379a000000000000000000000000000000000000000000000000000000000815260040161418e90615316565b60405180910390fd5b60008060019054906101000a900460ff1615905080156141e7576001600060016101000a81548160ff02191690831515021790555060016000806101000a81548160ff0219169083151502179055505b80156142085760008060016101000a81548160ff0219169083151502179055505b50565b600060019054906101000a900460ff1680614231575060008054906101000a900460ff16155b614270576040517f08c379a000000000000000000000000000000000000000000000000000000000815260040161426790615316565b60405180910390fd5b60008060019054906101000a900460ff1615905080156142c0576001600060016101000a81548160ff02191690831515021790555060016000806101000a81548160ff0219169083151502179055505b80156142e15760008060016101000a81548160ff0219169083151502179055505b50565b600060019054906101000a900460ff168061430a575060008054906101000a900460ff16155b614349576040517f08c379a000000000000000000000000000000000000000000000000000000000815260040161434090615316565b60405180910390fd5b60008060019054906101000a900460ff161590508015614399576001600060016101000a81548160ff02191690831515021790555060016000806101000a81548160ff0219169083151502179055505b80156143ba5760008060016101000a81548160ff0219169083151502179055505b50565b600060019054906101000a900460ff16806143e3575060008054906101000a900460ff16155b614422576040517f08c379a000000000000000000000000000000000000000000000000000000000815260040161441990615316565b60405180910390fd5b60008060019054906101000a900460ff161590508015614472576001600060016101000a81548160ff02191690831515021790555060016000806101000a81548160ff0219169083151502179055505b600160fb81905550801561449b5760008060016101000a81548160ff0219169083151502179055505b50565b6000819050919050565b600080823b905060008111915050919050565b606083156144cb5782905061451b565b6000835111156144de5782518084602001fd5b816040517f08c379a00000000000000000000000000000000000000000000000000000000081526004016145129190615234565b60405180910390fd5b9392505050565b600061453561453084615476565b615451565b9050808382526020820190508285602086028201111561455457600080fd5b60005b85811015614584578161456a888261464d565b845260208401935060208301925050600181019050614557565b5050509392505050565b60006145a161459c846154a2565b615451565b905080838252602082019050828560208602820111156145c057600080fd5b60005b858110156145f057816145d68882614734565b8452602084019350602083019250506001810190506145c3565b5050509392505050565b600061460d614608846154ce565b615451565b90508281526020810184848401111561462557600080fd5b614630848285615741565b509392505050565b60008135905061464781615c3f565b92915050565b60008151905061465c81615c3f565b92915050565b600082601f83011261467357600080fd5b8151614683848260208601614522565b91505092915050565b600082601f83011261469d57600080fd5b81516146ad84826020860161458e565b91505092915050565b6000815190506146c581615c56565b92915050565b6000813590506146da81615c6d565b92915050565b6000813590506146ef81615c84565b92915050565b600082601f83011261470657600080fd5b81356147168482602086016145fa565b91505092915050565b60008135905061472e81615c9b565b92915050565b60008151905061474381615c9b565b92915050565b60006020828403121561475b57600080fd5b600061476984828501614638565b91505092915050565b60006020828403121561478457600080fd5b60006147928482850161464d565b91505092915050565b600080604083850312156147ae57600080fd5b60006147bc85828601614638565b92505060206147cd85828601614638565b9150509250929050565b600080600080600060a086880312156147ef57600080fd5b60006147fd88828901614638565b955050602061480e88828901614638565b945050604061481f88828901614638565b93505060606148308882890161471f565b925050608061484188828901614638565b9150509295509295909350565b6000806000806080858703121561486457600080fd5b600061487287828801614638565b945050602061488387828801614638565b93505060406148948782880161471f565b92505060606148a587828801614638565b91505092959194509250565b600080604083850312156148c457600080fd5b60006148d285828601614638565b925050602083013567ffffffffffffffff8111156148ef57600080fd5b6148fb858286016146f5565b9150509250929050565b6000806040838503121561491857600080fd5b600061492685828601614638565b92505060206149378582860161471f565b9150509250929050565b60008060006060848603121561495657600080fd5b600061496486828701614638565b93505060206149758682870161471f565b925050604061498686828701614638565b9150509250925092565b600080600080608085870312156149a657600080fd5b60006149b487828801614638565b94505060206149c58782880161471f565b93505060406149d687828801614638565b92505060606149e787828801614638565b91505092959194509250565b600080600060608486031215614a0857600080fd5b600084015167ffffffffffffffff811115614a2257600080fd5b614a2e86828701614662565b935050602084015167ffffffffffffffff811115614a4b57600080fd5b614a578682870161468c565b9250506040614a68868287016146b6565b9150509250925092565b600060208284031215614a8457600080fd5b6000614a92848285016146b6565b91505092915050565b600060208284031215614aad57600080fd5b6000614abb848285016146cb565b91505092915050565b60008060408385031215614ad757600080fd5b6000614ae5858286016146cb565b9250506020614af685828601614638565b9150509250929050565b600060208284031215614b1257600080fd5b6000614b20848285016146e0565b91505092915050565b600060208284031215614b3b57600080fd5b6000614b4984828501614734565b91505092915050565b6000614b5e8383614b82565b60208301905092915050565b6000614b768383614f8b565b60208301905092915050565b614b8b816156c3565b82525050565b614b9a816156c3565b82525050565b6000614bab8261551f565b614bb58185615565565b9350614bc0836154ff565b8060005b83811015614bf1578151614bd88882614b52565b9750614be38361554b565b925050600181019050614bc4565b5085935050505092915050565b6000614c098261552a565b614c138185615576565b9350614c1e8361550f565b8060005b83811015614c4f578151614c368882614b6a565b9750614c4183615558565b925050600181019050614c22565b5085935050505092915050565b614c65816156d5565b82525050565b614c74816156e1565b82525050565b6000614c8582615535565b614c8f8185615587565b9350614c9f818560208601615750565b80840191505092915050565b6000614cb682615540565b614cc08185615592565b9350614cd0818560208601615750565b614cd9816158b4565b840191505092915050565b6000614cef82615540565b614cf981856155a3565b9350614d09818560208601615750565b80840191505092915050565b6000614d22602083615592565b9150614d2d826158c5565b602082019050919050565b6000614d45600283615592565b9150614d50826158ee565b602082019050919050565b6000614d68600283615592565b9150614d7382615917565b602082019050919050565b6000614d8b600283615592565b9150614d9682615940565b602082019050919050565b6000614dae602f83615592565b9150614db982615969565b604082019050919050565b6000614dd1600283615592565b9150614ddc826159b8565b602082019050919050565b6000614df4602e83615592565b9150614dff826159e1565b604082019050919050565b6000614e17600283615592565b9150614e2282615a30565b602082019050919050565b6000614e3a602d83615592565b9150614e4582615a59565b604082019050919050565b6000614e5d600283615592565b9150614e6882615aa8565b602082019050919050565b6000614e80602683615592565b9150614e8b82615ad1565b604082019050919050565b6000614ea3600283615592565b9150614eae82615b20565b602082019050919050565b6000614ec6600083615587565b9150614ed182615b49565b600082019050919050565b6000614ee9600283615592565b9150614ef482615b4c565b602082019050919050565b6000614f0c6017836155a3565b9150614f1782615b75565b601782019050919050565b6000614f2f601f83615592565b9150614f3a82615b9e565b602082019050919050565b6000614f526011836155a3565b9150614f5d82615bc7565b601182019050919050565b6000614f75602f83615592565b9150614f8082615bf0565b604082019050919050565b614f9481615737565b82525050565b614fa381615737565b82525050565b6000614fb58284614c7a565b915081905092915050565b6000614fcb82614eb9565b9150819050919050565b6000614fe082614eff565b9150614fec8285614ce4565b9150614ff782614f45565b91506150038284614ce4565b91508190509392505050565b60006020820190506150246000830184614b91565b92915050565b600060408201905061503f6000830185614b91565b61504c6020830184614b91565b9392505050565b60006060820190506150686000830186614b91565b6150756020830185614b91565b6150826040830184614b91565b949350505050565b600060608201905061509f6000830186614b91565b6150ac6020830185614b91565b6150b96040830184614f9a565b949350505050565b60006040820190506150d66000830185614b91565b6150e36020830184614f9a565b9392505050565b60006080820190506150ff6000830187614b91565b61510c6020830186614f9a565b6151196040830185614b91565b6151266060830184614b91565b95945050505050565b600060a0820190506151446000830188614b91565b6151516020830187614f9a565b61515e6040830186614b91565b61516b6060830185614b91565b6151786080830184614c5c565b9695505050505050565b60006080820190506151976000830187614b91565b6151a46020830186614f9a565b6151b16040830185614b91565b6151be6060830184614c5c565b95945050505050565b600060408201905081810360008301526151e18185614ba0565b905081810360208301526151f58184614bfe565b90509392505050565b60006020820190506152136000830184614c5c565b92915050565b600060208201905061522e6000830184614c6b565b92915050565b6000602082019050818103600083015261524e8184614cab565b905092915050565b6000602082019050818103600083015261526f81614d15565b9050919050565b6000602082019050818103600083015261528f81614d38565b9050919050565b600060208201905081810360008301526152af81614d5b565b9050919050565b600060208201905081810360008301526152cf81614d7e565b9050919050565b600060208201905081810360008301526152ef81614da1565b9050919050565b6000602082019050818103600083015261530f81614dc4565b9050919050565b6000602082019050818103600083015261532f81614de7565b9050919050565b6000602082019050818103600083015261534f81614e0a565b9050919050565b6000602082019050818103600083015261536f81614e2d565b9050919050565b6000602082019050818103600083015261538f81614e50565b9050919050565b600060208201905081810360008301526153af81614e73565b9050919050565b600060208201905081810360008301526153cf81614e96565b9050919050565b600060208201905081810360008301526153ef81614edc565b9050919050565b6000602082019050818103600083015261540f81614f22565b9050919050565b6000602082019050818103600083015261542f81614f68565b9050919050565b600060208201905061544b6000830184614f9a565b92915050565b600061545b61546c565b905061546782826157ad565b919050565b6000604051905090565b600067ffffffffffffffff82111561549157615490615885565b5b602082029050602081019050919050565b600067ffffffffffffffff8211156154bd576154bc615885565b5b602082029050602081019050919050565b600067ffffffffffffffff8211156154e9576154e8615885565b5b6154f2826158b4565b9050602081019050919050565b6000819050602082019050919050565b6000819050602082019050919050565b600081519050919050565b600081519050919050565b600081519050919050565b600081519050919050565b6000602082019050919050565b6000602082019050919050565b600082825260208201905092915050565b600082825260208201905092915050565b600081905092915050565b600082825260208201905092915050565b600081905092915050565b60006155b982615737565b91506155c483615737565b9250827fffffffffffffffffffffffffffffffffffffffffffffffffffffffffffffffff038211156155f9576155f8615827565b5b828201905092915050565b600061560f82615737565b915061561a83615737565b92508261562a57615629615856565b5b828204905092915050565b600061564082615737565b915061564b83615737565b9250817fffffffffffffffffffffffffffffffffffffffffffffffffffffffffffffffff048311821515161561568457615683615827565b5b828202905092915050565b600061569a82615737565b91506156a583615737565b9250828210156156b8576156b7615827565b5b828203905092915050565b60006156ce82615717565b9050919050565b60008115159050919050565b6000819050919050565b60007fffffffff0000000000000000000000000000000000000000000000000000000082169050919050565b600073ffffffffffffffffffffffffffffffffffffffff82169050919050565b6000819050919050565b82818337600083830152505050565b60005b8381101561576e578082015181840152602081019050615753565b8381111561577d576000848401525b50505050565b600061578e82615737565b915060008214156157a2576157a1615827565b5b600182039050919050565b6157b6826158b4565b810181811067ffffffffffffffff821117156157d5576157d4615885565b5b80604052505050565b60006157e982615737565b91507fffffffffffffffffffffffffffffffffffffffffffffffffffffffffffffffff82141561581c5761581b615827565b5b600182019050919050565b7f4e487b7100000000000000000000000000000000000000000000000000000000600052601160045260246000fd5b7f4e487b7100000000000000000000000000000000000000000000000000000000600052601260045260246000fd5b7f4e487b7100000000000000000000000000000000000000000000000000000000600052604160045260246000fd5b6000601f19601f8301169050919050565b7f537472696e67733a20686578206c656e67746820696e73756666696369656e74600082015250565b7f4943000000000000000000000000000000000000000000000000000000000000600082015250565b7f4e4f000000000000000000000000000000000000000000000000000000000000600082015250565b7f4650000000000000000000000000000000000000000000000000000000000000600082015250565b7f45524331393637557067726164653a207570677261646520627265616b73206660008201527f7572746865722075706772616465730000000000000000000000000000000000602082015250565b7f4e57000000000000000000000000000000000000000000000000000000000000600082015250565b7f496e697469616c697a61626c653a20636f6e747261637420697320616c72656160008201527f647920696e697469616c697a6564000000000000000000000000000000000000602082015250565b7f4941000000000000000000000000000000000000000000000000000000000000600082015250565b7f455243313936373a206e657720696d706c656d656e746174696f6e206973206e60008201527f6f74206120636f6e747261637400000000000000000000000000000000000000602082015250565b7f4654000000000000000000000000000000000000000000000000000000000000600082015250565b7f416464726573733a2064656c65676174652063616c6c20746f206e6f6e2d636f60008201527f6e74726163740000000000000000000000000000000000000000000000000000602082015250565b7f4341000000000000000000000000000000000000000000000000000000000000600082015250565b50565b7f4e41000000000000000000000000000000000000000000000000000000000000600082015250565b7f416363657373436f6e74726f6c3a206163636f756e7420000000000000000000600082015250565b7f5265656e7472616e637947756172643a207265656e7472616e742063616c6c00600082015250565b7f206973206d697373696e6720726f6c6520000000000000000000000000000000600082015250565b7f416363657373436f6e74726f6c3a2063616e206f6e6c792072656e6f756e636560008201527f20726f6c657320666f722073656c660000000000000000000000000000000000602082015250565b615c48816156c3565b8114615c5357600080fd5b50565b615c5f816156d5565b8114615c6a57600080fd5b50565b615c76816156e1565b8114615c8157600080fd5b50565b615c8d816156eb565b8114615c9857600080fd5b50565b615ca481615737565b8114615caf57600080fd5b5056fe416464726573733a206c6f772d6c6576656c2064656c65676174652063616c6c206661696c6564a2646970667358221220808173dc2fb80a0e28240934d9cd2c13b530da9b92f10f44e2e2132923ccf39664736f6c63430008030033",
  "linkReferences": {},
  "deployedLinkReferences": {}
}