{
  "_format": "hh-sol-artifact-1",
  "contractName": "Treasury",
  "sourceName": "contracts/Bank/Treasury.sol",
  "abi": [
    {
      "anonymous": false,
      "inputs": [
        {
          "indexed": false,
          "internalType": "address",
          "name": "previousAdmin",
          "type": "address"
        },
        {
          "indexed": false,
          "internalType": "address",
          "name": "newAdmin",
          "type": "address"
        }
      ],
      "name": "AdminChanged",
      "type": "event"
    },
    {
      "anonymous": false,
      "inputs": [
        {
          "indexed": true,
          "internalType": "address",
          "name": "beacon",
          "type": "address"
        }
      ],
      "name": "BeaconUpgraded",
      "type": "event"
    },
    {
      "anonymous": false,
      "inputs": [
        {
          "indexed": true,
          "internalType": "bytes32",
          "name": "role",
          "type": "bytes32"
        },
        {
          "indexed": true,
          "internalType": "bytes32",
          "name": "previousAdminRole",
          "type": "bytes32"
        },
        {
          "indexed": true,
          "internalType": "bytes32",
          "name": "newAdminRole",
          "type": "bytes32"
        }
      ],
      "name": "RoleAdminChanged",
      "type": "event"
    },
    {
      "anonymous": false,
      "inputs": [
        {
          "indexed": true,
          "internalType": "bytes32",
          "name": "role",
          "type": "bytes32"
        },
        {
          "indexed": true,
          "internalType": "address",
          "name": "account",
          "type": "address"
        },
        {
          "indexed": true,
          "internalType": "address",
          "name": "sender",
          "type": "address"
        }
      ],
      "name": "RoleGranted",
      "type": "event"
    },
    {
      "anonymous": false,
      "inputs": [
        {
          "indexed": true,
          "internalType": "bytes32",
          "name": "role",
          "type": "bytes32"
        },
        {
          "indexed": true,
          "internalType": "address",
          "name": "account",
          "type": "address"
        },
        {
          "indexed": true,
          "internalType": "address",
          "name": "sender",
          "type": "address"
        }
      ],
      "name": "RoleRevoked",
      "type": "event"
    },
    {
      "anonymous": false,
      "inputs": [
        {
          "indexed": true,
          "internalType": "address",
          "name": "implementation",
          "type": "address"
        }
      ],
      "name": "Upgraded",
      "type": "event"
    },
    {
      "inputs": [],
      "name": "ADMIN_ROLE",
      "outputs": [
        {
          "internalType": "bytes32",
          "name": "",
          "type": "bytes32"
        }
      ],
      "stateMutability": "view",
      "type": "function"
    },
    {
      "inputs": [],
      "name": "DEFAULT_ADMIN_ROLE",
      "outputs": [
        {
          "internalType": "bytes32",
          "name": "",
          "type": "bytes32"
        }
      ],
      "stateMutability": "view",
      "type": "function"
    },
    {
      "inputs": [],
      "name": "OPERATOR_ROLE",
      "outputs": [
        {
          "internalType": "bytes32",
          "name": "",
          "type": "bytes32"
        }
      ],
      "stateMutability": "view",
      "type": "function"
    },
    {
      "inputs": [
        {
          "internalType": "address",
          "name": "account",
          "type": "address"
        },
        {
          "internalType": "uint256",
          "name": "depositAmount",
          "type": "uint256"
        },
        {
          "internalType": "address",
          "name": "collateralToken",
          "type": "address"
        },
        {
          "internalType": "address",
          "name": "fxToken",
          "type": "address"
        }
      ],
      "name": "depositCollateral",
      "outputs": [],
      "stateMutability": "nonpayable",
      "type": "function"
    },
    {
      "inputs": [
        {
          "internalType": "address",
          "name": "account",
          "type": "address"
        },
        {
          "internalType": "address",
          "name": "fxToken",
          "type": "address"
        }
      ],
      "name": "depositCollateralETH",
      "outputs": [],
      "stateMutability": "payable",
      "type": "function"
    },
    {
      "inputs": [
        {
          "internalType": "address",
          "name": "from",
          "type": "address"
        },
        {
          "internalType": "address",
          "name": "collateralToken",
          "type": "address"
        },
        {
          "internalType": "address",
          "name": "to",
          "type": "address"
        },
        {
          "internalType": "uint256",
          "name": "amount",
          "type": "uint256"
        },
        {
          "internalType": "address",
          "name": "fxToken",
          "type": "address"
        }
      ],
      "name": "forceWithdrawCollateral",
      "outputs": [],
      "stateMutability": "nonpayable",
      "type": "function"
    },
    {
      "inputs": [
        {
          "internalType": "bytes32",
          "name": "role",
          "type": "bytes32"
        }
      ],
      "name": "getRoleAdmin",
      "outputs": [
        {
          "internalType": "bytes32",
          "name": "",
          "type": "bytes32"
        }
      ],
      "stateMutability": "view",
      "type": "function"
    },
    {
      "inputs": [
        {
          "internalType": "bytes32",
          "name": "role",
          "type": "bytes32"
        },
        {
          "internalType": "address",
          "name": "account",
          "type": "address"
        }
      ],
      "name": "grantRole",
      "outputs": [],
      "stateMutability": "nonpayable",
      "type": "function"
    },
    {
      "inputs": [],
      "name": "handleAddress",
      "outputs": [
        {
          "internalType": "address",
          "name": "",
          "type": "address"
        }
      ],
      "stateMutability": "view",
      "type": "function"
    },
    {
      "inputs": [
        {
          "internalType": "bytes32",
          "name": "role",
          "type": "bytes32"
        },
        {
          "internalType": "address",
          "name": "account",
          "type": "address"
        }
      ],
      "name": "hasRole",
      "outputs": [
        {
          "internalType": "bool",
          "name": "",
          "type": "bool"
        }
      ],
      "stateMutability": "view",
      "type": "function"
    },
    {
      "inputs": [],
      "name": "initialize",
      "outputs": [],
      "stateMutability": "nonpayable",
      "type": "function"
    },
    {
      "inputs": [
        {
          "internalType": "bytes32",
          "name": "role",
          "type": "bytes32"
        },
        {
          "internalType": "address",
          "name": "account",
          "type": "address"
        }
      ],
      "name": "renounceRole",
      "outputs": [],
      "stateMutability": "nonpayable",
      "type": "function"
    },
    {
      "inputs": [
        {
          "internalType": "bytes32",
          "name": "role",
          "type": "bytes32"
        },
        {
          "internalType": "address",
          "name": "account",
          "type": "address"
        }
      ],
      "name": "revokeRole",
      "outputs": [],
      "stateMutability": "nonpayable",
      "type": "function"
    },
    {
      "inputs": [
        {
          "internalType": "address",
          "name": "_handle",
          "type": "address"
        }
      ],
      "name": "setHandleContract",
      "outputs": [],
      "stateMutability": "nonpayable",
      "type": "function"
    },
    {
      "inputs": [
        {
          "internalType": "bytes4",
          "name": "interfaceId",
          "type": "bytes4"
        }
      ],
      "name": "supportsInterface",
      "outputs": [
        {
          "internalType": "bool",
          "name": "",
          "type": "bool"
        }
      ],
      "stateMutability": "view",
      "type": "function"
    },
    {
      "inputs": [
        {
          "internalType": "address",
          "name": "account",
          "type": "address"
        },
        {
          "internalType": "address",
          "name": "fxToken",
          "type": "address"
        }
      ],
      "name": "updateVaultInterest",
      "outputs": [],
      "stateMutability": "nonpayable",
      "type": "function"
    },
    {
      "inputs": [
        {
          "internalType": "address",
          "name": "newImplementation",
          "type": "address"
        }
      ],
      "name": "upgradeTo",
      "outputs": [],
      "stateMutability": "nonpayable",
      "type": "function"
    },
    {
      "inputs": [
        {
          "internalType": "address",
          "name": "newImplementation",
          "type": "address"
        },
        {
          "internalType": "bytes",
          "name": "data",
          "type": "bytes"
        }
      ],
      "name": "upgradeToAndCall",
      "outputs": [],
      "stateMutability": "payable",
      "type": "function"
    },
    {
      "inputs": [
        {
          "internalType": "address",
          "name": "from",
          "type": "address"
        },
        {
          "internalType": "address",
          "name": "to",
          "type": "address"
        },
        {
          "internalType": "uint256",
          "name": "amount",
          "type": "uint256"
        },
        {
          "internalType": "address",
          "name": "fxToken",
          "type": "address"
        }
      ],
      "name": "withdrawAnyCollateral",
      "outputs": [
        {
          "internalType": "address[]",
          "name": "collateralTypes",
          "type": "address[]"
        },
        {
          "internalType": "uint256[]",
          "name": "collateralAmounts",
          "type": "uint256[]"
        }
      ],
      "stateMutability": "nonpayable",
      "type": "function"
    },
    {
      "inputs": [
        {
          "internalType": "address",
          "name": "collateralToken",
          "type": "address"
        },
        {
          "internalType": "address",
          "name": "to",
          "type": "address"
        },
        {
          "internalType": "uint256",
          "name": "amount",
          "type": "uint256"
        },
        {
          "internalType": "address",
          "name": "fxToken",
          "type": "address"
        }
      ],
      "name": "withdrawCollateral",
      "outputs": [],
      "stateMutability": "nonpayable",
      "type": "function"
    },
    {
      "inputs": [
        {
          "internalType": "address",
          "name": "to",
          "type": "address"
        },
        {
          "internalType": "uint256",
          "name": "amount",
          "type": "uint256"
        },
        {
          "internalType": "address",
          "name": "fxToken",
          "type": "address"
        }
      ],
      "name": "withdrawCollateralETH",
      "outputs": [],
      "stateMutability": "nonpayable",
      "type": "function"
    },
    {
      "inputs": [
        {
          "internalType": "address",
          "name": "from",
          "type": "address"
        },
        {
          "internalType": "address",
          "name": "collateralToken",
          "type": "address"
        },
        {
          "internalType": "address",
          "name": "to",
          "type": "address"
        },
        {
          "internalType": "uint256",
          "name": "amount",
          "type": "uint256"
        },
        {
          "internalType": "address",
          "name": "fxToken",
          "type": "address"
        }
      ],
      "name": "withdrawCollateralFrom",
      "outputs": [],
      "stateMutability": "nonpayable",
      "type": "function"
    },
    {
      "stateMutability": "payable",
      "type": "receive"
    }
  ],
  "bytecode": "0x608060405234801561001057600080fd5b5061570880620000216000396000f3fe6080604052600436106101395760003560e01c806374bf578b116100ab578063a217fddf1161006f578063a217fddf1461040b578063ce1c185114610436578063d547741f1461045f578063e82f1e7a14610488578063f5b541a6146104a4578063fd58a301146104cf57610140565b806374bf578b1461033857806375b238fc146103635780638129fc1c1461038e57806391d14854146103a55780639b1c414f146103e257610140565b80633659cfe6116100fd5780633659cfe61461024f5780633fa6b819146102785780634f1ef286146102a157806358166d24146102bd5780635a6f45de146102e657806364cfc1ad1461030f57610140565b806301ffc9a7146101455780631856d56f14610182578063248a9ca3146101c05780632f2ff15d146101fd57806336568abe1461022657610140565b3661014057005b600080fd5b34801561015157600080fd5b5061016c600480360381019061016791906145aa565b6104f8565b6040516101799190614c40565b60405180910390f35b34801561018e57600080fd5b506101a960048036038101906101a49190614334565b610572565b6040516101b7929190614c09565b60405180910390f35b3480156101cc57600080fd5b506101e760048036038101906101e29190614545565b610809565b6040516101f49190614c5b565b60405180910390f35b34801561020957600080fd5b50610224600480360381019061021f919061456e565b610829565b005b34801561023257600080fd5b5061024d6004803603810190610248919061456e565b610852565b005b34801561025b57600080fd5b506102766004803603810190610271919061422f565b6108d5565b005b34801561028457600080fd5b5061029f600480360381019061029a9190614281565b6108fc565b005b6102bb60048036038101906102b69190614397565b6109de565b005b3480156102c957600080fd5b506102e460048036038101906102df91906142bd565b6109f7565b005b3480156102f257600080fd5b5061030d60048036038101906103089190614334565b610f73565b005b34801561031b57600080fd5b50610336600480360381019061033191906142bd565b610fdc565b005b34801561034457600080fd5b5061034d61111a565b60405161035a9190614a96565b60405180910390f35b34801561036f57600080fd5b50610378611145565b6040516103859190614c5b565b60405180910390f35b34801561039a57600080fd5b506103a3611169565b005b3480156103b157600080fd5b506103cc60048036038101906103c7919061456e565b6112c6565b6040516103d99190614c40565b60405180910390f35b3480156103ee57600080fd5b506104096004803603810190610404919061422f565b611331565b005b34801561041757600080fd5b506104206117a1565b60405161042d9190614c5b565b60405180910390f35b34801561044257600080fd5b5061045d6004803603810190610458919061443a565b6117a8565b005b34801561046b57600080fd5b506104866004803603810190610481919061456e565b611c6f565b005b6104a2600480360381019061049d9190614281565b611c98565b005b3480156104b057600080fd5b506104b961217d565b6040516104c69190614c5b565b60405180910390f35b3480156104db57600080fd5b506104f660048036038101906104f191906143eb565b6121a1565b005b60007f7965db0b000000000000000000000000000000000000000000000000000000007bffffffffffffffffffffffffffffffffffffffffffffffffffffffff1916827bffffffffffffffffffffffffffffffffffffffffffffffffffffffff1916148061056b575061056a82612947565b5b9050919050565b606080858073ffffffffffffffffffffffffffffffffffffffff163373ffffffffffffffffffffffffffffffffffffffff16148061060957506105d57f97667070c54ef182b0f5858b034beac1b6f3089aa2d3188bb1e8929f4fa9b929336112c6565b801561060857506106067fa49807205ce4d355092ef5a8a18f56e8913cf4a201fbe287825b095693c21775336112c6565b155b5b610648576040517f08c379a000000000000000000000000000000000000000000000000000000000815260040161063f90614d18565b60405180910390fd5b600061012e60009054906101000a900473ffffffffffffffffffffffffffffffffffffffff1673ffffffffffffffffffffffffffffffffffffffff1663234ab3e28987896040518463ffffffff1660e01b81526004016106aa93929190614b11565b60006040518083038186803b1580156106c257600080fd5b505afa1580156106d6573d6000803e3d6000fd5b505050506040513d6000823e3d601f19601f820116820180604052508101906106ff919061449d565b8093508195508296505050508061074b576040517f08c379a000000000000000000000000000000000000000000000000000000000815260040161074290614d58565b60405180910390fd5b60008451905060005b818110156107fc576107e98a878381518110610799577f4e487b7100000000000000000000000000000000000000000000000000000000600052603260045260246000fd5b60200260200101518b8885815181106107db577f4e487b7100000000000000000000000000000000000000000000000000000000600052603260045260246000fd5b60200260200101518b6129b1565b80806107f490615200565b915050610754565b5050505094509492505050565b600060c96000838152602001908152602001600020600101549050919050565b61083282610809565b6108438161083e612c6f565b612c77565b61084d8383612d14565b505050565b61085a612c6f565b73ffffffffffffffffffffffffffffffffffffffff168173ffffffffffffffffffffffffffffffffffffffff16146108c7576040517f08c379a00000000000000000000000000000000000000000000000000000000081526004016108be90614e38565b60405180910390fd5b6108d18282612df5565b5050565b6108de81612ed7565b6108f981604051806020016040528060008152506000612f43565b50565b818073ffffffffffffffffffffffffffffffffffffffff163373ffffffffffffffffffffffffffffffffffffffff161480610990575061095c7f97667070c54ef182b0f5858b034beac1b6f3089aa2d3188bb1e8929f4fa9b929336112c6565b801561098f575061098d7fa49807205ce4d355092ef5a8a18f56e8913cf4a201fbe287825b095693c21775336112c6565b155b5b6109cf576040517f08c379a00000000000000000000000000000000000000000000000000000000081526004016109c690614d18565b60405180910390fd5b6109d98383613157565b505050565b6109e782612ed7565b6109f382826001612f43565b5050565b848073ffffffffffffffffffffffffffffffffffffffff163373ffffffffffffffffffffffffffffffffffffffff161480610a8b5750610a577f97667070c54ef182b0f5858b034beac1b6f3089aa2d3188bb1e8929f4fa9b929336112c6565b8015610a8a5750610a887fa49807205ce4d355092ef5a8a18f56e8913cf4a201fbe287825b095693c21775336112c6565b155b5b610aca576040517f08c379a0000000000000000000000000000000000000000000000000000000008152600401610ac190614d18565b60405180910390fd5b60008573ffffffffffffffffffffffffffffffffffffffff166370a08231866040518263ffffffff1660e01b8152600401610b059190614a96565b60206040518083038186803b158015610b1d57600080fd5b505afa158015610b31573d6000803e3d6000fd5b505050506040513d601f19601f82011682018060405250810190610b5591906145d3565b90506000610c206103e8610c1261012d60009054906101000a900473ffffffffffffffffffffffffffffffffffffffff1673ffffffffffffffffffffffffffffffffffffffff166341e3f2816040518163ffffffff1660e01b815260040160206040518083038186803b158015610bcb57600080fd5b505afa158015610bdf573d6000803e3d6000fd5b505050506040513d601f19601f82011682018060405250810190610c0391906145d3565b8861349290919063ffffffff16565b6134a890919063ffffffff16565b90508673ffffffffffffffffffffffffffffffffffffffff1663a9059cbb61012d60009054906101000a900473ffffffffffffffffffffffffffffffffffffffff1673ffffffffffffffffffffffffffffffffffffffff1663ec94578e6040518163ffffffff1660e01b815260040160206040518083038186803b158015610ca757600080fd5b505afa158015610cbb573d6000803e3d6000fd5b505050506040513d601f19601f82011682018060405250810190610cdf9190614258565b836040518363ffffffff1660e01b8152600401610cfd929190614b48565b602060405180830381600087803b158015610d1757600080fd5b505af1158015610d2b573d6000803e3d6000fd5b505050506040513d601f19601f82011682018060405250810190610d4f919061451c565b508673ffffffffffffffffffffffffffffffffffffffff1663a9059cbb87610d8084896134be90919063ffffffff16565b6040518363ffffffff1660e01b8152600401610d9d929190614b48565b602060405180830381600087803b158015610db757600080fd5b505af1158015610dcb573d6000803e3d6000fd5b505050506040513d601f19601f82011682018060405250810190610def919061451c565b50610e1581610e0787856134d490919063ffffffff16565b6134be90919063ffffffff16565b8773ffffffffffffffffffffffffffffffffffffffff166370a08231886040518263ffffffff1660e01b8152600401610e4e9190614a96565b60206040518083038186803b158015610e6657600080fd5b505afa158015610e7a573d6000803e3d6000fd5b505050506040513d601f19601f82011682018060405250810190610e9e91906145d3565b14610ed2577f4e487b7100000000000000000000000000000000000000000000000000000000600052600160045260246000fd5b61012d60009054906101000a900473ffffffffffffffffffffffffffffffffffffffff1673ffffffffffffffffffffffffffffffffffffffff1663181e20a78987878b60006040518663ffffffff1660e01b8152600401610f37959493929190614b71565b600060405180830381600087803b158015610f5157600080fd5b505af1158015610f65573d6000803e3d6000fd5b505050505050505050505050565b600260fb541415610fb9576040517f08c379a0000000000000000000000000000000000000000000000000000000008152600401610fb090614e18565b60405180910390fd5b600260fb81905550610fce33858585856129b1565b600160fb8190555050505050565b848073ffffffffffffffffffffffffffffffffffffffff163373ffffffffffffffffffffffffffffffffffffffff161480611070575061103c7f97667070c54ef182b0f5858b034beac1b6f3089aa2d3188bb1e8929f4fa9b929336112c6565b801561106f575061106d7fa49807205ce4d355092ef5a8a18f56e8913cf4a201fbe287825b095693c21775336112c6565b155b5b6110af576040517f08c379a00000000000000000000000000000000000000000000000000000000081526004016110a690614d18565b60405180910390fd5b600260fb5414156110f5576040517f08c379a00000000000000000000000000000000000000000000000000000000081526004016110ec90614e18565b60405180910390fd5b600260fb8190555061110a86868686866129b1565b600160fb81905550505050505050565b600061012d60009054906101000a900473ffffffffffffffffffffffffffffffffffffffff16905090565b7fa49807205ce4d355092ef5a8a18f56e8913cf4a201fbe287825b095693c2177581565b600060019054906101000a900460ff168061118f575060008054906101000a900460ff16155b6111ce576040517f08c379a00000000000000000000000000000000000000000000000000000000081526004016111c590614d38565b60405180910390fd5b60008060019054906101000a900460ff16159050801561121e576001600060016101000a81548160ff02191690831515021790555060016000806101000a81548160ff0219169083151502179055505b6112266134ea565b61122e6135db565b6112587fa49807205ce4d355092ef5a8a18f56e8913cf4a201fbe287825b095693c21775336136bc565b6112a27f97667070c54ef182b0f5858b034beac1b6f3089aa2d3188bb1e8929f4fa9b9297fa49807205ce4d355092ef5a8a18f56e8913cf4a201fbe287825b095693c217756136ca565b80156112c35760008060016101000a81548160ff0219169083151502179055505b50565b600060c9600084815260200190815260200160002060000160008373ffffffffffffffffffffffffffffffffffffffff1673ffffffffffffffffffffffffffffffffffffffff16815260200190815260200160002060009054906101000a900460ff16905092915050565b61135b7fa49807205ce4d355092ef5a8a18f56e8913cf4a201fbe287825b095693c21775336112c6565b61139a576040517f08c379a000000000000000000000000000000000000000000000000000000000815260040161139190614df8565b60405180910390fd5b8061012d60006101000a81548173ffffffffffffffffffffffffffffffffffffffff021916908373ffffffffffffffffffffffffffffffffffffffff16021790555061012d60009054906101000a900473ffffffffffffffffffffffffffffffffffffffff1673ffffffffffffffffffffffffffffffffffffffff1663ad5c46486040518163ffffffff1660e01b815260040160206040518083038186803b15801561144557600080fd5b505afa158015611459573d6000803e3d6000fd5b505050506040513d601f19601f8201168201806040525081019061147d9190614258565b61012f60006101000a81548173ffffffffffffffffffffffffffffffffffffffff021916908373ffffffffffffffffffffffffffffffffffffffff160217905550600061012d60009054906101000a900473ffffffffffffffffffffffffffffffffffffffff1673ffffffffffffffffffffffffffffffffffffffff16635fe3b5676040518163ffffffff1660e01b815260040160206040518083038186803b15801561152957600080fd5b505afa15801561153d573d6000803e3d6000fd5b505050506040513d601f19601f820116820180604052508101906115619190614258565b905061158d7f97667070c54ef182b0f5858b034beac1b6f3089aa2d3188bb1e8929f4fa9b929826112c6565b6115bc576115bb7f97667070c54ef182b0f5858b034beac1b6f3089aa2d3188bb1e8929f4fa9b92982610829565b5b600061012d60009054906101000a900473ffffffffffffffffffffffffffffffffffffffff1673ffffffffffffffffffffffffffffffffffffffff166327ab02b96040518163ffffffff1660e01b815260040160206040518083038186803b15801561162757600080fd5b505afa15801561163b573d6000803e3d6000fd5b505050506040513d601f19601f8201168201806040525081019061165f9190614258565b905061168b7f97667070c54ef182b0f5858b034beac1b6f3089aa2d3188bb1e8929f4fa9b929826112c6565b6116ba576116b97f97667070c54ef182b0f5858b034beac1b6f3089aa2d3188bb1e8929f4fa9b92982610829565b5b61012d60009054906101000a900473ffffffffffffffffffffffffffffffffffffffff1673ffffffffffffffffffffffffffffffffffffffff1663eb0a8b916040518163ffffffff1660e01b815260040160206040518083038186803b15801561172357600080fd5b505afa158015611737573d6000803e3d6000fd5b505050506040513d601f19601f8201168201806040525081019061175b9190614258565b61012e60006101000a81548173ffffffffffffffffffffffffffffffffffffffff021916908373ffffffffffffffffffffffffffffffffffffffff160217905550505050565b6000801b81565b600260fb5414156117ee576040517f08c379a00000000000000000000000000000000000000000000000000000000081526004016117e590614e18565b60405180910390fd5b600260fb8190555061012d60009054906101000a900473ffffffffffffffffffffffffffffffffffffffff1673ffffffffffffffffffffffffffffffffffffffff1663803c97b3836040518263ffffffff1660e01b81526004016118529190614a96565b60206040518083038186803b15801561186a57600080fd5b505afa15801561187e573d6000803e3d6000fd5b505050506040513d601f19601f820116820180604052508101906118a2919061451c565b6118e1576040517f08c379a00000000000000000000000000000000000000000000000000000000081526004016118d890614cb8565b60405180910390fd5b6118eb8482613157565b60006119b46103e86119a661012d60009054906101000a900473ffffffffffffffffffffffffffffffffffffffff1673ffffffffffffffffffffffffffffffffffffffff16639df5138a6040518163ffffffff1660e01b815260040160206040518083038186803b15801561195f57600080fd5b505afa158015611973573d6000803e3d6000fd5b505050506040513d601f19601f8201168201806040525081019061199791906145d3565b8761349290919063ffffffff16565b6134a890919063ffffffff16565b90506119c981856134be90919063ffffffff16565b93508273ffffffffffffffffffffffffffffffffffffffff166323b872dd3330876040518463ffffffff1660e01b8152600401611a0893929190614b11565b602060405180830381600087803b158015611a2257600080fd5b505af1158015611a36573d6000803e3d6000fd5b505050506040513d601f19601f82011682018060405250810190611a5a919061451c565b611a99576040517f08c379a0000000000000000000000000000000000000000000000000000000008152600401611a9090614d98565b60405180910390fd5b61012d60009054906101000a900473ffffffffffffffffffffffffffffffffffffffff1673ffffffffffffffffffffffffffffffffffffffff1663181e20a78686858760016040518663ffffffff1660e01b8152600401611afe959493929190614b71565b600060405180830381600087803b158015611b1857600080fd5b505af1158015611b2c573d6000803e3d6000fd5b505050508273ffffffffffffffffffffffffffffffffffffffff166323b872dd3361012d60009054906101000a900473ffffffffffffffffffffffffffffffffffffffff1673ffffffffffffffffffffffffffffffffffffffff1663ec94578e6040518163ffffffff1660e01b815260040160206040518083038186803b158015611bb657600080fd5b505afa158015611bca573d6000803e3d6000fd5b505050506040513d601f19601f82011682018060405250810190611bee9190614258565b846040518463ffffffff1660e01b8152600401611c0d93929190614b11565b602060405180830381600087803b158015611c2757600080fd5b505af1158015611c3b573d6000803e3d6000fd5b505050506040513d601f19601f82011682018060405250810190611c5f919061451c565b5050600160fb8190555050505050565b611c7882610809565b611c8981611c84612c6f565b612c77565b611c938383612df5565b505050565b600260fb541415611cde576040517f08c379a0000000000000000000000000000000000000000000000000000000008152600401611cd590614e18565b60405180910390fd5b600260fb8190555061012d60009054906101000a900473ffffffffffffffffffffffffffffffffffffffff1673ffffffffffffffffffffffffffffffffffffffff1663803c97b361012f60009054906101000a900473ffffffffffffffffffffffffffffffffffffffff166040518263ffffffff1660e01b8152600401611d659190614a96565b60206040518083038186803b158015611d7d57600080fd5b505afa158015611d91573d6000803e3d6000fd5b505050506040513d601f19601f82011682018060405250810190611db5919061451c565b611df4576040517f08c379a0000000000000000000000000000000000000000000000000000000008152600401611deb90614cb8565b60405180910390fd5b611dfe8282613157565b6000611ec76103e8611eb961012d60009054906101000a900473ffffffffffffffffffffffffffffffffffffffff1673ffffffffffffffffffffffffffffffffffffffff16639df5138a6040518163ffffffff1660e01b815260040160206040518083038186803b158015611e7257600080fd5b505afa158015611e86573d6000803e3d6000fd5b505050506040513d601f19601f82011682018060405250810190611eaa91906145d3565b3461349290919063ffffffff16565b6134a890919063ffffffff16565b90506000611ede82346134be90919063ffffffff16565b905061012f60009054906101000a900473ffffffffffffffffffffffffffffffffffffffff1673ffffffffffffffffffffffffffffffffffffffff1663d0e30db0346040518263ffffffff1660e01b81526004016000604051808303818588803b158015611f4b57600080fd5b505af1158015611f5f573d6000803e3d6000fd5b505050505061012f60009054906101000a900473ffffffffffffffffffffffffffffffffffffffff1673ffffffffffffffffffffffffffffffffffffffff1663a9059cbb61012d60009054906101000a900473ffffffffffffffffffffffffffffffffffffffff1673ffffffffffffffffffffffffffffffffffffffff1663ec94578e6040518163ffffffff1660e01b815260040160206040518083038186803b15801561200c57600080fd5b505afa158015612020573d6000803e3d6000fd5b505050506040513d601f19601f820116820180604052508101906120449190614258565b846040518363ffffffff1660e01b8152600401612062929190614b48565b602060405180830381600087803b15801561207c57600080fd5b505af1158015612090573d6000803e3d6000fd5b505050506040513d601f19601f820116820180604052508101906120b4919061451c565b5061012d60009054906101000a900473ffffffffffffffffffffffffffffffffffffffff1673ffffffffffffffffffffffffffffffffffffffff1663181e20a785838661012f60009054906101000a900473ffffffffffffffffffffffffffffffffffffffff1660016040518663ffffffff1660e01b815260040161213d959493929190614b71565b600060405180830381600087803b15801561215757600080fd5b505af115801561216b573d6000803e3d6000fd5b505050505050600160fb819055505050565b7f97667070c54ef182b0f5858b034beac1b6f3089aa2d3188bb1e8929f4fa9b92981565b600260fb5414156121e7576040517f08c379a00000000000000000000000000000000000000000000000000000000081526004016121de90614e18565b60405180910390fd5b600260fb819055506121f93382613157565b600061012d60009054906101000a900473ffffffffffffffffffffffffffffffffffffffff1673ffffffffffffffffffffffffffffffffffffffff1663d02641a061012f60009054906101000a900473ffffffffffffffffffffffffffffffffffffffff166040518263ffffffff1660e01b815260040161227a9190614a96565b60206040518083038186803b15801561229257600080fd5b505afa1580156122a6573d6000803e3d6000fd5b505050506040513d601f19601f820116820180604052508101906122ca91906145d3565b905060006123a88261239a670de0b6b3a764000061012e60009054906101000a900473ffffffffffffffffffffffffffffffffffffffff1673ffffffffffffffffffffffffffffffffffffffff1663e76ab23933896040518363ffffffff1660e01b815260040161233c929190614ab1565b60206040518083038186803b15801561235457600080fd5b505afa158015612368573d6000803e3d6000fd5b505050506040513d601f19601f8201168201806040525081019061238c91906145d3565b61349290919063ffffffff16565b6134a890919063ffffffff16565b9050600061012d60009054906101000a900473ffffffffffffffffffffffffffffffffffffffff1673ffffffffffffffffffffffffffffffffffffffff1663c462b5203361012f60009054906101000a900473ffffffffffffffffffffffffffffffffffffffff16876040518463ffffffff1660e01b815260040161242f93929190614ada565b60206040518083038186803b15801561244757600080fd5b505afa15801561245b573d6000803e3d6000fd5b505050506040513d601f19601f8201168201806040525081019061247f91906145d3565b90508082111561248d578091505b600082116124d0576040517f08c379a00000000000000000000000000000000000000000000000000000000081526004016124c790614dd8565b60405180910390fd5b818511156124dc578194505b61012f60009054906101000a900473ffffffffffffffffffffffffffffffffffffffff1673ffffffffffffffffffffffffffffffffffffffff16632e1a7d4d866040518263ffffffff1660e01b81526004016125389190614e58565b600060405180830381600087803b15801561255257600080fd5b505af1158015612566573d6000803e3d6000fd5b50505050844710156125a1577f4e487b7100000000000000000000000000000000000000000000000000000000600052600160045260246000fd5b600061266a6103e861265c61012d60009054906101000a900473ffffffffffffffffffffffffffffffffffffffff1673ffffffffffffffffffffffffffffffffffffffff166341e3f2816040518163ffffffff1660e01b815260040160206040518083038186803b15801561261557600080fd5b505afa158015612629573d6000803e3d6000fd5b505050506040513d601f19601f8201168201806040525081019061264d91906145d3565b8961349290919063ffffffff16565b6134a890919063ffffffff16565b905061267f81876134be90919063ffffffff16565b9550600061012d60009054906101000a900473ffffffffffffffffffffffffffffffffffffffff1673ffffffffffffffffffffffffffffffffffffffff1663ec94578e6040518163ffffffff1660e01b815260040160206040518083038186803b1580156126ec57600080fd5b505afa158015612700573d6000803e3d6000fd5b505050506040513d601f19601f820116820180604052508101906127249190614258565b73ffffffffffffffffffffffffffffffffffffffff168260405161274790614a47565b60006040518083038185875af1925050503d8060008114612784576040519150601f19603f3d011682016040523d82523d6000602084013e612789565b606091505b505080915050806127cf576040517f08c379a00000000000000000000000000000000000000000000000000000000081526004016127c690614cd8565b60405180910390fd5b3373ffffffffffffffffffffffffffffffffffffffff16876040516127f390614a47565b60006040518083038185875af1925050503d8060008114612830576040519150601f19603f3d011682016040523d82523d6000602084013e612835565b606091505b5050809150508061287b576040517f08c379a000000000000000000000000000000000000000000000000000000000815260040161287290614cd8565b60405180910390fd5b61012d60009054906101000a900473ffffffffffffffffffffffffffffffffffffffff1673ffffffffffffffffffffffffffffffffffffffff1663181e20a733898961012f60009054906101000a900473ffffffffffffffffffffffffffffffffffffffff1660006040518663ffffffff1660e01b8152600401612903959493929190614b71565b600060405180830381600087803b15801561291d57600080fd5b505af1158015612931573d6000803e3d6000fd5b505050505050505050600160fb81905550505050565b60007f01ffc9a7000000000000000000000000000000000000000000000000000000007bffffffffffffffffffffffffffffffffffffffffffffffffffffffff1916827bffffffffffffffffffffffffffffffffffffffffffffffffffffffff1916149050919050565b6129bb8582613157565b600061012d60009054906101000a900473ffffffffffffffffffffffffffffffffffffffff1673ffffffffffffffffffffffffffffffffffffffff1663d02641a0866040518263ffffffff1660e01b8152600401612a199190614a96565b60206040518083038186803b158015612a3157600080fd5b505afa158015612a45573d6000803e3d6000fd5b505050506040513d601f19601f82011682018060405250810190612a6991906145d3565b90506000612b4782612b39670de0b6b3a764000061012e60009054906101000a900473ffffffffffffffffffffffffffffffffffffffff1673ffffffffffffffffffffffffffffffffffffffff1663e76ab2398c896040518363ffffffff1660e01b8152600401612adb929190614ab1565b60206040518083038186803b158015612af357600080fd5b505afa158015612b07573d6000803e3d6000fd5b505050506040513d601f19601f82011682018060405250810190612b2b91906145d3565b61349290919063ffffffff16565b6134a890919063ffffffff16565b9050600061012d60009054906101000a900473ffffffffffffffffffffffffffffffffffffffff1673ffffffffffffffffffffffffffffffffffffffff1663c462b5208989876040518463ffffffff1660e01b8152600401612bab93929190614ada565b60206040518083038186803b158015612bc357600080fd5b505afa158015612bd7573d6000803e3d6000fd5b505050506040513d601f19601f82011682018060405250810190612bfb91906145d3565b905080821115612c09578091505b60008211612c4c576040517f08c379a0000000000000000000000000000000000000000000000000000000008152600401612c4390614dd8565b60405180910390fd5b81851115612c58578194505b612c6588888888886109f7565b5050505050505050565b600033905090565b612c8182826112c6565b612d1057612ca68173ffffffffffffffffffffffffffffffffffffffff166014613720565b612cb48360001c6020613720565b604051602001612cc5929190614a5c565b6040516020818303038152906040526040517f08c379a0000000000000000000000000000000000000000000000000000000008152600401612d079190614c76565b60405180910390fd5b5050565b612d1e82826112c6565b612df157600160c9600084815260200190815260200160002060000160008373ffffffffffffffffffffffffffffffffffffffff1673ffffffffffffffffffffffffffffffffffffffff16815260200190815260200160002060006101000a81548160ff021916908315150217905550612d96612c6f565b73ffffffffffffffffffffffffffffffffffffffff168173ffffffffffffffffffffffffffffffffffffffff16837f2f8788117e7eff1d82e926ec794901d17c78024a50270940304540a733656f0d60405160405180910390a45b5050565b612dff82826112c6565b15612ed357600060c9600084815260200190815260200160002060000160008373ffffffffffffffffffffffffffffffffffffffff1673ffffffffffffffffffffffffffffffffffffffff16815260200190815260200160002060006101000a81548160ff021916908315150217905550612e78612c6f565b73ffffffffffffffffffffffffffffffffffffffff168173ffffffffffffffffffffffffffffffffffffffff16837ff6391f5c32d9c69d2a47ea670b442974b53935d1edc7fd64eb21e047a839171b60405160405180910390a45b5050565b612f017fa49807205ce4d355092ef5a8a18f56e8913cf4a201fbe287825b095693c21775336112c6565b612f40576040517f08c379a0000000000000000000000000000000000000000000000000000000008152600401612f3790614df8565b60405180910390fd5b50565b6000612f4d613a1a565b9050612f5884613a71565b600083511180612f655750815b15612f7657612f748484613b2a565b505b6000612fa47f4910fdfa16fed3260ed0e7147f7cc6da11a60208b5b9406d12a635614ffd914360001b613c0e565b90508060000160009054906101000a900460ff166131505760018160000160006101000a81548160ff0219169083151502179055506130708583604051602401612fee9190614a96565b6040516020818303038152906040527f3659cfe6000000000000000000000000000000000000000000000000000000007bffffffffffffffffffffffffffffffffffffffffffffffffffffffff19166020820180517bffffffffffffffffffffffffffffffffffffffffffffffffffffffff8381831617835250505050613b2a565b5060008160000160006101000a81548160ff021916908315150217905550613096613a1a565b73ffffffffffffffffffffffffffffffffffffffff168273ffffffffffffffffffffffffffffffffffffffff1614613103576040517f08c379a00000000000000000000000000000000000000000000000000000000081526004016130fa90614cf8565b60405180910390fd5b61310c85613a71565b8473ffffffffffffffffffffffffffffffffffffffff167fbc7cd75a20ee27fd9adebab32041f755214dbc6bffa90cc0225b39da2e5c2d3b60405160405180910390a25b5050505050565b600061012d60009054906101000a900473ffffffffffffffffffffffffffffffffffffffff1673ffffffffffffffffffffffffffffffffffffffff1663c68da11084846040518363ffffffff1660e01b81526004016131b7929190614ab1565b60206040518083038186803b1580156131cf57600080fd5b505afa1580156131e3573d6000803e3d6000fd5b505050506040513d601f19601f8201168201806040525081019061320791906145d3565b905042811415613217575061348e565b60008114156132b85761012d60009054906101000a900473ffffffffffffffffffffffffffffffffffffffff1673ffffffffffffffffffffffffffffffffffffffff1663d5d907db8484426040518463ffffffff1660e01b815260040161328093929190614b11565b600060405180830381600087803b15801561329a57600080fd5b505af11580156132ae573d6000803e3d6000fd5b505050505061348e565b61012d60009054906101000a900473ffffffffffffffffffffffffffffffffffffffff1673ffffffffffffffffffffffffffffffffffffffff1663877034f18461012e60009054906101000a900473ffffffffffffffffffffffffffffffffffffffff1673ffffffffffffffffffffffffffffffffffffffff16638709294087876040518363ffffffff1660e01b8152600401613356929190614ab1565b60206040518083038186803b15801561336e57600080fd5b505afa158015613382573d6000803e3d6000fd5b505050506040513d601f19601f820116820180604052508101906133a691906145d3565b8560016040518563ffffffff1660e01b81526004016133c89493929190614bc4565b600060405180830381600087803b1580156133e257600080fd5b505af11580156133f6573d6000803e3d6000fd5b5050505061012d60009054906101000a900473ffffffffffffffffffffffffffffffffffffffff1673ffffffffffffffffffffffffffffffffffffffff1663d5d907db8484426040518463ffffffff1660e01b815260040161345a93929190614b11565b600060405180830381600087803b15801561347457600080fd5b505af1158015613488573d6000803e3d6000fd5b50505050505b5050565b600081836134a09190615057565b905092915050565b600081836134b69190615026565b905092915050565b600081836134cc91906150b1565b905092915050565b600081836134e29190614fd0565b905092915050565b600060019054906101000a900460ff1680613510575060008054906101000a900460ff16155b61354f576040517f08c379a000000000000000000000000000000000000000000000000000000000815260040161354690614d38565b60405180910390fd5b60008060019054906101000a900460ff16159050801561359f576001600060016101000a81548160ff02191690831515021790555060016000806101000a81548160ff0219169083151502179055505b6135a7613c18565b6135af613cf1565b6135b7613dca565b80156135d85760008060016101000a81548160ff0219169083151502179055505b50565b600060019054906101000a900460ff1680613601575060008054906101000a900460ff16155b613640576040517f08c379a000000000000000000000000000000000000000000000000000000000815260040161363790614d38565b60405180910390fd5b60008060019054906101000a900460ff161590508015613690576001600060016101000a81548160ff02191690831515021790555060016000806101000a81548160ff0219169083151502179055505b613698613ea3565b80156136b95760008060016101000a81548160ff0219169083151502179055505b50565b6136c68282612d14565b5050565b806136d483610809565b837fbd79b86ffe0ab8e8776151514217cd7cacd52c909f66475c3af44e129f0b00ff60405160405180910390a48060c96000848152602001908152602001600020600101819055505050565b6060600060028360026137339190615057565b61373d9190614fd0565b67ffffffffffffffff81111561377c577f4e487b7100000000000000000000000000000000000000000000000000000000600052604160045260246000fd5b6040519080825280601f01601f1916602001820160405280156137ae5781602001600182028036833780820191505090505b5090507f30000000000000000000000000000000000000000000000000000000000000008160008151811061380c577f4e487b7100000000000000000000000000000000000000000000000000000000600052603260045260246000fd5b60200101907effffffffffffffffffffffffffffffffffffffffffffffffffffffffffffff1916908160001a9053507f780000000000000000000000000000000000000000000000000000000000000081600181518110613896577f4e487b7100000000000000000000000000000000000000000000000000000000600052603260045260246000fd5b60200101907effffffffffffffffffffffffffffffffffffffffffffffffffffffffffffff1916908160001a905350600060018460026138d69190615057565b6138e09190614fd0565b90505b60018111156139cc577f3031323334353637383961626364656600000000000000000000000000000000600f861660108110613948577f4e487b7100000000000000000000000000000000000000000000000000000000600052603260045260246000fd5b1a60f81b828281518110613985577f4e487b7100000000000000000000000000000000000000000000000000000000600052603260045260246000fd5b60200101907effffffffffffffffffffffffffffffffffffffffffffffffffffffffffffff1916908160001a905350600485901c9450806139c5906151a5565b90506138e3565b5060008414613a10576040517f08c379a0000000000000000000000000000000000000000000000000000000008152600401613a0790614c98565b60405180910390fd5b8091505092915050565b6000613a487f360894a13ba1a3210667c828492db98dca3e2076cc3735a920a3ca505d382bbc60001b613f84565b60000160009054906101000a900473ffffffffffffffffffffffffffffffffffffffff16905090565b613a7a81613f8e565b613ab9576040517f08c379a0000000000000000000000000000000000000000000000000000000008152600401613ab090614d78565b60405180910390fd5b80613ae67f360894a13ba1a3210667c828492db98dca3e2076cc3735a920a3ca505d382bbc60001b613f84565b60000160006101000a81548173ffffffffffffffffffffffffffffffffffffffff021916908373ffffffffffffffffffffffffffffffffffffffff16021790555050565b6060613b3583613f8e565b613b74576040517f08c379a0000000000000000000000000000000000000000000000000000000008152600401613b6b90614db8565b60405180910390fd5b6000808473ffffffffffffffffffffffffffffffffffffffff1684604051613b9c9190614a30565b600060405180830381855af49150503d8060008114613bd7576040519150601f19603f3d011682016040523d82523d6000602084013e613bdc565b606091505b5091509150613c0482826040518060600160405280602781526020016156ac60279139613fa1565b9250505092915050565b6000819050919050565b600060019054906101000a900460ff1680613c3e575060008054906101000a900460ff16155b613c7d576040517f08c379a0000000000000000000000000000000000000000000000000000000008152600401613c7490614d38565b60405180910390fd5b60008060019054906101000a900460ff161590508015613ccd576001600060016101000a81548160ff02191690831515021790555060016000806101000a81548160ff0219169083151502179055505b8015613cee5760008060016101000a81548160ff0219169083151502179055505b50565b600060019054906101000a900460ff1680613d17575060008054906101000a900460ff16155b613d56576040517f08c379a0000000000000000000000000000000000000000000000000000000008152600401613d4d90614d38565b60405180910390fd5b60008060019054906101000a900460ff161590508015613da6576001600060016101000a81548160ff02191690831515021790555060016000806101000a81548160ff0219169083151502179055505b8015613dc75760008060016101000a81548160ff0219169083151502179055505b50565b600060019054906101000a900460ff1680613df0575060008054906101000a900460ff16155b613e2f576040517f08c379a0000000000000000000000000000000000000000000000000000000008152600401613e2690614d38565b60405180910390fd5b60008060019054906101000a900460ff161590508015613e7f576001600060016101000a81548160ff02191690831515021790555060016000806101000a81548160ff0219169083151502179055505b8015613ea05760008060016101000a81548160ff0219169083151502179055505b50565b600060019054906101000a900460ff1680613ec9575060008054906101000a900460ff16155b613f08576040517f08c379a0000000000000000000000000000000000000000000000000000000008152600401613eff90614d38565b60405180910390fd5b60008060019054906101000a900460ff161590508015613f58576001600060016101000a81548160ff02191690831515021790555060016000806101000a81548160ff0219169083151502179055505b600160fb819055508015613f815760008060016101000a81548160ff0219169083151502179055505b50565b6000819050919050565b600080823b905060008111915050919050565b60608315613fb157829050614001565b600083511115613fc45782518084602001fd5b816040517f08c379a0000000000000000000000000000000000000000000000000000000008152600401613ff89190614c76565b60405180910390fd5b9392505050565b600061401b61401684614e98565b614e73565b9050808382526020820190508285602086028201111561403a57600080fd5b60005b8581101561406a57816140508882614133565b84526020840193506020830192505060018101905061403d565b5050509392505050565b600061408761408284614ec4565b614e73565b905080838252602082019050828560208602820111156140a657600080fd5b60005b858110156140d657816140bc888261421a565b8452602084019350602083019250506001810190506140a9565b5050509392505050565b60006140f36140ee84614ef0565b614e73565b90508281526020810184848401111561410b57600080fd5b614116848285615163565b509392505050565b60008135905061412d81615638565b92915050565b60008151905061414281615638565b92915050565b600082601f83011261415957600080fd5b8151614169848260208601614008565b91505092915050565b600082601f83011261418357600080fd5b8151614193848260208601614074565b91505092915050565b6000815190506141ab8161564f565b92915050565b6000813590506141c081615666565b92915050565b6000813590506141d58161567d565b92915050565b600082601f8301126141ec57600080fd5b81356141fc8482602086016140e0565b91505092915050565b60008135905061421481615694565b92915050565b60008151905061422981615694565b92915050565b60006020828403121561424157600080fd5b600061424f8482850161411e565b91505092915050565b60006020828403121561426a57600080fd5b600061427884828501614133565b91505092915050565b6000806040838503121561429457600080fd5b60006142a28582860161411e565b92505060206142b38582860161411e565b9150509250929050565b600080600080600060a086880312156142d557600080fd5b60006142e38882890161411e565b95505060206142f48882890161411e565b94505060406143058882890161411e565b935050606061431688828901614205565b92505060806143278882890161411e565b9150509295509295909350565b6000806000806080858703121561434a57600080fd5b60006143588782880161411e565b94505060206143698782880161411e565b935050604061437a87828801614205565b925050606061438b8782880161411e565b91505092959194509250565b600080604083850312156143aa57600080fd5b60006143b88582860161411e565b925050602083013567ffffffffffffffff8111156143d557600080fd5b6143e1858286016141db565b9150509250929050565b60008060006060848603121561440057600080fd5b600061440e8682870161411e565b935050602061441f86828701614205565b92505060406144308682870161411e565b9150509250925092565b6000806000806080858703121561445057600080fd5b600061445e8782880161411e565b945050602061446f87828801614205565b93505060406144808782880161411e565b92505060606144918782880161411e565b91505092959194509250565b6000806000606084860312156144b257600080fd5b600084015167ffffffffffffffff8111156144cc57600080fd5b6144d886828701614148565b935050602084015167ffffffffffffffff8111156144f557600080fd5b61450186828701614172565b92505060406145128682870161419c565b9150509250925092565b60006020828403121561452e57600080fd5b600061453c8482850161419c565b91505092915050565b60006020828403121561455757600080fd5b6000614565848285016141b1565b91505092915050565b6000806040838503121561458157600080fd5b600061458f858286016141b1565b92505060206145a08582860161411e565b9150509250929050565b6000602082840312156145bc57600080fd5b60006145ca848285016141c6565b91505092915050565b6000602082840312156145e557600080fd5b60006145f38482850161421a565b91505092915050565b6000614608838361462c565b60208301905092915050565b60006146208383614a12565b60208301905092915050565b614635816150e5565b82525050565b614644816150e5565b82525050565b600061465582614f41565b61465f8185614f87565b935061466a83614f21565b8060005b8381101561469b57815161468288826145fc565b975061468d83614f6d565b92505060018101905061466e565b5085935050505092915050565b60006146b382614f4c565b6146bd8185614f98565b93506146c883614f31565b8060005b838110156146f95781516146e08882614614565b97506146eb83614f7a565b9250506001810190506146cc565b5085935050505092915050565b61470f816150f7565b82525050565b61471e81615103565b82525050565b600061472f82614f57565b6147398185614fa9565b9350614749818560208601615172565b80840191505092915050565b600061476082614f62565b61476a8185614fb4565b935061477a818560208601615172565b614783816152d6565b840191505092915050565b600061479982614f62565b6147a38185614fc5565b93506147b3818560208601615172565b80840191505092915050565b60006147cc602083614fb4565b91506147d7826152e7565b602082019050919050565b60006147ef600283614fb4565b91506147fa82615310565b602082019050919050565b6000614812600283614fb4565b915061481d82615339565b602082019050919050565b6000614835602f83614fb4565b915061484082615362565b604082019050919050565b6000614858600283614fb4565b9150614863826153b1565b602082019050919050565b600061487b602e83614fb4565b9150614886826153da565b604082019050919050565b600061489e600283614fb4565b91506148a982615429565b602082019050919050565b60006148c1602d83614fb4565b91506148cc82615452565b604082019050919050565b60006148e4600283614fb4565b91506148ef826154a1565b602082019050919050565b6000614907602683614fb4565b9150614912826154ca565b604082019050919050565b600061492a600283614fb4565b915061493582615519565b602082019050919050565b600061494d600083614fa9565b915061495882615542565b600082019050919050565b6000614970600283614fb4565b915061497b82615545565b602082019050919050565b6000614993601783614fc5565b915061499e8261556e565b601782019050919050565b60006149b6601f83614fb4565b91506149c182615597565b602082019050919050565b60006149d9601183614fc5565b91506149e4826155c0565b601182019050919050565b60006149fc602f83614fb4565b9150614a07826155e9565b604082019050919050565b614a1b81615159565b82525050565b614a2a81615159565b82525050565b6000614a3c8284614724565b915081905092915050565b6000614a5282614940565b9150819050919050565b6000614a6782614986565b9150614a73828561478e565b9150614a7e826149cc565b9150614a8a828461478e565b91508190509392505050565b6000602082019050614aab600083018461463b565b92915050565b6000604082019050614ac6600083018561463b565b614ad3602083018461463b565b9392505050565b6000606082019050614aef600083018661463b565b614afc602083018561463b565b614b09604083018461463b565b949350505050565b6000606082019050614b26600083018661463b565b614b33602083018561463b565b614b406040830184614a21565b949350505050565b6000604082019050614b5d600083018561463b565b614b6a6020830184614a21565b9392505050565b600060a082019050614b86600083018861463b565b614b936020830187614a21565b614ba0604083018661463b565b614bad606083018561463b565b614bba6080830184614706565b9695505050505050565b6000608082019050614bd9600083018761463b565b614be66020830186614a21565b614bf3604083018561463b565b614c006060830184614706565b95945050505050565b60006040820190508181036000830152614c23818561464a565b90508181036020830152614c3781846146a8565b90509392505050565b6000602082019050614c556000830184614706565b92915050565b6000602082019050614c706000830184614715565b92915050565b60006020820190508181036000830152614c908184614755565b905092915050565b60006020820190508181036000830152614cb1816147bf565b9050919050565b60006020820190508181036000830152614cd1816147e2565b9050919050565b60006020820190508181036000830152614cf181614805565b9050919050565b60006020820190508181036000830152614d1181614828565b9050919050565b60006020820190508181036000830152614d318161484b565b9050919050565b60006020820190508181036000830152614d518161486e565b9050919050565b60006020820190508181036000830152614d7181614891565b9050919050565b60006020820190508181036000830152614d91816148b4565b9050919050565b60006020820190508181036000830152614db1816148d7565b9050919050565b60006020820190508181036000830152614dd1816148fa565b9050919050565b60006020820190508181036000830152614df18161491d565b9050919050565b60006020820190508181036000830152614e1181614963565b9050919050565b60006020820190508181036000830152614e31816149a9565b9050919050565b60006020820190508181036000830152614e51816149ef565b9050919050565b6000602082019050614e6d6000830184614a21565b92915050565b6000614e7d614e8e565b9050614e8982826151cf565b919050565b6000604051905090565b600067ffffffffffffffff821115614eb357614eb26152a7565b5b602082029050602081019050919050565b600067ffffffffffffffff821115614edf57614ede6152a7565b5b602082029050602081019050919050565b600067ffffffffffffffff821115614f0b57614f0a6152a7565b5b614f14826152d6565b9050602081019050919050565b6000819050602082019050919050565b6000819050602082019050919050565b600081519050919050565b600081519050919050565b600081519050919050565b600081519050919050565b6000602082019050919050565b6000602082019050919050565b600082825260208201905092915050565b600082825260208201905092915050565b600081905092915050565b600082825260208201905092915050565b600081905092915050565b6000614fdb82615159565b9150614fe683615159565b9250827fffffffffffffffffffffffffffffffffffffffffffffffffffffffffffffffff0382111561501b5761501a615249565b5b828201905092915050565b600061503182615159565b915061503c83615159565b92508261504c5761504b615278565b5b828204905092915050565b600061506282615159565b915061506d83615159565b9250817fffffffffffffffffffffffffffffffffffffffffffffffffffffffffffffffff04831182151516156150a6576150a5615249565b5b828202905092915050565b60006150bc82615159565b91506150c783615159565b9250828210156150da576150d9615249565b5b828203905092915050565b60006150f082615139565b9050919050565b60008115159050919050565b6000819050919050565b60007fffffffff0000000000000000000000000000000000000000000000000000000082169050919050565b600073ffffffffffffffffffffffffffffffffffffffff82169050919050565b6000819050919050565b82818337600083830152505050565b60005b83811015615190578082015181840152602081019050615175565b8381111561519f576000848401525b50505050565b60006151b082615159565b915060008214156151c4576151c3615249565b5b600182039050919050565b6151d8826152d6565b810181811067ffffffffffffffff821117156151f7576151f66152a7565b5b80604052505050565b600061520b82615159565b91507fffffffffffffffffffffffffffffffffffffffffffffffffffffffffffffffff82141561523e5761523d615249565b5b600182019050919050565b7f4e487b7100000000000000000000000000000000000000000000000000000000600052601160045260246000fd5b7f4e487b7100000000000000000000000000000000000000000000000000000000600052601260045260246000fd5b7f4e487b7100000000000000000000000000000000000000000000000000000000600052604160045260246000fd5b6000601f19601f8301169050919050565b7f537472696e67733a20686578206c656e67746820696e73756666696369656e74600082015250565b7f4943000000000000000000000000000000000000000000000000000000000000600082015250565b7f4650000000000000000000000000000000000000000000000000000000000000600082015250565b7f45524331393637557067726164653a207570677261646520627265616b73206660008201527f7572746865722075706772616465730000000000000000000000000000000000602082015250565b7f4e57000000000000000000000000000000000000000000000000000000000000600082015250565b7f496e697469616c697a61626c653a20636f6e747261637420697320616c72656160008201527f647920696e697469616c697a6564000000000000000000000000000000000000602082015250565b7f4941000000000000000000000000000000000000000000000000000000000000600082015250565b7f455243313936373a206e657720696d706c656d656e746174696f6e206973206e60008201527f6f74206120636f6e747261637400000000000000000000000000000000000000602082015250565b7f4654000000000000000000000000000000000000000000000000000000000000600082015250565b7f416464726573733a2064656c65676174652063616c6c20746f206e6f6e2d636f60008201527f6e74726163740000000000000000000000000000000000000000000000000000602082015250565b7f4341000000000000000000000000000000000000000000000000000000000000600082015250565b50565b7f4e41000000000000000000000000000000000000000000000000000000000000600082015250565b7f416363657373436f6e74726f6c3a206163636f756e7420000000000000000000600082015250565b7f5265656e7472616e637947756172643a207265656e7472616e742063616c6c00600082015250565b7f206973206d697373696e6720726f6c6520000000000000000000000000000000600082015250565b7f416363657373436f6e74726f6c3a2063616e206f6e6c792072656e6f756e636560008201527f20726f6c657320666f722073656c660000000000000000000000000000000000602082015250565b615641816150e5565b811461564c57600080fd5b50565b615658816150f7565b811461566357600080fd5b50565b61566f81615103565b811461567a57600080fd5b50565b6156868161510d565b811461569157600080fd5b50565b61569d81615159565b81146156a857600080fd5b5056fe416464726573733a206c6f772d6c6576656c2064656c65676174652063616c6c206661696c6564a2646970667358221220bbd1be811d8a06d85dd888889245cc379716b9ee501f9a1323e4e5009ebc4f9264736f6c63430008030033",
  "linkReferences": {},
  "deployedLinkReferences": {}
}