{
  "_format": "hh-sol-artifact-1",
  "contractName": "Treasury",
  "sourceName": "contracts/Bank/Treasury.sol",
  "abi": [
    {
      "anonymous": false,
      "inputs": [
        {
          "indexed": false,
          "internalType": "address",
          "name": "previousAdmin",
          "type": "address"
        },
        {
          "indexed": false,
          "internalType": "address",
          "name": "newAdmin",
          "type": "address"
        }
      ],
      "name": "AdminChanged",
      "type": "event"
    },
    {
      "anonymous": false,
      "inputs": [
        {
          "indexed": true,
          "internalType": "address",
          "name": "beacon",
          "type": "address"
        }
      ],
      "name": "BeaconUpgraded",
      "type": "event"
    },
    {
      "anonymous": false,
      "inputs": [
        {
          "indexed": true,
          "internalType": "bytes32",
          "name": "role",
          "type": "bytes32"
        },
        {
          "indexed": true,
          "internalType": "bytes32",
          "name": "previousAdminRole",
          "type": "bytes32"
        },
        {
          "indexed": true,
          "internalType": "bytes32",
          "name": "newAdminRole",
          "type": "bytes32"
        }
      ],
      "name": "RoleAdminChanged",
      "type": "event"
    },
    {
      "anonymous": false,
      "inputs": [
        {
          "indexed": true,
          "internalType": "bytes32",
          "name": "role",
          "type": "bytes32"
        },
        {
          "indexed": true,
          "internalType": "address",
          "name": "account",
          "type": "address"
        },
        {
          "indexed": true,
          "internalType": "address",
          "name": "sender",
          "type": "address"
        }
      ],
      "name": "RoleGranted",
      "type": "event"
    },
    {
      "anonymous": false,
      "inputs": [
        {
          "indexed": true,
          "internalType": "bytes32",
          "name": "role",
          "type": "bytes32"
        },
        {
          "indexed": true,
          "internalType": "address",
          "name": "account",
          "type": "address"
        },
        {
          "indexed": true,
          "internalType": "address",
          "name": "sender",
          "type": "address"
        }
      ],
      "name": "RoleRevoked",
      "type": "event"
    },
    {
      "anonymous": false,
      "inputs": [
        {
          "indexed": true,
          "internalType": "address",
          "name": "implementation",
          "type": "address"
        }
      ],
      "name": "Upgraded",
      "type": "event"
    },
    {
      "inputs": [],
      "name": "ADMIN_ROLE",
      "outputs": [
        {
          "internalType": "bytes32",
          "name": "",
          "type": "bytes32"
        }
      ],
      "stateMutability": "view",
      "type": "function"
    },
    {
      "inputs": [],
      "name": "DEFAULT_ADMIN_ROLE",
      "outputs": [
        {
          "internalType": "bytes32",
          "name": "",
          "type": "bytes32"
        }
      ],
      "stateMutability": "view",
      "type": "function"
    },
    {
      "inputs": [],
      "name": "OPERATOR_ROLE",
      "outputs": [
        {
          "internalType": "bytes32",
          "name": "",
          "type": "bytes32"
        }
      ],
      "stateMutability": "view",
      "type": "function"
    },
    {
      "inputs": [
        {
          "internalType": "address",
          "name": "to",
          "type": "address"
        },
        {
          "internalType": "uint256",
          "name": "amount",
          "type": "uint256"
        },
        {
          "internalType": "address",
          "name": "collateralToken",
          "type": "address"
        },
        {
          "internalType": "address",
          "name": "fxToken",
          "type": "address"
        },
        {
          "internalType": "address",
          "name": "referral",
          "type": "address"
        }
      ],
      "name": "depositCollateral",
      "outputs": [],
      "stateMutability": "nonpayable",
      "type": "function"
    },
    {
      "inputs": [
        {
          "internalType": "address",
          "name": "to",
          "type": "address"
        },
        {
          "internalType": "address",
          "name": "fxToken",
          "type": "address"
        },
        {
          "internalType": "address",
          "name": "referral",
          "type": "address"
        }
      ],
      "name": "depositCollateralETH",
      "outputs": [],
      "stateMutability": "payable",
      "type": "function"
    },
    {
      "inputs": [
        {
          "internalType": "address",
          "name": "from",
          "type": "address"
        },
        {
          "internalType": "address",
          "name": "to",
          "type": "address"
        },
        {
          "internalType": "uint256",
          "name": "amount",
          "type": "uint256"
        },
        {
          "internalType": "address",
          "name": "fxToken",
          "type": "address"
        },
        {
          "internalType": "bool",
          "name": "requireFullAmount",
          "type": "bool"
        }
      ],
      "name": "forceWithdrawAnyCollateral",
      "outputs": [
        {
          "internalType": "address[]",
          "name": "collateralTypes",
          "type": "address[]"
        },
        {
          "internalType": "uint256[]",
          "name": "collateralAmounts",
          "type": "uint256[]"
        }
      ],
      "stateMutability": "nonpayable",
      "type": "function"
    },
    {
      "inputs": [
        {
          "internalType": "address",
          "name": "from",
          "type": "address"
        },
        {
          "internalType": "address",
          "name": "collateralToken",
          "type": "address"
        },
        {
          "internalType": "address",
          "name": "to",
          "type": "address"
        },
        {
          "internalType": "uint256",
          "name": "amount",
          "type": "uint256"
        },
        {
          "internalType": "address",
          "name": "fxToken",
          "type": "address"
        }
      ],
      "name": "forceWithdrawCollateral",
      "outputs": [],
      "stateMutability": "nonpayable",
      "type": "function"
    },
    {
      "inputs": [
        {
          "internalType": "bytes32",
          "name": "role",
          "type": "bytes32"
        }
      ],
      "name": "getRoleAdmin",
      "outputs": [
        {
          "internalType": "bytes32",
          "name": "",
          "type": "bytes32"
        }
      ],
      "stateMutability": "view",
      "type": "function"
    },
    {
      "inputs": [
        {
          "internalType": "bytes32",
          "name": "role",
          "type": "bytes32"
        },
        {
          "internalType": "address",
          "name": "account",
          "type": "address"
        }
      ],
      "name": "grantRole",
      "outputs": [],
      "stateMutability": "nonpayable",
      "type": "function"
    },
    {
      "inputs": [],
      "name": "handleAddress",
      "outputs": [
        {
          "internalType": "address",
          "name": "",
          "type": "address"
        }
      ],
      "stateMutability": "view",
      "type": "function"
    },
    {
      "inputs": [
        {
          "internalType": "bytes32",
          "name": "role",
          "type": "bytes32"
        },
        {
          "internalType": "address",
          "name": "account",
          "type": "address"
        }
      ],
      "name": "hasRole",
      "outputs": [
        {
          "internalType": "bool",
          "name": "",
          "type": "bool"
        }
      ],
      "stateMutability": "view",
      "type": "function"
    },
    {
      "inputs": [],
      "name": "initialize",
      "outputs": [],
      "stateMutability": "nonpayable",
      "type": "function"
    },
    {
      "inputs": [
        {
          "internalType": "bytes32",
          "name": "role",
          "type": "bytes32"
        },
        {
          "internalType": "address",
          "name": "account",
          "type": "address"
        }
      ],
      "name": "renounceRole",
      "outputs": [],
      "stateMutability": "nonpayable",
      "type": "function"
    },
    {
      "inputs": [
        {
          "internalType": "address",
          "name": "token",
          "type": "address"
        },
        {
          "internalType": "uint256",
          "name": "amount",
          "type": "uint256"
        }
      ],
      "name": "requestFundsPCT",
      "outputs": [],
      "stateMutability": "nonpayable",
      "type": "function"
    },
    {
      "inputs": [
        {
          "internalType": "bytes32",
          "name": "role",
          "type": "bytes32"
        },
        {
          "internalType": "address",
          "name": "account",
          "type": "address"
        }
      ],
      "name": "revokeRole",
      "outputs": [],
      "stateMutability": "nonpayable",
      "type": "function"
    },
    {
      "inputs": [
        {
          "internalType": "address",
          "name": "_handle",
          "type": "address"
        }
      ],
      "name": "setHandleContract",
      "outputs": [],
      "stateMutability": "nonpayable",
      "type": "function"
    },
    {
      "inputs": [
        {
          "internalType": "uint256",
          "name": "value",
          "type": "uint256"
        }
      ],
      "name": "setMaximumTotalDepositAllowed",
      "outputs": [],
      "stateMutability": "nonpayable",
      "type": "function"
    },
    {
      "inputs": [
        {
          "internalType": "bytes4",
          "name": "interfaceId",
          "type": "bytes4"
        }
      ],
      "name": "supportsInterface",
      "outputs": [
        {
          "internalType": "bool",
          "name": "",
          "type": "bool"
        }
      ],
      "stateMutability": "view",
      "type": "function"
    },
    {
      "inputs": [
        {
          "internalType": "address",
          "name": "newImplementation",
          "type": "address"
        }
      ],
      "name": "upgradeTo",
      "outputs": [],
      "stateMutability": "nonpayable",
      "type": "function"
    },
    {
      "inputs": [
        {
          "internalType": "address",
          "name": "newImplementation",
          "type": "address"
        },
        {
          "internalType": "bytes",
          "name": "data",
          "type": "bytes"
        }
      ],
      "name": "upgradeToAndCall",
      "outputs": [],
      "stateMutability": "payable",
      "type": "function"
    },
    {
      "inputs": [
        {
          "internalType": "address",
          "name": "collateralToken",
          "type": "address"
        },
        {
          "internalType": "address",
          "name": "to",
          "type": "address"
        },
        {
          "internalType": "uint256",
          "name": "amount",
          "type": "uint256"
        },
        {
          "internalType": "address",
          "name": "fxToken",
          "type": "address"
        }
      ],
      "name": "withdrawCollateral",
      "outputs": [],
      "stateMutability": "nonpayable",
      "type": "function"
    },
    {
      "inputs": [
        {
          "internalType": "address",
          "name": "to",
          "type": "address"
        },
        {
          "internalType": "uint256",
          "name": "amount",
          "type": "uint256"
        },
        {
          "internalType": "address",
          "name": "fxToken",
          "type": "address"
        }
      ],
      "name": "withdrawCollateralETH",
      "outputs": [],
      "stateMutability": "nonpayable",
      "type": "function"
    },
    {
      "inputs": [
        {
          "internalType": "address",
          "name": "from",
          "type": "address"
        },
        {
          "internalType": "address",
          "name": "collateralToken",
          "type": "address"
        },
        {
          "internalType": "address",
          "name": "to",
          "type": "address"
        },
        {
          "internalType": "uint256",
          "name": "amount",
          "type": "uint256"
        },
        {
          "internalType": "address",
          "name": "fxToken",
          "type": "address"
        }
      ],
      "name": "withdrawCollateralFrom",
      "outputs": [],
      "stateMutability": "nonpayable",
      "type": "function"
    },
    {
      "stateMutability": "payable",
      "type": "receive"
    }
  ],
  "bytecode": "0x608060405234801561001057600080fd5b50615c0b80620000216000396000f3fe6080604052600436106101445760003560e01c80637d694f15116100b6578063d547741f1161006f578063d547741f1461042c578063d811b9bd14610455578063eb2266fc14610471578063f5b541a6146104af578063fd58a301146104da578063ffda4da4146105035761014b565b80637d694f15146103325780638129fc1c1461035b5780638c6d4c471461037257806391d148541461039b5780639b1c414f146103d8578063a217fddf146104015761014b565b80634f1ef286116101085780634f1ef2861461024557806358166d24146102615780635a6f45de1461028a57806364cfc1ad146102b357806374bf578b146102dc57806375b238fc146103075761014b565b806301ffc9a714610150578063248a9ca31461018d5780632f2ff15d146101ca57806336568abe146101f35780633659cfe61461021c5761014b565b3661014b57005b600080fd5b34801561015c57600080fd5b5061017760048036038101906101729190614a18565b61052c565b60405161018491906150fa565b60405180910390f35b34801561019957600080fd5b506101b460048036038101906101af91906149b3565b6105a6565b6040516101c19190615115565b60405180910390f35b3480156101d657600080fd5b506101f160048036038101906101ec91906149dc565b6105c6565b005b3480156101ff57600080fd5b5061021a600480360381019061021591906149dc565b6105ef565b005b34801561022857600080fd5b50610243600480360381019061023e91906145c3565b610672565b005b61025f600480360381019061025a91906147b5565b610699565b005b34801561026d57600080fd5b5061028860048036038101906102839190614664565b6106b2565b005b34801561029657600080fd5b506102b160048036038101906102ac91906146db565b610821565b005b3480156102bf57600080fd5b506102da60048036038101906102d59190614664565b61088a565b005b3480156102e857600080fd5b506102f1610ac8565b6040516102fe9190614f50565b60405180910390f35b34801561031357600080fd5b5061031c610af3565b6040516103299190615115565b60405180910390f35b34801561033e57600080fd5b5061035960048036038101906103549190614a41565b610b17565b005b34801561036757600080fd5b50610370610b8b565b005b34801561037e57600080fd5b5061039960048036038101906103949190614809565b610ce8565b005b3480156103a757600080fd5b506103c260048036038101906103bd91906149dc565b610e8e565b6040516103cf91906150fa565b60405180910390f35b3480156103e457600080fd5b506103ff60048036038101906103fa91906145c3565b610ef9565b005b34801561040d57600080fd5b5061041661161d565b6040516104239190615115565b60405180910390f35b34801561043857600080fd5b50610453600480360381019061044e91906149dc565b611624565b005b61046f600480360381019061046a9190614615565b61164d565b005b34801561047d57600080fd5b506104986004803603810190610493919061473e565b611874565b6040516104a69291906150c3565b60405180910390f35b3480156104bb57600080fd5b506104c4611afb565b6040516104d19190615115565b60405180910390f35b3480156104e657600080fd5b5061050160048036038101906104fc9190614845565b611b1f565b005b34801561050f57600080fd5b5061052a60048036038101906105259190614894565b611c88565b005b60007f7965db0b000000000000000000000000000000000000000000000000000000007bffffffffffffffffffffffffffffffffffffffffffffffffffffffff1916827bffffffffffffffffffffffffffffffffffffffffffffffffffffffff1916148061059f575061059e82611cfc565b5b9050919050565b600060c96000838152602001908152602001600020600101549050919050565b6105cf826105a6565b6105e0816105db611d66565b611d6e565b6105ea8383611e0b565b505050565b6105f7611d66565b73ffffffffffffffffffffffffffffffffffffffff168173ffffffffffffffffffffffffffffffffffffffff1614610664576040517f08c379a000000000000000000000000000000000000000000000000000000000815260040161065b90615312565b60405180910390fd5b61066e8282611eec565b5050565b61067b81611fce565b6106968160405180602001604052806000815250600061203a565b50565b6106a282611fce565b6106ae8282600161203a565b5050565b6106dc7f97667070c54ef182b0f5858b034beac1b6f3089aa2d3188bb1e8929f4fa9b92933610e8e565b61071b576040517f08c379a000000000000000000000000000000000000000000000000000000000815260040161071290615192565b60405180910390fd5b8161012d60009054906101000a900473ffffffffffffffffffffffffffffffffffffffff1673ffffffffffffffffffffffffffffffffffffffff1663c462b5208787856040518463ffffffff1660e01b815260040161077c93929190614f94565b60206040518083038186803b15801561079457600080fd5b505afa1580156107a8573d6000803e3d6000fd5b505050506040513d601f19601f820116820180604052508101906107cc9190614a6a565b101561080d576040517f08c379a0000000000000000000000000000000000000000000000000000000008152600401610804906152b2565b60405180910390fd5b61081a858585858561224e565b5050505050565b600260fb541415610867576040517f08c379a000000000000000000000000000000000000000000000000000000000815260040161085e906152f2565b60405180910390fd5b600260fb8190555061087c338585858561291d565b600160fb8190555050505050565b848073ffffffffffffffffffffffffffffffffffffffff163373ffffffffffffffffffffffffffffffffffffffff16148061091e57506108ea7f97667070c54ef182b0f5858b034beac1b6f3089aa2d3188bb1e8929f4fa9b92933610e8e565b801561091d575061091b7fa49807205ce4d355092ef5a8a18f56e8913cf4a201fbe287825b095693c2177533610e8e565b155b5b61095d576040517f08c379a0000000000000000000000000000000000000000000000000000000008152600401610954906151f2565b60405180910390fd5b600260fb5414156109a3576040517f08c379a000000000000000000000000000000000000000000000000000000000815260040161099a906152f2565b60405180910390fd5b600260fb8190555061012d60009054906101000a900473ffffffffffffffffffffffffffffffffffffffff1673ffffffffffffffffffffffffffffffffffffffff1663c392f7666040518163ffffffff1660e01b815260040160206040518083038186803b158015610a1457600080fd5b505afa158015610a28573d6000803e3d6000fd5b505050506040513d601f19601f82011682018060405250810190610a4c91906145ec565b73ffffffffffffffffffffffffffffffffffffffff16634342fef56040518163ffffffff1660e01b8152600401600060405180830381600087803b158015610a9357600080fd5b505af1158015610aa7573d6000803e3d6000fd5b50505050610ab8868686868661291d565b600160fb81905550505050505050565b600061012d60009054906101000a900473ffffffffffffffffffffffffffffffffffffffff16905090565b7fa49807205ce4d355092ef5a8a18f56e8913cf4a201fbe287825b095693c2177581565b610b417fa49807205ce4d355092ef5a8a18f56e8913cf4a201fbe287825b095693c2177533610e8e565b610b80576040517f08c379a0000000000000000000000000000000000000000000000000000000008152600401610b77906152d2565b60405180910390fd5b806101318190555050565b600060019054906101000a900460ff1680610bb1575060008054906101000a900460ff16155b610bf0576040517f08c379a0000000000000000000000000000000000000000000000000000000008152600401610be790615212565b60405180910390fd5b60008060019054906101000a900460ff161590508015610c40576001600060016101000a81548160ff02191690831515021790555060016000806101000a81548160ff0219169083151502179055505b610c48612cd7565b610c50612dc8565b610c7a7fa49807205ce4d355092ef5a8a18f56e8913cf4a201fbe287825b095693c2177533612ea9565b610cc47f97667070c54ef182b0f5858b034beac1b6f3089aa2d3188bb1e8929f4fa9b9297fa49807205ce4d355092ef5a8a18f56e8913cf4a201fbe287825b095693c21775612eb7565b8015610ce55760008060016101000a81548160ff0219169083151502179055505b50565b600061012d60009054906101000a900473ffffffffffffffffffffffffffffffffffffffff1673ffffffffffffffffffffffffffffffffffffffff16639cfd96696040518163ffffffff1660e01b815260040160206040518083038186803b158015610d5357600080fd5b505afa158015610d67573d6000803e3d6000fd5b505050506040513d601f19601f82011682018060405250810190610d8b91906145ec565b90508073ffffffffffffffffffffffffffffffffffffffff163373ffffffffffffffffffffffffffffffffffffffff1614610dfb576040517f08c379a0000000000000000000000000000000000000000000000000000000008152600401610df290615192565b60405180910390fd5b8273ffffffffffffffffffffffffffffffffffffffff1663a9059cbb82846040518363ffffffff1660e01b8152600401610e36929190615002565b602060405180830381600087803b158015610e5057600080fd5b505af1158015610e64573d6000803e3d6000fd5b505050506040513d601f19601f82011682018060405250810190610e88919061498a565b50505050565b600060c9600084815260200190815260200160002060000160008373ffffffffffffffffffffffffffffffffffffffff1673ffffffffffffffffffffffffffffffffffffffff16815260200190815260200160002060009054906101000a900460ff16905092915050565b610f237fa49807205ce4d355092ef5a8a18f56e8913cf4a201fbe287825b095693c2177533610e8e565b610f62576040517f08c379a0000000000000000000000000000000000000000000000000000000008152600401610f59906152d2565b60405180910390fd5b8061012d60006101000a81548173ffffffffffffffffffffffffffffffffffffffff021916908373ffffffffffffffffffffffffffffffffffffffff16021790555061012d60009054906101000a900473ffffffffffffffffffffffffffffffffffffffff1673ffffffffffffffffffffffffffffffffffffffff1663ad5c46486040518163ffffffff1660e01b815260040160206040518083038186803b15801561100d57600080fd5b505afa158015611021573d6000803e3d6000fd5b505050506040513d601f19601f8201168201806040525081019061104591906145ec565b61012f60006101000a81548173ffffffffffffffffffffffffffffffffffffffff021916908373ffffffffffffffffffffffffffffffffffffffff16021790555060006003905060008167ffffffffffffffff8111156110ce577f4e487b7100000000000000000000000000000000000000000000000000000000600052604160045260246000fd5b6040519080825280602002602001820160405280156110fc5781602001602082028036833780820191505090505b50905061012d60009054906101000a900473ffffffffffffffffffffffffffffffffffffffff1673ffffffffffffffffffffffffffffffffffffffff16635fe3b5676040518163ffffffff1660e01b815260040160206040518083038186803b15801561116857600080fd5b505afa15801561117c573d6000803e3d6000fd5b505050506040513d601f19601f820116820180604052508101906111a091906145ec565b816000815181106111da577f4e487b7100000000000000000000000000000000000000000000000000000000600052603260045260246000fd5b602002602001019073ffffffffffffffffffffffffffffffffffffffff16908173ffffffffffffffffffffffffffffffffffffffff168152505061012d60009054906101000a900473ffffffffffffffffffffffffffffffffffffffff1673ffffffffffffffffffffffffffffffffffffffff166327ab02b96040518163ffffffff1660e01b815260040160206040518083038186803b15801561127d57600080fd5b505afa158015611291573d6000803e3d6000fd5b505050506040513d601f19601f820116820180604052508101906112b591906145ec565b816001815181106112ef577f4e487b7100000000000000000000000000000000000000000000000000000000600052603260045260246000fd5b602002602001019073ffffffffffffffffffffffffffffffffffffffff16908173ffffffffffffffffffffffffffffffffffffffff168152505061012d60009054906101000a900473ffffffffffffffffffffffffffffffffffffffff1673ffffffffffffffffffffffffffffffffffffffff16634046ebae6040518163ffffffff1660e01b815260040160206040518083038186803b15801561139257600080fd5b505afa1580156113a6573d6000803e3d6000fd5b505050506040513d601f19601f820116820180604052508101906113ca91906145ec565b81600281518110611404577f4e487b7100000000000000000000000000000000000000000000000000000000600052603260045260246000fd5b602002602001019073ffffffffffffffffffffffffffffffffffffffff16908173ffffffffffffffffffffffffffffffffffffffff168152505060005b82811015611535576114b37f97667070c54ef182b0f5858b034beac1b6f3089aa2d3188bb1e8929f4fa9b9298383815181106114a6577f4e487b7100000000000000000000000000000000000000000000000000000000600052603260045260246000fd5b6020026020010151610e8e565b611522576115217f97667070c54ef182b0f5858b034beac1b6f3089aa2d3188bb1e8929f4fa9b929838381518110611514577f4e487b7100000000000000000000000000000000000000000000000000000000600052603260045260246000fd5b60200260200101516105c6565b5b808061152d906156da565b915050611441565b5061012d60009054906101000a900473ffffffffffffffffffffffffffffffffffffffff1673ffffffffffffffffffffffffffffffffffffffff1663eb0a8b916040518163ffffffff1660e01b815260040160206040518083038186803b15801561159f57600080fd5b505afa1580156115b3573d6000803e3d6000fd5b505050506040513d601f19601f820116820180604052508101906115d791906145ec565b61012e60006101000a81548173ffffffffffffffffffffffffffffffffffffffff021916908373ffffffffffffffffffffffffffffffffffffffff160217905550505050565b6000801b81565b61162d826105a6565b61163e81611639611d66565b611d6e565b6116488383611eec565b505050565b600260fb541415611693576040517f08c379a000000000000000000000000000000000000000000000000000000000815260040161168a906152f2565b60405180910390fd5b600260fb8190555061012d60009054906101000a900473ffffffffffffffffffffffffffffffffffffffff1673ffffffffffffffffffffffffffffffffffffffff1663803c97b361012f60009054906101000a900473ffffffffffffffffffffffffffffffffffffffff166040518263ffffffff1660e01b815260040161171a9190614f50565b60206040518083038186803b15801561173257600080fd5b505afa158015611746573d6000803e3d6000fd5b505050506040513d601f19601f8201168201806040525081019061176a919061498a565b6117a9576040517f08c379a00000000000000000000000000000000000000000000000000000000081526004016117a090615172565b60405180910390fd5b6117b38382612f0d565b61012f60009054906101000a900473ffffffffffffffffffffffffffffffffffffffff1673ffffffffffffffffffffffffffffffffffffffff1663d0e30db0346040518263ffffffff1660e01b81526004016000604051808303818588803b15801561181e57600080fd5b505af1158015611832573d6000803e3d6000fd5b505050505061186730843461012f60009054906101000a900473ffffffffffffffffffffffffffffffffffffffff168661301e565b600160fb81905550505050565b6060806118a17f97667070c54ef182b0f5858b034beac1b6f3089aa2d3188bb1e8929f4fa9b92933610e8e565b6118e0576040517f08c379a00000000000000000000000000000000000000000000000000000000081526004016118d790615192565b60405180910390fd5b600061012e60009054906101000a900473ffffffffffffffffffffffffffffffffffffffff1673ffffffffffffffffffffffffffffffffffffffff1663234ab3e28987896040518463ffffffff1660e01b815260040161194293929190614fcb565b60006040518083038186803b15801561195a57600080fd5b505afa15801561196e573d6000803e3d6000fd5b505050506040513d6000823e3d601f19601f82011682018060405250810190611997919061490b565b8093508194508295505050508380156119ae575080155b156119ee576040517f08c379a00000000000000000000000000000000000000000000000000000000081526004016119e590615232565b60405180910390fd5b60008351905060005b81811015611aee576000848281518110611a3a577f4e487b7100000000000000000000000000000000000000000000000000000000600052603260045260246000fd5b60200260200101511415611a4d57611adb565b611ada8a868381518110611a8a577f4e487b7100000000000000000000000000000000000000000000000000000000600052603260045260246000fd5b60200260200101518b878581518110611acc577f4e487b7100000000000000000000000000000000000000000000000000000000600052603260045260246000fd5b60200260200101518b61224e565b5b8080611ae6906156da565b9150506119f7565b5050509550959350505050565b7f97667070c54ef182b0f5858b034beac1b6f3089aa2d3188bb1e8929f4fa9b92981565b600260fb541415611b65576040517f08c379a0000000000000000000000000000000000000000000000000000000008152600401611b5c906152f2565b60405180910390fd5b600260fb8190555061012d60009054906101000a900473ffffffffffffffffffffffffffffffffffffffff1673ffffffffffffffffffffffffffffffffffffffff1663c392f7666040518163ffffffff1660e01b815260040160206040518083038186803b158015611bd657600080fd5b505afa158015611bea573d6000803e3d6000fd5b505050506040513d601f19601f82011682018060405250810190611c0e91906145ec565b73ffffffffffffffffffffffffffffffffffffffff16634342fef56040518163ffffffff1660e01b8152600401600060405180830381600087803b158015611c5557600080fd5b505af1158015611c69573d6000803e3d6000fd5b50505050611c7b33600085858561291d565b600160fb81905550505050565b600260fb541415611cce576040517f08c379a0000000000000000000000000000000000000000000000000000000008152600401611cc5906152f2565b60405180910390fd5b600260fb81905550611ce08582612f0d565b611ced338686868661301e565b600160fb819055505050505050565b60007f01ffc9a7000000000000000000000000000000000000000000000000000000007bffffffffffffffffffffffffffffffffffffffffffffffffffffffff1916827bffffffffffffffffffffffffffffffffffffffffffffffffffffffff1916149050919050565b600033905090565b611d788282610e8e565b611e0757611d9d8173ffffffffffffffffffffffffffffffffffffffff166014613785565b611dab8360001c6020613785565b604051602001611dbc929190614f16565b6040516020818303038152906040526040517f08c379a0000000000000000000000000000000000000000000000000000000008152600401611dfe9190615130565b60405180910390fd5b5050565b611e158282610e8e565b611ee857600160c9600084815260200190815260200160002060000160008373ffffffffffffffffffffffffffffffffffffffff1673ffffffffffffffffffffffffffffffffffffffff16815260200190815260200160002060006101000a81548160ff021916908315150217905550611e8d611d66565b73ffffffffffffffffffffffffffffffffffffffff168173ffffffffffffffffffffffffffffffffffffffff16837f2f8788117e7eff1d82e926ec794901d17c78024a50270940304540a733656f0d60405160405180910390a45b5050565b611ef68282610e8e565b15611fca57600060c9600084815260200190815260200160002060000160008373ffffffffffffffffffffffffffffffffffffffff1673ffffffffffffffffffffffffffffffffffffffff16815260200190815260200160002060006101000a81548160ff021916908315150217905550611f6f611d66565b73ffffffffffffffffffffffffffffffffffffffff168173ffffffffffffffffffffffffffffffffffffffff16837ff6391f5c32d9c69d2a47ea670b442974b53935d1edc7fd64eb21e047a839171b60405160405180910390a45b5050565b611ff87fa49807205ce4d355092ef5a8a18f56e8913cf4a201fbe287825b095693c2177533610e8e565b612037576040517f08c379a000000000000000000000000000000000000000000000000000000000815260040161202e906152d2565b60405180910390fd5b50565b6000612044613a7f565b905061204f84613ad6565b60008351118061205c5750815b1561206d5761206b8484613b8f565b505b600061209b7f4910fdfa16fed3260ed0e7147f7cc6da11a60208b5b9406d12a635614ffd914360001b613c73565b90508060000160009054906101000a900460ff166122475760018160000160006101000a81548160ff02191690831515021790555061216785836040516024016120e59190614f50565b6040516020818303038152906040527f3659cfe6000000000000000000000000000000000000000000000000000000007bffffffffffffffffffffffffffffffffffffffffffffffffffffffff19166020820180517bffffffffffffffffffffffffffffffffffffffffffffffffffffffff8381831617835250505050613b8f565b5060008160000160006101000a81548160ff02191690831515021790555061218d613a7f565b73ffffffffffffffffffffffffffffffffffffffff168273ffffffffffffffffffffffffffffffffffffffff16146121fa576040517f08c379a00000000000000000000000000000000000000000000000000000000081526004016121f1906151d2565b60405180910390fd5b61220385613ad6565b8473ffffffffffffffffffffffffffffffffffffffff167fbc7cd75a20ee27fd9adebab32041f755214dbc6bffa90cc0225b39da2e5c2d3b60405160405180910390a25b5050505050565b60008073ffffffffffffffffffffffffffffffffffffffff168573ffffffffffffffffffffffffffffffffffffffff1614905080156122ae5761012f60009054906101000a900473ffffffffffffffffffffffffffffffffffffffff1694505b60008573ffffffffffffffffffffffffffffffffffffffff166370a08231866040518263ffffffff1660e01b81526004016122e99190614f50565b60206040518083038186803b15801561230157600080fd5b505afa158015612315573d6000803e3d6000fd5b505050506040513d601f19601f820116820180604052508101906123399190614a6a565b9050600061012d60009054906101000a900473ffffffffffffffffffffffffffffffffffffffff1673ffffffffffffffffffffffffffffffffffffffff1663ec94578e6040518163ffffffff1660e01b815260040160206040518083038186803b1580156123a657600080fd5b505afa1580156123ba573d6000803e3d6000fd5b505050506040513d601f19601f820116820180604052508101906123de91906145ec565b905060008173ffffffffffffffffffffffffffffffffffffffff168773ffffffffffffffffffffffffffffffffffffffff16141561241d5760006124e5565b6124e46103e86124d661012d60009054906101000a900473ffffffffffffffffffffffffffffffffffffffff1673ffffffffffffffffffffffffffffffffffffffff166341e3f2816040518163ffffffff1660e01b815260040160206040518083038186803b15801561248f57600080fd5b505afa1580156124a3573d6000803e3d6000fd5b505050506040513d601f19601f820116820180604052508101906124c79190614a6a565b89613c7d90919063ffffffff16565b613c9390919063ffffffff16565b5b9050600081111561257f578773ffffffffffffffffffffffffffffffffffffffff1663a9059cbb83836040518363ffffffff1660e01b815260040161252b929190615002565b602060405180830381600087803b15801561254557600080fd5b505af1158015612559573d6000803e3d6000fd5b505050506040513d601f19601f8201168201806040525081019061257d919061498a565b505b8361270b578773ffffffffffffffffffffffffffffffffffffffff1663a9059cbb886125b4848a613ca990919063ffffffff16565b6040518363ffffffff1660e01b81526004016125d1929190615002565b602060405180830381600087803b1580156125eb57600080fd5b505af11580156125ff573d6000803e3d6000fd5b505050506040513d601f19601f82011682018060405250810190612623919061498a565b506126498161263b8886613cbf90919063ffffffff16565b613ca990919063ffffffff16565b8873ffffffffffffffffffffffffffffffffffffffff166370a08231896040518263ffffffff1660e01b81526004016126829190614f50565b60206040518083038186803b15801561269a57600080fd5b505afa1580156126ae573d6000803e3d6000fd5b505050506040513d601f19601f820116820180604052508101906126d29190614a6a565b14612706577f4e487b7100000000000000000000000000000000000000000000000000000000600052600160045260246000fd5b61286d565b61012f60009054906101000a900473ffffffffffffffffffffffffffffffffffffffff1673ffffffffffffffffffffffffffffffffffffffff16632e1a7d4d61275d8389613ca990919063ffffffff16565b6040518263ffffffff1660e01b81526004016127799190615332565b600060405180830381600087803b15801561279357600080fd5b505af11580156127a7573d6000803e3d6000fd5b5050505060008773ffffffffffffffffffffffffffffffffffffffff166127d78389613ca990919063ffffffff16565b6040516127e390614f01565b60006040518083038185875af1925050503d8060008114612820576040519150601f19603f3d011682016040523d82523d6000602084013e612825565b606091505b5050809150508061286b576040517f08c379a0000000000000000000000000000000000000000000000000000000008152600401612862906151b2565b60405180910390fd5b505b61012d60009054906101000a900473ffffffffffffffffffffffffffffffffffffffff1673ffffffffffffffffffffffffffffffffffffffff1663181e20a78a88888c60006040518663ffffffff1660e01b81526004016128d2959493929190615070565b600060405180830381600087803b1580156128ec57600080fd5b505af1158015612900573d6000803e3d6000fd5b5050505061291289868a896000613cd5565b505050505050505050565b60008073ffffffffffffffffffffffffffffffffffffffff168573ffffffffffffffffffffffffffffffffffffffff1614612958578461297d565b61012f60009054906101000a900473ffffffffffffffffffffffffffffffffffffffff165b9050600061012d60009054906101000a900473ffffffffffffffffffffffffffffffffffffffff1673ffffffffffffffffffffffffffffffffffffffff1663d02641a0836040518263ffffffff1660e01b81526004016129dd9190614f50565b60206040518083038186803b1580156129f557600080fd5b505afa158015612a09573d6000803e3d6000fd5b505050506040513d601f19601f82011682018060405250810190612a2d9190614a6a565b90506000612bae82612ba061012e60009054906101000a900473ffffffffffffffffffffffffffffffffffffffff1673ffffffffffffffffffffffffffffffffffffffff166380ef72a9876040518263ffffffff1660e01b8152600401612a949190614f50565b60206040518083038186803b158015612aac57600080fd5b505afa158015612ac0573d6000803e3d6000fd5b505050506040513d601f19601f82011682018060405250810190612ae49190614a6a565b61012e60009054906101000a900473ffffffffffffffffffffffffffffffffffffffff1673ffffffffffffffffffffffffffffffffffffffff1663e76ab2398d8a6040518363ffffffff1660e01b8152600401612b42929190614f6b565b60206040518083038186803b158015612b5a57600080fd5b505afa158015612b6e573d6000803e3d6000fd5b505050506040513d601f19601f82011682018060405250810190612b929190614a6a565b613c7d90919063ffffffff16565b613c9390919063ffffffff16565b9050600061012d60009054906101000a900473ffffffffffffffffffffffffffffffffffffffff1673ffffffffffffffffffffffffffffffffffffffff1663c462b5208a86886040518463ffffffff1660e01b8152600401612c1293929190614f94565b60206040518083038186803b158015612c2a57600080fd5b505afa158015612c3e573d6000803e3d6000fd5b505050506040513d601f19601f82011682018060405250810190612c629190614a6a565b905080821115612c70578091505b60008211612cb3576040517f08c379a0000000000000000000000000000000000000000000000000000000008152600401612caa906152b2565b60405180910390fd5b81861115612cbf578195505b612ccc898989898961224e565b505050505050505050565b600060019054906101000a900460ff1680612cfd575060008054906101000a900460ff16155b612d3c576040517f08c379a0000000000000000000000000000000000000000000000000000000008152600401612d3390615212565b60405180910390fd5b60008060019054906101000a900460ff161590508015612d8c576001600060016101000a81548160ff02191690831515021790555060016000806101000a81548160ff0219169083151502179055505b612d94613f97565b612d9c614070565b612da4614149565b8015612dc55760008060016101000a81548160ff0219169083151502179055505b50565b600060019054906101000a900460ff1680612dee575060008054906101000a900460ff16155b612e2d576040517f08c379a0000000000000000000000000000000000000000000000000000000008152600401612e2490615212565b60405180910390fd5b60008060019054906101000a900460ff161590508015612e7d576001600060016101000a81548160ff02191690831515021790555060016000806101000a81548160ff0219169083151502179055505b612e85614222565b8015612ea65760008060016101000a81548160ff0219169083151502179055505b50565b612eb38282611e0b565b5050565b80612ec1836105a6565b837fbd79b86ffe0ab8e8776151514217cd7cacd52c909f66475c3af44e129f0b00ff60405160405180910390a48060c96000848152602001908152602001600020600101819055505050565b61012d60009054906101000a900473ffffffffffffffffffffffffffffffffffffffff1673ffffffffffffffffffffffffffffffffffffffff16631441a5a96040518163ffffffff1660e01b815260040160206040518083038186803b158015612f7657600080fd5b505afa158015612f8a573d6000803e3d6000fd5b505050506040513d601f19601f82011682018060405250810190612fae91906145ec565b73ffffffffffffffffffffffffffffffffffffffff16637543e3f083836040518363ffffffff1660e01b8152600401612fe8929190614f6b565b600060405180830381600087803b15801561300257600080fd5b505af1158015613016573d6000803e3d6000fd5b505050505050565b61012d60009054906101000a900473ffffffffffffffffffffffffffffffffffffffff1673ffffffffffffffffffffffffffffffffffffffff1663803c97b3836040518263ffffffff1660e01b815260040161307a9190614f50565b60206040518083038186803b15801561309257600080fd5b505afa1580156130a6573d6000803e3d6000fd5b505050506040513d601f19601f820116820180604052508101906130ca919061498a565b613109576040517f08c379a000000000000000000000000000000000000000000000000000000000815260040161310090615172565b60405180910390fd5b600061329b61328961012e60009054906101000a900473ffffffffffffffffffffffffffffffffffffffff1673ffffffffffffffffffffffffffffffffffffffff166380ef72a9866040518263ffffffff1660e01b815260040161316d9190614f50565b60206040518083038186803b15801561318557600080fd5b505afa158015613199573d6000803e3d6000fd5b505050506040513d601f19601f820116820180604052508101906131bd9190614a6a565b61327b61012d60009054906101000a900473ffffffffffffffffffffffffffffffffffffffff1673ffffffffffffffffffffffffffffffffffffffff1663d02641a0886040518263ffffffff1660e01b815260040161321c9190614f50565b60206040518083038186803b15801561323457600080fd5b505afa158015613248573d6000803e3d6000fd5b505050506040513d601f19601f8201168201806040525081019061326c9190614a6a565b88613c7d90919063ffffffff16565b613c9390919063ffffffff16565b61013054613cbf90919063ffffffff16565b905060006101315414806132b25750610131548111155b6132f1576040517f08c379a00000000000000000000000000000000000000000000000000000000081526004016132e890615232565b60405180910390fd5b806101308190555061012d60009054906101000a900473ffffffffffffffffffffffffffffffffffffffff1673ffffffffffffffffffffffffffffffffffffffff1663c392f7666040518163ffffffff1660e01b815260040160206040518083038186803b15801561336257600080fd5b505afa158015613376573d6000803e3d6000fd5b505050506040513d601f19601f8201168201806040525081019061339a91906145ec565b73ffffffffffffffffffffffffffffffffffffffff16634342fef56040518163ffffffff1660e01b8152600401600060405180830381600087803b1580156133e157600080fd5b505af11580156133f5573d6000803e3d6000fd5b5050505060006134c26103e86134b461012d60009054906101000a900473ffffffffffffffffffffffffffffffffffffffff1673ffffffffffffffffffffffffffffffffffffffff16639df5138a6040518163ffffffff1660e01b815260040160206040518083038186803b15801561346d57600080fd5b505afa158015613481573d6000803e3d6000fd5b505050506040513d601f19601f820116820180604052508101906134a59190614a6a565b88613c7d90919063ffffffff16565b613c9390919063ffffffff16565b90506134d78186613ca990919063ffffffff16565b94508373ffffffffffffffffffffffffffffffffffffffff166323b872dd8830886040518463ffffffff1660e01b815260040161351693929190614fcb565b602060405180830381600087803b15801561353057600080fd5b505af1158015613544573d6000803e3d6000fd5b505050506040513d601f19601f82011682018060405250810190613568919061498a565b6135a7576040517f08c379a000000000000000000000000000000000000000000000000000000000815260040161359e90615272565b60405180910390fd5b61012d60009054906101000a900473ffffffffffffffffffffffffffffffffffffffff1673ffffffffffffffffffffffffffffffffffffffff1663181e20a78787868860016040518663ffffffff1660e01b815260040161360c959493929190615070565b600060405180830381600087803b15801561362657600080fd5b505af115801561363a573d6000803e3d6000fd5b505050508373ffffffffffffffffffffffffffffffffffffffff166323b872dd8861012d60009054906101000a900473ffffffffffffffffffffffffffffffffffffffff1673ffffffffffffffffffffffffffffffffffffffff1663ec94578e6040518163ffffffff1660e01b815260040160206040518083038186803b1580156136c457600080fd5b505afa1580156136d8573d6000803e3d6000fd5b505050506040513d601f19601f820116820180604052508101906136fc91906145ec565b846040518463ffffffff1660e01b815260040161371b93929190614fcb565b602060405180830381600087803b15801561373557600080fd5b505af1158015613749573d6000803e3d6000fd5b505050506040513d601f19601f8201168201806040525081019061376d919061498a565b5061377c868486886001613cd5565b50505050505050565b6060600060028360026137989190615531565b6137a291906154aa565b67ffffffffffffffff8111156137e1577f4e487b7100000000000000000000000000000000000000000000000000000000600052604160045260246000fd5b6040519080825280601f01601f1916602001820160405280156138135781602001600182028036833780820191505090505b5090507f300000000000000000000000000000000000000000000000000000000000000081600081518110613871577f4e487b7100000000000000000000000000000000000000000000000000000000600052603260045260246000fd5b60200101907effffffffffffffffffffffffffffffffffffffffffffffffffffffffffffff1916908160001a9053507f7800000000000000000000000000000000000000000000000000000000000000816001815181106138fb577f4e487b7100000000000000000000000000000000000000000000000000000000600052603260045260246000fd5b60200101907effffffffffffffffffffffffffffffffffffffffffffffffffffffffffffff1916908160001a9053506000600184600261393b9190615531565b61394591906154aa565b90505b6001811115613a31577f3031323334353637383961626364656600000000000000000000000000000000600f8616601081106139ad577f4e487b7100000000000000000000000000000000000000000000000000000000600052603260045260246000fd5b1a60f81b8282815181106139ea577f4e487b7100000000000000000000000000000000000000000000000000000000600052603260045260246000fd5b60200101907effffffffffffffffffffffffffffffffffffffffffffffffffffffffffffff1916908160001a905350600485901c945080613a2a9061567f565b9050613948565b5060008414613a75576040517f08c379a0000000000000000000000000000000000000000000000000000000008152600401613a6c90615152565b60405180910390fd5b8091505092915050565b6000613aad7f360894a13ba1a3210667c828492db98dca3e2076cc3735a920a3ca505d382bbc60001b614303565b60000160009054906101000a900473ffffffffffffffffffffffffffffffffffffffff16905090565b613adf8161430d565b613b1e576040517f08c379a0000000000000000000000000000000000000000000000000000000008152600401613b1590615252565b60405180910390fd5b80613b4b7f360894a13ba1a3210667c828492db98dca3e2076cc3735a920a3ca505d382bbc60001b614303565b60000160006101000a81548173ffffffffffffffffffffffffffffffffffffffff021916908373ffffffffffffffffffffffffffffffffffffffff16021790555050565b6060613b9a8361430d565b613bd9576040517f08c379a0000000000000000000000000000000000000000000000000000000008152600401613bd090615292565b60405180910390fd5b6000808473ffffffffffffffffffffffffffffffffffffffff1684604051613c019190614eea565b600060405180830381855af49150503d8060008114613c3c576040519150601f19603f3d011682016040523d82523d6000602084013e613c41565b606091505b5091509150613c698282604051806060016040528060278152602001615baf60279139614320565b9250505092915050565b6000819050919050565b60008183613c8b9190615531565b905092915050565b60008183613ca19190615500565b905092915050565b60008183613cb7919061558b565b905092915050565b60008183613ccd91906154aa565b905092915050565b600061012d60009054906101000a900473ffffffffffffffffffffffffffffffffffffffff1673ffffffffffffffffffffffffffffffffffffffff166301964f366040518163ffffffff1660e01b815260040160206040518083038186803b158015613d4057600080fd5b505afa158015613d54573d6000803e3d6000fd5b505050506040513d601f19601f82011682018060405250810190613d789190614a6a565b90506000811415613d895750613f90565b613db6670de0b6b3a7640000613da88386613c7d90919063ffffffff16565b613c9390919063ffffffff16565b9250600061012d60009054906101000a900473ffffffffffffffffffffffffffffffffffffffff1673ffffffffffffffffffffffffffffffffffffffff16639cfd96696040518163ffffffff1660e01b815260040160206040518083038186803b158015613e2357600080fd5b505afa158015613e37573d6000803e3d6000fd5b505050506040513d601f19601f82011682018060405250810190613e5b91906145ec565b90508215613efa578073ffffffffffffffffffffffffffffffffffffffff16634a0e780e888689896040518563ffffffff1660e01b8152600401613ea2949392919061502b565b602060405180830381600087803b158015613ebc57600080fd5b505af1158015613ed0573d6000803e3d6000fd5b505050506040513d601f19601f82011682018060405250810190613ef49190614a6a565b50613f8d565b8073ffffffffffffffffffffffffffffffffffffffff16635aa347c7888689896040518563ffffffff1660e01b8152600401613f39949392919061502b565b602060405180830381600087803b158015613f5357600080fd5b505af1158015613f67573d6000803e3d6000fd5b505050506040513d601f19601f82011682018060405250810190613f8b9190614a6a565b505b50505b5050505050565b600060019054906101000a900460ff1680613fbd575060008054906101000a900460ff16155b613ffc576040517f08c379a0000000000000000000000000000000000000000000000000000000008152600401613ff390615212565b60405180910390fd5b60008060019054906101000a900460ff16159050801561404c576001600060016101000a81548160ff02191690831515021790555060016000806101000a81548160ff0219169083151502179055505b801561406d5760008060016101000a81548160ff0219169083151502179055505b50565b600060019054906101000a900460ff1680614096575060008054906101000a900460ff16155b6140d5576040517f08c379a00000000000000000000000000000000000000000000000000000000081526004016140cc90615212565b60405180910390fd5b60008060019054906101000a900460ff161590508015614125576001600060016101000a81548160ff02191690831515021790555060016000806101000a81548160ff0219169083151502179055505b80156141465760008060016101000a81548160ff0219169083151502179055505b50565b600060019054906101000a900460ff168061416f575060008054906101000a900460ff16155b6141ae576040517f08c379a00000000000000000000000000000000000000000000000000000000081526004016141a590615212565b60405180910390fd5b60008060019054906101000a900460ff1615905080156141fe576001600060016101000a81548160ff02191690831515021790555060016000806101000a81548160ff0219169083151502179055505b801561421f5760008060016101000a81548160ff0219169083151502179055505b50565b600060019054906101000a900460ff1680614248575060008054906101000a900460ff16155b614287576040517f08c379a000000000000000000000000000000000000000000000000000000000815260040161427e90615212565b60405180910390fd5b60008060019054906101000a900460ff1615905080156142d7576001600060016101000a81548160ff02191690831515021790555060016000806101000a81548160ff0219169083151502179055505b600160fb8190555080156143005760008060016101000a81548160ff0219169083151502179055505b50565b6000819050919050565b600080823b905060008111915050919050565b6060831561433057829050614380565b6000835111156143435782518084602001fd5b816040517f08c379a00000000000000000000000000000000000000000000000000000000081526004016143779190615130565b60405180910390fd5b9392505050565b600061439a61439584615372565b61534d565b905080838252602082019050828560208602820111156143b957600080fd5b60005b858110156143e957816143cf88826144b2565b8452602084019350602083019250506001810190506143bc565b5050509392505050565b60006144066144018461539e565b61534d565b9050808382526020820190508285602086028201111561442557600080fd5b60005b85811015614455578161443b88826145ae565b845260208401935060208301925050600181019050614428565b5050509392505050565b600061447261446d846153ca565b61534d565b90508281526020810184848401111561448a57600080fd5b61449584828561563d565b509392505050565b6000813590506144ac81615b3b565b92915050565b6000815190506144c181615b3b565b92915050565b600082601f8301126144d857600080fd5b81516144e8848260208601614387565b91505092915050565b600082601f83011261450257600080fd5b81516145128482602086016143f3565b91505092915050565b60008135905061452a81615b52565b92915050565b60008151905061453f81615b52565b92915050565b60008135905061455481615b69565b92915050565b60008135905061456981615b80565b92915050565b600082601f83011261458057600080fd5b813561459084826020860161445f565b91505092915050565b6000813590506145a881615b97565b92915050565b6000815190506145bd81615b97565b92915050565b6000602082840312156145d557600080fd5b60006145e38482850161449d565b91505092915050565b6000602082840312156145fe57600080fd5b600061460c848285016144b2565b91505092915050565b60008060006060848603121561462a57600080fd5b60006146388682870161449d565b93505060206146498682870161449d565b925050604061465a8682870161449d565b9150509250925092565b600080600080600060a0868803121561467c57600080fd5b600061468a8882890161449d565b955050602061469b8882890161449d565b94505060406146ac8882890161449d565b93505060606146bd88828901614599565b92505060806146ce8882890161449d565b9150509295509295909350565b600080600080608085870312156146f157600080fd5b60006146ff8782880161449d565b94505060206147108782880161449d565b935050604061472187828801614599565b92505060606147328782880161449d565b91505092959194509250565b600080600080600060a0868803121561475657600080fd5b60006147648882890161449d565b95505060206147758882890161449d565b945050604061478688828901614599565b93505060606147978882890161449d565b92505060806147a88882890161451b565b9150509295509295909350565b600080604083850312156147c857600080fd5b60006147d68582860161449d565b925050602083013567ffffffffffffffff8111156147f357600080fd5b6147ff8582860161456f565b9150509250929050565b6000806040838503121561481c57600080fd5b600061482a8582860161449d565b925050602061483b85828601614599565b9150509250929050565b60008060006060848603121561485a57600080fd5b60006148688682870161449d565b935050602061487986828701614599565b925050604061488a8682870161449d565b9150509250925092565b600080600080600060a086880312156148ac57600080fd5b60006148ba8882890161449d565b95505060206148cb88828901614599565b94505060406148dc8882890161449d565b93505060606148ed8882890161449d565b92505060806148fe8882890161449d565b9150509295509295909350565b60008060006060848603121561492057600080fd5b600084015167ffffffffffffffff81111561493a57600080fd5b614946868287016144c7565b935050602084015167ffffffffffffffff81111561496357600080fd5b61496f868287016144f1565b925050604061498086828701614530565b9150509250925092565b60006020828403121561499c57600080fd5b60006149aa84828501614530565b91505092915050565b6000602082840312156149c557600080fd5b60006149d384828501614545565b91505092915050565b600080604083850312156149ef57600080fd5b60006149fd85828601614545565b9250506020614a0e8582860161449d565b9150509250929050565b600060208284031215614a2a57600080fd5b6000614a388482850161455a565b91505092915050565b600060208284031215614a5357600080fd5b6000614a6184828501614599565b91505092915050565b600060208284031215614a7c57600080fd5b6000614a8a848285016145ae565b91505092915050565b6000614a9f8383614ac3565b60208301905092915050565b6000614ab78383614ecc565b60208301905092915050565b614acc816155bf565b82525050565b614adb816155bf565b82525050565b6000614aec8261541b565b614af68185615461565b9350614b01836153fb565b8060005b83811015614b32578151614b198882614a93565b9750614b2483615447565b925050600181019050614b05565b5085935050505092915050565b6000614b4a82615426565b614b548185615472565b9350614b5f8361540b565b8060005b83811015614b90578151614b778882614aab565b9750614b8283615454565b925050600181019050614b63565b5085935050505092915050565b614ba6816155d1565b82525050565b614bb5816155dd565b82525050565b6000614bc682615431565b614bd08185615483565b9350614be081856020860161564c565b80840191505092915050565b6000614bf78261543c565b614c01818561548e565b9350614c1181856020860161564c565b614c1a816157b0565b840191505092915050565b6000614c308261543c565b614c3a818561549f565b9350614c4a81856020860161564c565b80840191505092915050565b6000614c6360208361548e565b9150614c6e826157c1565b602082019050919050565b6000614c8660028361548e565b9150614c91826157ea565b602082019050919050565b6000614ca960028361548e565b9150614cb482615813565b602082019050919050565b6000614ccc60028361548e565b9150614cd78261583c565b602082019050919050565b6000614cef602f8361548e565b9150614cfa82615865565b604082019050919050565b6000614d1260028361548e565b9150614d1d826158b4565b602082019050919050565b6000614d35602e8361548e565b9150614d40826158dd565b604082019050919050565b6000614d5860028361548e565b9150614d638261592c565b602082019050919050565b6000614d7b602d8361548e565b9150614d8682615955565b604082019050919050565b6000614d9e60028361548e565b9150614da9826159a4565b602082019050919050565b6000614dc160268361548e565b9150614dcc826159cd565b604082019050919050565b6000614de460028361548e565b9150614def82615a1c565b602082019050919050565b6000614e07600083615483565b9150614e1282615a45565b600082019050919050565b6000614e2a60028361548e565b9150614e3582615a48565b602082019050919050565b6000614e4d60178361549f565b9150614e5882615a71565b601782019050919050565b6000614e70601f8361548e565b9150614e7b82615a9a565b602082019050919050565b6000614e9360118361549f565b9150614e9e82615ac3565b601182019050919050565b6000614eb6602f8361548e565b9150614ec182615aec565b604082019050919050565b614ed581615633565b82525050565b614ee481615633565b82525050565b6000614ef68284614bbb565b915081905092915050565b6000614f0c82614dfa565b9150819050919050565b6000614f2182614e40565b9150614f2d8285614c25565b9150614f3882614e86565b9150614f448284614c25565b91508190509392505050565b6000602082019050614f656000830184614ad2565b92915050565b6000604082019050614f806000830185614ad2565b614f8d6020830184614ad2565b9392505050565b6000606082019050614fa96000830186614ad2565b614fb66020830185614ad2565b614fc36040830184614ad2565b949350505050565b6000606082019050614fe06000830186614ad2565b614fed6020830185614ad2565b614ffa6040830184614edb565b949350505050565b60006040820190506150176000830185614ad2565b6150246020830184614edb565b9392505050565b60006080820190506150406000830187614ad2565b61504d6020830186614edb565b61505a6040830185614ad2565b6150676060830184614ad2565b95945050505050565b600060a0820190506150856000830188614ad2565b6150926020830187614edb565b61509f6040830186614ad2565b6150ac6060830185614ad2565b6150b96080830184614b9d565b9695505050505050565b600060408201905081810360008301526150dd8185614ae1565b905081810360208301526150f18184614b3f565b90509392505050565b600060208201905061510f6000830184614b9d565b92915050565b600060208201905061512a6000830184614bac565b92915050565b6000602082019050818103600083015261514a8184614bec565b905092915050565b6000602082019050818103600083015261516b81614c56565b9050919050565b6000602082019050818103600083015261518b81614c79565b9050919050565b600060208201905081810360008301526151ab81614c9c565b9050919050565b600060208201905081810360008301526151cb81614cbf565b9050919050565b600060208201905081810360008301526151eb81614ce2565b9050919050565b6000602082019050818103600083015261520b81614d05565b9050919050565b6000602082019050818103600083015261522b81614d28565b9050919050565b6000602082019050818103600083015261524b81614d4b565b9050919050565b6000602082019050818103600083015261526b81614d6e565b9050919050565b6000602082019050818103600083015261528b81614d91565b9050919050565b600060208201905081810360008301526152ab81614db4565b9050919050565b600060208201905081810360008301526152cb81614dd7565b9050919050565b600060208201905081810360008301526152eb81614e1d565b9050919050565b6000602082019050818103600083015261530b81614e63565b9050919050565b6000602082019050818103600083015261532b81614ea9565b9050919050565b60006020820190506153476000830184614edb565b92915050565b6000615357615368565b905061536382826156a9565b919050565b6000604051905090565b600067ffffffffffffffff82111561538d5761538c615781565b5b602082029050602081019050919050565b600067ffffffffffffffff8211156153b9576153b8615781565b5b602082029050602081019050919050565b600067ffffffffffffffff8211156153e5576153e4615781565b5b6153ee826157b0565b9050602081019050919050565b6000819050602082019050919050565b6000819050602082019050919050565b600081519050919050565b600081519050919050565b600081519050919050565b600081519050919050565b6000602082019050919050565b6000602082019050919050565b600082825260208201905092915050565b600082825260208201905092915050565b600081905092915050565b600082825260208201905092915050565b600081905092915050565b60006154b582615633565b91506154c083615633565b9250827fffffffffffffffffffffffffffffffffffffffffffffffffffffffffffffffff038211156154f5576154f4615723565b5b828201905092915050565b600061550b82615633565b915061551683615633565b92508261552657615525615752565b5b828204905092915050565b600061553c82615633565b915061554783615633565b9250817fffffffffffffffffffffffffffffffffffffffffffffffffffffffffffffffff04831182151516156155805761557f615723565b5b828202905092915050565b600061559682615633565b91506155a183615633565b9250828210156155b4576155b3615723565b5b828203905092915050565b60006155ca82615613565b9050919050565b60008115159050919050565b6000819050919050565b60007fffffffff0000000000000000000000000000000000000000000000000000000082169050919050565b600073ffffffffffffffffffffffffffffffffffffffff82169050919050565b6000819050919050565b82818337600083830152505050565b60005b8381101561566a57808201518184015260208101905061564f565b83811115615679576000848401525b50505050565b600061568a82615633565b9150600082141561569e5761569d615723565b5b600182039050919050565b6156b2826157b0565b810181811067ffffffffffffffff821117156156d1576156d0615781565b5b80604052505050565b60006156e582615633565b91507fffffffffffffffffffffffffffffffffffffffffffffffffffffffffffffffff82141561571857615717615723565b5b600182019050919050565b7f4e487b7100000000000000000000000000000000000000000000000000000000600052601160045260246000fd5b7f4e487b7100000000000000000000000000000000000000000000000000000000600052601260045260246000fd5b7f4e487b7100000000000000000000000000000000000000000000000000000000600052604160045260246000fd5b6000601f19601f8301169050919050565b7f537472696e67733a20686578206c656e67746820696e73756666696369656e74600082015250565b7f4943000000000000000000000000000000000000000000000000000000000000600082015250565b7f4e4f000000000000000000000000000000000000000000000000000000000000600082015250565b7f4650000000000000000000000000000000000000000000000000000000000000600082015250565b7f45524331393637557067726164653a207570677261646520627265616b73206660008201527f7572746865722075706772616465730000000000000000000000000000000000602082015250565b7f4e57000000000000000000000000000000000000000000000000000000000000600082015250565b7f496e697469616c697a61626c653a20636f6e747261637420697320616c72656160008201527f647920696e697469616c697a6564000000000000000000000000000000000000602082015250565b7f4941000000000000000000000000000000000000000000000000000000000000600082015250565b7f455243313936373a206e657720696d706c656d656e746174696f6e206973206e60008201527f6f74206120636f6e747261637400000000000000000000000000000000000000602082015250565b7f4654000000000000000000000000000000000000000000000000000000000000600082015250565b7f416464726573733a2064656c65676174652063616c6c20746f206e6f6e2d636f60008201527f6e74726163740000000000000000000000000000000000000000000000000000602082015250565b7f4341000000000000000000000000000000000000000000000000000000000000600082015250565b50565b7f4e41000000000000000000000000000000000000000000000000000000000000600082015250565b7f416363657373436f6e74726f6c3a206163636f756e7420000000000000000000600082015250565b7f5265656e7472616e637947756172643a207265656e7472616e742063616c6c00600082015250565b7f206973206d697373696e6720726f6c6520000000000000000000000000000000600082015250565b7f416363657373436f6e74726f6c3a2063616e206f6e6c792072656e6f756e636560008201527f20726f6c657320666f722073656c660000000000000000000000000000000000602082015250565b615b44816155bf565b8114615b4f57600080fd5b50565b615b5b816155d1565b8114615b6657600080fd5b50565b615b72816155dd565b8114615b7d57600080fd5b50565b615b89816155e7565b8114615b9457600080fd5b50565b615ba081615633565b8114615bab57600080fd5b5056fe416464726573733a206c6f772d6c6576656c2064656c65676174652063616c6c206661696c6564a2646970667358221220a6d6cdc33dce9796e969926f1a86fb4eb49ea22eb0b564ab3bead005e778f54f64736f6c63430008030033",
  "linkReferences": {},
  "deployedLinkReferences": {}
}