{
  "_format": "hh-sol-artifact-1",
  "contractName": "Treasury",
  "sourceName": "contracts/Bank/Treasury.sol",
  "abi": [
    {
      "anonymous": false,
      "inputs": [
        {
          "indexed": false,
          "internalType": "address",
          "name": "previousAdmin",
          "type": "address"
        },
        {
          "indexed": false,
          "internalType": "address",
          "name": "newAdmin",
          "type": "address"
        }
      ],
      "name": "AdminChanged",
      "type": "event"
    },
    {
      "anonymous": false,
      "inputs": [
        {
          "indexed": true,
          "internalType": "address",
          "name": "beacon",
          "type": "address"
        }
      ],
      "name": "BeaconUpgraded",
      "type": "event"
    },
    {
      "anonymous": false,
      "inputs": [
        {
          "indexed": true,
          "internalType": "bytes32",
          "name": "role",
          "type": "bytes32"
        },
        {
          "indexed": true,
          "internalType": "bytes32",
          "name": "previousAdminRole",
          "type": "bytes32"
        },
        {
          "indexed": true,
          "internalType": "bytes32",
          "name": "newAdminRole",
          "type": "bytes32"
        }
      ],
      "name": "RoleAdminChanged",
      "type": "event"
    },
    {
      "anonymous": false,
      "inputs": [
        {
          "indexed": true,
          "internalType": "bytes32",
          "name": "role",
          "type": "bytes32"
        },
        {
          "indexed": true,
          "internalType": "address",
          "name": "account",
          "type": "address"
        },
        {
          "indexed": true,
          "internalType": "address",
          "name": "sender",
          "type": "address"
        }
      ],
      "name": "RoleGranted",
      "type": "event"
    },
    {
      "anonymous": false,
      "inputs": [
        {
          "indexed": true,
          "internalType": "bytes32",
          "name": "role",
          "type": "bytes32"
        },
        {
          "indexed": true,
          "internalType": "address",
          "name": "account",
          "type": "address"
        },
        {
          "indexed": true,
          "internalType": "address",
          "name": "sender",
          "type": "address"
        }
      ],
      "name": "RoleRevoked",
      "type": "event"
    },
    {
      "anonymous": false,
      "inputs": [
        {
          "indexed": true,
          "internalType": "address",
          "name": "implementation",
          "type": "address"
        }
      ],
      "name": "Upgraded",
      "type": "event"
    },
    {
      "inputs": [],
      "name": "ADMIN_ROLE",
      "outputs": [
        {
          "internalType": "bytes32",
          "name": "",
          "type": "bytes32"
        }
      ],
      "stateMutability": "view",
      "type": "function"
    },
    {
      "inputs": [],
      "name": "DEFAULT_ADMIN_ROLE",
      "outputs": [
        {
          "internalType": "bytes32",
          "name": "",
          "type": "bytes32"
        }
      ],
      "stateMutability": "view",
      "type": "function"
    },
    {
      "inputs": [],
      "name": "OPERATOR_ROLE",
      "outputs": [
        {
          "internalType": "bytes32",
          "name": "",
          "type": "bytes32"
        }
      ],
      "stateMutability": "view",
      "type": "function"
    },
    {
      "inputs": [
        {
          "internalType": "address",
          "name": "to",
          "type": "address"
        },
        {
          "internalType": "uint256",
          "name": "amount",
          "type": "uint256"
        },
        {
          "internalType": "address",
          "name": "collateralToken",
          "type": "address"
        },
        {
          "internalType": "address",
          "name": "fxToken",
          "type": "address"
        },
        {
          "internalType": "address",
          "name": "referral",
          "type": "address"
        }
      ],
      "name": "depositCollateral",
      "outputs": [],
      "stateMutability": "nonpayable",
      "type": "function"
    },
    {
      "inputs": [
        {
          "internalType": "address",
          "name": "to",
          "type": "address"
        },
        {
          "internalType": "address",
          "name": "fxToken",
          "type": "address"
        },
        {
          "internalType": "address",
          "name": "referral",
          "type": "address"
        }
      ],
      "name": "depositCollateralETH",
      "outputs": [],
      "stateMutability": "payable",
      "type": "function"
    },
    {
      "inputs": [
        {
          "internalType": "address",
          "name": "from",
          "type": "address"
        },
        {
          "internalType": "address",
          "name": "to",
          "type": "address"
        },
        {
          "internalType": "uint256",
          "name": "amount",
          "type": "uint256"
        },
        {
          "internalType": "address",
          "name": "fxToken",
          "type": "address"
        },
        {
          "internalType": "bool",
          "name": "requireFullAmount",
          "type": "bool"
        }
      ],
      "name": "forceWithdrawAnyCollateral",
      "outputs": [
        {
          "internalType": "address[]",
          "name": "collateralTypes",
          "type": "address[]"
        },
        {
          "internalType": "uint256[]",
          "name": "collateralAmounts",
          "type": "uint256[]"
        }
      ],
      "stateMutability": "nonpayable",
      "type": "function"
    },
    {
      "inputs": [
        {
          "internalType": "address",
          "name": "from",
          "type": "address"
        },
        {
          "internalType": "address",
          "name": "collateralToken",
          "type": "address"
        },
        {
          "internalType": "address",
          "name": "to",
          "type": "address"
        },
        {
          "internalType": "uint256",
          "name": "amount",
          "type": "uint256"
        },
        {
          "internalType": "address",
          "name": "fxToken",
          "type": "address"
        }
      ],
      "name": "forceWithdrawCollateral",
      "outputs": [],
      "stateMutability": "nonpayable",
      "type": "function"
    },
    {
      "inputs": [
        {
          "internalType": "bytes32",
          "name": "role",
          "type": "bytes32"
        }
      ],
      "name": "getRoleAdmin",
      "outputs": [
        {
          "internalType": "bytes32",
          "name": "",
          "type": "bytes32"
        }
      ],
      "stateMutability": "view",
      "type": "function"
    },
    {
      "inputs": [
        {
          "internalType": "bytes32",
          "name": "role",
          "type": "bytes32"
        },
        {
          "internalType": "address",
          "name": "account",
          "type": "address"
        }
      ],
      "name": "grantRole",
      "outputs": [],
      "stateMutability": "nonpayable",
      "type": "function"
    },
    {
      "inputs": [],
      "name": "handleAddress",
      "outputs": [
        {
          "internalType": "address",
          "name": "",
          "type": "address"
        }
      ],
      "stateMutability": "view",
      "type": "function"
    },
    {
      "inputs": [
        {
          "internalType": "bytes32",
          "name": "role",
          "type": "bytes32"
        },
        {
          "internalType": "address",
          "name": "account",
          "type": "address"
        }
      ],
      "name": "hasRole",
      "outputs": [
        {
          "internalType": "bool",
          "name": "",
          "type": "bool"
        }
      ],
      "stateMutability": "view",
      "type": "function"
    },
    {
      "inputs": [],
      "name": "initialize",
      "outputs": [],
      "stateMutability": "nonpayable",
      "type": "function"
    },
    {
      "inputs": [
        {
          "internalType": "bytes32",
          "name": "role",
          "type": "bytes32"
        },
        {
          "internalType": "address",
          "name": "account",
          "type": "address"
        }
      ],
      "name": "renounceRole",
      "outputs": [],
      "stateMutability": "nonpayable",
      "type": "function"
    },
    {
      "inputs": [
        {
          "internalType": "address",
          "name": "token",
          "type": "address"
        },
        {
          "internalType": "uint256",
          "name": "amount",
          "type": "uint256"
        }
      ],
      "name": "requestFundsPCT",
      "outputs": [],
      "stateMutability": "nonpayable",
      "type": "function"
    },
    {
      "inputs": [
        {
          "internalType": "bytes32",
          "name": "role",
          "type": "bytes32"
        },
        {
          "internalType": "address",
          "name": "account",
          "type": "address"
        }
      ],
      "name": "revokeRole",
      "outputs": [],
      "stateMutability": "nonpayable",
      "type": "function"
    },
    {
      "inputs": [
        {
          "internalType": "address",
          "name": "_handle",
          "type": "address"
        }
      ],
      "name": "setHandleContract",
      "outputs": [],
      "stateMutability": "nonpayable",
      "type": "function"
    },
    {
      "inputs": [
        {
          "internalType": "uint256",
          "name": "value",
          "type": "uint256"
        }
      ],
      "name": "setMaximumTotalDepositAllowed",
      "outputs": [],
      "stateMutability": "nonpayable",
      "type": "function"
    },
    {
      "inputs": [
        {
          "internalType": "bytes4",
          "name": "interfaceId",
          "type": "bytes4"
        }
      ],
      "name": "supportsInterface",
      "outputs": [
        {
          "internalType": "bool",
          "name": "",
          "type": "bool"
        }
      ],
      "stateMutability": "view",
      "type": "function"
    },
    {
      "inputs": [
        {
          "internalType": "address",
          "name": "newImplementation",
          "type": "address"
        }
      ],
      "name": "upgradeTo",
      "outputs": [],
      "stateMutability": "nonpayable",
      "type": "function"
    },
    {
      "inputs": [
        {
          "internalType": "address",
          "name": "newImplementation",
          "type": "address"
        },
        {
          "internalType": "bytes",
          "name": "data",
          "type": "bytes"
        }
      ],
      "name": "upgradeToAndCall",
      "outputs": [],
      "stateMutability": "payable",
      "type": "function"
    },
    {
      "inputs": [
        {
          "internalType": "address",
          "name": "collateralToken",
          "type": "address"
        },
        {
          "internalType": "address",
          "name": "to",
          "type": "address"
        },
        {
          "internalType": "uint256",
          "name": "amount",
          "type": "uint256"
        },
        {
          "internalType": "address",
          "name": "fxToken",
          "type": "address"
        }
      ],
      "name": "withdrawCollateral",
      "outputs": [],
      "stateMutability": "nonpayable",
      "type": "function"
    },
    {
      "inputs": [
        {
          "internalType": "address",
          "name": "to",
          "type": "address"
        },
        {
          "internalType": "uint256",
          "name": "amount",
          "type": "uint256"
        },
        {
          "internalType": "address",
          "name": "fxToken",
          "type": "address"
        }
      ],
      "name": "withdrawCollateralETH",
      "outputs": [],
      "stateMutability": "nonpayable",
      "type": "function"
    },
    {
      "inputs": [
        {
          "internalType": "address",
          "name": "from",
          "type": "address"
        },
        {
          "internalType": "address",
          "name": "collateralToken",
          "type": "address"
        },
        {
          "internalType": "address",
          "name": "to",
          "type": "address"
        },
        {
          "internalType": "uint256",
          "name": "amount",
          "type": "uint256"
        },
        {
          "internalType": "address",
          "name": "fxToken",
          "type": "address"
        }
      ],
      "name": "withdrawCollateralFrom",
      "outputs": [],
      "stateMutability": "nonpayable",
      "type": "function"
    },
    {
      "stateMutability": "payable",
      "type": "receive"
    }
  ],
  "bytecode": "0x608060405234801561001057600080fd5b50615dcd80620000216000396000f3fe6080604052600436106101445760003560e01c80637d694f15116100b6578063d547741f1161006f578063d547741f1461042c578063d811b9bd14610455578063eb2266fc14610471578063f5b541a6146104af578063fd58a301146104da578063ffda4da4146105035761014b565b80637d694f15146103325780638129fc1c1461035b5780638c6d4c471461037257806391d148541461039b5780639b1c414f146103d8578063a217fddf146104015761014b565b80634f1ef286116101085780634f1ef2861461024557806358166d24146102615780635a6f45de1461028a57806364cfc1ad146102b357806374bf578b146102dc57806375b238fc146103075761014b565b806301ffc9a714610150578063248a9ca31461018d5780632f2ff15d146101ca57806336568abe146101f35780633659cfe61461021c5761014b565b3661014b57005b600080fd5b34801561015c57600080fd5b5061017760048036038101906101729190614b90565b61052c565b60405161018491906152aa565b60405180910390f35b34801561019957600080fd5b506101b460048036038101906101af9190614b2b565b6105a6565b6040516101c191906152c5565b60405180910390f35b3480156101d657600080fd5b506101f160048036038101906101ec9190614b54565b6105c6565b005b3480156101ff57600080fd5b5061021a60048036038101906102159190614b54565b6105ef565b005b34801561022857600080fd5b50610243600480360381019061023e919061473b565b610672565b005b61025f600480360381019061025a919061492d565b610699565b005b34801561026d57600080fd5b50610288600480360381019061028391906147dc565b6106b2565b005b34801561029657600080fd5b506102b160048036038101906102ac9190614853565b610821565b005b3480156102bf57600080fd5b506102da60048036038101906102d591906147dc565b61088a565b005b3480156102e857600080fd5b506102f1610ac8565b6040516102fe91906150d7565b60405180910390f35b34801561031357600080fd5b5061031c610af3565b60405161032991906152c5565b60405180910390f35b34801561033e57600080fd5b5061035960048036038101906103549190614bb9565b610b17565b005b34801561036757600080fd5b50610370610b8b565b005b34801561037e57600080fd5b5061039960048036038101906103949190614981565b610ce8565b005b3480156103a757600080fd5b506103c260048036038101906103bd9190614b54565b610e8e565b6040516103cf91906152aa565b60405180910390f35b3480156103e457600080fd5b506103ff60048036038101906103fa919061473b565b610ef9565b005b34801561040d57600080fd5b5061041661161d565b60405161042391906152c5565b60405180910390f35b34801561043857600080fd5b50610453600480360381019061044e9190614b54565b611624565b005b61046f600480360381019061046a919061478d565b61164d565b005b34801561047d57600080fd5b50610498600480360381019061049391906148b6565b611874565b6040516104a6929190615273565b60405180910390f35b3480156104bb57600080fd5b506104c4611afb565b6040516104d191906152c5565b60405180910390f35b3480156104e657600080fd5b5061050160048036038101906104fc91906149bd565b611b1f565b005b34801561050f57600080fd5b5061052a60048036038101906105259190614a0c565b611c88565b005b60007f7965db0b000000000000000000000000000000000000000000000000000000007bffffffffffffffffffffffffffffffffffffffffffffffffffffffff1916827bffffffffffffffffffffffffffffffffffffffffffffffffffffffff1916148061059f575061059e82611cfc565b5b9050919050565b600060c96000838152602001908152602001600020600101549050919050565b6105cf826105a6565b6105e0816105db611d66565b611d6e565b6105ea8383611e0b565b505050565b6105f7611d66565b73ffffffffffffffffffffffffffffffffffffffff168173ffffffffffffffffffffffffffffffffffffffff1614610664576040517f08c379a000000000000000000000000000000000000000000000000000000000815260040161065b906154c2565b60405180910390fd5b61066e8282611eec565b5050565b61067b81611fce565b6106968160405180602001604052806000815250600061203a565b50565b6106a282611fce565b6106ae8282600161203a565b5050565b6106dc7f97667070c54ef182b0f5858b034beac1b6f3089aa2d3188bb1e8929f4fa9b92933610e8e565b61071b576040517f08c379a000000000000000000000000000000000000000000000000000000000815260040161071290615342565b60405180910390fd5b8161012d60009054906101000a900473ffffffffffffffffffffffffffffffffffffffff1673ffffffffffffffffffffffffffffffffffffffff1663c462b5208787856040518463ffffffff1660e01b815260040161077c9392919061511b565b60206040518083038186803b15801561079457600080fd5b505afa1580156107a8573d6000803e3d6000fd5b505050506040513d601f19601f820116820180604052508101906107cc9190614be2565b101561080d576040517f08c379a000000000000000000000000000000000000000000000000000000000815260040161080490615462565b60405180910390fd5b61081a858585858561224e565b5050505050565b600260fb541415610867576040517f08c379a000000000000000000000000000000000000000000000000000000000815260040161085e906154a2565b60405180910390fd5b600260fb8190555061087c338585858561291d565b600160fb8190555050505050565b848073ffffffffffffffffffffffffffffffffffffffff163373ffffffffffffffffffffffffffffffffffffffff16148061091e57506108ea7f97667070c54ef182b0f5858b034beac1b6f3089aa2d3188bb1e8929f4fa9b92933610e8e565b801561091d575061091b7fa49807205ce4d355092ef5a8a18f56e8913cf4a201fbe287825b095693c2177533610e8e565b155b5b61095d576040517f08c379a0000000000000000000000000000000000000000000000000000000008152600401610954906153a2565b60405180910390fd5b600260fb5414156109a3576040517f08c379a000000000000000000000000000000000000000000000000000000000815260040161099a906154a2565b60405180910390fd5b600260fb8190555061012d60009054906101000a900473ffffffffffffffffffffffffffffffffffffffff1673ffffffffffffffffffffffffffffffffffffffff1663c392f7666040518163ffffffff1660e01b815260040160206040518083038186803b158015610a1457600080fd5b505afa158015610a28573d6000803e3d6000fd5b505050506040513d601f19601f82011682018060405250810190610a4c9190614764565b73ffffffffffffffffffffffffffffffffffffffff16634342fef56040518163ffffffff1660e01b8152600401600060405180830381600087803b158015610a9357600080fd5b505af1158015610aa7573d6000803e3d6000fd5b50505050610ab8868686868661291d565b600160fb81905550505050505050565b600061012d60009054906101000a900473ffffffffffffffffffffffffffffffffffffffff16905090565b7fa49807205ce4d355092ef5a8a18f56e8913cf4a201fbe287825b095693c2177581565b610b417fa49807205ce4d355092ef5a8a18f56e8913cf4a201fbe287825b095693c2177533610e8e565b610b80576040517f08c379a0000000000000000000000000000000000000000000000000000000008152600401610b7790615482565b60405180910390fd5b806101318190555050565b600060019054906101000a900460ff1680610bb1575060008054906101000a900460ff16155b610bf0576040517f08c379a0000000000000000000000000000000000000000000000000000000008152600401610be7906153c2565b60405180910390fd5b60008060019054906101000a900460ff161590508015610c40576001600060016101000a81548160ff02191690831515021790555060016000806101000a81548160ff0219169083151502179055505b610c48612cd7565b610c50612dc8565b610c7a7fa49807205ce4d355092ef5a8a18f56e8913cf4a201fbe287825b095693c2177533612ea9565b610cc47f97667070c54ef182b0f5858b034beac1b6f3089aa2d3188bb1e8929f4fa9b9297fa49807205ce4d355092ef5a8a18f56e8913cf4a201fbe287825b095693c21775612eb7565b8015610ce55760008060016101000a81548160ff0219169083151502179055505b50565b600061012d60009054906101000a900473ffffffffffffffffffffffffffffffffffffffff1673ffffffffffffffffffffffffffffffffffffffff16639cfd96696040518163ffffffff1660e01b815260040160206040518083038186803b158015610d5357600080fd5b505afa158015610d67573d6000803e3d6000fd5b505050506040513d601f19601f82011682018060405250810190610d8b9190614764565b90508073ffffffffffffffffffffffffffffffffffffffff163373ffffffffffffffffffffffffffffffffffffffff1614610dfb576040517f08c379a0000000000000000000000000000000000000000000000000000000008152600401610df290615342565b60405180910390fd5b8273ffffffffffffffffffffffffffffffffffffffff1663a9059cbb82846040518363ffffffff1660e01b8152600401610e369291906151b2565b602060405180830381600087803b158015610e5057600080fd5b505af1158015610e64573d6000803e3d6000fd5b505050506040513d601f19601f82011682018060405250810190610e889190614b02565b50505050565b600060c9600084815260200190815260200160002060000160008373ffffffffffffffffffffffffffffffffffffffff1673ffffffffffffffffffffffffffffffffffffffff16815260200190815260200160002060009054906101000a900460ff16905092915050565b610f237fa49807205ce4d355092ef5a8a18f56e8913cf4a201fbe287825b095693c2177533610e8e565b610f62576040517f08c379a0000000000000000000000000000000000000000000000000000000008152600401610f5990615482565b60405180910390fd5b8061012d60006101000a81548173ffffffffffffffffffffffffffffffffffffffff021916908373ffffffffffffffffffffffffffffffffffffffff16021790555061012d60009054906101000a900473ffffffffffffffffffffffffffffffffffffffff1673ffffffffffffffffffffffffffffffffffffffff1663ad5c46486040518163ffffffff1660e01b815260040160206040518083038186803b15801561100d57600080fd5b505afa158015611021573d6000803e3d6000fd5b505050506040513d601f19601f820116820180604052508101906110459190614764565b61012f60006101000a81548173ffffffffffffffffffffffffffffffffffffffff021916908373ffffffffffffffffffffffffffffffffffffffff16021790555060006003905060008167ffffffffffffffff8111156110ce577f4e487b7100000000000000000000000000000000000000000000000000000000600052604160045260246000fd5b6040519080825280602002602001820160405280156110fc5781602001602082028036833780820191505090505b50905061012d60009054906101000a900473ffffffffffffffffffffffffffffffffffffffff1673ffffffffffffffffffffffffffffffffffffffff16635fe3b5676040518163ffffffff1660e01b815260040160206040518083038186803b15801561116857600080fd5b505afa15801561117c573d6000803e3d6000fd5b505050506040513d601f19601f820116820180604052508101906111a09190614764565b816000815181106111da577f4e487b7100000000000000000000000000000000000000000000000000000000600052603260045260246000fd5b602002602001019073ffffffffffffffffffffffffffffffffffffffff16908173ffffffffffffffffffffffffffffffffffffffff168152505061012d60009054906101000a900473ffffffffffffffffffffffffffffffffffffffff1673ffffffffffffffffffffffffffffffffffffffff166327ab02b96040518163ffffffff1660e01b815260040160206040518083038186803b15801561127d57600080fd5b505afa158015611291573d6000803e3d6000fd5b505050506040513d601f19601f820116820180604052508101906112b59190614764565b816001815181106112ef577f4e487b7100000000000000000000000000000000000000000000000000000000600052603260045260246000fd5b602002602001019073ffffffffffffffffffffffffffffffffffffffff16908173ffffffffffffffffffffffffffffffffffffffff168152505061012d60009054906101000a900473ffffffffffffffffffffffffffffffffffffffff1673ffffffffffffffffffffffffffffffffffffffff16634046ebae6040518163ffffffff1660e01b815260040160206040518083038186803b15801561139257600080fd5b505afa1580156113a6573d6000803e3d6000fd5b505050506040513d601f19601f820116820180604052508101906113ca9190614764565b81600281518110611404577f4e487b7100000000000000000000000000000000000000000000000000000000600052603260045260246000fd5b602002602001019073ffffffffffffffffffffffffffffffffffffffff16908173ffffffffffffffffffffffffffffffffffffffff168152505060005b82811015611535576114b37f97667070c54ef182b0f5858b034beac1b6f3089aa2d3188bb1e8929f4fa9b9298383815181106114a6577f4e487b7100000000000000000000000000000000000000000000000000000000600052603260045260246000fd5b6020026020010151610e8e565b611522576115217f97667070c54ef182b0f5858b034beac1b6f3089aa2d3188bb1e8929f4fa9b929838381518110611514577f4e487b7100000000000000000000000000000000000000000000000000000000600052603260045260246000fd5b60200260200101516105c6565b5b808061152d9061589c565b915050611441565b5061012d60009054906101000a900473ffffffffffffffffffffffffffffffffffffffff1673ffffffffffffffffffffffffffffffffffffffff1663eb0a8b916040518163ffffffff1660e01b815260040160206040518083038186803b15801561159f57600080fd5b505afa1580156115b3573d6000803e3d6000fd5b505050506040513d601f19601f820116820180604052508101906115d79190614764565b61012e60006101000a81548173ffffffffffffffffffffffffffffffffffffffff021916908373ffffffffffffffffffffffffffffffffffffffff160217905550505050565b6000801b81565b61162d826105a6565b61163e81611639611d66565b611d6e565b6116488383611eec565b505050565b600260fb541415611693576040517f08c379a000000000000000000000000000000000000000000000000000000000815260040161168a906154a2565b60405180910390fd5b600260fb8190555061012d60009054906101000a900473ffffffffffffffffffffffffffffffffffffffff1673ffffffffffffffffffffffffffffffffffffffff1663803c97b361012f60009054906101000a900473ffffffffffffffffffffffffffffffffffffffff166040518263ffffffff1660e01b815260040161171a91906150d7565b60206040518083038186803b15801561173257600080fd5b505afa158015611746573d6000803e3d6000fd5b505050506040513d601f19601f8201168201806040525081019061176a9190614b02565b6117a9576040517f08c379a00000000000000000000000000000000000000000000000000000000081526004016117a090615322565b60405180910390fd5b6117b38382612f0d565b61012f60009054906101000a900473ffffffffffffffffffffffffffffffffffffffff1673ffffffffffffffffffffffffffffffffffffffff1663d0e30db0346040518263ffffffff1660e01b81526004016000604051808303818588803b15801561181e57600080fd5b505af1158015611832573d6000803e3d6000fd5b505050505061186730843461012f60009054906101000a900473ffffffffffffffffffffffffffffffffffffffff168661301e565b600160fb81905550505050565b6060806118a17f97667070c54ef182b0f5858b034beac1b6f3089aa2d3188bb1e8929f4fa9b92933610e8e565b6118e0576040517f08c379a00000000000000000000000000000000000000000000000000000000081526004016118d790615342565b60405180910390fd5b600061012e60009054906101000a900473ffffffffffffffffffffffffffffffffffffffff1673ffffffffffffffffffffffffffffffffffffffff1663234ab3e28987896040518463ffffffff1660e01b815260040161194293929190615152565b60006040518083038186803b15801561195a57600080fd5b505afa15801561196e573d6000803e3d6000fd5b505050506040513d6000823e3d601f19601f820116820180604052508101906119979190614a83565b8093508194508295505050508380156119ae575080155b156119ee576040517f08c379a00000000000000000000000000000000000000000000000000000000081526004016119e5906153e2565b60405180910390fd5b60008351905060005b81811015611aee576000848281518110611a3a577f4e487b7100000000000000000000000000000000000000000000000000000000600052603260045260246000fd5b60200260200101511415611a4d57611adb565b611ada8a868381518110611a8a577f4e487b7100000000000000000000000000000000000000000000000000000000600052603260045260246000fd5b60200260200101518b878581518110611acc577f4e487b7100000000000000000000000000000000000000000000000000000000600052603260045260246000fd5b60200260200101518b61224e565b5b8080611ae69061589c565b9150506119f7565b5050509550959350505050565b7f97667070c54ef182b0f5858b034beac1b6f3089aa2d3188bb1e8929f4fa9b92981565b600260fb541415611b65576040517f08c379a0000000000000000000000000000000000000000000000000000000008152600401611b5c906154a2565b60405180910390fd5b600260fb8190555061012d60009054906101000a900473ffffffffffffffffffffffffffffffffffffffff1673ffffffffffffffffffffffffffffffffffffffff1663c392f7666040518163ffffffff1660e01b815260040160206040518083038186803b158015611bd657600080fd5b505afa158015611bea573d6000803e3d6000fd5b505050506040513d601f19601f82011682018060405250810190611c0e9190614764565b73ffffffffffffffffffffffffffffffffffffffff16634342fef56040518163ffffffff1660e01b8152600401600060405180830381600087803b158015611c5557600080fd5b505af1158015611c69573d6000803e3d6000fd5b50505050611c7b33600085858561291d565b600160fb81905550505050565b600260fb541415611cce576040517f08c379a0000000000000000000000000000000000000000000000000000000008152600401611cc5906154a2565b60405180910390fd5b600260fb81905550611ce08582612f0d565b611ced338686868661301e565b600160fb819055505050505050565b60007f01ffc9a7000000000000000000000000000000000000000000000000000000007bffffffffffffffffffffffffffffffffffffffffffffffffffffffff1916827bffffffffffffffffffffffffffffffffffffffffffffffffffffffff1916149050919050565b600033905090565b611d788282610e8e565b611e0757611d9d8173ffffffffffffffffffffffffffffffffffffffff1660146138fd565b611dab8360001c60206138fd565b604051602001611dbc92919061509d565b6040516020818303038152906040526040517f08c379a0000000000000000000000000000000000000000000000000000000008152600401611dfe91906152e0565b60405180910390fd5b5050565b611e158282610e8e565b611ee857600160c9600084815260200190815260200160002060000160008373ffffffffffffffffffffffffffffffffffffffff1673ffffffffffffffffffffffffffffffffffffffff16815260200190815260200160002060006101000a81548160ff021916908315150217905550611e8d611d66565b73ffffffffffffffffffffffffffffffffffffffff168173ffffffffffffffffffffffffffffffffffffffff16837f2f8788117e7eff1d82e926ec794901d17c78024a50270940304540a733656f0d60405160405180910390a45b5050565b611ef68282610e8e565b15611fca57600060c9600084815260200190815260200160002060000160008373ffffffffffffffffffffffffffffffffffffffff1673ffffffffffffffffffffffffffffffffffffffff16815260200190815260200160002060006101000a81548160ff021916908315150217905550611f6f611d66565b73ffffffffffffffffffffffffffffffffffffffff168173ffffffffffffffffffffffffffffffffffffffff16837ff6391f5c32d9c69d2a47ea670b442974b53935d1edc7fd64eb21e047a839171b60405160405180910390a45b5050565b611ff87fa49807205ce4d355092ef5a8a18f56e8913cf4a201fbe287825b095693c2177533610e8e565b612037576040517f08c379a000000000000000000000000000000000000000000000000000000000815260040161202e90615482565b60405180910390fd5b50565b6000612044613bf7565b905061204f84613c4e565b60008351118061205c5750815b1561206d5761206b8484613d07565b505b600061209b7f4910fdfa16fed3260ed0e7147f7cc6da11a60208b5b9406d12a635614ffd914360001b613deb565b90508060000160009054906101000a900460ff166122475760018160000160006101000a81548160ff02191690831515021790555061216785836040516024016120e591906150d7565b6040516020818303038152906040527f3659cfe6000000000000000000000000000000000000000000000000000000007bffffffffffffffffffffffffffffffffffffffffffffffffffffffff19166020820180517bffffffffffffffffffffffffffffffffffffffffffffffffffffffff8381831617835250505050613d07565b5060008160000160006101000a81548160ff02191690831515021790555061218d613bf7565b73ffffffffffffffffffffffffffffffffffffffff168273ffffffffffffffffffffffffffffffffffffffff16146121fa576040517f08c379a00000000000000000000000000000000000000000000000000000000081526004016121f190615382565b60405180910390fd5b61220385613c4e565b8473ffffffffffffffffffffffffffffffffffffffff167fbc7cd75a20ee27fd9adebab32041f755214dbc6bffa90cc0225b39da2e5c2d3b60405160405180910390a25b5050505050565b60008073ffffffffffffffffffffffffffffffffffffffff168573ffffffffffffffffffffffffffffffffffffffff1614905080156122ae5761012f60009054906101000a900473ffffffffffffffffffffffffffffffffffffffff1694505b60008573ffffffffffffffffffffffffffffffffffffffff166370a08231866040518263ffffffff1660e01b81526004016122e991906150d7565b60206040518083038186803b15801561230157600080fd5b505afa158015612315573d6000803e3d6000fd5b505050506040513d601f19601f820116820180604052508101906123399190614be2565b9050600061012d60009054906101000a900473ffffffffffffffffffffffffffffffffffffffff1673ffffffffffffffffffffffffffffffffffffffff1663ec94578e6040518163ffffffff1660e01b815260040160206040518083038186803b1580156123a657600080fd5b505afa1580156123ba573d6000803e3d6000fd5b505050506040513d601f19601f820116820180604052508101906123de9190614764565b905060008173ffffffffffffffffffffffffffffffffffffffff168773ffffffffffffffffffffffffffffffffffffffff16141561241d5760006124e5565b6124e46103e86124d661012d60009054906101000a900473ffffffffffffffffffffffffffffffffffffffff1673ffffffffffffffffffffffffffffffffffffffff166341e3f2816040518163ffffffff1660e01b815260040160206040518083038186803b15801561248f57600080fd5b505afa1580156124a3573d6000803e3d6000fd5b505050506040513d601f19601f820116820180604052508101906124c79190614be2565b89613df590919063ffffffff16565b613e0b90919063ffffffff16565b5b9050600081111561257f578773ffffffffffffffffffffffffffffffffffffffff1663a9059cbb83836040518363ffffffff1660e01b815260040161252b9291906151b2565b602060405180830381600087803b15801561254557600080fd5b505af1158015612559573d6000803e3d6000fd5b505050506040513d601f19601f8201168201806040525081019061257d9190614b02565b505b8361270b578773ffffffffffffffffffffffffffffffffffffffff1663a9059cbb886125b4848a613e2190919063ffffffff16565b6040518363ffffffff1660e01b81526004016125d19291906151b2565b602060405180830381600087803b1580156125eb57600080fd5b505af11580156125ff573d6000803e3d6000fd5b505050506040513d601f19601f820116820180604052508101906126239190614b02565b506126498161263b8886613e3790919063ffffffff16565b613e2190919063ffffffff16565b8873ffffffffffffffffffffffffffffffffffffffff166370a08231896040518263ffffffff1660e01b815260040161268291906150d7565b60206040518083038186803b15801561269a57600080fd5b505afa1580156126ae573d6000803e3d6000fd5b505050506040513d601f19601f820116820180604052508101906126d29190614be2565b14612706577f4e487b7100000000000000000000000000000000000000000000000000000000600052600160045260246000fd5b61286d565b61012f60009054906101000a900473ffffffffffffffffffffffffffffffffffffffff1673ffffffffffffffffffffffffffffffffffffffff16632e1a7d4d61275d8389613e2190919063ffffffff16565b6040518263ffffffff1660e01b815260040161277991906154e2565b600060405180830381600087803b15801561279357600080fd5b505af11580156127a7573d6000803e3d6000fd5b5050505060008773ffffffffffffffffffffffffffffffffffffffff166127d78389613e2190919063ffffffff16565b6040516127e390615088565b60006040518083038185875af1925050503d8060008114612820576040519150601f19603f3d011682016040523d82523d6000602084013e612825565b606091505b5050809150508061286b576040517f08c379a000000000000000000000000000000000000000000000000000000000815260040161286290615362565b60405180910390fd5b505b61012d60009054906101000a900473ffffffffffffffffffffffffffffffffffffffff1673ffffffffffffffffffffffffffffffffffffffff1663181e20a78a88888c60006040518663ffffffff1660e01b81526004016128d2959493929190615220565b600060405180830381600087803b1580156128ec57600080fd5b505af1158015612900573d6000803e3d6000fd5b5050505061291289868a896000613e4d565b505050505050505050565b60008073ffffffffffffffffffffffffffffffffffffffff168573ffffffffffffffffffffffffffffffffffffffff1614612958578461297d565b61012f60009054906101000a900473ffffffffffffffffffffffffffffffffffffffff165b9050600061012d60009054906101000a900473ffffffffffffffffffffffffffffffffffffffff1673ffffffffffffffffffffffffffffffffffffffff1663d02641a0836040518263ffffffff1660e01b81526004016129dd91906150d7565b60206040518083038186803b1580156129f557600080fd5b505afa158015612a09573d6000803e3d6000fd5b505050506040513d601f19601f82011682018060405250810190612a2d9190614be2565b90506000612bae82612ba061012e60009054906101000a900473ffffffffffffffffffffffffffffffffffffffff1673ffffffffffffffffffffffffffffffffffffffff166380ef72a9876040518263ffffffff1660e01b8152600401612a9491906150d7565b60206040518083038186803b158015612aac57600080fd5b505afa158015612ac0573d6000803e3d6000fd5b505050506040513d601f19601f82011682018060405250810190612ae49190614be2565b61012e60009054906101000a900473ffffffffffffffffffffffffffffffffffffffff1673ffffffffffffffffffffffffffffffffffffffff1663e76ab2398d8a6040518363ffffffff1660e01b8152600401612b429291906150f2565b60206040518083038186803b158015612b5a57600080fd5b505afa158015612b6e573d6000803e3d6000fd5b505050506040513d601f19601f82011682018060405250810190612b929190614be2565b613df590919063ffffffff16565b613e0b90919063ffffffff16565b9050600061012d60009054906101000a900473ffffffffffffffffffffffffffffffffffffffff1673ffffffffffffffffffffffffffffffffffffffff1663c462b5208a86886040518463ffffffff1660e01b8152600401612c129392919061511b565b60206040518083038186803b158015612c2a57600080fd5b505afa158015612c3e573d6000803e3d6000fd5b505050506040513d601f19601f82011682018060405250810190612c629190614be2565b905080821115612c70578091505b60008211612cb3576040517f08c379a0000000000000000000000000000000000000000000000000000000008152600401612caa90615462565b60405180910390fd5b81861115612cbf578195505b612ccc898989898961224e565b505050505050505050565b600060019054906101000a900460ff1680612cfd575060008054906101000a900460ff16155b612d3c576040517f08c379a0000000000000000000000000000000000000000000000000000000008152600401612d33906153c2565b60405180910390fd5b60008060019054906101000a900460ff161590508015612d8c576001600060016101000a81548160ff02191690831515021790555060016000806101000a81548160ff0219169083151502179055505b612d9461410f565b612d9c6141e8565b612da46142c1565b8015612dc55760008060016101000a81548160ff0219169083151502179055505b50565b600060019054906101000a900460ff1680612dee575060008054906101000a900460ff16155b612e2d576040517f08c379a0000000000000000000000000000000000000000000000000000000008152600401612e24906153c2565b60405180910390fd5b60008060019054906101000a900460ff161590508015612e7d576001600060016101000a81548160ff02191690831515021790555060016000806101000a81548160ff0219169083151502179055505b612e8561439a565b8015612ea65760008060016101000a81548160ff0219169083151502179055505b50565b612eb38282611e0b565b5050565b80612ec1836105a6565b837fbd79b86ffe0ab8e8776151514217cd7cacd52c909f66475c3af44e129f0b00ff60405160405180910390a48060c96000848152602001908152602001600020600101819055505050565b61012d60009054906101000a900473ffffffffffffffffffffffffffffffffffffffff1673ffffffffffffffffffffffffffffffffffffffff16631441a5a96040518163ffffffff1660e01b815260040160206040518083038186803b158015612f7657600080fd5b505afa158015612f8a573d6000803e3d6000fd5b505050506040513d601f19601f82011682018060405250810190612fae9190614764565b73ffffffffffffffffffffffffffffffffffffffff16637543e3f083836040518363ffffffff1660e01b8152600401612fe89291906150f2565b600060405180830381600087803b15801561300257600080fd5b505af1158015613016573d6000803e3d6000fd5b505050505050565b61012d60009054906101000a900473ffffffffffffffffffffffffffffffffffffffff1673ffffffffffffffffffffffffffffffffffffffff1663803c97b3836040518263ffffffff1660e01b815260040161307a91906150d7565b60206040518083038186803b15801561309257600080fd5b505afa1580156130a6573d6000803e3d6000fd5b505050506040513d601f19601f820116820180604052508101906130ca9190614b02565b613109576040517f08c379a000000000000000000000000000000000000000000000000000000000815260040161310090615322565b60405180910390fd5b3073ffffffffffffffffffffffffffffffffffffffff168573ffffffffffffffffffffffffffffffffffffffff161480156131cd5750828273ffffffffffffffffffffffffffffffffffffffff1663dd62ed3e30306040518363ffffffff1660e01b815260040161317b9291906150f2565b60206040518083038186803b15801561319357600080fd5b505afa1580156131a7573d6000803e3d6000fd5b505050506040513d601f19601f820116820180604052508101906131cb9190614be2565b105b15613281578173ffffffffffffffffffffffffffffffffffffffff1663095ea7b3307fffffffffffffffffffffffffffffffffffffffffffffffffffffffffffffffff6040518363ffffffff1660e01b815260040161322d929190615189565b602060405180830381600087803b15801561324757600080fd5b505af115801561325b573d6000803e3d6000fd5b505050506040513d601f19601f8201168201806040525081019061327f9190614b02565b505b600061341361340161012e60009054906101000a900473ffffffffffffffffffffffffffffffffffffffff1673ffffffffffffffffffffffffffffffffffffffff166380ef72a9866040518263ffffffff1660e01b81526004016132e591906150d7565b60206040518083038186803b1580156132fd57600080fd5b505afa158015613311573d6000803e3d6000fd5b505050506040513d601f19601f820116820180604052508101906133359190614be2565b6133f361012d60009054906101000a900473ffffffffffffffffffffffffffffffffffffffff1673ffffffffffffffffffffffffffffffffffffffff1663d02641a0886040518263ffffffff1660e01b815260040161339491906150d7565b60206040518083038186803b1580156133ac57600080fd5b505afa1580156133c0573d6000803e3d6000fd5b505050506040513d601f19601f820116820180604052508101906133e49190614be2565b88613df590919063ffffffff16565b613e0b90919063ffffffff16565b61013054613e3790919063ffffffff16565b9050600061013154148061342a5750610131548111155b613469576040517f08c379a0000000000000000000000000000000000000000000000000000000008152600401613460906153e2565b60405180910390fd5b806101308190555061012d60009054906101000a900473ffffffffffffffffffffffffffffffffffffffff1673ffffffffffffffffffffffffffffffffffffffff1663c392f7666040518163ffffffff1660e01b815260040160206040518083038186803b1580156134da57600080fd5b505afa1580156134ee573d6000803e3d6000fd5b505050506040513d601f19601f820116820180604052508101906135129190614764565b73ffffffffffffffffffffffffffffffffffffffff16634342fef56040518163ffffffff1660e01b8152600401600060405180830381600087803b15801561355957600080fd5b505af115801561356d573d6000803e3d6000fd5b50505050600061363a6103e861362c61012d60009054906101000a900473ffffffffffffffffffffffffffffffffffffffff1673ffffffffffffffffffffffffffffffffffffffff16639df5138a6040518163ffffffff1660e01b815260040160206040518083038186803b1580156135e557600080fd5b505afa1580156135f9573d6000803e3d6000fd5b505050506040513d601f19601f8201168201806040525081019061361d9190614be2565b88613df590919063ffffffff16565b613e0b90919063ffffffff16565b905061364f8186613e2190919063ffffffff16565b94508373ffffffffffffffffffffffffffffffffffffffff166323b872dd8830886040518463ffffffff1660e01b815260040161368e93929190615152565b602060405180830381600087803b1580156136a857600080fd5b505af11580156136bc573d6000803e3d6000fd5b505050506040513d601f19601f820116820180604052508101906136e09190614b02565b61371f576040517f08c379a000000000000000000000000000000000000000000000000000000000815260040161371690615422565b60405180910390fd5b61012d60009054906101000a900473ffffffffffffffffffffffffffffffffffffffff1673ffffffffffffffffffffffffffffffffffffffff1663181e20a78787868860016040518663ffffffff1660e01b8152600401613784959493929190615220565b600060405180830381600087803b15801561379e57600080fd5b505af11580156137b2573d6000803e3d6000fd5b505050508373ffffffffffffffffffffffffffffffffffffffff166323b872dd8861012d60009054906101000a900473ffffffffffffffffffffffffffffffffffffffff1673ffffffffffffffffffffffffffffffffffffffff1663ec94578e6040518163ffffffff1660e01b815260040160206040518083038186803b15801561383c57600080fd5b505afa158015613850573d6000803e3d6000fd5b505050506040513d601f19601f820116820180604052508101906138749190614764565b846040518463ffffffff1660e01b815260040161389393929190615152565b602060405180830381600087803b1580156138ad57600080fd5b505af11580156138c1573d6000803e3d6000fd5b505050506040513d601f19601f820116820180604052508101906138e59190614b02565b506138f4868486886001613e4d565b50505050505050565b60606000600283600261391091906156e1565b61391a919061565a565b67ffffffffffffffff811115613959577f4e487b7100000000000000000000000000000000000000000000000000000000600052604160045260246000fd5b6040519080825280601f01601f19166020018201604052801561398b5781602001600182028036833780820191505090505b5090507f3000000000000000000000000000000000000000000000000000000000000000816000815181106139e9577f4e487b7100000000000000000000000000000000000000000000000000000000600052603260045260246000fd5b60200101907effffffffffffffffffffffffffffffffffffffffffffffffffffffffffffff1916908160001a9053507f780000000000000000000000000000000000000000000000000000000000000081600181518110613a73577f4e487b7100000000000000000000000000000000000000000000000000000000600052603260045260246000fd5b60200101907effffffffffffffffffffffffffffffffffffffffffffffffffffffffffffff1916908160001a90535060006001846002613ab391906156e1565b613abd919061565a565b90505b6001811115613ba9577f3031323334353637383961626364656600000000000000000000000000000000600f861660108110613b25577f4e487b7100000000000000000000000000000000000000000000000000000000600052603260045260246000fd5b1a60f81b828281518110613b62577f4e487b7100000000000000000000000000000000000000000000000000000000600052603260045260246000fd5b60200101907effffffffffffffffffffffffffffffffffffffffffffffffffffffffffffff1916908160001a905350600485901c945080613ba290615841565b9050613ac0565b5060008414613bed576040517f08c379a0000000000000000000000000000000000000000000000000000000008152600401613be490615302565b60405180910390fd5b8091505092915050565b6000613c257f360894a13ba1a3210667c828492db98dca3e2076cc3735a920a3ca505d382bbc60001b61447b565b60000160009054906101000a900473ffffffffffffffffffffffffffffffffffffffff16905090565b613c5781614485565b613c96576040517f08c379a0000000000000000000000000000000000000000000000000000000008152600401613c8d90615402565b60405180910390fd5b80613cc37f360894a13ba1a3210667c828492db98dca3e2076cc3735a920a3ca505d382bbc60001b61447b565b60000160006101000a81548173ffffffffffffffffffffffffffffffffffffffff021916908373ffffffffffffffffffffffffffffffffffffffff16021790555050565b6060613d1283614485565b613d51576040517f08c379a0000000000000000000000000000000000000000000000000000000008152600401613d4890615442565b60405180910390fd5b6000808473ffffffffffffffffffffffffffffffffffffffff1684604051613d799190615071565b600060405180830381855af49150503d8060008114613db4576040519150601f19603f3d011682016040523d82523d6000602084013e613db9565b606091505b5091509150613de18282604051806060016040528060278152602001615d7160279139614498565b9250505092915050565b6000819050919050565b60008183613e0391906156e1565b905092915050565b60008183613e1991906156b0565b905092915050565b60008183613e2f919061573b565b905092915050565b60008183613e45919061565a565b905092915050565b600061012d60009054906101000a900473ffffffffffffffffffffffffffffffffffffffff1673ffffffffffffffffffffffffffffffffffffffff166301964f366040518163ffffffff1660e01b815260040160206040518083038186803b158015613eb857600080fd5b505afa158015613ecc573d6000803e3d6000fd5b505050506040513d601f19601f82011682018060405250810190613ef09190614be2565b90506000811415613f015750614108565b613f2e670de0b6b3a7640000613f208386613df590919063ffffffff16565b613e0b90919063ffffffff16565b9250600061012d60009054906101000a900473ffffffffffffffffffffffffffffffffffffffff1673ffffffffffffffffffffffffffffffffffffffff16639cfd96696040518163ffffffff1660e01b815260040160206040518083038186803b158015613f9b57600080fd5b505afa158015613faf573d6000803e3d6000fd5b505050506040513d601f19601f82011682018060405250810190613fd39190614764565b90508215614072578073ffffffffffffffffffffffffffffffffffffffff16634a0e780e888689896040518563ffffffff1660e01b815260040161401a94939291906151db565b602060405180830381600087803b15801561403457600080fd5b505af1158015614048573d6000803e3d6000fd5b505050506040513d601f19601f8201168201806040525081019061406c9190614be2565b50614105565b8073ffffffffffffffffffffffffffffffffffffffff16635aa347c7888689896040518563ffffffff1660e01b81526004016140b194939291906151db565b602060405180830381600087803b1580156140cb57600080fd5b505af11580156140df573d6000803e3d6000fd5b505050506040513d601f19601f820116820180604052508101906141039190614be2565b505b50505b5050505050565b600060019054906101000a900460ff1680614135575060008054906101000a900460ff16155b614174576040517f08c379a000000000000000000000000000000000000000000000000000000000815260040161416b906153c2565b60405180910390fd5b60008060019054906101000a900460ff1615905080156141c4576001600060016101000a81548160ff02191690831515021790555060016000806101000a81548160ff0219169083151502179055505b80156141e55760008060016101000a81548160ff0219169083151502179055505b50565b600060019054906101000a900460ff168061420e575060008054906101000a900460ff16155b61424d576040517f08c379a0000000000000000000000000000000000000000000000000000000008152600401614244906153c2565b60405180910390fd5b60008060019054906101000a900460ff16159050801561429d576001600060016101000a81548160ff02191690831515021790555060016000806101000a81548160ff0219169083151502179055505b80156142be5760008060016101000a81548160ff0219169083151502179055505b50565b600060019054906101000a900460ff16806142e7575060008054906101000a900460ff16155b614326576040517f08c379a000000000000000000000000000000000000000000000000000000000815260040161431d906153c2565b60405180910390fd5b60008060019054906101000a900460ff161590508015614376576001600060016101000a81548160ff02191690831515021790555060016000806101000a81548160ff0219169083151502179055505b80156143975760008060016101000a81548160ff0219169083151502179055505b50565b600060019054906101000a900460ff16806143c0575060008054906101000a900460ff16155b6143ff576040517f08c379a00000000000000000000000000000000000000000000000000000000081526004016143f6906153c2565b60405180910390fd5b60008060019054906101000a900460ff16159050801561444f576001600060016101000a81548160ff02191690831515021790555060016000806101000a81548160ff0219169083151502179055505b600160fb8190555080156144785760008060016101000a81548160ff0219169083151502179055505b50565b6000819050919050565b600080823b905060008111915050919050565b606083156144a8578290506144f8565b6000835111156144bb5782518084602001fd5b816040517f08c379a00000000000000000000000000000000000000000000000000000000081526004016144ef91906152e0565b60405180910390fd5b9392505050565b600061451261450d84615522565b6154fd565b9050808382526020820190508285602086028201111561453157600080fd5b60005b858110156145615781614547888261462a565b845260208401935060208301925050600181019050614534565b5050509392505050565b600061457e6145798461554e565b6154fd565b9050808382526020820190508285602086028201111561459d57600080fd5b60005b858110156145cd57816145b38882614726565b8452602084019350602083019250506001810190506145a0565b5050509392505050565b60006145ea6145e58461557a565b6154fd565b90508281526020810184848401111561460257600080fd5b61460d8482856157ff565b509392505050565b60008135905061462481615cfd565b92915050565b60008151905061463981615cfd565b92915050565b600082601f83011261465057600080fd5b81516146608482602086016144ff565b91505092915050565b600082601f83011261467a57600080fd5b815161468a84826020860161456b565b91505092915050565b6000813590506146a281615d14565b92915050565b6000815190506146b781615d14565b92915050565b6000813590506146cc81615d2b565b92915050565b6000813590506146e181615d42565b92915050565b600082601f8301126146f857600080fd5b81356147088482602086016145d7565b91505092915050565b60008135905061472081615d59565b92915050565b60008151905061473581615d59565b92915050565b60006020828403121561474d57600080fd5b600061475b84828501614615565b91505092915050565b60006020828403121561477657600080fd5b60006147848482850161462a565b91505092915050565b6000806000606084860312156147a257600080fd5b60006147b086828701614615565b93505060206147c186828701614615565b92505060406147d286828701614615565b9150509250925092565b600080600080600060a086880312156147f457600080fd5b600061480288828901614615565b955050602061481388828901614615565b945050604061482488828901614615565b935050606061483588828901614711565b925050608061484688828901614615565b9150509295509295909350565b6000806000806080858703121561486957600080fd5b600061487787828801614615565b945050602061488887828801614615565b935050604061489987828801614711565b92505060606148aa87828801614615565b91505092959194509250565b600080600080600060a086880312156148ce57600080fd5b60006148dc88828901614615565b95505060206148ed88828901614615565b94505060406148fe88828901614711565b935050606061490f88828901614615565b925050608061492088828901614693565b9150509295509295909350565b6000806040838503121561494057600080fd5b600061494e85828601614615565b925050602083013567ffffffffffffffff81111561496b57600080fd5b614977858286016146e7565b9150509250929050565b6000806040838503121561499457600080fd5b60006149a285828601614615565b92505060206149b385828601614711565b9150509250929050565b6000806000606084860312156149d257600080fd5b60006149e086828701614615565b93505060206149f186828701614711565b9250506040614a0286828701614615565b9150509250925092565b600080600080600060a08688031215614a2457600080fd5b6000614a3288828901614615565b9550506020614a4388828901614711565b9450506040614a5488828901614615565b9350506060614a6588828901614615565b9250506080614a7688828901614615565b9150509295509295909350565b600080600060608486031215614a9857600080fd5b600084015167ffffffffffffffff811115614ab257600080fd5b614abe8682870161463f565b935050602084015167ffffffffffffffff811115614adb57600080fd5b614ae786828701614669565b9250506040614af8868287016146a8565b9150509250925092565b600060208284031215614b1457600080fd5b6000614b22848285016146a8565b91505092915050565b600060208284031215614b3d57600080fd5b6000614b4b848285016146bd565b91505092915050565b60008060408385031215614b6757600080fd5b6000614b75858286016146bd565b9250506020614b8685828601614615565b9150509250929050565b600060208284031215614ba257600080fd5b6000614bb0848285016146d2565b91505092915050565b600060208284031215614bcb57600080fd5b6000614bd984828501614711565b91505092915050565b600060208284031215614bf457600080fd5b6000614c0284828501614726565b91505092915050565b6000614c178383614c3b565b60208301905092915050565b6000614c2f8383615053565b60208301905092915050565b614c448161576f565b82525050565b614c538161576f565b82525050565b6000614c64826155cb565b614c6e8185615611565b9350614c79836155ab565b8060005b83811015614caa578151614c918882614c0b565b9750614c9c836155f7565b925050600181019050614c7d565b5085935050505092915050565b6000614cc2826155d6565b614ccc8185615622565b9350614cd7836155bb565b8060005b83811015614d08578151614cef8882614c23565b9750614cfa83615604565b925050600181019050614cdb565b5085935050505092915050565b614d1e81615781565b82525050565b614d2d8161578d565b82525050565b6000614d3e826155e1565b614d488185615633565b9350614d5881856020860161580e565b80840191505092915050565b614d6d816157ed565b82525050565b6000614d7e826155ec565b614d88818561563e565b9350614d9881856020860161580e565b614da181615972565b840191505092915050565b6000614db7826155ec565b614dc1818561564f565b9350614dd181856020860161580e565b80840191505092915050565b6000614dea60208361563e565b9150614df582615983565b602082019050919050565b6000614e0d60028361563e565b9150614e18826159ac565b602082019050919050565b6000614e3060028361563e565b9150614e3b826159d5565b602082019050919050565b6000614e5360028361563e565b9150614e5e826159fe565b602082019050919050565b6000614e76602f8361563e565b9150614e8182615a27565b604082019050919050565b6000614e9960028361563e565b9150614ea482615a76565b602082019050919050565b6000614ebc602e8361563e565b9150614ec782615a9f565b604082019050919050565b6000614edf60028361563e565b9150614eea82615aee565b602082019050919050565b6000614f02602d8361563e565b9150614f0d82615b17565b604082019050919050565b6000614f2560028361563e565b9150614f3082615b66565b602082019050919050565b6000614f4860268361563e565b9150614f5382615b8f565b604082019050919050565b6000614f6b60028361563e565b9150614f7682615bde565b602082019050919050565b6000614f8e600083615633565b9150614f9982615c07565b600082019050919050565b6000614fb160028361563e565b9150614fbc82615c0a565b602082019050919050565b6000614fd460178361564f565b9150614fdf82615c33565b601782019050919050565b6000614ff7601f8361563e565b915061500282615c5c565b602082019050919050565b600061501a60118361564f565b915061502582615c85565b601182019050919050565b600061503d602f8361563e565b915061504882615cae565b604082019050919050565b61505c816157e3565b82525050565b61506b816157e3565b82525050565b600061507d8284614d33565b915081905092915050565b600061509382614f81565b9150819050919050565b60006150a882614fc7565b91506150b48285614dac565b91506150bf8261500d565b91506150cb8284614dac565b91508190509392505050565b60006020820190506150ec6000830184614c4a565b92915050565b60006040820190506151076000830185614c4a565b6151146020830184614c4a565b9392505050565b60006060820190506151306000830186614c4a565b61513d6020830185614c4a565b61514a6040830184614c4a565b949350505050565b60006060820190506151676000830186614c4a565b6151746020830185614c4a565b6151816040830184615062565b949350505050565b600060408201905061519e6000830185614c4a565b6151ab6020830184614d64565b9392505050565b60006040820190506151c76000830185614c4a565b6151d46020830184615062565b9392505050565b60006080820190506151f06000830187614c4a565b6151fd6020830186615062565b61520a6040830185614c4a565b6152176060830184614c4a565b95945050505050565b600060a0820190506152356000830188614c4a565b6152426020830187615062565b61524f6040830186614c4a565b61525c6060830185614c4a565b6152696080830184614d15565b9695505050505050565b6000604082019050818103600083015261528d8185614c59565b905081810360208301526152a18184614cb7565b90509392505050565b60006020820190506152bf6000830184614d15565b92915050565b60006020820190506152da6000830184614d24565b92915050565b600060208201905081810360008301526152fa8184614d73565b905092915050565b6000602082019050818103600083015261531b81614ddd565b9050919050565b6000602082019050818103600083015261533b81614e00565b9050919050565b6000602082019050818103600083015261535b81614e23565b9050919050565b6000602082019050818103600083015261537b81614e46565b9050919050565b6000602082019050818103600083015261539b81614e69565b9050919050565b600060208201905081810360008301526153bb81614e8c565b9050919050565b600060208201905081810360008301526153db81614eaf565b9050919050565b600060208201905081810360008301526153fb81614ed2565b9050919050565b6000602082019050818103600083015261541b81614ef5565b9050919050565b6000602082019050818103600083015261543b81614f18565b9050919050565b6000602082019050818103600083015261545b81614f3b565b9050919050565b6000602082019050818103600083015261547b81614f5e565b9050919050565b6000602082019050818103600083015261549b81614fa4565b9050919050565b600060208201905081810360008301526154bb81614fea565b9050919050565b600060208201905081810360008301526154db81615030565b9050919050565b60006020820190506154f76000830184615062565b92915050565b6000615507615518565b9050615513828261586b565b919050565b6000604051905090565b600067ffffffffffffffff82111561553d5761553c615943565b5b602082029050602081019050919050565b600067ffffffffffffffff82111561556957615568615943565b5b602082029050602081019050919050565b600067ffffffffffffffff82111561559557615594615943565b5b61559e82615972565b9050602081019050919050565b6000819050602082019050919050565b6000819050602082019050919050565b600081519050919050565b600081519050919050565b600081519050919050565b600081519050919050565b6000602082019050919050565b6000602082019050919050565b600082825260208201905092915050565b600082825260208201905092915050565b600081905092915050565b600082825260208201905092915050565b600081905092915050565b6000615665826157e3565b9150615670836157e3565b9250827fffffffffffffffffffffffffffffffffffffffffffffffffffffffffffffffff038211156156a5576156a46158e5565b5b828201905092915050565b60006156bb826157e3565b91506156c6836157e3565b9250826156d6576156d5615914565b5b828204905092915050565b60006156ec826157e3565b91506156f7836157e3565b9250817fffffffffffffffffffffffffffffffffffffffffffffffffffffffffffffffff04831182151516156157305761572f6158e5565b5b828202905092915050565b6000615746826157e3565b9150615751836157e3565b925082821015615764576157636158e5565b5b828203905092915050565b600061577a826157c3565b9050919050565b60008115159050919050565b6000819050919050565b60007fffffffff0000000000000000000000000000000000000000000000000000000082169050919050565b600073ffffffffffffffffffffffffffffffffffffffff82169050919050565b6000819050919050565b60006157f8826157e3565b9050919050565b82818337600083830152505050565b60005b8381101561582c578082015181840152602081019050615811565b8381111561583b576000848401525b50505050565b600061584c826157e3565b915060008214156158605761585f6158e5565b5b600182039050919050565b61587482615972565b810181811067ffffffffffffffff8211171561589357615892615943565b5b80604052505050565b60006158a7826157e3565b91507fffffffffffffffffffffffffffffffffffffffffffffffffffffffffffffffff8214156158da576158d96158e5565b5b600182019050919050565b7f4e487b7100000000000000000000000000000000000000000000000000000000600052601160045260246000fd5b7f4e487b7100000000000000000000000000000000000000000000000000000000600052601260045260246000fd5b7f4e487b7100000000000000000000000000000000000000000000000000000000600052604160045260246000fd5b6000601f19601f8301169050919050565b7f537472696e67733a20686578206c656e67746820696e73756666696369656e74600082015250565b7f4943000000000000000000000000000000000000000000000000000000000000600082015250565b7f4e4f000000000000000000000000000000000000000000000000000000000000600082015250565b7f4650000000000000000000000000000000000000000000000000000000000000600082015250565b7f45524331393637557067726164653a207570677261646520627265616b73206660008201527f7572746865722075706772616465730000000000000000000000000000000000602082015250565b7f4e57000000000000000000000000000000000000000000000000000000000000600082015250565b7f496e697469616c697a61626c653a20636f6e747261637420697320616c72656160008201527f647920696e697469616c697a6564000000000000000000000000000000000000602082015250565b7f4941000000000000000000000000000000000000000000000000000000000000600082015250565b7f455243313936373a206e657720696d706c656d656e746174696f6e206973206e60008201527f6f74206120636f6e747261637400000000000000000000000000000000000000602082015250565b7f4654000000000000000000000000000000000000000000000000000000000000600082015250565b7f416464726573733a2064656c65676174652063616c6c20746f206e6f6e2d636f60008201527f6e74726163740000000000000000000000000000000000000000000000000000602082015250565b7f4341000000000000000000000000000000000000000000000000000000000000600082015250565b50565b7f4e41000000000000000000000000000000000000000000000000000000000000600082015250565b7f416363657373436f6e74726f6c3a206163636f756e7420000000000000000000600082015250565b7f5265656e7472616e637947756172643a207265656e7472616e742063616c6c00600082015250565b7f206973206d697373696e6720726f6c6520000000000000000000000000000000600082015250565b7f416363657373436f6e74726f6c3a2063616e206f6e6c792072656e6f756e636560008201527f20726f6c657320666f722073656c660000000000000000000000000000000000602082015250565b615d068161576f565b8114615d1157600080fd5b50565b615d1d81615781565b8114615d2857600080fd5b50565b615d348161578d565b8114615d3f57600080fd5b50565b615d4b81615797565b8114615d5657600080fd5b50565b615d62816157e3565b8114615d6d57600080fd5b5056fe416464726573733a206c6f772d6c6576656c2064656c65676174652063616c6c206661696c6564a2646970667358221220ee36ad3042ea7d85f374d3df25fb283b3f9db86c8d990180eaf43af0f31fb13864736f6c63430008030033",
  "linkReferences": {},
  "deployedLinkReferences": {}
}