{
  "_format": "hh-sol-artifact-1",
  "contractName": "VaultLibrary",
  "sourceName": "contracts/Bank/VaultLibrary.sol",
  "abi": [
    {
      "anonymous": false,
      "inputs": [
        {
          "indexed": false,
          "internalType": "address",
          "name": "previousAdmin",
          "type": "address"
        },
        {
          "indexed": false,
          "internalType": "address",
          "name": "newAdmin",
          "type": "address"
        }
      ],
      "name": "AdminChanged",
      "type": "event"
    },
    {
      "anonymous": false,
      "inputs": [
        {
          "indexed": true,
          "internalType": "address",
          "name": "beacon",
          "type": "address"
        }
      ],
      "name": "BeaconUpgraded",
      "type": "event"
    },
    {
      "anonymous": false,
      "inputs": [
        {
          "indexed": true,
          "internalType": "address",
          "name": "previousOwner",
          "type": "address"
        },
        {
          "indexed": true,
          "internalType": "address",
          "name": "newOwner",
          "type": "address"
        }
      ],
      "name": "OwnershipTransferred",
      "type": "event"
    },
    {
      "anonymous": false,
      "inputs": [
        {
          "indexed": true,
          "internalType": "address",
          "name": "implementation",
          "type": "address"
        }
      ],
      "name": "Upgraded",
      "type": "event"
    },
    {
      "inputs": [
        {
          "internalType": "address",
          "name": "account",
          "type": "address"
        },
        {
          "internalType": "address",
          "name": "fxToken",
          "type": "address"
        }
      ],
      "name": "calculateInterest",
      "outputs": [
        {
          "internalType": "uint256",
          "name": "",
          "type": "uint256"
        }
      ],
      "stateMutability": "view",
      "type": "function"
    },
    {
      "inputs": [
        {
          "internalType": "address",
          "name": "account",
          "type": "address"
        },
        {
          "internalType": "address",
          "name": "fxToken",
          "type": "address"
        },
        {
          "internalType": "address",
          "name": "collateralToken",
          "type": "address"
        },
        {
          "internalType": "uint256",
          "name": "collateralAmount",
          "type": "uint256"
        },
        {
          "internalType": "uint256",
          "name": "tokenAmount",
          "type": "uint256"
        },
        {
          "internalType": "uint256",
          "name": "fxQuote",
          "type": "uint256"
        },
        {
          "internalType": "uint256",
          "name": "collateralQuote",
          "type": "uint256"
        }
      ],
      "name": "canMint",
      "outputs": [
        {
          "internalType": "bool",
          "name": "",
          "type": "bool"
        }
      ],
      "stateMutability": "view",
      "type": "function"
    },
    {
      "inputs": [
        {
          "internalType": "address",
          "name": "account",
          "type": "address"
        },
        {
          "internalType": "address",
          "name": "fxToken",
          "type": "address"
        }
      ],
      "name": "doesMeetRatio",
      "outputs": [
        {
          "internalType": "bool",
          "name": "",
          "type": "bool"
        }
      ],
      "stateMutability": "view",
      "type": "function"
    },
    {
      "inputs": [
        {
          "internalType": "address",
          "name": "account",
          "type": "address"
        },
        {
          "internalType": "address",
          "name": "fxToken",
          "type": "address"
        },
        {
          "internalType": "uint256",
          "name": "amountEth",
          "type": "uint256"
        }
      ],
      "name": "getCollateralForAmount",
      "outputs": [
        {
          "internalType": "address[]",
          "name": "collateralTypes",
          "type": "address[]"
        },
        {
          "internalType": "uint256[]",
          "name": "collateralAmounts",
          "type": "uint256[]"
        },
        {
          "internalType": "bool",
          "name": "metAmount",
          "type": "bool"
        }
      ],
      "stateMutability": "view",
      "type": "function"
    },
    {
      "inputs": [
        {
          "internalType": "address",
          "name": "account",
          "type": "address"
        },
        {
          "internalType": "address",
          "name": "fxToken",
          "type": "address"
        }
      ],
      "name": "getCollateralShares",
      "outputs": [
        {
          "internalType": "uint256[]",
          "name": "shares",
          "type": "uint256[]"
        }
      ],
      "stateMutability": "view",
      "type": "function"
    },
    {
      "inputs": [],
      "name": "getCollateralTypesSortedByLiquidationRank",
      "outputs": [
        {
          "internalType": "address[]",
          "name": "sortedCollateralTypes",
          "type": "address[]"
        }
      ],
      "stateMutability": "view",
      "type": "function"
    },
    {
      "inputs": [
        {
          "internalType": "address",
          "name": "account",
          "type": "address"
        },
        {
          "internalType": "address",
          "name": "fxToken",
          "type": "address"
        }
      ],
      "name": "getCurrentRatio",
      "outputs": [
        {
          "internalType": "uint256",
          "name": "ratio",
          "type": "uint256"
        }
      ],
      "stateMutability": "view",
      "type": "function"
    },
    {
      "inputs": [
        {
          "internalType": "address",
          "name": "account",
          "type": "address"
        },
        {
          "internalType": "address",
          "name": "fxToken",
          "type": "address"
        }
      ],
      "name": "getDebtAsEth",
      "outputs": [
        {
          "internalType": "uint256",
          "name": "debt",
          "type": "uint256"
        }
      ],
      "stateMutability": "view",
      "type": "function"
    },
    {
      "inputs": [
        {
          "internalType": "uint256",
          "name": "amount",
          "type": "uint256"
        },
        {
          "internalType": "uint8",
          "name": "fromDecimals",
          "type": "uint8"
        },
        {
          "internalType": "uint8",
          "name": "toDecimals",
          "type": "uint8"
        }
      ],
      "name": "getDecimalsAmount",
      "outputs": [
        {
          "internalType": "uint256",
          "name": "",
          "type": "uint256"
        }
      ],
      "stateMutability": "pure",
      "type": "function"
    },
    {
      "inputs": [
        {
          "internalType": "address",
          "name": "account",
          "type": "address"
        },
        {
          "internalType": "address",
          "name": "fxToken",
          "type": "address"
        }
      ],
      "name": "getFreeCollateralAsEth",
      "outputs": [
        {
          "internalType": "uint256",
          "name": "",
          "type": "uint256"
        }
      ],
      "stateMutability": "view",
      "type": "function"
    },
    {
      "inputs": [
        {
          "internalType": "address",
          "name": "account",
          "type": "address"
        },
        {
          "internalType": "address",
          "name": "fxToken",
          "type": "address"
        },
        {
          "internalType": "uint256",
          "name": "minimumRatio",
          "type": "uint256"
        }
      ],
      "name": "getFreeCollateralAsEthFromMinimumRatio",
      "outputs": [
        {
          "internalType": "uint256",
          "name": "",
          "type": "uint256"
        }
      ],
      "stateMutability": "view",
      "type": "function"
    },
    {
      "inputs": [
        {
          "internalType": "address",
          "name": "account",
          "type": "address"
        },
        {
          "internalType": "address",
          "name": "fxToken",
          "type": "address"
        }
      ],
      "name": "getInterestDeltaR",
      "outputs": [
        {
          "internalType": "uint256",
          "name": "dR",
          "type": "uint256"
        }
      ],
      "stateMutability": "view",
      "type": "function"
    },
    {
      "inputs": [
        {
          "internalType": "address",
          "name": "account",
          "type": "address"
        },
        {
          "internalType": "address",
          "name": "fxToken",
          "type": "address"
        }
      ],
      "name": "getInterestRate",
      "outputs": [
        {
          "internalType": "uint256",
          "name": "rate",
          "type": "uint256"
        }
      ],
      "stateMutability": "view",
      "type": "function"
    },
    {
      "inputs": [
        {
          "internalType": "address",
          "name": "account",
          "type": "address"
        },
        {
          "internalType": "address",
          "name": "fxToken",
          "type": "address"
        }
      ],
      "name": "getLiquidationFee",
      "outputs": [
        {
          "internalType": "uint256",
          "name": "fee",
          "type": "uint256"
        }
      ],
      "stateMutability": "view",
      "type": "function"
    },
    {
      "inputs": [
        {
          "internalType": "uint256",
          "name": "tokenAmount",
          "type": "uint256"
        },
        {
          "internalType": "uint256",
          "name": "ratio",
          "type": "uint256"
        },
        {
          "internalType": "uint256",
          "name": "unitPrice",
          "type": "uint256"
        }
      ],
      "name": "getMinimumCollateral",
      "outputs": [
        {
          "internalType": "uint256",
          "name": "minimum",
          "type": "uint256"
        }
      ],
      "stateMutability": "pure",
      "type": "function"
    },
    {
      "inputs": [
        {
          "internalType": "address",
          "name": "account",
          "type": "address"
        },
        {
          "internalType": "address",
          "name": "fxToken",
          "type": "address"
        }
      ],
      "name": "getMinimumRatio",
      "outputs": [
        {
          "internalType": "uint256",
          "name": "ratio",
          "type": "uint256"
        }
      ],
      "stateMutability": "view",
      "type": "function"
    },
    {
      "inputs": [
        {
          "internalType": "address",
          "name": "account",
          "type": "address"
        },
        {
          "internalType": "address",
          "name": "fxToken",
          "type": "address"
        },
        {
          "internalType": "address",
          "name": "collateralToken",
          "type": "address"
        },
        {
          "internalType": "uint256",
          "name": "collateralAmount",
          "type": "uint256"
        },
        {
          "internalType": "uint256",
          "name": "collateralQuote",
          "type": "uint256"
        },
        {
          "internalType": "bool",
          "name": "isDeposit",
          "type": "bool"
        }
      ],
      "name": "getNewMinimumRatio",
      "outputs": [
        {
          "internalType": "uint256",
          "name": "ratio",
          "type": "uint256"
        },
        {
          "internalType": "uint256",
          "name": "newCollateralAsEther",
          "type": "uint256"
        }
      ],
      "stateMutability": "view",
      "type": "function"
    },
    {
      "inputs": [
        {
          "internalType": "address",
          "name": "token",
          "type": "address"
        }
      ],
      "name": "getTokenUnit",
      "outputs": [
        {
          "internalType": "uint256",
          "name": "",
          "type": "uint256"
        }
      ],
      "stateMutability": "view",
      "type": "function"
    },
    {
      "inputs": [
        {
          "internalType": "address",
          "name": "account",
          "type": "address"
        },
        {
          "internalType": "address",
          "name": "fxToken",
          "type": "address"
        }
      ],
      "name": "getTotalCollateralBalanceAsEth",
      "outputs": [
        {
          "internalType": "uint256",
          "name": "balance",
          "type": "uint256"
        }
      ],
      "stateMutability": "view",
      "type": "function"
    },
    {
      "inputs": [],
      "name": "handleAddress",
      "outputs": [
        {
          "internalType": "address",
          "name": "",
          "type": "address"
        }
      ],
      "stateMutability": "view",
      "type": "function"
    },
    {
      "inputs": [],
      "name": "initialize",
      "outputs": [],
      "stateMutability": "nonpayable",
      "type": "function"
    },
    {
      "inputs": [],
      "name": "owner",
      "outputs": [
        {
          "internalType": "address",
          "name": "",
          "type": "address"
        }
      ],
      "stateMutability": "view",
      "type": "function"
    },
    {
      "inputs": [
        {
          "internalType": "uint256[]",
          "name": "array",
          "type": "uint256[]"
        },
        {
          "internalType": "int256",
          "name": "left",
          "type": "int256"
        },
        {
          "internalType": "int256",
          "name": "right",
          "type": "int256"
        }
      ],
      "name": "quickSort",
      "outputs": [],
      "stateMutability": "pure",
      "type": "function"
    },
    {
      "inputs": [],
      "name": "renounceOwnership",
      "outputs": [],
      "stateMutability": "nonpayable",
      "type": "function"
    },
    {
      "inputs": [
        {
          "internalType": "address",
          "name": "_handle",
          "type": "address"
        }
      ],
      "name": "setHandleContract",
      "outputs": [],
      "stateMutability": "nonpayable",
      "type": "function"
    },
    {
      "inputs": [
        {
          "internalType": "address",
          "name": "newOwner",
          "type": "address"
        }
      ],
      "name": "transferOwnership",
      "outputs": [],
      "stateMutability": "nonpayable",
      "type": "function"
    },
    {
      "inputs": [
        {
          "internalType": "address",
          "name": "newImplementation",
          "type": "address"
        }
      ],
      "name": "upgradeTo",
      "outputs": [],
      "stateMutability": "nonpayable",
      "type": "function"
    },
    {
      "inputs": [
        {
          "internalType": "address",
          "name": "newImplementation",
          "type": "address"
        },
        {
          "internalType": "bytes",
          "name": "data",
          "type": "bytes"
        }
      ],
      "name": "upgradeToAndCall",
      "outputs": [],
      "stateMutability": "payable",
      "type": "function"
    }
  ],
  "bytecode": "0x608060405234801561001057600080fd5b506158d280620000216000396000f3fe6080604052600436106101b75760003560e01c806387092940116100ec578063c4d7b8b81161008a578063e279962311610064578063e279962314610698578063e76ab239146106d5578063f2fde38b14610712578063f37cd50d1461073b576101b7565b8063c4d7b8b8146105f3578063cad576311461061e578063db3fabeb1461065b576101b7565b80639e718d07116100c65780639e718d07146104fe578063bbbc1cef1461053b578063bc0c63db14610578578063bcbe3f22146105b6576101b7565b8063870929401461046d5780638da5cb5b146104aa5780639b1c414f146104d5576101b7565b80635a763fbb11610159578063715018a611610133578063715018a6146103d757806374bf578b146103ee57806380ef72a9146104195780638129fc1c14610456576101b7565b80635a763fbb1461032057806364d321b71461035d5780636cba66ce1461039a576101b7565b80633659cfe6116101955780633659cfe61461026157806349cf9cce1461028a5780634c90f229146102c75780634f1ef28614610304576101b7565b80630a06fc3c146101bc57806312ffb678146101e5578063234ab3e214610222575b600080fd5b3480156101c857600080fd5b506101e360048036038101906101de91906146dd565b610778565b005b3480156101f157600080fd5b5061020c6004803603810190610207919061442a565b610a1e565b6040516102199190614d2b565b60405180910390f35b34801561022e57600080fd5b506102496004803603810190610244919061458d565b610c73565b60405161025893929190614ba7565b60405180910390f35b34801561026d57600080fd5b50610288600480360381019061028391906143af565b611177565b005b34801561029657600080fd5b506102b160048036038101906102ac919061442a565b61119e565b6040516102be9190614bec565b60405180910390f35b3480156102d357600080fd5b506102ee60048036038101906102e9919061442a565b6115c9565b6040516102fb9190614d2b565b60405180910390f35b61031e600480360381019061031991906145dc565b611903565b005b34801561032c57600080fd5b506103476004803603810190610342919061442a565b61191c565b6040516103549190614d2b565b60405180910390f35b34801561036957600080fd5b50610384600480360381019061037f919061442a565b611984565b6040516103919190614d2b565b60405180910390f35b3480156103a657600080fd5b506103c160048036038101906103bc91906147e5565b611bd3565b6040516103ce9190614d2b565b60405180910390f35b3480156103e357600080fd5b506103ec611c6c565b005b3480156103fa57600080fd5b50610403611da9565b6040516104109190614b0a565b60405180910390f35b34801561042557600080fd5b50610440600480360381019061043b91906143af565b611dd3565b60405161044d9190614d2b565b60405180910390f35b34801561046257600080fd5b5061046b611e6e565b005b34801561047957600080fd5b50610494600480360381019061048f919061442a565b611f4f565b6040516104a19190614d2b565b60405180910390f35b3480156104b657600080fd5b506104bf612040565b6040516104cc9190614b0a565b60405180910390f35b3480156104e157600080fd5b506104fc60048036038101906104f791906143af565b61206a565b005b34801561050a57600080fd5b5061052560048036038101906105209190614796565b6123ca565b6040516105329190614d2b565b60405180910390f35b34801561054757600080fd5b50610562600480360381019061055d919061442a565b612479565b60405161056f9190614d2b565b60405180910390f35b34801561058457600080fd5b5061059f600480360381019061059a9190614466565b61272e565b6040516105ad929190614d46565b60405180910390f35b3480156105c257600080fd5b506105dd60048036038101906105d8919061442a565b612991565b6040516105ea9190614d2b565b60405180910390f35b3480156105ff57600080fd5b50610608612c08565b6040516106159190614b85565b60405180910390f35b34801561062a57600080fd5b506106456004803603810190610640919061458d565b6132f5565b6040516106529190614d2b565b60405180910390f35b34801561066757600080fd5b50610682600480360381019061067d919061442a565b613382565b60405161068f9190614d2b565b60405180910390f35b3480156106a457600080fd5b506106bf60048036038101906106ba91906144ef565b61350f565b6040516106cc9190614c0e565b60405180910390f35b3480156106e157600080fd5b506106fc60048036038101906106f7919061442a565b6135ad565b6040516107099190614d2b565b60405180910390f35b34801561071e57600080fd5b50610739600480360381019061073491906143af565b6135cb565b005b34801561074757600080fd5b50610762600480360381019061075d919061442a565b613777565b60405161076f9190614c0e565b60405180910390f35b6000829050600082905080821415610791575050610a19565b600085600286866107a29190615211565b6107ac9190614fab565b866107b79190614ec1565b815181106107ee577f4e487b7100000000000000000000000000000000000000000000000000000000600052603260045260246000fd5b602002602001015190505b8183136109ed575b8086848151811061083b577f4e487b7100000000000000000000000000000000000000000000000000000000600052603260045260246000fd5b6020026020010151101561085c57828061085490615488565b935050610801565b5b858281518110610896577f4e487b7100000000000000000000000000000000000000000000000000000000600052603260045260246000fd5b60200260200101518110156108b85781806108b09061540e565b92505061085d565b8183136109e8578582815181106108f8577f4e487b7100000000000000000000000000000000000000000000000000000000600052603260045260246000fd5b6020026020010151868481518110610939577f4e487b7100000000000000000000000000000000000000000000000000000000600052603260045260246000fd5b602002602001015187858151811061097a577f4e487b7100000000000000000000000000000000000000000000000000000000600052603260045260246000fd5b602002602001018885815181106109ba577f4e487b7100000000000000000000000000000000000000000000000000000000600052603260045260246000fd5b602002602001018281525082815250505082806109d690615488565b93505081806109e49061540e565b9250505b6107f9565b81851215610a0157610a00868684610778565b5b83831215610a1557610a14868486610778565b5b5050505b505050565b60008060c960009054906101000a900473ffffffffffffffffffffffffffffffffffffffff1673ffffffffffffffffffffffffffffffffffffffff1663294d499e6040518163ffffffff1660e01b815260040160006040518083038186803b158015610a8957600080fd5b505afa158015610a9d573d6000803e3d6000fd5b505050506040513d6000823e3d601f19601f82011682018060405250810190610ac69190614630565b90506000815190506000610ada868661119e565b905060005b82811015610c6957610c54610c45670de0b6b3a7640000610c37858581518110610b32577f4e487b7100000000000000000000000000000000000000000000000000000000600052603260045260246000fd5b602002602001015160c960009054906101000a900473ffffffffffffffffffffffffffffffffffffffff1673ffffffffffffffffffffffffffffffffffffffff1663bd9e52008a8881518110610bb1577f4e487b7100000000000000000000000000000000000000000000000000000000600052603260045260246000fd5b60200260200101516040518263ffffffff1660e01b8152600401610bd59190614b0a565b60606040518083038186803b158015610bed57600080fd5b505afa158015610c01573d6000803e3d6000fd5b505050506040513d601f19601f82011682018060405250810190610c259190614744565b604001516137af90919063ffffffff16565b6137c590919063ffffffff16565b866137db90919063ffffffff16565b94508080610c61906154d1565b915050610adf565b5050505092915050565b6060806000610c80612c08565b92506000835190508067ffffffffffffffff811115610cc8577f4e487b7100000000000000000000000000000000000000000000000000000000600052604160045260246000fd5b604051908082528060200260200182016040528015610cf65781602001602082028036833780820191505090505b5092506000805b8281101561116657600060c960009054906101000a900473ffffffffffffffffffffffffffffffffffffffff1673ffffffffffffffffffffffffffffffffffffffff1663c462b5208b898581518110610d7f577f4e487b7100000000000000000000000000000000000000000000000000000000600052603260045260246000fd5b60200260200101518c6040518463ffffffff1660e01b8152600401610da693929190614b4e565b60206040518083038186803b158015610dbe57600080fd5b505afa158015610dd2573d6000803e3d6000fd5b505050506040513d601f19601f82011682018060405250810190610df6919061476d565b90506000811415610e075750611153565b600060c960009054906101000a900473ffffffffffffffffffffffffffffffffffffffff1673ffffffffffffffffffffffffffffffffffffffff1663d02641a0898581518110610e80577f4e487b7100000000000000000000000000000000000000000000000000000000600052603260045260246000fd5b60200260200101516040518263ffffffff1660e01b8152600401610ea49190614b0a565b60206040518083038186803b158015610ebc57600080fd5b505afa158015610ed0573d6000803e3d6000fd5b505050506040513d601f19601f82011682018060405250810190610ef4919061476d565b90506000610f65610f448a8681518110610f37577f4e487b7100000000000000000000000000000000000000000000000000000000600052603260045260246000fd5b6020026020010151611dd3565b610f5785856137af90919063ffffffff16565b6137c590919063ffffffff16565b905089610f7b82876137db90919063ffffffff16565b1015610fe45782888581518110610fbb577f4e487b7100000000000000000000000000000000000000000000000000000000600052603260045260246000fd5b602002602001018181525050610fda81866137db90919063ffffffff16565b9450505050611153565b6000610ff9868c6137f190919063ffffffff16565b90506110f061102b8461101d670de0b6b3a7640000856137af90919063ffffffff16565b6137c590919063ffffffff16565b60128c8881518110611066577f4e487b7100000000000000000000000000000000000000000000000000000000600052603260045260246000fd5b602002602001015173ffffffffffffffffffffffffffffffffffffffff1663313ce5676040518163ffffffff1660e01b815260040160206040518083038186803b1580156110b357600080fd5b505afa1580156110c7573d6000803e3d6000fd5b505050506040513d601f19601f820116820180604052508101906110eb9190614834565b611bd3565b898681518110611129577f4e487b7100000000000000000000000000000000000000000000000000000000600052603260045260246000fd5b60200260200101818152505061114881876137db90919063ffffffff16565b955050505050611166565b808061115e906154d1565b915050610cfd565b508581149250505093509350939050565b61118081613807565b61119b81604051806020016040528060008152506000613886565b50565b6060600060c960009054906101000a900473ffffffffffffffffffffffffffffffffffffffff1673ffffffffffffffffffffffffffffffffffffffff1663294d499e6040518163ffffffff1660e01b815260040160006040518083038186803b15801561120a57600080fd5b505afa15801561121e573d6000803e3d6000fd5b505050506040513d6000823e3d601f19601f820116820180604052508101906112479190614630565b90506000815190508067ffffffffffffffff81111561128f577f4e487b7100000000000000000000000000000000000000000000000000000000600052604160045260246000fd5b6040519080825280602002602001820160405280156112bd5781602001602082028036833780820191505090505b50925060006112cc86866115c9565b905060008114156112df575050506115c3565b60008060005b848110156115bc5760c960009054906101000a900473ffffffffffffffffffffffffffffffffffffffff1673ffffffffffffffffffffffffffffffffffffffff1663c462b5208a888481518110611365577f4e487b7100000000000000000000000000000000000000000000000000000000600052603260045260246000fd5b60200260200101518b6040518463ffffffff1660e01b815260040161138c93929190614b4e565b60206040518083038186803b1580156113a457600080fd5b505afa1580156113b8573d6000803e3d6000fd5b505050506040513d601f19601f820116820180604052508101906113dc919061476d565b925061153561142a87838151811061141d577f4e487b7100000000000000000000000000000000000000000000000000000000600052603260045260246000fd5b6020026020010151611dd3565b6115278560c960009054906101000a900473ffffffffffffffffffffffffffffffffffffffff1673ffffffffffffffffffffffffffffffffffffffff1663d02641a08b87815181106114a5577f4e487b7100000000000000000000000000000000000000000000000000000000600052603260045260246000fd5b60200260200101516040518263ffffffff1660e01b81526004016114c99190614b0a565b60206040518083038186803b1580156114e157600080fd5b505afa1580156114f5573d6000803e3d6000fd5b505050506040513d601f19601f82011682018060405250810190611519919061476d565b6137af90919063ffffffff16565b6137c590919063ffffffff16565b915061156484611556670de0b6b3a7640000856137af90919063ffffffff16565b6137c590919063ffffffff16565b87828151811061159d577f4e487b7100000000000000000000000000000000000000000000000000000000600052603260045260246000fd5b60200260200101818152505080806115b4906154d1565b9150506112e5565b5050505050505b92915050565b60008060c960009054906101000a900473ffffffffffffffffffffffffffffffffffffffff1673ffffffffffffffffffffffffffffffffffffffff1663294d499e6040518163ffffffff1660e01b815260040160006040518083038186803b15801561163457600080fd5b505afa158015611648573d6000803e3d6000fd5b505050506040513d6000823e3d601f19601f820116820180604052508101906116719190614630565b90506000915060008151905060005b818110156118fa5760006118cf6116d68584815181106116c9577f4e487b7100000000000000000000000000000000000000000000000000000000600052603260045260246000fd5b6020026020010151611dd3565b6118c160c960009054906101000a900473ffffffffffffffffffffffffffffffffffffffff1673ffffffffffffffffffffffffffffffffffffffff1663d02641a0888781518110611750577f4e487b7100000000000000000000000000000000000000000000000000000000600052603260045260246000fd5b60200260200101516040518263ffffffff1660e01b81526004016117749190614b0a565b60206040518083038186803b15801561178c57600080fd5b505afa1580156117a0573d6000803e3d6000fd5b505050506040513d601f19601f820116820180604052508101906117c4919061476d565b60c960009054906101000a900473ffffffffffffffffffffffffffffffffffffffff1673ffffffffffffffffffffffffffffffffffffffff1663c462b5208c8a898151811061183c577f4e487b7100000000000000000000000000000000000000000000000000000000600052603260045260246000fd5b60200260200101518d6040518463ffffffff1660e01b815260040161186393929190614b4e565b60206040518083038186803b15801561187b57600080fd5b505afa15801561188f573d6000803e3d6000fd5b505050506040513d601f19601f820116820180604052508101906118b3919061476d565b6137af90919063ffffffff16565b6137c590919063ffffffff16565b90506118e481866137db90919063ffffffff16565b94505080806118f2906154d1565b915050611680565b50505092915050565b61190c82613807565b61191882826001613886565b5050565b6000806119298484613382565b9050600081141561193e57600091505061197e565b600061194a85856115c9565b90506119798261196b670de0b6b3a7640000846137af90919063ffffffff16565b6137c590919063ffffffff16565b925050505b92915050565b60008060c960009054906101000a900473ffffffffffffffffffffffffffffffffffffffff1673ffffffffffffffffffffffffffffffffffffffff1663294d499e6040518163ffffffff1660e01b815260040160006040518083038186803b1580156119ef57600080fd5b505afa158015611a03573d6000803e3d6000fd5b505050506040513d6000823e3d601f19601f82011682018060405250810190611a2c9190614630565b90506000611a3a858561119e565b905060008251905060005b81811015611bc957611bb4611ba5612710611b97868581518110611a92577f4e487b7100000000000000000000000000000000000000000000000000000000600052603260045260246000fd5b602002602001015160c960009054906101000a900473ffffffffffffffffffffffffffffffffffffffff1673ffffffffffffffffffffffffffffffffffffffff1663bd9e52008a8881518110611b11577f4e487b7100000000000000000000000000000000000000000000000000000000600052603260045260246000fd5b60200260200101516040518263ffffffff1660e01b8152600401611b359190614b0a565b60606040518083038186803b158015611b4d57600080fd5b505afa158015611b61573d6000803e3d6000fd5b505050506040513d601f19601f82011682018060405250810190611b859190614744565b602001516137af90919063ffffffff16565b6137c590919063ffffffff16565b866137db90919063ffffffff16565b94508080611bc1906154d1565b915050611a45565b5050505092915050565b60008160ff168360ff161415611beb57839050611c65565b60008284611bf991906152a5565b60000b9050600080821315611c3157819050611c2a81600a611c1b9190615099565b876137c590919063ffffffff16565b9550611c5f565b81611c3b9061551a565b9050611c5c81600a611c4d9190615099565b876137af90919063ffffffff16565b95505b85925050505b9392505050565b611c74613a9a565b73ffffffffffffffffffffffffffffffffffffffff16611c92612040565b73ffffffffffffffffffffffffffffffffffffffff1614611ce8576040517f08c379a0000000000000000000000000000000000000000000000000000000008152600401611cdf90614ceb565b60405180910390fd5b600073ffffffffffffffffffffffffffffffffffffffff16609760009054906101000a900473ffffffffffffffffffffffffffffffffffffffff1673ffffffffffffffffffffffffffffffffffffffff167f8be0079c531659141344cd1fd0a4f28419497f9722a3daafe3b4186f6b6457e060405160405180910390a36000609760006101000a81548173ffffffffffffffffffffffffffffffffffffffff021916908373ffffffffffffffffffffffffffffffffffffffff160217905550565b600060c960009054906101000a900473ffffffffffffffffffffffffffffffffffffffff16905090565b6000808273ffffffffffffffffffffffffffffffffffffffff1663313ce5676040518163ffffffff1660e01b815260040160206040518083038186803b158015611e1c57600080fd5b505afa158015611e30573d6000803e3d6000fd5b505050506040513d601f19601f82011682018060405250810190611e549190614834565b60ff16905080600a611e669190615099565b915050919050565b600060019054906101000a900460ff1680611e94575060008054906101000a900460ff16155b611ed3576040517f08c379a0000000000000000000000000000000000000000000000000000000008152600401611eca90614cab565b60405180910390fd5b60008060019054906101000a900460ff161590508015611f23576001600060016101000a81548160ff02191690831515021790555060016000806101000a81548160ff0219169083151502179055505b611f2b613aa2565b8015611f4c5760008060016101000a81548160ff0219169083151502179055505b50565b600080611f5c8484612479565b9050612037670de0b6b3a76400006120298360c960009054906101000a900473ffffffffffffffffffffffffffffffffffffffff1673ffffffffffffffffffffffffffffffffffffffff1663a300733d89896040518363ffffffff1660e01b8152600401611fcb929190614b25565b60206040518083038186803b158015611fe357600080fd5b505afa158015611ff7573d6000803e3d6000fd5b505050506040513d601f19601f8201168201806040525081019061201b919061476d565b6137af90919063ffffffff16565b6137c590919063ffffffff16565b91505092915050565b6000609760009054906101000a900473ffffffffffffffffffffffffffffffffffffffff16905090565b612072613a9a565b73ffffffffffffffffffffffffffffffffffffffff16612090612040565b73ffffffffffffffffffffffffffffffffffffffff16146120e6576040517f08c379a00000000000000000000000000000000000000000000000000000000081526004016120dd90614ceb565b60405180910390fd5b8060c960006101000a81548173ffffffffffffffffffffffffffffffffffffffff021916908373ffffffffffffffffffffffffffffffffffffffff16021790555060c960009054906101000a900473ffffffffffffffffffffffffffffffffffffffff1673ffffffffffffffffffffffffffffffffffffffff16635fe3b5676040518163ffffffff1660e01b815260040160206040518083038186803b15801561218f57600080fd5b505afa1580156121a3573d6000803e3d6000fd5b505050506040513d601f19601f820116820180604052508101906121c791906143d8565b60cb60006101000a81548173ffffffffffffffffffffffffffffffffffffffff021916908373ffffffffffffffffffffffffffffffffffffffff16021790555060c960009054906101000a900473ffffffffffffffffffffffffffffffffffffffff1673ffffffffffffffffffffffffffffffffffffffff166361d027b36040518163ffffffff1660e01b815260040160206040518083038186803b15801561226f57600080fd5b505afa158015612283573d6000803e3d6000fd5b505050506040513d601f19601f820116820180604052508101906122a79190614401565b60ca60006101000a81548173ffffffffffffffffffffffffffffffffffffffff021916908373ffffffffffffffffffffffffffffffffffffffff16021790555060c960009054906101000a900473ffffffffffffffffffffffffffffffffffffffff1673ffffffffffffffffffffffffffffffffffffffff1663c392f7666040518163ffffffff1660e01b815260040160206040518083038186803b15801561234f57600080fd5b505afa158015612363573d6000803e3d6000fd5b505050506040513d601f19601f8201168201806040525081019061238791906143d8565b60cc60006101000a81548173ffffffffffffffffffffffffffffffffffffffff021916908373ffffffffffffffffffffffffffffffffffffffff16021790555050565b6000670de0b6b3a7640000831015612417576040517f08c379a000000000000000000000000000000000000000000000000000000000815260040161240e90614c8b565b60405180910390fd5b612470670de0b6b3a7640000612462670de0b6b3a7640000612454876124468a896137af90919063ffffffff16565b6137af90919063ffffffff16565b6137c590919063ffffffff16565b6137c590919063ffffffff16565b90509392505050565b600080600060cc60009054906101000a900473ffffffffffffffffffffffffffffffffffffffff1673ffffffffffffffffffffffffffffffffffffffff1663d56a5c736040518163ffffffff1660e01b815260040160006040518083038186803b1580156124e657600080fd5b505afa1580156124fa573d6000803e3d6000fd5b505050506040513d6000823e3d601f19601f820116820180604052508101906125239190614671565b915091506000925060008151905060008061253e888861119e565b905060005b838110156127225760c960009054906101000a900473ffffffffffffffffffffffffffffffffffffffff1673ffffffffffffffffffffffffffffffffffffffff166331695c4e8a8a8885815181106125c4577f4e487b7100000000000000000000000000000000000000000000000000000000600052603260045260246000fd5b60200260200101516040518463ffffffff1660e01b81526004016125ea93929190614b4e565b60206040518083038186803b15801561260257600080fd5b505afa158015612616573d6000803e3d6000fd5b505050506040513d601f19601f8201168201806040525081019061263a919061476d565b925061270d6126fe670de0b6b3a76400006126f0858581518110612687577f4e487b7100000000000000000000000000000000000000000000000000000000600052603260045260246000fd5b60200260200101516126e2888c88815181106126cc577f4e487b7100000000000000000000000000000000000000000000000000000000600052603260045260246000fd5b60200260200101516137f190919063ffffffff16565b6137af90919063ffffffff16565b6137c590919063ffffffff16565b886137db90919063ffffffff16565b9650808061271a906154d1565b915050612543565b50505050505092915050565b600080600061273d8989612991565b9050600061274b8a8a6115c9565b905084612796576127916127826127618a611dd3565b6127748a8a6137af90919063ffffffff16565b6137c590919063ffffffff16565b826137f190919063ffffffff16565b6127d6565b6127d56127c66127a58a611dd3565b6127b88a8a6137af90919063ffffffff16565b6137c590919063ffffffff16565b826137db90919063ffffffff16565b5b9250600060c960009054906101000a900473ffffffffffffffffffffffffffffffffffffffff1673ffffffffffffffffffffffffffffffffffffffff1663bd9e52008a6040518263ffffffff1660e01b81526004016128359190614b0a565b60606040518083038186803b15801561284d57600080fd5b505afa158015612861573d6000803e3d6000fd5b505050506040513d601f19601f820116820180604052508101906128859190614744565b60000151905060008314156128c9576128c260646128b4670de0b6b3a7640000846137af90919063ffffffff16565b6137c590919063ffffffff16565b9450612983565b60006128f8856128ea670de0b6b3a7640000866137af90919063ffffffff16565b6137c590919063ffffffff16565b905061297f612944670de0b6b3a76400006129368561292886670de0b6b3a76400006137f190919063ffffffff16565b6137af90919063ffffffff16565b6137c590919063ffffffff16565b612971670de0b6b3a764000061296385896137af90919063ffffffff16565b6137c590919063ffffffff16565b6137db90919063ffffffff16565b9550505b505050965096945050505050565b60008060c960009054906101000a900473ffffffffffffffffffffffffffffffffffffffff1673ffffffffffffffffffffffffffffffffffffffff1663294d499e6040518163ffffffff1660e01b815260040160006040518083038186803b1580156129fc57600080fd5b505afa158015612a10573d6000803e3d6000fd5b505050506040513d6000823e3d601f19601f82011682018060405250810190612a399190614630565b90506000612a47858561119e565b905060008251905060005b81811015612be857612bd3612bc46064612bb6868581518110612a9e577f4e487b7100000000000000000000000000000000000000000000000000000000600052603260045260246000fd5b6020026020010151612ba8606460c960009054906101000a900473ffffffffffffffffffffffffffffffffffffffff1673ffffffffffffffffffffffffffffffffffffffff1663bd9e52008c8a81518110612b22577f4e487b7100000000000000000000000000000000000000000000000000000000600052603260045260246000fd5b60200260200101516040518263ffffffff1660e01b8152600401612b469190614b0a565b60606040518083038186803b158015612b5e57600080fd5b505afa158015612b72573d6000803e3d6000fd5b505050506040513d601f19601f82011682018060405250810190612b969190614744565b600001516137af90919063ffffffff16565b6137af90919063ffffffff16565b6137c590919063ffffffff16565b866137db90919063ffffffff16565b94508080612be0906154d1565b915050612a52565b50612bfd6064856137c590919063ffffffff16565b935050505092915050565b6060600060c960009054906101000a900473ffffffffffffffffffffffffffffffffffffffff1673ffffffffffffffffffffffffffffffffffffffff1663294d499e6040518163ffffffff1660e01b815260040160006040518083038186803b158015612c7457600080fd5b505afa158015612c88573d6000803e3d6000fd5b505050506040513d6000823e3d601f19601f82011682018060405250810190612cb19190614630565b905060008151905060008167ffffffffffffffff811115612cfb577f4e487b7100000000000000000000000000000000000000000000000000000000600052604160045260246000fd5b604051908082528060200260200182016040528015612d295781602001602082028036833780820191505090505b50905060008151905060005b81811015612e845760c960009054906101000a900473ffffffffffffffffffffffffffffffffffffffff1673ffffffffffffffffffffffffffffffffffffffff1663bd9e5200868381518110612db4577f4e487b7100000000000000000000000000000000000000000000000000000000600052603260045260246000fd5b60200260200101516040518263ffffffff1660e01b8152600401612dd89190614b0a565b60606040518083038186803b158015612df057600080fd5b505afa158015612e04573d6000803e3d6000fd5b505050506040513d601f19601f82011682018060405250810190612e289190614744565b60000151838281518110612e65577f4e487b7100000000000000000000000000000000000000000000000000000000600052603260045260246000fd5b6020026020010181815250508080612e7c906154d1565b915050612d35565b5060008167ffffffffffffffff811115612ec7577f4e487b7100000000000000000000000000000000000000000000000000000000600052604160045260246000fd5b604051908082528060200260200182016040528015612ef55781602001602082028036833780820191505090505b50905060008151905060005b81811015612fa257848181518110612f42577f4e487b7100000000000000000000000000000000000000000000000000000000600052603260045260246000fd5b6020026020010151838281518110612f83577f4e487b7100000000000000000000000000000000000000000000000000000000600052603260045260246000fd5b6020026020010181815250508080612f9a906154d1565b915050612f01565b50612fbc82600060018551612fb7919061531a565b610778565b60008567ffffffffffffffff811115612ffe577f4e487b7100000000000000000000000000000000000000000000000000000000600052604160045260246000fd5b60405190808252806020026020018201604052801561302c5781602001602082028036833780820191505090505b50905060005b828110156131435760005b8581101561312f5784828151811061307e577f4e487b7100000000000000000000000000000000000000000000000000000000600052603260045260246000fd5b60200260200101518782815181106130bf577f4e487b7100000000000000000000000000000000000000000000000000000000600052603260045260246000fd5b6020026020010151146130d15761311c565b8083838151811061310b577f4e487b7100000000000000000000000000000000000000000000000000000000600052603260045260246000fd5b60200260200101818152505061312f565b8080613127906154d1565b91505061303d565b50808061313b906154d1565b915050613032565b508567ffffffffffffffff811115613184577f4e487b7100000000000000000000000000000000000000000000000000000000600052604160045260246000fd5b6040519080825280602002602001820160405280156131b25781602001602082028036833780820191505090505b50975060005b868110156132ea5760008282815181106131fb577f4e487b7100000000000000000000000000000000000000000000000000000000600052603260045260246000fd5b6020026020010151905060006001838a613215919061531a565b61321f919061531a565b905089828151811061325a577f4e487b7100000000000000000000000000000000000000000000000000000000600052603260045260246000fd5b60200260200101518b828151811061329b577f4e487b7100000000000000000000000000000000000000000000000000000000600052603260045260246000fd5b602002602001019073ffffffffffffffffffffffffffffffffffffffff16908173ffffffffffffffffffffffffffffffffffffffff1681525050505080806132e2906154d1565b9150506131b8565b505050505050505090565b60008061330285856115c9565b9050600081141561331757600091505061337b565b600061334f670de0b6b3a7640000613341866133338a8a613382565b6137af90919063ffffffff16565b6137c590919063ffffffff16565b90508082116133635760009250505061337b565b61337681836137f190919063ffffffff16565b925050505b9392505050565b6000613507670de0b6b3a76400006134f960c960009054906101000a900473ffffffffffffffffffffffffffffffffffffffff1673ffffffffffffffffffffffffffffffffffffffff1663d02641a0866040518263ffffffff1660e01b81526004016133ee9190614b0a565b60206040518083038186803b15801561340657600080fd5b505afa15801561341a573d6000803e3d6000fd5b505050506040513d601f19601f8201168201806040525081019061343e919061476d565b60c960009054906101000a900473ffffffffffffffffffffffffffffffffffffffff1673ffffffffffffffffffffffffffffffffffffffff1663498b5ae888886040518363ffffffff1660e01b815260040161349b929190614b25565b60206040518083038186803b1580156134b357600080fd5b505afa1580156134c7573d6000803e3d6000fd5b505050506040513d601f19601f820116820180604052508101906134eb919061476d565b6137af90919063ffffffff16565b6137c590919063ffffffff16565b905092915050565b60008060006135238a8a8a8a88600161272e565b9150915061359b670de0b6b3a764000061358d8461357f6135448f8f613382565b613571670de0b6b3a76400006135638d8f6137af90919063ffffffff16565b6137c590919063ffffffff16565b6137db90919063ffffffff16565b6137af90919063ffffffff16565b6137c590919063ffffffff16565b81101592505050979650505050505050565b60006135c383836135be8686612991565b6132f5565b905092915050565b6135d3613a9a565b73ffffffffffffffffffffffffffffffffffffffff166135f1612040565b73ffffffffffffffffffffffffffffffffffffffff1614613647576040517f08c379a000000000000000000000000000000000000000000000000000000000815260040161363e90614ceb565b60405180910390fd5b600073ffffffffffffffffffffffffffffffffffffffff168173ffffffffffffffffffffffffffffffffffffffff1614156136b7576040517f08c379a00000000000000000000000000000000000000000000000000000000081526004016136ae90614c6b565b60405180910390fd5b8073ffffffffffffffffffffffffffffffffffffffff16609760009054906101000a900473ffffffffffffffffffffffffffffffffffffffff1673ffffffffffffffffffffffffffffffffffffffff167f8be0079c531659141344cd1fd0a4f28419497f9722a3daafe3b4186f6b6457e060405160405180910390a380609760006101000a81548173ffffffffffffffffffffffffffffffffffffffff021916908373ffffffffffffffffffffffffffffffffffffffff16021790555050565b6000806137848484612991565b90506000613792858561191c565b9050600081141580156137a55750818110155b9250505092915050565b600081836137bd91906151b7565b905092915050565b600081836137d39190615015565b905092915050565b600081836137e99190614f55565b905092915050565b600081836137ff919061531a565b905092915050565b61380f613a9a565b73ffffffffffffffffffffffffffffffffffffffff1661382d612040565b73ffffffffffffffffffffffffffffffffffffffff1614613883576040517f08c379a000000000000000000000000000000000000000000000000000000000815260040161387a90614ceb565b60405180910390fd5b50565b6000613890613b8b565b905061389b84613be2565b6000835111806138a85750815b156138b9576138b78484613c9b565b505b60006138e77f4910fdfa16fed3260ed0e7147f7cc6da11a60208b5b9406d12a635614ffd914360001b613d7f565b90508060000160009054906101000a900460ff16613a935760018160000160006101000a81548160ff0219169083151502179055506139b385836040516024016139319190614b0a565b6040516020818303038152906040527f3659cfe6000000000000000000000000000000000000000000000000000000007bffffffffffffffffffffffffffffffffffffffffffffffffffffffff19166020820180517bffffffffffffffffffffffffffffffffffffffffffffffffffffffff8381831617835250505050613c9b565b5060008160000160006101000a81548160ff0219169083151502179055506139d9613b8b565b73ffffffffffffffffffffffffffffffffffffffff168273ffffffffffffffffffffffffffffffffffffffff1614613a46576040517f08c379a0000000000000000000000000000000000000000000000000000000008152600401613a3d90614c4b565b60405180910390fd5b613a4f85613be2565b8473ffffffffffffffffffffffffffffffffffffffff167fbc7cd75a20ee27fd9adebab32041f755214dbc6bffa90cc0225b39da2e5c2d3b60405160405180910390a25b5050505050565b600033905090565b600060019054906101000a900460ff1680613ac8575060008054906101000a900460ff16155b613b07576040517f08c379a0000000000000000000000000000000000000000000000000000000008152600401613afe90614cab565b60405180910390fd5b60008060019054906101000a900460ff161590508015613b57576001600060016101000a81548160ff02191690831515021790555060016000806101000a81548160ff0219169083151502179055505b613b5f613d89565b613b67613e62565b8015613b885760008060016101000a81548160ff0219169083151502179055505b50565b6000613bb97f360894a13ba1a3210667c828492db98dca3e2076cc3735a920a3ca505d382bbc60001b613fe4565b60000160009054906101000a900473ffffffffffffffffffffffffffffffffffffffff16905090565b613beb81613fee565b613c2a576040517f08c379a0000000000000000000000000000000000000000000000000000000008152600401613c2190614ccb565b60405180910390fd5b80613c577f360894a13ba1a3210667c828492db98dca3e2076cc3735a920a3ca505d382bbc60001b613fe4565b60000160006101000a81548173ffffffffffffffffffffffffffffffffffffffff021916908373ffffffffffffffffffffffffffffffffffffffff16021790555050565b6060613ca683613fee565b613ce5576040517f08c379a0000000000000000000000000000000000000000000000000000000008152600401613cdc90614d0b565b60405180910390fd5b6000808473ffffffffffffffffffffffffffffffffffffffff1684604051613d0d9190614af3565b600060405180830381855af49150503d8060008114613d48576040519150601f19603f3d011682016040523d82523d6000602084013e613d4d565b606091505b5091509150613d75828260405180606001604052806027815260200161587660279139614001565b9250505092915050565b6000819050919050565b600060019054906101000a900460ff1680613daf575060008054906101000a900460ff16155b613dee576040517f08c379a0000000000000000000000000000000000000000000000000000000008152600401613de590614cab565b60405180910390fd5b60008060019054906101000a900460ff161590508015613e3e576001600060016101000a81548160ff02191690831515021790555060016000806101000a81548160ff0219169083151502179055505b8015613e5f5760008060016101000a81548160ff0219169083151502179055505b50565b600060019054906101000a900460ff1680613e88575060008054906101000a900460ff16155b613ec7576040517f08c379a0000000000000000000000000000000000000000000000000000000008152600401613ebe90614cab565b60405180910390fd5b60008060019054906101000a900460ff161590508015613f17576001600060016101000a81548160ff02191690831515021790555060016000806101000a81548160ff0219169083151502179055505b6000613f21613a9a565b905080609760006101000a81548173ffffffffffffffffffffffffffffffffffffffff021916908373ffffffffffffffffffffffffffffffffffffffff1602179055508073ffffffffffffffffffffffffffffffffffffffff16600073ffffffffffffffffffffffffffffffffffffffff167f8be0079c531659141344cd1fd0a4f28419497f9722a3daafe3b4186f6b6457e060405160405180910390a3508015613fe15760008060016101000a81548160ff0219169083151502179055505b50565b6000819050919050565b600080823b905060008111915050919050565b6060831561401157829050614061565b6000835111156140245782518084602001fd5b816040517f08c379a00000000000000000000000000000000000000000000000000000000081526004016140589190614c29565b60405180910390fd5b9392505050565b600061407b61407684614d94565b614d6f565b9050808382526020820190508285602086028201111561409a57600080fd5b60005b858110156140ca57816140b088826141ff565b84526020840193506020830192505060018101905061409d565b5050509392505050565b60006140e76140e284614dc0565b614d6f565b9050808382526020820190508285602086028201111561410657600080fd5b60005b85811015614136578161411c888261435b565b845260208401935060208301925050600181019050614109565b5050509392505050565b600061415361414e84614dc0565b614d6f565b9050808382526020820190508285602086028201111561417257600080fd5b60005b858110156141a257816141888882614370565b845260208401935060208301925050600181019050614175565b5050509392505050565b60006141bf6141ba84614dec565b614d6f565b9050828152602081018484840111156141d757600080fd5b6141e28482856153cc565b509392505050565b6000813590506141f9816157eb565b92915050565b60008151905061420e816157eb565b92915050565b60008151905061422381615802565b92915050565b600082601f83011261423a57600080fd5b815161424a848260208601614068565b91505092915050565b600082601f83011261426457600080fd5b81356142748482602086016140d4565b91505092915050565b600082601f83011261428e57600080fd5b815161429e848260208601614140565b91505092915050565b6000813590506142b681615819565b92915050565b600082601f8301126142cd57600080fd5b81356142dd8482602086016141ac565b91505092915050565b6000813590506142f581615830565b92915050565b60006060828403121561430d57600080fd5b6143176060614d6f565b9050600061432784828501614370565b600083015250602061433b84828501614370565b602083015250604061434f84828501614370565b60408301525092915050565b60008135905061436a81615847565b92915050565b60008151905061437f81615847565b92915050565b6000813590506143948161585e565b92915050565b6000815190506143a98161585e565b92915050565b6000602082840312156143c157600080fd5b60006143cf848285016141ea565b91505092915050565b6000602082840312156143ea57600080fd5b60006143f8848285016141ff565b91505092915050565b60006020828403121561441357600080fd5b600061442184828501614214565b91505092915050565b6000806040838503121561443d57600080fd5b600061444b858286016141ea565b925050602061445c858286016141ea565b9150509250929050565b60008060008060008060c0878903121561447f57600080fd5b600061448d89828a016141ea565b965050602061449e89828a016141ea565b95505060406144af89828a016141ea565b94505060606144c089828a0161435b565b93505060806144d189828a0161435b565b92505060a06144e289828a016142a7565b9150509295509295509295565b600080600080600080600060e0888a03121561450a57600080fd5b60006145188a828b016141ea565b97505060206145298a828b016141ea565b965050604061453a8a828b016141ea565b955050606061454b8a828b0161435b565b945050608061455c8a828b0161435b565b93505060a061456d8a828b0161435b565b92505060c061457e8a828b0161435b565b91505092959891949750929550565b6000806000606084860312156145a257600080fd5b60006145b0868287016141ea565b93505060206145c1868287016141ea565b92505060406145d28682870161435b565b9150509250925092565b600080604083850312156145ef57600080fd5b60006145fd858286016141ea565b925050602083013567ffffffffffffffff81111561461a57600080fd5b614626858286016142bc565b9150509250929050565b60006020828403121561464257600080fd5b600082015167ffffffffffffffff81111561465c57600080fd5b61466884828501614229565b91505092915050565b6000806040838503121561468457600080fd5b600083015167ffffffffffffffff81111561469e57600080fd5b6146aa8582860161427d565b925050602083015167ffffffffffffffff8111156146c757600080fd5b6146d385828601614229565b9150509250929050565b6000806000606084860312156146f257600080fd5b600084013567ffffffffffffffff81111561470c57600080fd5b61471886828701614253565b9350506020614729868287016142e6565b925050604061473a868287016142e6565b9150509250925092565b60006060828403121561475657600080fd5b6000614764848285016142fb565b91505092915050565b60006020828403121561477f57600080fd5b600061478d84828501614370565b91505092915050565b6000806000606084860312156147ab57600080fd5b60006147b98682870161435b565b93505060206147ca8682870161435b565b92505060406147db8682870161435b565b9150509250925092565b6000806000606084860312156147fa57600080fd5b60006148088682870161435b565b935050602061481986828701614385565b925050604061482a86828701614385565b9150509250925092565b60006020828403121561484657600080fd5b60006148548482850161439a565b91505092915050565b6000614869838361488d565b60208301905092915050565b60006148818383614ad5565b60208301905092915050565b6148968161534e565b82525050565b6148a58161534e565b82525050565b60006148b682614e3d565b6148c08185614e83565b93506148cb83614e1d565b8060005b838110156148fc5781516148e3888261485d565b97506148ee83614e69565b9250506001810190506148cf565b5085935050505092915050565b600061491482614e48565b61491e8185614e94565b935061492983614e2d565b8060005b8381101561495a5781516149418882614875565b975061494c83614e76565b92505060018101905061492d565b5085935050505092915050565b61497081615372565b82525050565b600061498182614e53565b61498b8185614ea5565b935061499b8185602086016153db565b80840191505092915050565b60006149b282614e5e565b6149bc8185614eb0565b93506149cc8185602086016153db565b6149d5816155f0565b840191505092915050565b60006149ed602f83614eb0565b91506149f88261560e565b604082019050919050565b6000614a10602683614eb0565b9150614a1b8261565d565b604082019050919050565b6000614a33600283614eb0565b9150614a3e826156ac565b602082019050919050565b6000614a56602e83614eb0565b9150614a61826156d5565b604082019050919050565b6000614a79602d83614eb0565b9150614a8482615724565b604082019050919050565b6000614a9c602083614eb0565b9150614aa782615773565b602082019050919050565b6000614abf602683614eb0565b9150614aca8261579c565b604082019050919050565b614ade816153b5565b82525050565b614aed816153b5565b82525050565b6000614aff8284614976565b915081905092915050565b6000602082019050614b1f600083018461489c565b92915050565b6000604082019050614b3a600083018561489c565b614b47602083018461489c565b9392505050565b6000606082019050614b63600083018661489c565b614b70602083018561489c565b614b7d604083018461489c565b949350505050565b60006020820190508181036000830152614b9f81846148ab565b905092915050565b60006060820190508181036000830152614bc181866148ab565b90508181036020830152614bd58185614909565b9050614be46040830184614967565b949350505050565b60006020820190508181036000830152614c068184614909565b905092915050565b6000602082019050614c236000830184614967565b92915050565b60006020820190508181036000830152614c4381846149a7565b905092915050565b60006020820190508181036000830152614c64816149e0565b9050919050565b60006020820190508181036000830152614c8481614a03565b9050919050565b60006020820190508181036000830152614ca481614a26565b9050919050565b60006020820190508181036000830152614cc481614a49565b9050919050565b60006020820190508181036000830152614ce481614a6c565b9050919050565b60006020820190508181036000830152614d0481614a8f565b9050919050565b60006020820190508181036000830152614d2481614ab2565b9050919050565b6000602082019050614d406000830184614ae4565b92915050565b6000604082019050614d5b6000830185614ae4565b614d686020830184614ae4565b9392505050565b6000614d79614d8a565b9050614d858282615457565b919050565b6000604051905090565b600067ffffffffffffffff821115614daf57614dae6155c1565b5b602082029050602081019050919050565b600067ffffffffffffffff821115614ddb57614dda6155c1565b5b602082029050602081019050919050565b600067ffffffffffffffff821115614e0757614e066155c1565b5b614e10826155f0565b9050602081019050919050565b6000819050602082019050919050565b6000819050602082019050919050565b600081519050919050565b600081519050919050565b600081519050919050565b600081519050919050565b6000602082019050919050565b6000602082019050919050565b600082825260208201905092915050565b600082825260208201905092915050565b600081905092915050565b600082825260208201905092915050565b6000614ecc8261537e565b9150614ed78361537e565b9250817f7fffffffffffffffffffffffffffffffffffffffffffffffffffffffffffffff03831360008312151615614f1257614f11615563565b5b817f8000000000000000000000000000000000000000000000000000000000000000038312600083121615614f4a57614f49615563565b5b828201905092915050565b6000614f60826153b5565b9150614f6b836153b5565b9250827fffffffffffffffffffffffffffffffffffffffffffffffffffffffffffffffff03821115614fa057614f9f615563565b5b828201905092915050565b6000614fb68261537e565b9150614fc18361537e565b925082614fd157614fd0615592565b5b600160000383147f80000000000000000000000000000000000000000000000000000000000000008314161561500a57615009615563565b5b828205905092915050565b6000615020826153b5565b915061502b836153b5565b92508261503b5761503a615592565b5b828204905092915050565b6000808291508390505b60018511156150905780860481111561506c5761506b615563565b5b600185161561507b5780820291505b808102905061508985615601565b9450615050565b94509492505050565b60006150a4826153b5565b91506150af836153b5565b92506150dc7fffffffffffffffffffffffffffffffffffffffffffffffffffffffffffffffff84846150e4565b905092915050565b6000826150f457600190506151b0565b8161510257600090506151b0565b8160018114615118576002811461512257615151565b60019150506151b0565b60ff84111561513457615133615563565b5b8360020a91508482111561514b5761514a615563565b5b506151b0565b5060208310610133831016604e8410600b84101617156151865782820a90508381111561518157615180615563565b5b6151b0565b6151938484846001615046565b925090508184048111156151aa576151a9615563565b5b81810290505b9392505050565b60006151c2826153b5565b91506151cd836153b5565b9250817fffffffffffffffffffffffffffffffffffffffffffffffffffffffffffffffff048311821515161561520657615205615563565b5b828202905092915050565b600061521c8261537e565b91506152278361537e565b9250827f80000000000000000000000000000000000000000000000000000000000000000182126000841215161561526257615261615563565b5b827f7fffffffffffffffffffffffffffffffffffffffffffffffffffffffffffffff01821360008412161561529a57615299615563565b5b828203905092915050565b60006152b082615388565b91506152bb83615388565b9250827fffffffffffffffffffffffffffffffffffffffffffffffffffffffffffffff80018212600084121516156152f6576152f5615563565b5b82607f01821360008412161561530f5761530e615563565b5b828203905092915050565b6000615325826153b5565b9150615330836153b5565b92508282101561534357615342615563565b5b828203905092915050565b600061535982615395565b9050919050565b600061536b82615395565b9050919050565b60008115159050919050565b6000819050919050565b60008160000b9050919050565b600073ffffffffffffffffffffffffffffffffffffffff82169050919050565b6000819050919050565b600060ff82169050919050565b82818337600083830152505050565b60005b838110156153f95780820151818401526020810190506153de565b83811115615408576000848401525b50505050565b60006154198261537e565b91507f800000000000000000000000000000000000000000000000000000000000000082141561544c5761544b615563565b5b600182039050919050565b615460826155f0565b810181811067ffffffffffffffff8211171561547f5761547e6155c1565b5b80604052505050565b60006154938261537e565b91507f7fffffffffffffffffffffffffffffffffffffffffffffffffffffffffffffff8214156154c6576154c5615563565b5b600182019050919050565b60006154dc826153b5565b91507fffffffffffffffffffffffffffffffffffffffffffffffffffffffffffffffff82141561550f5761550e615563565b5b600182019050919050565b60006155258261537e565b91507f800000000000000000000000000000000000000000000000000000000000000082141561555857615557615563565b5b816000039050919050565b7f4e487b7100000000000000000000000000000000000000000000000000000000600052601160045260246000fd5b7f4e487b7100000000000000000000000000000000000000000000000000000000600052601260045260246000fd5b7f4e487b7100000000000000000000000000000000000000000000000000000000600052604160045260246000fd5b6000601f19601f8301169050919050565b60008160011c9050919050565b7f45524331393637557067726164653a207570677261646520627265616b73206660008201527f7572746865722075706772616465730000000000000000000000000000000000602082015250565b7f4f776e61626c653a206e6577206f776e657220697320746865207a65726f206160008201527f6464726573730000000000000000000000000000000000000000000000000000602082015250565b7f4352000000000000000000000000000000000000000000000000000000000000600082015250565b7f496e697469616c697a61626c653a20636f6e747261637420697320616c72656160008201527f647920696e697469616c697a6564000000000000000000000000000000000000602082015250565b7f455243313936373a206e657720696d706c656d656e746174696f6e206973206e60008201527f6f74206120636f6e747261637400000000000000000000000000000000000000602082015250565b7f4f776e61626c653a2063616c6c6572206973206e6f7420746865206f776e6572600082015250565b7f416464726573733a2064656c65676174652063616c6c20746f206e6f6e2d636f60008201527f6e74726163740000000000000000000000000000000000000000000000000000602082015250565b6157f48161534e565b81146157ff57600080fd5b50565b61580b81615360565b811461581657600080fd5b50565b61582281615372565b811461582d57600080fd5b50565b6158398161537e565b811461584457600080fd5b50565b615850816153b5565b811461585b57600080fd5b50565b615867816153bf565b811461587257600080fd5b5056fe416464726573733a206c6f772d6c6576656c2064656c65676174652063616c6c206661696c6564a2646970667358221220722fd4e678f0c4799dd71094e3f898847582f10ada17148aa3f97e757fb7b00e64736f6c63430008030033",
  "linkReferences": {},
  "deployedLinkReferences": {}
}